:020000040800F2
:1000000000470220A102000887330108E12401080B
:100010008533010881F80008C5460108000000008A
:10002000000000000000000000000000DD010008EA
:10003000C9F90008000000003902000881400108E9
:10004000BB020008BB020008BB020008BB0200089C
:10005000BB020008BB020008BB020008BB0200088C
:10006000BB020008BB020008BB020008BB0200087C
:10007000BB020008BB020008BB020008BB0200086C
:10008000BB020008BB020008BB020008BB0200085C
:10009000BB020008BB020008BB020008BB0200084C
:1000A000BB020008BB020008BB020008BB0200083C
:1000B000BB020008BB020008BB020008BB0200082C
:1000C000BB020008BB020008BB020008BB0200081C
:1000D000BB020008BB020008BB020008BB0200080C
:1000E000BB020008BB020008BB020008BB020008FC
:1000F000BB020008BB020008BB020008BB020008EC
:10010000BB02000889330108BB020008BB020008DB
:10011000BB020008BB020008C1410108BB02000885
:10012000BB020008BB020008BB020008BB020008BB
:10013000BB020008BB020008BB020008BB020008AB
:10014000BB020008BB020008BB020008BB0200089B
:10015000BB020008BB020008BB020008BB0200088B
:10016000BB020008BB020008BB020008BB0200087B
:10017000BB020008BB020008BB0200080000000030
:10018000BB020008BB020008BB020008BB0200085B
:10019000BB020008BB020008BB020008BB0200084B
:1001A000CD290108BB02000861F90008BB02000864
:1001B000BB020008BB020008BB020008BB0200082B
:1001C000BB020008BB020008DFF80CD000F006F903
:1001D0000048004701490108004702202D4B1968DB
:1001E0000868B0E8F04F80F30988BFF36F8F4FF0D5
:1001F000000080F311887047000000000848006884
:10020000006880F308884FF0000080F3148862B61D
:1002100061B6BFF34F8FBFF36F8F00DF00BF00BF2A
:1002200008ED00E0DFF80C00016841F470010160A6
:10023000704700BF88ED00E0EFF30980BFF36F8FD8
:10024000144B1A681EF0100F08BF20ED108A20E929
:10025000F04F106009B44FF0500072B680F311886F
:10026000BFF34F8FBFF36F8F62B615F041F94FF0B8
:10027000000080F3118809BC19680868B0E8F04FE5
:100280001EF0100F08BFB0EC108A80F30988BFF38E
:100290006F8F704734000020EFF305807047000037
:1002A0000648804706480047FEE7FEE7FEE7FEE710
:1002B000FEE7FEE7FEE7FEE7FEE7FEE76D41010829
:1002C000C90100082DE9F05F0546002092469B46D3
:1002D00088460646814640241BE02846414647465C
:1002E000224600F06BF853465A46C01A914110D38B
:1002F00011461846224600F052F82D1A67EB010805
:100300004F4622460120002100F049F817EB000972
:100310004E41201EA4F10104DFDC484631462A4646
:100320004346BDE8F09F10B5441A0346944209D2F3
:100330008418114403E011F8013D04F8013D521EF8
:10034000F9D210BD40EA0104A40703D009E010C9A6
:10035000121F10C3042AFAD203E011F8014B03F86C
:10036000014B521EF9D210BDD2B201E000F8012BB0
:10037000491EFBD270470022F6E710B513460A4625
:1003800004461946FFF7F0FF204610BD034611F85A
:10039000012B00F8012B002AF9D118467047202ABA
:1003A00004DB203A00FA02F1002070479140C2F1CC
:1003B000200320FA03F3194390407047202A04DBFE
:1003C000203A21FA02F00021704721FA02F3D040CE
:1003D000C2F120029140084319467047064C074D70
:1003E00006E0E06840F0010394E807009847103405
:1003F000AC42F6D3FFF7ECFE4CBF01086CBF01081E
:1004000070B58C1810F8015B15F0070301D110F8D6
:10041000013B2A1106D110F8012B03E010F8016B03
:1004200001F8016B5B1EF9D12B0705D40023521E86
:100430000DD401F8013BFAE710F8013BCB1A921CEE
:1004400003E013F8015B01F8015B521EF9D5A142EC
:10045000D8D3002070BD00002DE9F047466886B073
:100460000546304601F034FAC36D0090D0F888405C
:10047000D0F88070D0F86880B0F87C90002B64D001
:10048000D3F800A0684601F0F7FA14B909E024682F
:100490003CB16368284698470028F8D006B0BDE80C
:1004A000F0872B68172B00F0A5801DDC0F2B00F0C8
:1004B0008D807DDC0B2B00F0BF800D2B0AD119F055
:1004C000080F07D1EB68DB6823B11B7A13B1304604
:1004D00008F07CFB3046294606F0C6FE0028DDD039
:1004E000284607F085F9D9E7262B75D02FDC1E2B7F
:1004F00000F0AE80202BEDD1EC68002CEAD0314624
:10050000606809F025FC002800F0C080304601F04A
:10051000DFF9B0F87C3002460190180740F12D81D8
:1005200001A801F0A9FA3146606809F0FFFB002834
:10053000D0D0304601F0CCF96268034601A801939F
:10054000C3F8802001F098FAC4E79A469AE72A2B6C
:1005500065D0B3F5107FBDD106AC3046D5F80C8020
:1005600001F0B6F9B0F87C7044F8140D204601F0A3
:1005700083FAEB68002B91D098F80830002B00F03C
:10058000AB80380740F1B780304606F0EDFF07F446
:100590008873B3F5887F81D107F080039BB2002B6D
:1005A0007FF47CAF41463046052208F0BDFA75E77E
:1005B000112B22D0142B8DD1304601A900F09AFBCB
:1005C00002ABEA6803CB1060516067E7BAF1000F35
:1005D00080D03046D0477DE7EB68022B7FF45EAFDA
:1005E000272206A9A86841F8142D0396049309F060
:1005F000ADFC53E7C5F80C8050E7EC68304601F0DD
:1006000067F901902389012B05D1B0F87C3043F4C0
:100610008073A0F87C3001A801F02EFA5AE730462A
:1006200001F056F9EB680090002B68D0C0F88430D8
:10063000684601F021FA31E7304601F049F90346F6
:100640007030009300F0EEFF684601F015FA41E7C4
:10065000EC68012C57D0002E3FF420AF02F0F6FAE0
:10066000304601F035F9B0F87C30024601901C07A5
:1006700006D523F008033046A2F87C3007F096FD3B
:1006800001A801F0F9F904F02FF907E7304601F06D
:100690001FF9B0F87C3002460190190706D523F007
:1006A00008033046A2F87C3007F080FD01A801F075
:1006B000E3F93146206809F039FB00283FF40AAF1E
:1006C000304601F005F92268034601A80193C3F8FA
:1006D000802001F0D1F9FDE6304601F0F9F803463B
:1006E0002046B3F87C20019322F48072A3F87C208A
:1006F00001F0C2F9D2E6304608F068FA44E7D0F8D3
:100700008430EB6094E7384608F070F820B3384640
:1007100008F05CFA384607F01FFCB0B926B9002F84
:100720007FF4BCAEEF60B9E602F090FA304601F01B
:10073000CFF8B0F87C3002460190190725D501A802
:1007400001F09AF904F0D0F8E9E72146384606F0BE
:100750007BFE002EE3D0E7E7404608F0A3FA074609
:10076000304601F0B5F803466846C3F88070009340
:1007700001F082F9002ED2D0D6E743F008033046CC
:10078000A2F87C3007F012FDCAE643F008033046B9
:10079000A2F87C3007F00AFDD1E700BF2DE9F04F49
:1007A0000F46B0F90C108FB0B0F90A6001EB030BE3
:1007B000B0F9083085691644049343686035B0F990
:1007C0000E80B0F91090B0F812A0059302F03EFA36
:1007D0004B4C4FF4805E03955946009730464B468C
:1007E00042460294CDF804E006F006FF054628B91B
:1007F00004F07AF828460FB0BDE8F08FDFF80891D2
:100800000EAE01F065F804993022069006F048FE1D
:1008100056F8207DCE464FF0000807F13404BEE8BC
:100820000F000FC4BEE80F000FC49EE80300189B22
:1008300084E803007B663046D9F8283041F28274A0
:10084000A7F87CA0FB65C7F88080C7F86C80C7F864
:10085000888001F011F909A928462A4F00F04AFAC8
:10086000BDF92AE0BDF92810BDF92C20BDF92E30C4
:100870000846521A0194CEEB030371460132CDF8BB
:100880000C8001330095029706F0B6FED9F82830A7
:10089000044628465B689847284601F019F8034645
:1008A00030469C66069301F0E7F8284607F0F6F814
:1008B00002F0CCF9284601F00BF8034607A81A6F9E
:1008C0000793089201F0D8F8059908A805F07CF87C
:1008D00038B904F009F804F007F828460FB0BDE86D
:1008E000F08F284600F0F4FF089A034607A81A671D
:1008F000079301F0C1F8284607F058FCE9E700BF6C
:1009000059040008150F0008C80000202DE9F04127
:10091000044690B0006800F0D5F9B04B6668A3F1CA
:100920002C05002808BF1D461C2E00F2F780DFE8CA
:1009300016F02200F500F500F500F5003500F50091
:10094000F500F500F500F5005100F500F500FA009E
:10095000F500F500F5000E01F500F50048014A012B
:100960004C014E01F500F500F5001D006E693046A2
:1009700010B0BDE8F081206800F0AAFF034610A87F
:10098000B3F85A2040F82C3D42F00C02A3F85A204C
:1009900001F072F8206808F005FAE8E72A690026F5
:1009A000B4F910300192B4F914701846EA68B4F939
:1009B00018503946B4F91C40ADF81C30009223465B
:1009C0002A46ADF81E70ADF82050ADF8224001F077
:1009D0004BFDCCE723681C2218460892079300F0D1
:1009E00077FF034607A805931B6D9847064605A8A1
:1009F00001F042F8012E40F32781A968334662696D
:100A000002916868A16901902F682069009704F03D
:100A10001BFC2769A3693744C6EB0308286803F069
:100A2000E9FC42463946606901F0F8FD686803F068
:100A3000E1FC606942463946013001F0EFFD6B6A26
:100A4000022B00F3F4802A6A964217DA6769012EB6
:100A5000206907F1020840F32A81024437443044F8
:100A60004146013A3B4601F0CFFEA069821B3B465E
:100A7000EF694146C01B013001F0C6FE012E40F374
:100A8000138163691E44E7692868013F03F0B2FCE3
:100A9000314620693A4601F05FFE3A463146A06988
:100AA00001F05AFEE769686803F0A4FC023F206980
:100AB00031463A46013001F04FFEA0693A463146D0
:100AC000013801F049FEEB69022B40F38280AB6AEA
:100AD000E769022BA868CCBFFF1A023F03F08AFC2B
:100AE000EA69022A00F39A802B6A022B00F38C80B9
:100AF000286803F07FFCA2692169E06901F08EFD9E
:100B0000686803F077FCA2692169E069013A013164
:100B1000013801F083FDAF6A022F61DC0026304608
:100B200010B0BDE8F08104F114012769A86800261F
:100B3000ADF81C700EC9ADF81E10ADF82020ADF850
:100B4000223003F057FC07A801F08AFE0FE7298B3B
:100B50002269A3690A4465695B1AE1692068ADF8F6
:100B60002030ADF81C20ADF81E50ADF8221000F07A
:100B7000AFFE036F0590FBB1022003F097FC059ACE
:100B8000B2F87C30C3F3C0030E3302EB83039868E2
:100B900003F030FC059B586B03F044FC059B186F79
:100BA00000F096FE059B07A90690B3F95A2001F0C4
:100BB00059FB06A800F060FF05A8002600F05CFFC6
:100BC000D5E6AE6AD3E6EE69D1E62E6ACFE66E6A66
:100BD000CDE62B6A022B8BDD79E700BF7001002088
:100BE000D4F81C800026A2692169A868951E8C1C77
:100BF00003F000FCC7EB08012A462046A8F10203D7
:100C0000013101F001FEB2E6A0693B46EF693146D1
:100C1000821EC01B013001F0F7FD69E720693B46E9
:100C2000314602440230013A01F0EEFD5CE7A8686B
:100C300003F0E0FB636938466F6A991C42463B4407
:100C4000013B01F0E1FD19E7286803F0D3FB2269BD
:100C5000EB69114660691A44013A01F0DFFCA369AF
:100C6000E9691A466069591A013101F0D7FC6769D0
:100C700020690137394601F0FDFC3946A06901F0D1
:100C8000F9FC686803F0B6FB20693946013001F0D1
:100C9000F1FCA0693946013801F0ECFC2769A36931
:100CA0000237A3F10208B9E666690236EBE60244B0
:100CB000434602304146013A474601F0A5FDA0698E
:100CC000821ED4E610B5044682B080B101F0BEFFAA
:100CD000204600F0FDFD02ABB0F87C4043F8040D67
:100CE0001846C4F3C00400F0C7FE03F0FDFD204623
:100CF00002B010BD2DE9F04F89B007460D4600F057
:100D0000E7FD034601213846DA6D059394682368B0
:100D10009847236803218046384698472368022174
:100D200083463846984723680021824638469847CC
:100D30008146059808F020FC0646059808F024FC3A
:100D400003460598448E04F02004A4B2B4B1B0F96F
:100D50005420B0F95840002A4AD091B2C06E0C44D9
:100D6000A4B280B103910292019307F0C9F8019BEC
:100D70000FFA80FC029A80B2039905E021462246D0
:100D8000C06E0028EED184461FFA89FE013E013B69
:100D90000FFA88F8CBEB060674440EF1FF3ECAEB5F
:100DA000030336B2044471446B812A8005A8A5F878
:100DB00002C0EC8069822E812E82A5F80480A5F8FD
:100DC0000C80A5F80E9000F057FE08AAB5F9104067
:100DD0003846B5F90C3006A942F8044D069300F0E8
:100DE0004BF8069A079BAA812B8209B0BDE8F08FC9
:100DF000406B019301F03EFE821C019B059891B26D
:100E000012B20C44A4B2BBE708B5438E03F0200332
:100E10009BB24BB10246B0F9540000B108BD506B13
:100E200001F028FE023008BD184608BD70B58AB032
:100E30000C46064600F04CFD0AABC26D43F8280D87
:100E40001846956800F018FE0196032C05D8DFE8D7
:100E500004F00F0C0902172302936B6801A898474E
:100E60000AB070BD15230293F7E716230293F4E747
:100E700018230293F1E700BF2DE9F04383B08846C1
:100E80000446914600F024FD034602A8DA6D40F8BE
:100E9000083D9568B3F90070B3F9026000F0ECFD0D
:100EA0002B682046002198470546204606F0AEFFF5
:100EB00068B3044607E001A800F0DEFD204606F016
:100EC000C3FF044618B3204600F002FDB0F902301B
:100ED00001909B1B9D42EED1836A1B060BD5B0F996
:100EE0000030D9F80020DB1B934203F1FF33E2DC32
:100EF000C9F80030DFE7B0F90430D8F80020DB1B78
:100F0000934203F10103A8BFC8F80030D3E703B050
:100F1000BDE8F0832DE9F043456887B004462846D4
:100F200006F0A0FF074600F0D3FC034606A85E6E5D
:100F300040F8143DD3F84880D3F8809000F09CFD31
:100F400023680E3B232B3FD8DFE803F035463E3EB7
:100F50003E3E12123E123E3E3E3E3E3E18243E3E75
:100F60002B3E3E3E3E3E3E3E3E3E3E3E3E3E3E30C2
:100F7000204606F03DFC07B0BDE8F083E368002B97
:100F8000F9D0B9F1000F3BD04D4539D0484607F0B4
:100F90001DFEF0E72146384606F066F907B0BDE8C9
:100FA000F083C4F80C8007B0BDE8F0830023E36051
:100FB00007B0BDE8F083E3685A68002A04DD1B68C7
:100FC000092B1DD00A2B1FD0002ED1D020466760E0
:100FD000B04707B0BDE8F0836FF07043984504D088
:100FE000404605F005FD00F009FE002EC3D002AF1B
:100FF00094E80F0087E80F0038460395B047BAE73A
:10100000284607F04FFEB6E7284607F093FEB2E702
:10101000204B70B51E6801F019FE1F4C00253046AC
:1010200005F0E6FC03F060FC1C4B1E6801F00EFEB0
:10103000304605F017FD03F057FC01F007FE0122D2
:1010400023681A7603F050FC01F000FE23689D85AA
:1010500003F04AFC01F0FAFD23685D8503F044FCCF
:1010600001F0F4FD284605F02FFD03F03DFC0C4B8C
:101070001D6801F0EBFD236805B1DD6103F034FC70
:1010800001F0E4FD236800229A76BDE8704003F089
:101090002BBC00BFB0000020B4000020AC0000203A
:1010A000A8000020014B83E803007047DC3F0220CA
:1010B000014B83E803007047E43F0220014B83E8C3
:1010C00003007047EC3F0220704700BF704700BF2D
:1010D0002DE9F04F5C4E8DB03368DA69B3F92250D8
:1010E000D469B4F80CB0834500F29780E18981425D
:1010F000C0F093802168CBEB000B08914FF0FF31DB
:101100000A91BBF1FF3F00F0828092F81880A27C28
:10111000B3F92A10B3F9249018FB02F3084607919B
:101120001F4694F810A005F0CFFCD6F800E008990F
:101130004346DEF838C05246099007FB0B10DEF834
:101140001CE00B97012704904946CDF814C02846AF
:1011500094F812C00297CDF80CC09EF81BC0DFF8BF
:10116000E8B0CDF804C09EF81AE0CDF800E004F035
:101170001BFE0A9F7B1C25D0079941F0020005F059
:10118000A3FCDBF800100B9A43460898D1F838C04E
:1011900002FB0700D1F81CE00127CDF814C0049031
:1011A000524694F812C0494602972846CDF80CC022
:1011B0009EF81BC0CDF804C09EF81AE0CDF800E000
:1011C00004F0F2FD3368DFF88080DB695A7E1B7E15
:1011D0009A4215D9079B022B12D083F0040005F028
:1011E00073FCD8F800302846DB691F7ED97E9A7ED2
:1011F0005B7E07FB01910AFB02524B4404F0DCFFCB
:101200009DF8240005F060FC3368B3F92250627C3D
:1012100015445D840DB0BDE8F08FA1680029F6D0BB
:101220000F88B842F3D3B1F802E08645EFD3C01B74
:101230004968676880B2089701EB800731F920B0F0
:10124000B7F902100A915CE7B4000020044B1B6858
:10125000DB69DB6909B11A7C0A60587C704700BF02
:10126000B400002002230B80704700BFC3699A8935
:101270008A4202D8DA898A4211D2986818B1038862
:10128000994201D20020704742888A42FAD3C91A93
:10129000436833F82100C043C0F3C03070470120D9
:1012A000704700BF2DE9F04F3A4D89B02B68DA69DD
:1012B000B3F92A90D36943B11A88904202D359886E
:1012C000814205D29B68002BF6D109B0BDE8F08FB2
:1012D000841AD3F80480484608EBC40696F802B096
:1012E00005F0F2FB8246286818F834204FF0010E12
:1012F000C769D0F838C0B0F92410B0F922003B7E9D
:101300000790CDF814C07068CDF80CB00490CDF8FB
:1013100008E097F81BE00798CDF804E0BF7E00973F
:1013200004F042FD2B68DA69537E177EBB4223D955
:10133000B9F1020F07931FD092F81BB001F000FB28
:10134000814601F0C7FA03F055F8124B18F834E063
:101350001868079BC169B0F92240CA7EB0F9241011
:1013600020460EFB02420BFB03130BFB071104F09C
:1013700023FF484603F03EF8504605F0A5FB2B68D6
:101380007178D8695A8C807E00FB01225A8409B09A
:10139000BDE8F08FB4000020114B1B6870B4DD690C
:1013A000EB6943B11A88904202D35C88844205D22B
:1013B0009B68002BF6D1184670BC7047821A5E6895
:1013C000AC7E06EBC2035B7813FB04F00029F3D07C
:1013D00016F8323014FB03F370BC0B60704700BF8B
:1013E000B400002001230B80704700BFC06950B1DA
:1013F00003888B4202D843888B4203D2806800283E
:10140000F6D17047012070472DE9F047244F3D6821
:10141000002D3FDD234EC5EB4515DFF88C804FF0E6
:10142000000A3468D8F8009004EB85050C340C35BC
:10143000A4F10803742249461846FEF774FF221FE0
:101440002063A06344F80CAC6263E4607C34A54282
:10145000EED10024254603E082B13A68954213DAC2
:101460000EF0A8FB336801351A5919197C349042E3
:10147000F2D10431C8F80010BDE8F08708600431EB
:10148000C8F80010BDE8F08719460431C8F800100C
:10149000BDE8F087034BDFF810801968E9E700BF6B
:1014A0001C01002088410220B4000020F8B5184F2C
:1014B000184B3846184E40F80C3F04F071FA346867
:1014C000C4EB4414A400204600F0D2F8134B22468B
:1014D00000211B68386098474FF0FF3373600EF0AF
:1014E0006FFB3368002B0FDD0024254603E062B15B
:1014F00033689D4208DA0EF05DFB3B6801351A59EE
:1015000023447C349042F2D1F8BD1860F8BD00BF8E
:1015100088410220D1E400081C010020280100209D
:1015200000B9704710B5044601F090FB204608F062
:101530008BFF044603F0D8F9204610BDF8B50546E8
:1015400001F084FB25B9002403F0CEF92046F8BD54
:1015500001F07CFB284608F077FF044603F0C4F94D
:10156000002CF0D0144E2A46144F0021F069736B02
:10157000013003EBC405F06113F83400013003F8C7
:1015800034006D683B6805F1080098472968726B64
:1015900012F83130012B01D9F06930B9013B02F862
:1015A000313003F0A1F92046F8BD0138013BF0616C
:1015B00002F83130F5E700BFF44102202801002095
:1015C00021F00301014B83E803007047F43F022040
:1015D00000B9704770B50D4C054601F037FBEE00C1
:1015E000636B33445968486808F080FD6368626B38
:1015F0000021606A013316446360706002F83510A0
:101600006562BDE8704003F06FB900BFF44102208D
:1016100028B1034AD36B036003B15860D0637047AD
:10162000F4410220F8B5054601F010FB2C68B4B176
:101630000E4E01F00BFBE700736B3B4459684868A2
:1016400008F054FD7368726B0020716A013317440F
:101650007360796002F83400746203F045F9002386
:101660002B60BDE8F84003F03FB900BFF441022011
:10167000F8B58B4E044696F82830002B2FD0033453
:10168000356CF26B24F003040434A54238BF2546C0
:1016900062B152F8043C14469D4204D114E054F85F
:1016A000043C9D4210D02468002CF8D1F368B46B40
:1016B0001C4454F8041C611A0B68002B68D14B6859
:1016C0009D426FDD002408E023680BB1616859601A
:1016D000616801B10B60A24256D02046F8BD714B43
:1016E00001219A6886F8281058680AB982089A6019
:1016F0005A27102220254FF0400E3762802732648F
:101700004FF48072B5644FF400751968C6F850E064
:101710004FF4806EB7654FF4006732664FF4805225
:10172000B5664FF40055A1F11403C6F870E0B76731
:101730004FF4804EC6F880204FF40047C6F888501A
:101740004FF480324FF400350344C6F890E04FF474
:10175000802EC6F898704FF40027C6F8A020022209
:10176000C6F8A8500125B1637363C6F8B0E03261D2
:10177000F060C6F8B8705D607562756008F0B6FC20
:101780000BF0BAFA35637AE723682046F363F8BDB5
:1017900000200DF069F954F8041C611A0B68002B45
:1017A00090D18CE7581BD6F8B8703D4A041DBB4257
:1017B0000C4472D2D2F8B070BB426CD2D2F8A8708E
:1017C000BB4266D2D2F8A070BB4260D2D2F8987009
:1017D0009F425AD9D2F89070BB4254D2D2F8887046
:1017E000BB424ED2D2F88070BB4248D2926F934235
:1017F00043D2376F2A4ABB423DD2976EBB4238D2A2
:10180000176EBB4233D2976DBB422ED2176DBB42CF
:1018100029D2976CBB4224D2126C93420CD2F2684C
:101820007369521B2B44F260736110B944F8045C75
:1018300053E708F05BFCF9E700223768D1F808E0CD
:10184000FF1ACB683760BEF1000F01D0CEF804302C
:1018500013B1C3F800E0E2E706EBC202C2F844E0CD
:10186000DDE70122E9E70222E7E70322E5E70422B8
:10187000E3E70522E1E70622DFE70722DDE70822AA
:10188000DBE70922D9E70A22D7E70B22D5E70C22AA
:10189000D3E70D22D1E70E22CFE70F22CDE700BF1D
:1018A000F4410220F43F022030B1044B5B6B03EBA8
:1018B000C000436858680C38704700BFF4410220EC
:1018C000024A936901339361704700BFF4410220DB
:1018D000084AD169536B013110B4D16103EBC004E4
:1018E00013F83020013203F8302060685DF8044BB3
:1018F00008307047F4410220F8B5584C01F0A6F9C1
:1019000094F82830002B57D0D4F8BC30534A9BBBF6
:10191000D2F8B43083BBD2F8AC306BBBD2F8A43071
:1019200053BBD2F89C303BBBD2F8943023BBD2F8E7
:101930008C300BBBD2F88430F3B9D36FE3B9536F5B
:10194000D3B9E36EC3B9536EB3B9D36DA3B9536DB5
:1019500093B9D36C83B9536C73B96FF00B034049DF
:10196000DA1781FB0313C2EB6313246A04FB03F44D
:1019700002F0BAFF2046F8BD9B68002BF5D000228C
:1019800001E09B6843B159681046914201D90A466B
:1019900008469B68002BF4D10C38B0F5800F034645
:1019A000DDD8226A2E4B02FB00F0A3FB00235C096A
:1019B00002F09AFF2046F8BD2A4B01219A6884F86C
:1019C000281058680AB982089A605A2610222025E1
:1019D00040272662802622644FF48072A5644FF46B
:1019E0000075196827654FF48067A6654FF4006697
:1019F00022664FF48052A5664FF40055A1F11403FE
:101A00002767A6674FF48047C4F880204FF400464C
:101A1000C4F888504FF480324FF400350344C4F8C2
:101A200090704FF48027C4F898604FF40026C4F8F3
:101A3000A0200222C4F8A8500125A163636322619B
:101A4000E060C4F8B070C4F8B8605D60656265605D
:101A500008F04CFB0BF050F9256355E7F4410220E8
:101A60001F85EB51F43F0220024A9369013B9361C9
:101A7000704700BFF441022003680B4A30B40446AB
:101A800053F8085C506B10F83530012B03D9D1693D
:101A900009B10139D1610022013B00F8353010460F
:101AA000226030BC704700BFF4410220034B5B6BE7
:101AB00003EBC00040680830704700BFF4410220CB
:101AC00070B50D46044601F00FF900222B46C1B255
:101AD0002046BDE8704000F001B800BFB0F1004FF3
:101AE0002DE9F04346D0002851DB00254D1B4FF077
:101AF000000EEDB20AB1013DEDB275B36C1EAA4203
:101B0000274F4FF03108DFF89CC0E4B21ED057F8E1
:101B1000246090FBF6F1C9B20A2901F1010906FB24
:101B200011001AD824B9BEF1000F01D05FFA89F173
:101B30000A2901F1300115D01D686E1C1E60297044
:101B40005CB125466C1EAA42E4B2E0D119684E1C75
:101B50001E609CF800600E70D9E71B6800221A70A6
:101B6000BDE8F08319682C464D1C1D60254681F8A0
:101B70000080E7E71C684FF0010E4D1E2D2104EB9D
:101B80000E066FF00040EDB21E602170B2E71C68D7
:101B900001252D26404267191F602670A6E700BF69
:101BA0005C640108B8420220C3B2CAB29A1A92B267
:101BB00010B414B2002C1EDBC1F30722C0F30723BC
:101BC0009B1A9BB21AB2002A12DB090C02FB02F22A
:101BD000C1EB104104FB042089B20CB2002C01DAE5
:101BE00049420CB2A1B25DF8044B01FB0100704701
:101BF0005B421AB2E9E7524214B2DDE700212DE957
:101C0000F041084682B000F04BFF184F01F01EF87B
:101C1000042004F059FF164B43F6FF763D461B693E
:101C2000804634466846DA6C1B6D174416441D44E2
:101C30001C44ADF80070ADF80460ADF80250ADF88A
:101C4000064007F0A9FC48B12346324629463846EB
:101C500004F0B2FA07F032FB0028F5D1404604F058
:101C600033FF02F041FE02B0BDE8F08101C0FFFF8A
:101C7000A40000202DE9F047044682B00D46164628
:101C8000002B37D09A46009651460B9B204626687B
:101C90000A9AB047074618B9384602B0BDE8F0873F
:101CA00006F09AF8618A8046384605F0CDFB013D82
:101CB000384607F0E3F8404607F0E0F8002D1DDD58
:101CC0004FF0000903E007F0D9F8013D16D054F8B1
:101CD0001C6F0023CDF80090414620461A46B047BD
:101CE00006460028EFD1384605F0B2FD304602B076
:101CF000BDE8F08706F07EF88246C4E740461D2125
:101D000006F0BEFEBAF1FF3FC6D000F09FFF06F01E
:101D10008BF860B9BA4502D0384606F0C3FF02F02E
:101D2000E3FD384602B0BDE8F0870028F4D0FFF7A5
:101D3000BDFE80698742F8D1F1E700BF012B17DCB7
:101D40002DE9F04107461C2090460D461E46FFF740
:101D50008FFC0446D0B16DB1056100232046A66119
:101D6000A4F81480E76023606360A360BDE8F0819D
:101D700000207047074B53F826200AB9EDE71A46B2
:101D80001368002BFBD113692361E6E70020BDE84F
:101D9000F08100BFCC420220012B3BDC2DE9F8434F
:101DA00081461C2090460F461E46FFF761FC054603
:101DB00000287FD0414A002F31D00023DFF804E112
:101DC00052F8264003609EF8001007618E4286613B
:101DD000A0F81480C0F80C904360836002DB731C91
:101DE0008EF80030002C5DD021464C68002CFBD1D1
:101DF000D9F80000CB681B6883422CDD09680029F4
:101E0000F8D148B92E4B163628461A6842F82650A3
:101E1000BDE8F883002070472846BDE8F88352F8F3
:101E20002610002930D0084600E018460368002B31
:101E3000FBD10069DFF88CE02B6028619EF8000080
:101E4000AE618642A5F81480C5F80C906B60AB605B
:101E5000CBDB0C46C3E70AD04B6843B31D606B6015
:101E60008D4214BF0B4600234D602B60C9E7B8F1CB
:101E7000010FF1D104E0DC68194623688342EBDBF3
:101E80000B68002BF7D1E7E7DFF838E001609EF838
:101E9000003086619E42A0F81480C0F80C9041602A
:101EA0008160D6DA42F82650D9F80000A9E742F856
:101EB0002650D5E70020BDE8F88300BFCC420220C1
:101EC000B4000020C5420220FFF7A2BB00283DD08D
:101ED00070B48469012C03DD0123184670BC70477F
:101EE0001F4B1A78944221DA1E4D55F824300BB955
:101EF00032E013465A68002AFBD1C268116802E03A
:101F00001B68002BE8D0DA6812689142F8DB10D029
:101F10005A68F2B110604260984214BF1A4600221B
:101F2000586000230260184670BC7047621C1A702B
:101F3000DAE7828A012AEBD104E0D66813463268D8
:101F40009142E5DC1A68002AF7D1E1E7012318463F
:101F5000704745F82400DFE745F82400BDE700BFDF
:101F6000C5420220CC42022000284DD02DE9F0418C
:101F7000DFF89CE0254F9EF80060BC4601E0284653
:101F80003DB384690568012CF9DCB44201DB661CB1
:101F9000F6B257F824300BB933E013465A68002ADA
:101FA000FBD1C268116802E01B68002BE7D0DA6839
:101FB00012688A42F8DC10D05A68A2B11060426000
:101FC000984214BF1A460022586002602846002D2D
:101FD000D7D18EF80060BDE8F081828A012A0CD04A
:101FE0005A68002AEAD147F82400E9E7D2F80C80C1
:101FF0001346D8F800208A42DEDB1A68002AF5D1A1
:10200000DAE74CF82400BAE7704700BFCC42022060
:10201000C54202200F4A816952F8213098420AD005
:1020200042680AB103681360036803B15A60002371
:10203000036043607047036842F821302BB10022EF
:102040005A604268002AEED1F0E74268002AEAD1DD
:10205000EDE700BFCC4202200020704701280EDCD3
:10206000084B53F8200058B1C3681B681BB908E03F
:10207000C3681B6823B100680028F9D170470020AD
:1020800070477047CC4202202DE9F84307460DF017
:1020900093FDDFF86C9007440DF08EFDDFF864804F
:1020A0003E1A002E22DD00F081FBD9F800309E425E
:1020B000A8BF1E4600F0CAFDD8F80040FFF700FC9C
:1020C000B4B1254602F010FC013DFBD130460DF0C5
:1020D0006FFD00F0BBFD013CFBD1FFF7C5FC02F03A
:1020E00003FC0DF069FD3E1A002EDCDCBDE8F88330
:1020F00030460DF05DFDFFF7B7FC02F0F5FBF0E7B1
:10210000B80000208C4102202DE9F04F4A4D83B0E9
:10211000044600F09BFD00F02BFC2B680646B3F94B
:10212000228000F083FC2B681FFA80F99A8CC9EB9F
:10213000020212B29A84217800294FD0B6B22F46FB
:1021400047F6FF71204603F087FA01468346204692
:1021500003F042FA29688B8D03F00303012B5AD058
:10216000022B5CD01FFA80FA4FF0000E4B8C0AF164
:10217000FF3CB1F92420CEEB0303ADF80220013A75
:102180009BB2B0186A460FFA83FE6344ADF80600AE
:102190002046A1F822E05946ADF800E0ADF8043041
:1021A00002F0ECFD2B682046BDF8022059469A84C7
:1021B00002F070FA235C04440A2B1BD00D2B19D0BB
:1021C000BDF800003B688244A3F822A022781AB12F
:1021D00062780134002AB3D1B3F92420998D914457
:1021E00021F00302A3F824909A8502F07DFB03B04E
:1021F000BDE8F08F2B689A8D02F00302013A012AA4
:1022000016D8A3F8228022780A2AE0D19A8C324488
:102210009A842278DBE71FFA80FEF246A6E70028C0
:1022200003461FFA80FAB8BF431CC3F34F0E9DE765
:102230001A8C5A84E7E700BFB400002070B50E4640
:102240001546044600F002FD054B1B685E849D8424
:1022500014B12046FFF758FFBDE8704002F044BBC0
:10226000B400002020B3F0B50C4683B005461646F6
:1022700000F0ECFCD4B1204606F0F0FD074638B182
:1022800002462146684603F05FFA684606F0E6FD1E
:102290003246214647F6FF73284602F0D1FD384604
:1022A00006F0DCFD02F020FB03B0F0BD2746EFE7AF
:1022B000704700BF2DE9F04F91B080461E460F4693
:1022C000914600F0C3FC674B0EA81C68E56C246DBA
:1022D00005EB080305EB0902E1193444029301926E
:1022E00007910894ADF83830ADF83C20ADF83A10BD
:1022F000ADF83E4007F050F9002800F09780019BB0
:10230000029A1A99C2EB030B9DF86820C1F30724C7
:102310001B99BBF1000F5B46C1F307271A99B8BFA1
:102320000BF101030BFB02FEC1F307401B995B108D
:102330009DF86CC0C1F307461A9903EB0E05090E10
:102340000A950BFB04353C1B03940BFB0034301A3D
:102350000BFB01335E460B950D931B9B0C94C1EB5D
:10236000136304900593C2EB0C03069300F0E8FAA4
:102370001A9B1B9A099093426AD0002E52D0029D5C
:10238000019A95425CDC0AAF86464FF0010B97E854
:10239000800706E00BF1010B0135019BA646AB421D
:1023A0002FDB70469AFBF6F499FBF6F197FBF6F3F8
:1023B00098FBF6FC2206059C43EA0C23A24442EA61
:1023C0000144049A1C43029B9144069AAB42174471
:1023D000039A9044E0DA7445DCD004F043FBBBF18F
:1023E000010FCBEB0500089B05F1FF32079922D0C6
:1023F00003F0E2FE0135019B4FF0010BA646AB4214
:10240000CFDA204604F02EFBBBF1010F1AD0019A5F
:10241000089BCBEB02000799013003F0CDFE099831
:1024200004F020FB06F04AFF00289FD102F05CFA7E
:1024300011B0BDE8F08F1A46681E03F095FEABE7B9
:1024400004F010FB089A0799019803F08DFEE6E767
:10245000184604F007FB089B019A0799029803F0BD
:10246000ABFEDCE7B40000202DE9F04F91B08046D0
:102470001E460F46914600F0E9FB674B0EA81C680C
:10248000E56C246D05EB080305EB0902E119344402
:102490000793089202910194ADF83830ADF83C20D2
:1024A000ADF83A10ADF83E4007F076F8002800F09D
:1024B0009780019B029A1A99C2EB030B9DF8682042
:1024C000C1F307241B99BBF1000F5B46C1F307273B
:1024D0001A99B8BF0BF101030BFB02FEC1F30740D1
:1024E0001B995B109DF86CC0C1F307461A9903EB6A
:1024F0000E05090E0A950BFB04353C1B03940BFBE0
:102500000034301A0BFB01335E460B950D931B9B79
:102510000C94C1EB136304900593C2EB0C03069378
:1025200000F00EFA1A9B1B9A0990934269D0002E74
:1025300052D0029D019A95425BDC0AAF86464FF06D
:10254000010B97E8800706E00BF1010B0135019BB9
:10255000A646AB422FDB70469AFBF6F499FBF6F1E8
:1025600097FBF6F398FBF6FC2206059C43EA0C2346
:10257000A24442EA0144049A1C43029B9144069AF5
:10258000AB421744039A9044E0DA7445DCD004F07F
:1025900069FABBF1010FCBEB050105F1FF33089A96
:1025A000079822D003F008FE0135019B4FF0010B84
:1025B000A646AB42CFDA204604F054FABBF1010F35
:1025C00019D0019B089ACBEB03010798013103F066
:1025D000F3FD099804F046FA06F070FE00289FD13A
:1025E00002F082F911B0BDE8F08F691E03F062FDC0
:1025F000ACE704F037FA089A0199079803F05AFDFE
:10260000E7E7184604F02EFA019B089A029907980A
:1026100003F0D2FDDDE700BFB4000020F0B5144F99
:1026200083B006460D46144600F010FB3B68684632
:10263000196DDA6C0E441544144433B2ADF80050F1
:10264000ADF80440ADF80230ADF8063006F0A4FF56
:1026500050B13B682246314628465B6E1B6898475E
:1026600006F02CFE0028F4D102F03EF903B0F0BDD4
:10267000B400002070B5134E82B005460C4600F041
:10268000E5FA33686846DA6C1B6D15441C442AB2BF
:1026900023B2ADF80420ADF80020ADF80630ADF857
:1026A000023006F079FF48B13368214628465B6E58
:1026B0005B68984706F002FE0028F5D102F014F995
:1026C00002B070BDB40000202DE9F04782B004468E
:1026D00089469246984600F0B9FA1E4B68461F6834
:1026E0003E7EFD6C013E3F6D2C445544B2B2B94470
:1026F000B844A61A5119C2EB09034244ADF8006070
:10270000ADF80410ADF80230ADF8062006F044FF35
:10271000D8B109F1010708F1FF362A46494620469B
:1027200003F0C8FC2A464146204603F0C3FC32466B
:102730003946204603F018FD32463946284603F054
:1027400013FD06F0BBFD0028E7D102F0CDF802B082
:10275000BDE8F087B400002070B582B0064614468C
:102760000D4600F073FA104B68461A68D36C126D70
:102770001E441544144433B2ADF80250ADF806407F
:10278000ADF80030ADF8043006F006FF40B1224647
:102790002946304603F0E8FC06F090FD0028F6D10B
:1027A00002F0A2F802B070BDB40000202DE9F041A3
:1027B0000025124F124EDFF84C803C681CB1A04738
:1027C000041C18BF012405F07DF93368002818BFE8
:1027D00001244BB1984738B1D8F8003013B1012427
:1027E00098473CB10125E8E7D8F80030002BF7D135
:1027F000002CF7D12846BDE8F08100BFF04202204E
:10280000F4420220EC420220F0B583B0074616469F
:102810001C460D4600F01AFA104B68461B68DA6C2D
:102820001B6D174416441D441C44ADF80070ADF8F0
:102830000460ADF80250ADF8064006F0ADFE48B1B8
:10284000234632462946384603F0B6FC06F036FDEC
:102850000028F5D102F048F803B0F0BDB400002024
:10286000F0B583B0B0F90070B0F90260B0F904506F
:10287000B0F9064000F0EAF9104B68461B68DA6CC4
:102880001B6D174415441E441C44ADF80070ADF890
:102890000450ADF80260ADF8064006F07DFE48B188
:1028A00023462A463146384603F086FC06F006FDEC
:1028B0000028F5D102F018F803B0F0BDB4000020F4
:1028C000034B082153F82000C3689B6A184700BFD8
:1028D000CC42022010B500F0B9F903F0ADFC03F0D2
:1028E0004BFE044602F000F8204610BD10B5044629
:1028F00000F0ACF9054B002120461B68DB695B68E2
:102900009847044601F0F0FF204610BDB4000020B7
:1029100038B504460D4600F099F9064B2946204685
:102920001B68DB695B689847044601F0DDFF2046C1
:1029300038BD00BFB400002008B105F025BA7047CB
:1029400010B500F083F903F07FFC03F015FE044698
:1029500001F0CAFF204610BD10B500F077F9034B17
:102960001B681C7C01F0C0FF204610BDB400002095
:1029700010B500F06BF9044B1B68DB695C7E01F05D
:10298000B3FF204610BD00BFB400002010B500F01A
:102990005DF9054B1B68DB691C7EDB7E14FB03F4D1
:1029A00001F0A2FF204610BDB400002070B504461F
:1029B0000E46154600F04AF9204631462A4603F0F5
:1029C000B1FC044610B1002333602B6001F08CFF92
:1029D000204670BD38B505460C4600F037F9064A6A
:1029E000064BB2F90020B3F900302A602360BDE83D
:1029F000384001F079BF00BFBA420220BC42022039
:102A000010B5044602F050FE01462046BDE81040D5
:102A100002F0E2BD044B3422352061219A70187017
:102A200018461971DA7070479C00002010B500F04C
:102A30000DF90F4B1A68938D03F00C03082B08D087
:102A40000C2B06D0042B0BD0002401F04DFF2046A8
:102A500010BDD3691C7E01F047FF6408204610BDFD
:102A6000D3691C7E01F040FF013C204610BD00BF31
:102A7000B4000020027EC07E02FB00F0704700BF61
:102A8000024B53F820301B6918687047CC42022073
:102A9000024B53F820301B6958687047CC42022023
:102AA00038B505460C4600F0D1F8044B1B685D8430
:102AB0009C8401F019FF002038BD00BFB400002045
:102AC00090B583B000AF544A534B1B6823F0010309
:102AD0001360524B1B68C3F30A0340F2494293420E
:102AE0000CBF01230023DAB24C4B1B68C3F30A036B
:102AF00040F251418B420CBF01230023DBB2134350
:102B0000DBB21946454B1B68C3F30A0340F252423D
:102B100093420CBF01230023DBB20B43002B10D0E8
:102B20003F4B01221A6000BF3D4B1B68002BFBD1BD
:102B30003C4B3D4A1A603B4B1B683C4A934218D0C1
:102B4000FEE73B4B1B68C3F30A03B3F58A6F10D152
:102B5000384B01221A6000BF364B1B68002BFBD19B
:102B6000354B314A1A60344B1B68304A934200D0CF
:102B7000FEE702F0C1F8314B2E221A700DF01EF85C
:102B80002F480BF033FA0CF07DFD786003F044FC25
:102B90000346002B0CBF01230023DCB203F082FCB0
:102BA0000346002B0CBF01230023DBB22343DBB21F
:102BB000002B09D003F046FC044603F089FC0346D1
:102BC0001946204603F07AFF0021002001F04EFC58
:102BD00005F0D0F9FEF718FC1A4B1B68002B12D039
:102BE0000DE0184B1B681B68002B03D0154B1B68AE
:102BF0001B689847134B1B685B68124A1360114BA4
:102C00001B68002BEDD1104B01221A707B6818460F
:102C10000C37BD4690BD00BF002000E0002004E05E
:102C20000830024000300240C2A507F4CDB5E8B537
:102C30000010005C084C0258004C0258B8420220B8
:102C40000840022080400220C44202202DE9F041C9
:102C5000224D6B6823B10CF0ADFFAB68984204D0F5
:102C60000CF0C0FF0CF0A6FFA8606B680133012BCD
:102C70006B6001D0BDE8F081194F3B68002B28DD67
:102C80000024264605E03AB301363B687C349E4278
:102C90001FDA0CF08FFF2B681A5923449042F2D1AF
:102CA0007B68B342E6D0002B10DBC3EB43132A68EA
:102CB00002EB8308FFF7D0F92A680A4B1444C8F8DE
:102CC0007800221DA06F1A60FFF74EF97E60BDE804
:102CD000F08100242646E3E71860E1E788410220FE
:102CE0001C010020B400002080EAE0730246A3EB40
:102CF000E073092B1FDD632B20D9B3F57A7F20D336
:102D000042F20F718B421FD917498B421FD91749C5
:102D10008B421FD916498B421FD916498B421FD9A6
:102D200015498B428BBF0A20092009230823002A5A
:102D3000B8BF981C704701200023F8E70220012348
:102D4000F5E703200223F2E704200323EFE7052041
:102D50000423ECE706200523E9E707200623E6E73E
:102D600008200723E3E700BF9F8601003F420F00D2
:102D70007F969800FFE0F505FFC99A3B10B582B039
:102D800028B9134B1B681C6E14B902B010BD044661
:102D9000FFF75CFF2046FEF79BFD02AB446943F85A
:102DA000080D1846FEF768FE1CB901F09DFD02B043
:102DB00010BD204602ACFEF78BFD826844F8040D7E
:102DC000936898472046FEF757FE01F08DFDEEE729
:102DD000B400002000B97047014A114600F002B863
:102DE00001F0FFFF2DE9F047DFF8F88084B00C46D2
:102DF00015460646FFF72AFF002001F007FBD8F82A
:102E00000030814630461F6EFEF762FD0368009079
:102E1000986901F0C3FA324B82469C42009B53D022
:102E20001A895B89013AADF80840013BADF80A50B8
:102E300022442B44ADF80C20ADF80E3004F038FBE2
:102E40006846FEF719FE02A806F0A6FB48BB5046EE
:102E500001F0A4FAFFF7FAFE002F3DD0D8F80030B9
:102E60001B6EB3BB04F0B4FC3846FEF731FD04AC76
:102E7000D8F8003044F80C0D1F660068FFF726F8FC
:102E80002046FEF7F9FD03F08BFE03F0DDFD01F0B7
:102E90002BFD484601F0BAFA01F026FD04B0BDE86A
:102EA000F0872A462146304600F0B0FC06F006FACC
:102EB0000028CCD02A462146304600F0A7FC06F078
:102EC000FDF90028EDD1C2E7B3F90440B3F906508B
:102ED000A6E701F055FAC5E701F052FAD7E700BFBF
:102EE00001F0FFFFB40000202DE9F04385B0064655
:102EF000904699460F46FFF7A9FE1C4A1C4B1268E4
:102F0000507C53F8204001E02468FCB1E3681A6863
:102F1000042AF9D1DB6A0121204698470546D8B139
:102F20002469A3689847013018D00C994B46029445
:102F30004246009130460195394600F0E3FA0446D6
:102F400001F0D2FC204605B0BDE8F083FFF786F81B
:102F5000044648B1C368DDE70446F1E70C9B054C25
:102F600043F001030C93E0E72046ECE7B4000020B7
:102F7000CC420220B463010800B9704710B582B09A
:102F80000446FFF763FE104B1B681B6E9C4217D074
:102F90002046FEF79DFC4369019063B90068FEF787
:102FA00093FF01A8FEF768FD2046FEF711FB01F034
:102FB0009BFC02B010BD184601F07CFC0198EDE7C7
:102FC00001F0DEF9E4E700BFB40000202DE9F04F86
:102FD00087B0044692461D468946FFF737FE574B99
:102FE0001A68574B577CDB573846012B40F39A80C1
:102FF00003F018FA0646384603F05AFA0746002C42
:1030000000F08D8005A904A8FFF7E4FC049A059B55
:103010001644B4F900201F44B4F9023022EAE272E7
:10302000013E23EAE373013F114602921846B4F9C8
:10303000042003939642D4BFC1EB0601C1EB020109
:10304000B4F9063002460E469F42D4BFC2EB0702D7
:10305000C2EB030201361746013705B97D42002E47
:103060004FDD002F4DDD109B3246039900932B4618
:103070000298FFF739FF8046002848D000F098F802
:103080008742064604D02D4B1B68986C002851D10E
:1030900040463D460024DFF8ACB000F095F90EE064
:1030A000AD1BACB950463444C847DBF80030FF20B4
:1030B00003B198474046FFF78DFEA74212DDAE42AE
:1030C000EEDD2946404600F05FF9AD1B002CE9D04B
:1030D000039B404602991A1900F0A6F94046FFF7F3
:1030E0004DFEDFE74046FFF747FF002000F06CF998
:1030F000B74206D0114B1B68986C10B1332106F013
:1031000043FF01F0F1FB002007B0BDE8F08F50460F
:10311000C84701F0E9FB012007B0BDE8F08F039438
:1031200002949AE703F028F90646384603F04EF970
:10313000074664E7322106F027FFA9E7B400002024
:10314000C8420220CC41022030B5044683B098B179
:10315000FFF77CFD2046FEF7BBFB036802AD1B6951
:1031600045F8040D9B68984703F03AFE044628464C
:10317000FEF782FC01F0B8FB204603B030BD00BF73
:10318000A0B110B5044682B0FFF760FD2046FEF7FF
:103190009FFB02AB00F1180443F8040D1846FEF73C
:1031A0006BFC01F0A1FB204602B010BD704700BFD0
:1031B00010B5044682B0FFF749FD7CB12046FEF70A
:1031C00087FB02ABB0F90A4043F8040D1846FEF73E
:1031D00053FC01F089FB204602B010BD044B1B6874
:1031E0001C6E002CEAD101F07FFB204602B010BD1E
:1031F000B40000202DE9F04F804687B0002758E04A
:10320000002E7ED104F0F6FD804500F09A80584BE8
:1032100001264946224602935846564B0096019392
:103220002B4600F06FF981464046FEF751FB0346FE
:103230000590C0F82490B9F1000F79D0826A05A8F2
:10324000DFF840B142F480329A62FEF715FC48463E
:1032500000F0BAF882463046474E01F09DFB4846E2
:10326000FFF78EFF454B05FB04F2454C19789200A1
:103270003568A84740462568CBF8008004F000FE7A
:103280002060404606F094FD002225601046CBF8F1
:10329000002001F081FB504600F096F84046FEF712
:1032A00005FC406AB0FA80F35B090137042F22DC89
:1032B0000BB34046FEF70CFB034605A8B3F900B07C
:1032C000B3F90290B3F90440B3F90650CBEB040410
:1032D0000593C9EB05055E6A0134FEF7CDFB0135A8
:1032E000002DC8BF002CD4BF0123002388DC013788
:1032F0000020042FDCDD08B100F0D2F807B0BDE8F3
:10330000F08F3046FEF7E4FA034606A8B3F90650FC
:1033100040F8083DB3F90440FEF7AEFBA94501D1E2
:10332000A345BBD04A465946304600F07DF8B5E784
:1033300005A8FEF7A1FB404606F03AFD3346484695
:10334000B3E703F053F8064603F096F8B44202DC04
:1033500085427FF75CAFB442A8BF34468542A8BF20
:103360000546214640462A4605F046FD4FE700BF88
:10337000B4630108A0BE010828010020D04102204A
:10338000F04102207847022030B50D4683B028B9BD
:103390000C4B1B681C6E14B903B030BD0446FFF71C
:1033A00055FC2046FEF794FAB0F90A300190AB4282
:1033B000C8BF458101A8FEF75FFB01F095FA03B095
:1033C00030BD00BFB4000020F0B5164F83B00446F6
:1033D000FFF73CFC3B681E6EE4B1C6B904F0F8F997
:1033E0002046FEF775FA02AD3B6845F8040D1C66F1
:1033F0000068FEF76BFD2846FEF73EFB03F0D0FBAE
:1034000003F022FB01F070FA304603B0F0BD00F08B
:10341000B7FFE3E700F0B4FF01F066FA304603B00F
:10342000F0BD00BFB400002070B50D4682B0164656
:1034300028B91A4B1B681C6E14B902B070BD044643
:1034400036B22DB2FFF702FC2046FEF741FAC680E5
:103450008580009003F0F8FA009B586930B96846FF
:10346000FEF70AFB01F040FA02B070BDFEF730FA39
:10347000009B0190B3F90820B3F90A308280C38021
:1034800013B10AB10580468001A8FEF7F5FA684637
:10349000FEF7F2FA01F028FAE6E700BFB4000020D8
:1034A00000B9704770B5044684B0FFF7CFFB2046E3
:1034B000FEF70EFA014601A8B1F90460B1F9065011
:1034C0000A894B89324401912B44ADF80860013AD6
:1034D000ADF80A50013BADF80C20ADF80E30FEF708
:1034E000CBFA02A806F058F840B12A4631462046E9
:1034F00000F06EF905F0E2FE0028F6D101F0F4F9D3
:1035000004B070BD2DE9F04FDFF82C8187B0824602
:103510008B46D8F8000017461E461299437C0022BD
:103520001198FEF70BFC00284DD0036905469B68F7
:10353000984703F055FC00FB07F48146FEF7DCF9E1
:10354000109B073413F001034FEAD4043FD0002E40
:103550002CDD002B42D004FB06F01830FDF7E0FF15
:10356000024668B30023029310460392FEF7B0F9B7
:10357000029A034606A8A3F804A0A3F806B01F8188
:103580005E81DC60C3F810905A6140F8043D1D6014
:10359000FEF772FA129AD8F800302A61039A1046A0
:1035A000AA605B7CAB6107B0BDE8F08F002C34D122
:1035B000204676428642A8BF064693B3002ECADC58
:1035C0002846FEF781FC002007B0BDE8F08F0028F8
:1035D000B8BF0330801000EB4000B8E700933A46D4
:1035E00033465946504601F0D5F8029004FB06F0E8
:1035F0001830FDF7A3FF02460028B5D128460392F4
:10360000FEF762FC029B002BDDD01846FDF7E0FFC1
:10361000039A104607B0BDE8F08F1838B0FBF4F0FD
:10362000C7E700933A4633465946504601F0B2F890
:10363000002E0290DADCC3E7B40000202DE9F04F41
:10364000DFF880918BB05D4BD9F800C0DFF878814E
:103650009CF811E053F82E40D8F80030D4F810E070
:10366000002B00F0A6801646DCF8602007460D46C9
:10367000002A75D0E2681268072A78D0504AC2EB57
:103680000E02B2FA82F25209002A70D03846FEF7D2
:103690001FF903460AA8B3F908B040F8083DB3F98A
:1036A0000AA00BEB0504DB68013C0593FEF7E4F987
:1036B000D9F80010B1F90C30B1F90800E41A002C67
:1036C000CCBFC4EB0B045C4685425EDB0023002CC0
:1036D00043DD0AEB0600B1F90EE00138CEEB000045
:1036E0000028C8BFC0EB0A0AB1F90A00B04247DCA3
:1036F0000021BAF1000F079306912EDD3846FFF73F
:103700003FFD079BD9F80020069901FB0B31136E92
:1037100000EB8107002B3CD01846FEF7D9F8024693
:103720000AA8B2F90410B2F906306D1A40F8042D57
:10373000F31AA900D56801F1180605FB03661644C3
:10374000FEF79AF94EB1059B224600953946019342
:1037500030465346D8F80040A0470BB0BDE8F08F84
:10376000E2681268B2FA82F25209002A8ED17346D8
:103770003246294638460BF08BFD0BB0BDE8F08F82
:10378000811B0646C1EB0A0AB3E7431B0546E41A50
:103790009DE7507C4FEA8B02DFF830E03B46029217
:1037A0002946CDF804A032460094DEF80040A04738
:1037B000D3E773460BF06CFDCFE700BFCC4202208D
:1037C000B4630108B4000020D8420220D442022091
:1037D0002DE9F04182B00F4690460646FEF778F894
:1037E000034602AC16211D68002044F8043DEB6836
:1037F0005B6A984705462046FEF73EF91DB14246F2
:1038000039463046A84702B0BDE8F08100B970479C
:103810002DE9F04FA3B08B4692460446FEF758F8C8
:1038200022AB456943F81C0D1846FEF725F92046E2
:10383000FFF78AFC0828814640DD002D3ED1204656
:10384000FEF746F822AA0346B0F9081042F8100D18
:1038500010460D92B3F90A200A9109921968DA68A4
:103860000E690B930E92FEF707F992489249006891
:10387000D6F80480407C51F820100D692B680C9319
:10388000FFF71EF808280B9B14D910288BBF2022A5
:103890001022042702270B92AE4200F0F882B9F101
:1038A000200F00F0B381B9F1100F00F0458123B073
:1038B000BDE8F08F082201270B92EDE700210123DC
:1038C00020467C4E20910DF188080B9121930A939C
:1038D000FDF7FEFF074630683A68FB68B7F9081045
:1038E0001269139314913B69B7F90A10407C09934C
:1038F000169148F8147D5568D7F81490FEF7E0FF4C
:1039000032680E90507CFFF7C3F807464046FEF73A
:10391000B3F8099A0A9B082A0B9940F29D80102A55
:1039200013460A918CBF042302230C93BD4200F07E
:10393000C1813368587CFFF7A3F8149B06469800B2
:10394000FDF7EEFD10900028B1D02046FFF718FCDF
:103950000446B9F1000F00F088804846FDF7B8FF33
:10396000169B1E90002B40F3A1810023DDF83880C8
:10397000CDF834A00B93139BCDF848B0E318159302
:103980001FAB19460F93836800225B691F920B9A45
:103990009847159B139A04469B1A0E93149B8342D7
:1039A00000F0F680099B012B00F08880002842D0AF
:1039B0001CAB11931098FDF78BFF099B07461C90D9
:1039C000082B1F9A65D90C9BA3460E99824602FBD1
:1039D000031939F8020BA847B047BBF1010B4AF8AD
:1039E000040BF6D1B8F11F0F04D8384642462146E1
:1039F00000F0E8FF0A9901231F98224605911299C9
:103A00001C9F08440021019300930391CDF8088086
:103A10000D99049702F0C8F91198FEF72DF81F9B35
:103A20001E981C440B9A83680F991F945B699847F2
:103A300004460028BED1159A13990B9B0A44013302
:103A400015920D9A0B9301320D92169A9A4200F03C
:103A50002D811E980F9996E7012A03D120AB0C9275
:103A60000A9363E70C930A9160E701250A9B139A76
:103A70000999059304905846039202915146169B6A
:103A8000149A0195009502F08FF91098FDF7A0FDAA
:103A90000DE70C9BA2460E99814602FB031B1BF807
:103AA000010BA847B047BAF1010A49F8040BF6D157
:103AB00098E700BFB4000020CC4202200028BAD012
:103AC000CDF8608019960B9F0A9EDDF83880DDF8EE
:103AD0003490DDF848A0DDF83CB017951192DDF880
:103AE0007CE02246119D01230EF007004946039514
:103AF000012506900AEB0E00BEF1000F0596029517
:103B0000B8BF0EF1070E0195009508EBEE0ECDF84B
:103B100010E003F057F81F9B1E983A461C44594684
:103B200083681F945B69984704460028D7D1179D86
:103B3000DDF86080199E7EE70A9B03FB07F0FDF726
:103B4000EFFC109000283FF4B2AEFDF7C1FE2090CC
:103B50002046FDF7BDFE00F118031E900E932B6961
:103B6000002B00F0A6817369002B00F0A281B0F950
:103B700008008000FDF7D4FC1190002840F0BA81C5
:103B80001F900D98FDF778FF20A8FDF775FF7CE7E3
:103B90001098FDF79DFE099B81461C90082B149FF1
:103BA0000446DDF838A028D93AF8020BA847B047F8
:103BB000013F44F8040BF7D1B8F11F0F04D8484671
:103BC0004246149900F0FEFE22AB12980D991A4657
:103BD0000A9B059300230393012352F818EDCDF8B7
:103BE000088017460193149A0093CDF810E002F074
:103BF000DBF83846FDF740FF1DE71AF8010BA84730
:103C0000B047013F44F8040BF7D1D5E70A9B07FB07
:103C100003F0FDF785FC0E9000283FF448AEFDF759
:103C200057FE20902046FDF753FE1E902C6900F1B0
:103C30001808002C00F0EB800A9A5C4601260A95D1
:103C40004FEA82099346CDF83090DDF8249017E0D2
:103C5000042F21D0012F15D00B9B0020209D514611
:103C60000293012305905A460390204601969A44F8
:103C70000096049502F098F8B9F1010900F0E88087
:103C8000022FE5D10C9D40463B465A46A8440A9D6A
:103C900020992D69A847DFE70C9B40460A9D5A46AC
:103CA000984420993B462D69A847D5E71EA8FDF703
:103CB000E3FEEAE62046FFF763FA8046B9F1000F1B
:103CC00000F0D4804846FDF703FE169B1E90002BA3
:103CD00040F3C88000261FABCDF834A00125B146C3
:103CE000DA461F4683683246CDF87C9039465B69D8
:103CF0009847149B0446834231D0099B012B57D02F
:103D000020B30D9B0B9603EB060B1F9801230C9918
:103D10000A9A01FB008E099E13995044059222468F
:103D200003915946CDF810E002960195009502F0F6
:103D30003BF81F9B1E9839461C440B9A83681F94BE
:103D40005B69984704460028DFD10B9E139B013620
:103D50009844169BB34240F385801E98C2E7CDF885
:103D60002C80B346984600E0A3461E980BF1010450
:103D70003946836822465B6998478045F4D00A9AA1
:103D8000C6EB0B03DDF82C805046059201330D9AEB
:103D9000CDF810809119139E099A0396029201950D
:103DA000149A06FB03880095264601F0FDFFD0E734
:103DB0000028CBD00D9B0B9603EB060BDDF87CE0C7
:103DC00022460A9E01230EF00700594605960690EA
:103DD0000AEB0E00BEF1000F139E0295B8BF0EF164
:103DE000070E0396019508EBEE0E0095CDF810E056
:103DF00002F0E8FE1F9B1E9839461C440B9A83680C
:103E00001F945B69984704460028D7D19DE7A146D7
:103E10000125099E0123022F51460A9A58460AEBB2
:103E2000030E00F0A981042F00F07D819F4200F075
:103E300052810B9CF246CDF814900294209CCDF850
:103E40000C9001950095049401F0AEFF013EE1D184
:103E50000D98FDF711FE20A8FDF70EFE0E98FDF758
:103E6000B7FB24E51EA8FDF707FE20E501240A9B09
:103E7000139A09990593049058460392029151466A
:103E8000169B149A0194009401F08EFF0FE50E9A90
:103E90000124183300250392514604935846099B88
:103EA000CDF808900A9A05950194009401F07CFFE2
:103EB000FDE40125DDF82890099E0123022F5146DB
:103EC0004A4658460AEB030E00F0D480042F00F057
:103ED000A0809F426DD0002401950095F246059484
:103EE00003940B9C0294209C049401F05DFF013E1E
:103EF000E3D146E6FDF7ECFC1F9000283FF441AE0D
:103F00000A9A0124CDF828B04FEA420990460C9550
:103F1000CDF83C90B146DDF838B017E0042F2ED034
:103F2000012F28D00B9B0020209D51460293012396
:103F30000590424603909A44019400940A9804958F
:103F400001F032FF099B013B09932BD0022FE5D1F1
:103F5000209B1E463B4642461F995846D9F81450AE
:103F6000A8470F9D31463B46AB440C9D42461F98E7
:103F70002D69A847D6E7209B1E460223EBE7209B2E
:103F800042460F9E58461D461F990223B344D9F856
:103F90001460B04729460C9D3B4642461F982D6948
:103FA000A847BFE71FA8FDF767FD1198FDF710FBB5
:103FB000E7E50A9B444609965D000C9E0C95209D02
:103FC000DDF83880DDF8289038F8020BA047B047BC
:103FD000B9F1010905F8010BF6D10E9D01230B98EB
:103FE0005146AE460C9D02905846AE44209DCDF8F9
:103FF00014909A440A9ACDF80C9001970097049572
:10400000CDF838E001F0D0FE099B013B0993D6D1F1
:10401000B7E50A9B0125099644465E000C9F0C9665
:10402000209EDDF83880DDF8289038F8020BA04794
:10403000B847B9F1010946F8040BF6D10E9E0123E9
:104040000B985146B6460C9E02905846B644209EA8
:10405000CDF814909A440A9ACDF80C9001950095E9
:104060000496CDF838E001F09FFE099B013B0993CF
:10407000D6D186E50A9B0125099644465E000C9F31
:104080000C96209EDDF83880DDF8289038F8020B79
:10409000A047B847B9F1010926F8020BF6D10E9EE8
:1040A00001230B985146B6460C9E02905846B644E2
:1040B000209ECDF814909A440A9ACDF80C90019560
:1040C00000950496CDF838E001F06EFE099B013BA7
:1040D0000993D6D155E595000C9C09960C95209D29
:1040E0004646DDF8289056F8040BA047B9F10109BF
:1040F00005F8010BF7D10B980123209E5146029041
:104100005846CDF814909A440A9ACDF80C9001972D
:10411000009704960C9D01F047FE099BA844013BC3
:104120000993DCD194E60996012596000C9C0C9627
:10413000209E4746DDF8289057F8040BA047B9F1B8
:10414000010946F8040BF7D10B980123209F514633
:1041500002905846CDF814909A440A9ACDF80C90E3
:104160000195009504970C9E01F01EFE099BB0443A
:10417000013B0993DCD16BE60996012596000C9C66
:104180000C96209E4746DDF8289057F8040BA04770
:10419000B9F1010926F8020BF7D10B980123209FF2
:1041A000514602905846CDF814909A440A9ACDF898
:1041B0000C900195009504970C9E01F0F5FD099B6C
:1041C000B044013B0993DCD142E600BF094B1A6AB7
:1041D000002A18BF002003EB800210B49469002C61
:1041E00004DB4FF0FF3443F8201094615DF8044B7A
:1041F000704700BFA440022058B311B30AB3B1F90D
:104200000030F0B5B2F90050B2F902E0B1F9024065
:104210009D42B2F90470B2F90660A8BF1D46B1F91B
:1042200004207445B1F90630A8BF7446BA4205802F
:10423000B8BF3A46B3424480B8BF33468280C38099
:10424000F0BD002908BF11460A684B680260436050
:104250007047704778B189B2C38892B270B406884B
:10426000448885880E4414441A44294406804480B6
:104270008180C28070BC704710B5FEF7E7FC0D4A24
:10428000136851688B420FD00B4CA3424FF00104CE
:1042900093E8030014BF0833503B136004F02EFB77
:1042A00000F022FB204610BD002400F01DFB20463C
:1042B00010BD00BF140100207C410220F0B5164C57
:1042C000059F2568069CB5F908E0B5F90C607045B6
:1042D000B8BF7046B242A8BF324690421ADCB5F968
:1042E0000A60B5F90E50B142B8BF3146AB42A8BF23
:1042F0002B468B4203DAF0BD25682DB12C46E568CC
:104300002D6835F00405F7D106940597BDE8F04017
:1043100002F03CBAF0BD00BFB4000020B0F90220AA
:10432000B1F906309A4214DCB1F90220B0F9063036
:104330009A420EDCB0F90020B1F904309A4208DC50
:10434000B0F90400B1F900308342CCBF0020012055
:1043500070470020704700BF08B5034B0146742228
:104360001868FBF7E0FF08BDB400002008B5034B58
:1043700074221968FBF7D7FF08BD00BFB400002006
:1043800008B5FEF763FC02F011FB02F009FC03F034
:104390008FF8BDE8084000F0A7BA00BF70B50D4D1A
:1043A00004462B685E7CFEF751FC012C03D900F01B
:1043B0009BFA304670BD2046FDF750FE0028F6D02F
:1043C0002B685C74FFF7DCFF034B1C6000F08CFA79
:1043D000304670BDB40000201C47022010B50446D2
:1043E000FEF734FC204602F003FBBDE8104000F06D
:1043F0007BBA00BF10B50446FEF728FC204602F049
:1044000031FBBDE8104000F06FBA00BF10B50446A4
:10441000FEF71CFC204602F057FB044600F064FA4D
:10442000204610BD38B50446FEF710FC044B1B684F
:10443000DD6904B1DC6100F057FA284638BD00BFE1
:10444000B400002010B418B111B10346002002E0FE
:10445000002101200B46034C034A216013605DF8E4
:10446000044B7047D4420220D842022070B5054662
:104470000C46FEF7EBFB094A094B29461068224619
:10448000084E407C358053F82000074DC3682C80CF
:104490001B6A9847BDE8704000F026BAB4000020BF
:1044A000CC420220BA420220BC42022038B5054666
:1044B000FEF7CCFB044B1B68B3F92A405D8500F086
:1044C00013FA204638BD00BFB4000020024B1B6821
:1044D00003B11847704700BF9C410220024B1A6885
:1044E00002B91860FFF7F2BF2841022000B97047F7
:1044F0002DE9F041DFF8C48082B00546FEF7A6FB47
:10450000D8F80040A54244D06E461CB919E0FDF72A
:10451000B3FAB4B12046FDF7DBF9034630469C6898
:104520000093A542F3D12846FDF7D2F90346009A3D
:1045300001A8996801939160FDF79EFA3046FDF756
:104540009BFA2846FDF7C4F9D8F804400090A5422C
:104550001A4B2CD094B101AF02E0FDF78DFA6CB18B
:104560002046FDF7B5F9034638465C680193A5423D
:10457000F3D1009A52685A60FDF77EFA3046FDF793
:104580007BFA2846FDF724F800F0AEF902B0BDE84A
:10459000F08102AF2846FDF79BF9836847F8040DC8
:1045A00038466E46C8F80030FDF766FAC9E742683B
:1045B00030465A60FDF760FAE3E700BFDC410220B5
:1045C00030B583B018B90124204603B030BD04468D
:1045D0000D46FEF73BFB2046FDF77AF9828902ABD8
:1045E0002A4243F8040D184614BF01240024FDF7A5
:1045F00043FA00F079F9204603B030BD0A4A00239F
:1046000030B5146883B003605CB105462046FDF701
:104610005FF902AB026943F8040D18462A60FDF702
:104620002BFA204603B030BDDC410220002370B5D8
:104630000B6082B018B90446204602B070BD0D462A
:10464000FDF746F9846801AE01902CB93046FDF7BC
:1046500013FA204602B070BD3046FDF70DFA204631
:10466000FDF736F9036901902B60EFE7F8B5084EC6
:1046700005460468336820461B6898473368074638
:1046800020465B689847044438462C60F8BD00BF5C
:10469000E0420220F8B569B105460C460026064FF7
:1046A0003B6828465B689847013C05440644F7D1BF
:1046B0003046F8BD0E46FBE7E04202202DE9F84304
:1046C000089C054689469846A96843462846561CD4
:1046D0004F684946B847013C3246F5D1BDE8F883FA
:1046E000F8B5B0F90040B0F904500C1BAC422ADA1E
:1046F0002344B0F90250E710FF21013B551B02692A
:1047000004F00704DE4302FB057541FA04F406F0E9
:104710000706D7EBE30205F11405E4B201FA06F649
:1047200000EB050EF6B20FD0435D013A0EF1010722
:104730001C43002A445503DD38461744FBF71DFE91
:104740003C7834433C70F8BD435D34401C434455D1
:10475000F8BD00BF30B4B0F9024080250369121BD8
:10476000B0F9004003FB02F3091B143301F0070208
:1047700003EBE1011541435C2B4330BC43547047CC
:104780000346B0F90620002114301B6903FB02F236
:10479000FBF7F3BD2DE9F04302F10F04804683B02F
:1047A000914624111E460F46640003FB04F01430AA
:1047B000FCF7C4FE0546B8B1FEF748FA2846FDF7F7
:1047C00087F8012301460A4A02A8A1F8049040F89C
:1047D000041DCE800C61A1F800804F808A608B811F
:1047E000FDF74AF900F080F8284603B0BDE8F083F1
:1047F00014BF0108B0F9063093423BDDB0F9043034
:10480000F0B40D689D4232DAEE1007695C1E05F0C7
:10481000070307FB0262C6EBE4061432845C013234
:1048200004FA03F3104413F0FF0308D126B308354C
:1048300010F8013B013E25F00705002BF6D01C06C1
:1048400034D45B000135DBB21A06FAD55F062A467E
:1048500004D55B000132DBB25C06FAD402F0070338
:10486000072B0CD0561B0D60701CF0BC704700204D
:10487000F0BC7047002070473046F0BC7047002EF7
:10488000F0DD0478471CFF2C0DD1831903E017F8E5
:10489000014BFF2C07D1BB4202F10802F7D1E1E73F
:1048A00064000132E4B22306FAD4DBE7FF2BCDD15A
:1048B000EA1DD3E730B5054683B0FEF7C7F92846B1
:1048C000FDF706F8034602A89C8940F8043D013C28
:1048D00024B29C81FDF7D0F814B92846FCF778FE85
:1048E00000F002F803B030BD034A5368013B536047
:1048F00003B170470BF07EB988410220F0B583B058
:10490000C0B9224C05462369CBB1E0681F4E18B9E7
:104910001F4B1868F060D8B123681C4F2BB30026DA
:1049200063681A4FC3B115B1A368184C2BB3304656
:1049300003B0F0BD154C01AD2369002BE5D1154A3C
:104940002046012340F8142F236101F029F8DCE709
:1049500001F022FDF060DFE7F8688000FCF788FED8
:104960000028786008BF0126DDE78000FCF780FEA4
:10497000B0FA80F638607609D2E7E0688000FCF78C
:1049800077FE0028A06008BF0126D0E7D0400220B3
:10499000C042022009E40008094B10B51C7838B960
:1049A00002464FF07F401A7001F0B0F9204610BD6A
:1049B000012200201A7001F0A9F9204610BD00BFA5
:1049C000C6420220082A10B40EDD102A1CDC00EBBF
:1049D0004101034650F8042B23F8022B9942F9D1E8
:1049E00001205DF8044B7047022A11D0042A00F020
:1049F0009A80012A3FD00144034650F8042B03F863
:104A0000012B9942F9D1EBE700205DF8044B704788
:104A100000F1100252F8103C01294FEA8313DBB277
:104A200026D052F80C4C02294FEA041404F030044A
:104A300043EA04031CD052F8084C03294FEA8404CB
:104A400004F00C0443EA040312D052F8044C043975
:104A500002F1100204F0030443EA040300F8013BEE
:104A6000BED052F8103C01294FEA8313DBB2D8D1F3
:104A700003700120B5E700F1200252F8203C012923
:104A80004FEAC313DBB2F3D052F81C4C02294FEAB1
:104A9000841404F0400443EA0403E9D052F8184CAB
:104AA00003294FEA441404F0200443EA0403DFD04E
:104AB00052F8144C04294FEA041404F0100443EA99
:104AC0000403D5D052F8104C05294FEAC40404F071
:104AD000080443EA0403CBD052F80C4C06294FEAF1
:104AE000840404F0040443EA0403C1D052F8084CDF
:104AF000073902F120024FEA440404F0020443EAB9
:104B00000403B5D052F8244C012904F0010443EA0F
:104B1000040300F8013B52F8203C4FEAC313DBB218
:104B2000B2D10370A5E700F1080454F8083C01294C
:104B30004FEA0313DBB213D054F8042C023904F10A
:104B4000080402F00F0243EA020300F8013B3FF4BD
:104B500047AF54F8083C01294FEA0313DBB2EBD10D
:104B6000037008465DF8044B704700BF082A2DE922
:104B7000F0410C4605461F680CDD102A21DC1E6939
:104B8000002E00F09180224629460223B0470120E2
:104B9000BDE8F081013A072A10D8DFE802F004519D
:104BA0000F770F0F0F9A00F1200858F8200CB84724
:104BB000012C4FEAC010C6B206D12E700120BDE80C
:104BC000F0810020BDE8F08158F81C0CB847022C99
:104BD00046EA8010C6B2F0D058F8180CB847032C3B
:104BE00046EA4010C6B2E8D058F8140CB847042C76
:104BF00046EA0010C6B2E0D058F8100CB847052CB1
:104C000046EAC000C6B2D8D058F80C0CB847062CFB
:104C100046EA8000C6B2D0D058F8080CB847072C36
:104C200046EA4000C6B2C8D058F8040C08F1200883
:104C3000B847083C40EA060005F8010BB5D1BDE7CE
:104C400000F1100858F8100CB847012C4FEA8010FA
:104C5000C6B2B2D058F80C0CB847022C46EA001085
:104C6000C6B2AAD058F8080CB847032C46EA800010
:104C7000C6B2A2D058F8040C08F11008B847043C9A
:104C800040EA060005F8010BDCD197E700F10808BF
:104C900058F8080CB847012C4FEA0010C6B20CD1E6
:104CA0002E702046BDE8F081861E55F8040BB847EB
:104CB000013C26F8020FF8D180E758F8040C08F1FF
:104CC0000808B847023C40EA060005F8010BDFD1AE
:104CD00074E71E693EB12846224601232946B047A3
:104CE0000120BDE8F0816E1E55F8040BB847013C69
:104CF00006F8010FF8D161E7F0B51C4E85B0F36FEF
:104D00000BB105B0F0BD1A4B6F4604AD4FF0010E6C
:104D100006F18004C6F87CE00FCB07C7190C15F824
:104D2000102D27F8023B397004F8012B15F8012FDC
:104D3000002AF9D1FDF76EFE234610F8012B194623
:104D400003F8012B0278002AF7D14A700AF028FFF5
:104D5000FCF7ACFB0DF01AFD064B0748C6F8943083
:104D600005B0BDE8F04000F01BBE00BF08400220C7
:104D70009C640108C5E300089C4002202E4B1B6880
:104D80002DE9F041044682B00D4683B1002004F0C5
:104D900003FC48B16E4632462946204606F046F8E6
:104DA00004F08CFA0028F6D102B0BDE8F081DFF8FB
:104DB0008C806B4610686E46D8F800705168B7F862
:104DC0004CC0B7F850E003C3BDF800706846BDF8AA
:104DD0000410BDF802206744BDF8063061447244F7
:104DE000ADF800707344ADF80410ADF80220ADF8D2
:104DF000063004F0D1FB60B9D8F80030598C9A8C99
:104E0000DC6C186D091B121A59849A8402B0BDE833
:104E1000F081D8F800303246BDF802002946BDF8CE
:104E20000070988420465F8406F000F804F046FA8B
:104E30000028EED1E0E700BFDC420220B4000020F1
:104E40002DE9F04F0C4687B017461D460190FDF73F
:104E50008FFDDDF804A08146002C00F0A48004AB97
:104E60002068616803C317F00C0B5FD1BDF91260B5
:104E7000CDF804A0002D56D00DF1040809F1FF393A
:104E8000504607F0030700241FFA89F9DFF838A11C
:104E90002DE0022F3CD00FB9BDF91040013833B2DC
:104EA0000FFA84FCDAF80020204409EB060EA2F881
:104EB00022C05946938402AAADF80C000198ADF8BF
:104EC00008C0ADF80A30ADF80EE0FFF757FF5946BD
:104ED0000198FFF7DFFB019B18440190FDF748FDA7
:104EE0000644404600F0FAFBE8B9E5B101982946CE
:104EF00000F0B2FB834601985946CBEB050500F064
:104F00006BFB012FC5D1BDF91440241A0134C5E74C
:104F1000BDF91040BDF914301B1B1B1A48BF0133EB
:104F200004EB6304BAE707B0BDE8F08F002D3ED074
:104F30002C4600260DF1040800E094B121460198AA
:104F400000F08AFB0346019801361946E41AFFF780
:104F5000A1FB019B03444046019300F0BFFB0028E6
:104F6000EBD0BBF1080F09D0BBF10C0F0DD0BBF19A
:104F7000040F03D0CDF804A000267FE706FB09F656
:104F8000BDF916309E1B013672E706FB09F6BDF926
:104F90001210BDF91620521A531C9B1B48BF013337
:104FA00001EB630664E704A8FDF7C6FC5BE7BBF111
:104FB000080F05D0BBF10C0F04D0BBF1040FB2D128
:104FC0000026DDE72E46E2E7B40000202DE9F04F91
:104FD0008FB000241F46934605909348199B0069A3
:104FE00007911C60002800F0F1808F4BDC681D46A3
:104FF0002CB98E4B1C68EC60002C00F0F1808A4BC1
:10500000894D1B680293002B00F0FD80864B864D76
:105010005B680393002B00F0E880A742844B854A2D
:105020004FF00006A8BF27461968059B3446487C08
:10503000BA463B4452F820200C93013B0892099356
:1050400013690D93FDF73CFC794B04901B68587C69
:10505000FDF71EFD784B794A0B90904218BF98429D
:1050600014BF012300230A935F46189B57F8040BD3
:10507000984781464FEA1068B8F1FF0F47D0002CDF
:105080002BD16B4B059A1B689519B3F90830AB42CD
:1050900059DD5A1B1D461446069202983444089B5B
:1050A000079900EB8404019328460B46099A009463
:1050B000FFF704F9049B172B7EDD0A9B002B44D0DD
:1050C0000C9B06965D1B2E460B9D2068A847013E53
:1050D00044F8040BF9D1069E0124534BDD69002DE1
:1050E00038D15FFA88F2B8F1000F1AD1029B039A07
:1050F00053F8263042F82630BAF1010A06F10106CB
:10510000BB46B1D1039C20460FB0BDE8F08F199B80
:10511000039A1B6842F8260043F00103199A1360B2
:10512000EAE7029949F07F40454B51F826101B6889
:105130009847199B039A1B6842F8260043F0010325
:10514000199A1360D8E70694A7E7374B0124DD6965
:10515000002DC6D0B600029A5346584632445746F0
:105160001446039A164421463246A847ABF104027E
:1051700008E02368013F04F1040406F1040646F840
:10518000043C0ED052F8043F13F07F4FF1D0216859
:105190000436043411F07F4F08BF46F8043C013F49
:1051A000F0D1199B039C1B68199A204643F0010318
:1051B00013600FB0BDE8F08F1A46069B204601240D
:1051C000C3EB0A010D9B00F043F986E71D4A01235A
:1051D000154840F8142F144A136100F0E1FB04E76E
:1051E00001F0DAF80446E86009E7E8688000FCF7B7
:1051F0003FFA0390686000287FF40FAF0024204638
:105200000FB0BDE8F08FA000FCF732FA286008B1BB
:105210000290FBE66C68002CF0D1E8688000FCF797
:1052200027FA68606FE700BFD0400220C04202202A
:10523000B4000020CC420220C1660008C966000804
:10524000BC00002009E400082DE9F04F8FB00646AD
:105250000D4614465F1E0493FDF7F8FC7B4B0CA82B
:105260001B68196DDB6C0C449A192B44ADF8324065
:1052700019460793E3190692ADF83020ADF83410C3
:10528000ADF8363004F088F900285CD0049A07FBAA
:1052900007F318460393931E02FB02FA0593D31EED
:1052A0000B93A3180893A31C0A93C0EB0A0309935A
:1052B000049B002B43DD1898FFF79CF8002F47D084
:1052C000089B3C4609980025DE1B00F05DFC069A11
:1052D000034604991046079A9B4600EB01091046C5
:1052E0000A9AC1EB0008921B0292C5EB09023146F3
:1052F000CBEB0900C344013A00F0DCFE05EB0800EB
:10530000029B31465A4601301E4400F0D3FE013C58
:105310004FF0000504FB04F31AD0C3EB0A0001931D
:1053200000F032FCA7428346019BDEDD039AD01ACF
:1053300000F02AFC0546D8E7049B022B4BD103F072
:10534000BDFF0028B4D1FFF7CFFA0FB0BDE8F08F52
:10535000049B012BF3D01998FFF74CF8059B002B09
:10536000EAD01D46069B049A1946C2F1020613466E
:1053700001EB0209079A1146C3EB0108089B1E4482
:1053800013E0C4EB09023146C3EB090003EB080B41
:10539000013A00F08FFE04EB080031465A46013016
:1053A000013600F087FE013DC6D005FB05FB002459
:1053B000CBEB0A0000F0E8FBAF422346E1DD039BA4
:1053C000CBEB030000F0E0FB059A0346AA42C8BFFE
:1053D00000F1FF34D5E71A98FFF70CF80B9C002C6E
:1053E000ADD0069B049A1946C2F1030501EB0208F1
:1053F00007998E1A08F1FF3B731C0193089B1D440B
:1054000011E0002000EB06092946C0EB08005A46CF
:1054100000F050FE29464A46019800F04BFE013C40
:1054200005F101058BD004FB04F9C9EB0A0000F07B
:10543000ABFBA742E5DD039BC9EB030000F0A4FB37
:10544000059B0138A342DCDDDCE700BFB40000208F
:1054500000292ADD082A2DE9F04704465D6803DDAE
:10546000102A0CDDBDE8F087531E072B05D8DFE8B6
:1054700003F02A51047B0404041DBDE8F0875E6933
:1054800036B10A46B44621460223BDE8F0476047DC
:1054900049000C446618671A34F8020DA84746F80C
:1054A000040DBC42F8D1BDE8F0877047661804EBE4
:1054B0008104771A16F8010DA84744F8040DBE427E
:1054C000F8D1BDE8F0874F1E80266FF0404AFB10F0
:1054D00007F007088A4446FA08F6591E14F80390A4
:1054E00004EB8A0AF6B20C4406EA0900C8F1070385
:1054F00076001841A8474AF80409B8F1000F5FD1B7
:1055000094F800900126013C4FF00708002FB4D01A
:10551000013FE9E74F1EC0266FF0404A07F003093C
:10552000BB108A444FEA4900591E14F8038004EB6B
:105530008A0A06410C44F6B206EA0803C0F10600E6
:10554000B60043FA00F0A8474AF80409B9F1000F81
:105550003ED1032694F80080013CB146002F8CD048
:10556000013F4FEA4900E7E74F1EF0266FF0404A3F
:1055700007F001097B108A444FEA8900591E14F88C
:10558000038004EB8A0A06410C44F6B206EA0803DB
:10559000C0F10400360143FA00F0A8474AF80409B4
:1055A000B9F1000F10D194F800800F26013C4FF0A4
:1055B0000109002F3FF461AF013F4FEA8900E5E7A1
:1055C00008F1FF38F6B2A1E7F6B24FF00009F0E7B4
:1055D00009F1FF39F6B2C1E770B584B01C4A04ABDB
:1055E000019043F8101D194613689847019050B375
:1055F000184B1B68DB695B692BB11B681BB10099F9
:10560000984704B070BD009B013B002B00931CDB4E
:10561000002401A8FFF72AF80546FDF767F9009B6B
:105620000444013B002B0093F3DA002604A928462A
:1056300041F8046DFDF76CF9039B9842B8BF1E1A40
:10564000301904B070BD04B070BD00252C46ECE7E5
:1056500010010020B400002030B583B00190E0B10B
:10566000104B0D461B68DB695B6923B15B6813B1A6
:10567000984703B030BD002D11DD002401A8FEF7CE
:10568000F5FF38B10A2805D00134A542F6D12846E5
:1056900003B030BD204603B030BD03B030BD0020A4
:1056A000E7E700BFB4000020F8B5044688B1002643
:1056B000094D00E001362B6820461B6898472B688F
:1056C000074620465B6898470444002FF2D13046D5
:1056D000F8BD06463046F8BDE042022010B504464B
:1056E00082B0236802A840F8043DFEF7BFFF48B12E
:1056F0000A2802D0002002B010BD019B00202360C8
:1057000002B010BD012002B010BD00BFB1F90030E1
:10571000B0F900209A42B0F90220B8BF0380B1F975
:1057200002309A42B0F90420B8BF4380B1F9043086
:105730009A42B0F90620C8BF8380B1F906309A4278
:10574000C8BFC380704700BFB2F90030F0B5B1F9EF
:105750000040B1F90250B2F902E0A342B2F904707C
:10576000B8BF2346AE457446B2F90660B8BF2C46B2
:10577000B1F90450B1F906203946AF4203804480A4
:10578000A8BF2946B242A8BF324681809442D8BF02
:105790008B42C280CCBF0123002383F00100F0BD07
:1057A0003A4B1B682DE9F0415D7C82B0012D03DD91
:1057B000012002B0BDE8F081354E0446736813B194
:1057C000014628469847012C27D0022C0FD0002CE8
:1057D000EED1AC00DFF8B8803719BB68012B3AD0A6
:1057E00001202644002B18BF013BB360E1E72846A7
:1057F000FCF734FC01900028DAD0C3680D2101A821
:105800005B6A984704460028D2D0336803B19847B2
:1058100002210198A0470020CBE706EB8506B76878
:105820001FB101372046B760C3E72846FCF716FCD6
:1058300001900028BCD0C3680D2101A85B6A98477D
:1058400003460028B4D0214601989847B3683846EB
:105850000133B360ADE72846FCF700FC019088B146
:10586000C3680D2101A85B6A9847054650B1D8F876
:10587000003003B1984700210198A8473319002050
:105880009B68AEE7BB680120ABE700BFB400002017
:10589000A44102200B0E4FEA1063F0B408BF20F0C1
:1058A0007F41114C02FB03F200F0FF160D0A01F0DC
:1058B000FF13A4FB0212C0F3072005F0FF15D20965
:1058C00040F08074C2F1FF0702FB06F107FB05F010
:1058D00007FB031102FB0400090A00F0FF2001F09E
:1058E000FF11F0BC08437047818080802DE9F04FA4
:1058F00087B09246139A01900291109B9DF85090A8
:10590000002A35D0129A0021DFF86CB09200DFF83F
:105910006C80039102EB830305920493129C57461B
:10592000029E019D55F8040BDBF80030020E56F87C
:10593000041B40F07F4009FB02F2A8FB02E2C2F325
:10594000C7129847013C40F07F4047F8040BE9D16B
:10595000019A05991046029A8A44039B08440499C7
:1059600001330A44019003930292139A9A42D5D1CB
:1059700007B0BDE8F08F00BFBC00002081808080B0
:10598000CB8892B270B40E888D884C881644AD1ABC
:1059900011199A1A068085804180C28070BC7047B8
:1059A00080B483B000AF7860064B1A687B685A6099
:1059B000044A7B68136000BF0C37BD465DF8047B6A
:1059C000704700BF7C400220F0B5076883B00546F1
:1059D0000E46CFB9002E58D033464FF0FF3200E0CC
:1059E000224613F8010B541C0028F9D1941C3846A8
:1059F000FBF75AFF844222D02046FBF791FD074671
:105A000068BB002003B0F0BD3846FBF761FF224BB6
:105A10000190002E14BF32461A46002808BF1846CF
:105A2000137801788B4206D15BB310F8011F12F88E
:105A3000013F8B42F8D001A8FCF71EF8CAE73846B0
:105A400002ADFBF745FF154B2246314645F8040DE4
:105A50001B6898472846FCF70FF80120D2E702ACF4
:105A6000FBF736FF314644F8040DFAF78FFC204669
:105A7000FCF702F82846FBF7D5FD01202F6003B0A4
:105A8000F0BD01A8FBF7F8FFBBE73846FBF70CFFBA
:105A90000028B6D03446AFE748BF010824010020F3
:105AA000F8B506464AB18407C9B208D001E08307B9
:105AB00005D0013A00F8011BF9D13046F8BD97082E
:105AC0003B464FB301EB0124032F02F0030204EB2A
:105AD000044415D900F110033D46043D43F8104C31
:105AE00043F80C4C1033032D43F8184C43F8144C76
:105AF000F3DC043FBB085D1CA7EB830300EB051040
:105B000043B1012B046003D0022B446018BF8460B2
:105B100000EB8300002AD0D0FAF72FFC3046F8BD06
:105B200070B4840702D50180013A023056080DD0C6
:105B3000032E334601EB01440DD8012B046003D042
:105B4000022B446018BF846000EB8300D30770BC55
:105B500048BF0180704700F110033546043D43F80B
:105B6000104C43F80C4C1033032D43F8184C43F8F9
:105B7000144CF3DC043EB3085D1CB6EB830300EB6E
:105B80000510DAD1E2E700BFB0F1804F2BBF4FF034
:105B9000004300234FF0804200225B08801A03F18B
:105BA000805203F1005190422CBF0B4600225B084B
:105BB000821A03F1806103F100608A422CBF034620
:105BC00000215B08501A03F1807203F100719042CA
:105BD0002CBF0B4600225B08811A03F5800203F5F7
:105BE000000091422CBF034600225B088A1A03F58D
:105BF000801103F500108A422CBF034600215B0888
:105C0000501A03F5802203F5002190422CBF0B4669
:105C100000225B08811A03F5803203F500309142BF
:105C20002CBF034600225B088A1A03F5804103F566
:105C300000408A422CBF034600215B08501A03F53E
:105C4000805203F5005190422CBF0B4600225B08A6
:105C5000811A03F5806203F5006091422CBF034670
:105C600000225B088A1A03F5807103F500708A42EE
:105C70002CBF034600215B08501A03F1400203F1D8
:105C8000800190422CBF0B4600225B08811A03F171
:105C9000100203F1200091422CBF034600225B0852
:105CA0008A1A191D03F108008A422CBF03460021FD
:105CB0005B08521A581C991C904294BF084618461B
:105CC0004008704708B50B0E03D1030EFF2B0FD011
:105CD0004BB102EB02120B4BD2B21B6898470A4B36
:105CE0005A68104308BD084B5A6841EA020008BDD3
:105CF000054B20F07F4002EB02125B68184340EA3C
:105D0000026008BDBC000020D4010020024B5A688C
:105D100058601046704700BFD4010020044A054B6C
:105D20001268527C53F822301B691B68184700BF69
:105D3000B4000020CC420220C0F30721C0F3074387
:105D4000C0B2994210B40AD1884208D1083314482D
:105D50005DF8044BA0FB033000097830704700EB7E
:105D60008000104C03EB83027F3001EB81017F3216
:105D7000A4FB00307F31A4FB0232A4FB0131C00937
:105D8000D2095DF8044B00EBC000C90902EB8003A7
:105D900001EB410003EB40006B2888BF28307047BF
:105DA000F1F0F0F0818080802DE9F04FB64C91B099
:105DB000D4F800E01B9D1D9E1E9F1F9C0F90059216
:105DC0000C93DDF868A00D95DDF870C00E9607976E
:105DD0000894BEF1000F06D0DEF80040A44611B0D2
:105DE000BDE8F04F60474AEA05038946012B00F001
:105DF0009380CCF1080302930C9B002B40F3898025
:105E0000A24BF046E146CDF828E0186804910D9ABF
:105E1000049953181A460B93B0F90A30013A934289
:105E2000099269DCB0F90E308B4265DB059B002BD3
:105E300062DD00260F9B079F03EB0A043546069799
:105E40004DE0C9EB0606029B48FA03F208FA09F88E
:105E500012F0FF025FFA88F802D1037C9B0739D465
:105E6000D0F83CC0DCF800300393089B0BB153F82A
:105E70002220B0F9083004F1FF3EB0F90CB099428D
:105E8000CCF80020B8BF1946DE457346A8BF5B4674
:105E90008B421CDBB0F90A20049FB0F90EE0BA4235
:105EA000B8BF3A46099FBE45A8BFBE4672450EDC44
:105EB000407C774F57F82000D0F80CC0CDF800E0B8
:105EC000DCF810B0D847714B1868D0F83CC0039B81
:105ED000CCF800300135059B5444AB420CD0CAEBE2
:105EE0000401002EADD1069A029E134692F800805E
:105EF000013306933346A7E7079A0E990A9B0A4493
:105F0000013307920B9A0A9304920C9A9A427FF4F7
:105F10007EAF11B0BDE8F08F5C4B1968B1F90A2073
:105F2000C9EB0203002B40F3C1800C98C41A002C6B
:105F3000EFDD06FB037307930C9B4B44B1F90E0096
:105F4000013B1B1A002B02DDE41A002CE1DD0F9847
:105F5000059D4319B1F90C00013B1B1A002B01DD13
:105F6000EB1A0593B1F908300F9D9D4215DB002512
:105F7000059B002BCDDD4E7C4548089F50F8260040
:105F80000F99C6681E95079D1F971D950E9DCDF80C
:105F90006CC01C951A94746820E7059E5D1B0CF17B
:105FA000FF30761B05961F28E2D801A656F820F090
:105FB0009560000871600008715F00085960000872
:105FC000715F0008715F0008715F00084D60000894
:105FD000715F0008715F0008715F0008715F000861
:105FE000715F0008715F0008715F00083F60000882
:105FF000715F0008715F0008715F0008715F000841
:10600000715F0008715F0008715F0008316000086F
:10601000715F0008715F0008715F0008715F000820
:10602000715F0008715F0008715F0008316000084F
:1060300007980F9300EB85000025079098E70798D5
:106040000F9300EB45000025079091E707980F9309
:106050002844002507908BE7079825F0010300EB03
:10606000650005F0010507900F9818440F907FE731
:10607000079825F0030300EBA50005F00305079042
:106080000F9818440F9073E7DC420220B400002000
:10609000CC420220079825F0070300EBE50005F04D
:1060A000070507900F9818440F9061E70C9C4A462B
:1060B000234642E7114B30B41C68B4F90A308B42D6
:1060C0000FDCB4F90E3099420BDCB4F90850B4F986
:1060D0000C30A842B8BF28469342A8BF1346984246
:1060E00001DD30BC7047657C0A46054C014654F81A
:1060F0002500C468A468A44630BC6047B4000020F2
:10610000CC420220164B1B68B3F90A208A421CDCE1
:10611000B3F90E20914218DCB3F90820824214DC56
:10612000B3F90C20904210DC30B41A7CD2070DD4A5
:106130005D7C0A460B4C0146DB6B54F825001B685E
:10614000C468A469A44630BC604770475C7C0A46BA
:10615000044B014653F82400C36830BCDB69184780
:10616000B4000020CC420220114B30B41C68B4F9BA
:10617000083083420FDCB4F90C3098420BDCB4F9E0
:106180000A50B4F90E30A942B8BF29469342A8BFBD
:106190001346994201DD30BC7047657C0A46054CC8
:1061A000014654F82500C468E468A44630BC604742
:1061B000B4000020CC42022070B5154C82B0246897
:1061C000B4F90850B4F90C60A842B8BF2846B242EE
:1061D000A8BF324682420BDBB4F90A60B4F90E5014
:1061E000B142B8BF31469D42A8BF1D46A94201DD5C
:1061F00002B070BD667C1346064C0A46014654F850
:106200002600C46800952469A04702B070BD00BF95
:10621000B4000020CC420220012801DD002070479C
:1062200010B5FBF71BFF28B1C36808219B6ABDE8C6
:1062300010401847002010BD024B1B689B6B18686C
:10624000704700BFB4000020024B1B68DB6B18686E
:10625000704700BFB4000020012801DD0020704716
:1062600010B5FBF7FBFE28B1C3680C219B6ABDE8A3
:1062700010401847002010BD012801DD00207047A4
:1062800010B5FBF7EBFE28B1C3680D219B6ABDE892
:1062900010401847002010BD094B1B68587C01288E
:1062A00001DD0020704710B5FBF7D8FE28B1C368A8
:1062B00009219B6ABDE810401847002010BD00BFAF
:1062C000B4000020012801DD0020704710B5FBF765
:1062D000C5FE28B1C36809219B6ABDE81040184774
:1062E000002010BD10B50020FBF7B8FE041C4FF0D5
:1062F000010018BF0124FBF7B1FE00B101342046B4
:1063000010BD00BF064B1B6810B5587CFBF7A6FEFE
:1063100028B1C3680221DB6ABDE81040184710BDF0
:10632000B400002030B583B00C461546FBF796FE4E
:10633000019070B1C36804215B6A0DEB01009847BE
:10634000034630B101982A4621469847002003B001
:1063500030BD012003B030BD012801DD00207047B1
:1063600010B5FBF77BFE28B1C3680E219B6ABDE820
:1063700010401847002010BD012801DD00207047A3
:1063800010B5FBF76BFE28B1C36803219B6ABDE81B
:1063900010401847002010BD38B5012500242846BC
:1063A000FBF75CFE032178B1C3689B6A984784427F
:1063B000B8BF04460DB9204638BD00252846FBF776
:1063C0004DFE03210028EFD1F1E700BF012801DDD8
:1063D0000020704710B5FBF741FE28B1C3680421C7
:1063E0009B6ABDE810401847002010BD094B1B6890
:1063F000587C012801DD0020704710B5FBF72EFE08
:1064000028B1C36801219B6ABDE8104018470020ED
:1064100010BD00BFB4000020014B1868704700BFDA
:10642000F0400220012801DD0020704710B5FBF785
:1064300015FE28B1C36801219B6ABDE810401847CA
:10644000002010BD38B5012500242846FBF706FEC4
:10645000012178B1C3689B6A98478442B8BF04465B
:106460000DB9204638BD00252846FBF7F7FD012170
:106470000028EFD1F1E700BF094B1B68587C0128C9
:1064800001DD0020704710B5FBF7E8FD28B1C368B7
:1064900002219B6ABDE810401847002010BD00BFD4
:1064A000B4000020014B5868704700BFF040022044
:1064B000012801DD0020704710B5FBF7CFFD28B1A2
:1064C000C36802219B6ABDE810401847002010BD38
:1064D00038B5012500242846FBF7C0FD022178B11C
:1064E000C3689B6A98478442B8BF04460DB92046EA
:1064F00038BD00252846FBF7B1FD02210028EFD169
:10650000F1E700BF2DE9F84360B3856865B3DFF8B4
:106510006480D8F8006006B30768B7F5807F1FDC99
:10652000124B81461B689F42A8BF1F46002F0DDDFE
:10653000043D002401E0D8F8006055F8040FFFF78F
:10654000EDFB46F824000134BC42F4D1084B1B6833
:106550000BB148469847D8F800603046BDE8F8834C
:106560000026FAE70646F8E72E46F6E72C0100205B
:10657000BC410220F8420220044A054B1268527CBA
:1065800053F822301B695B68184700BFB400002035
:10659000CC42022030B40949C0F3C42300F01F05E7
:1065A000074CC0F34512CB5C485DA25C03EB004096
:1065B00000EB022030BC40F07F4070478486010829
:1065C00044860108A0F178030F2B10B42DD96B2855
:1065D00027D81E491E4BA1FB0042A3FB0043920893
:1065E000DB08A1FB024102EB420403EB43038908F1
:1065F000A0EB44005DF8044B01EB410100EB4000CF
:10660000A2EB410200EB001002EB420203EB03138A
:1066100002EB021203EB004000EB022040F07F404F
:10662000704793280ED92838D3E700EB0012094BA6
:106630005DF8044B00EB021000EB0030034443F024
:106640007F40704700205DF8044B7047ABAAAAAAB0
:10665000398EE338080000F80304C0F3074200F461
:106660007F4003F47F03134343F07F431843704795
:10667000C343C0F30741020400F47F4003F07F43AB
:1066800002F47F020B431343184370470A49C0F3D7
:10669000C422C0F3451300F01F008A5C085C12049A
:1066A00010B4064CE35C5DF8044B02EB0323184482
:1066B00040F07F40704700BF84860108448601088F
:1066C00040F07F40704700BF704700BF38B50B4DAA
:1066D0002C680CB1002038BD094B18688000FAF70F
:1066E000C7FF286038B1074B074840F8043FFFF761
:1066F00057F9204638BD012038BD00BFF8420220BE
:106700002C010020E5E40008BC4102202DE9F84FEF
:10671000FFF7E8FDB0F100092FDD0025184FDFF885
:1067200068B02846FBF79AFC20B33B68284693F8EC
:1067300011805D74FFF770FD082818DC5BF82530C8
:10674000104A1B69934212D02846FFF7BBFD061E74
:106750000DDD00245FFA84FA01345046FFF70CFF88
:1067600051460246284600F0B5F9A642F2D13B68F0
:1067700083F811800135A945D3D1BDE8F88F00BF5A
:10678000B40000204CB50108CC4202202DE9F04FA6
:1067900085B017469A4681460F9C0E46E2680E9CCD
:1067A000536AD2F814807BB101210FA8984705469F
:1067B00050B10F983B4601943246CDF800A04946AF
:1067C000A84705B0BDE8F08F774B1B68587CFCF7F5
:1067D00077F8082830DC01235645F2DC022B0AD07A
:1067E000042B1BD0012B2CD00136B245F6DAE8E79A
:1067F00001365645E5DCB945FADC4D4629460135FA
:1068000032460F98C047AF4224F8020BF6DA013641
:10681000B245F0DAD5E70136B245D2DBB94500F32F
:10682000BA804D462946013532460F98C047AF42DF
:1068300044F8040BF6DAEEE71128B4BF0223042370
:10684000CAE7431E0025CDF808A00393039B072B3E
:1068500000F29B80DFE803F0446D18180404040480
:10686000B94538DC4346CB46A8461D4659460BF190
:10687000010B32460F98A8475F4504F8010BF5DA83
:106880002B464546984626E0B94524DC0E94CA4678
:1068900044464FF00F0BDDF83880514632460F98D2
:1068A0000AF1010AA04798F80010AB005745C3F160
:1068B00004020BFA03F300FA02F003EA010343EACD
:1068C000000388F80030A84485F00105E5DACDF82A
:1068D0003880A0460E9C0136029BB342B6DA70E7C0
:1068E000A3464446DDF80880B94559DCCA465146FE
:1068F00032460F980AF1010AA0474FF67F729BF8C3
:1069000000E0C5F1070342FA05F16A1C98405745BB
:106910000EEA010122F0070540EA010042FA05F5FE
:106920008BF800000BEBE20BE1DA0136B045DBDA65
:1069300047E70E944FF63F7B4446DDF83880B94573
:10694000C5DCCA46514632460F980AF1010AA047F3
:106950006A1C6D0098F800105745C5F106034BFA04
:1069600005F500FA03F005EA010522F0030340EA09
:10697000050042FA03F588F8000008EBA208E1DA06
:106980000136029BB342DADA1BE70136029B9E42D4
:106990007FF75CAF15E7013656457FF73FAF10E74D
:1069A000A0465C4697E700BFB400002010B50E4C2F
:1069B0000E4B2268517C53F8210038B1C36813B1E3
:1069C0001B68042B0BD000680028F7D1002102F1CE
:1069D000080311665361BDE8104000F035B8FBF7BD
:1069E00019FB2268F2E700BFB4000020CC4202206D
:1069F000014B1B685B681847C4000020044B1B68F0
:106A00001A7C52074CBFDB6B9B6B1860704700BF52
:106A1000B400002030B50A4C05460A4B83B022680A
:106A20006946527C53F82200C3681B6B9847206864
:106A30006A4629460830FEF787FE03B030BD00BF26
:106A4000B4000020CC420220044A054B11684A7C65
:106A5000083153F82200C3681B6B1847B4000020AC
:106A6000CC420220014B1B681B681847C400002061
:106A7000044B1B681A7C52074CBF9B6BDB6B186086
:106A8000704700BFB400002030B583B00C461546F7
:106A9000FBF7E4FA019068B1C368162101A85B6AAC
:106AA0009847034630B101982A462146984700206E
:106AB00003B030BD012003B030BD00BF014B83E8FF
:106AC00003007047F0400220014B1B689B68184789
:106AD000C400002030B583B00C461546FBF7BEFA63
:106AE000019068B1C368102101A85B6A984703460A
:106AF00030B101982A4621469847002003B030BDA6
:106B0000012003B030BD00BF30B583B00C46154640
:106B1000FBF7A4FA019068B1C3680B2101A85B6A76
:106B20009847034630B101982A46214698470020ED
:106B300003B030BD012003B030BD00BF10B582B03E
:106B40000C46FBF78BFA019060B1C368092101A8DC
:106B50005B6A9847034628B1019821469847002070
:106B600002B010BD012002B010BD00BF30B583B02F
:106B70000C461546FBF772FA019068B1C3680A210A
:106B800001A85B6A9847034630B101982A4621461E
:106B90009847002003B030BD012003B030BD00BFD6
:106BA00010B5074C2368186BFFF7B8F8FFF760FFC4
:106BB0002368586BFFF7B2F8BDE81040FFF71EBF1F
:106BC000B40000202DE9F04F91B0824C1B9D246849
:106BD0002E460E951D9D0F900C951E9D05920695B7
:106BE0001F9D0D930895DDF868A0DDF870E0209DED
:106BF0002CB12468A44611B0BDE8F04F60474AEAC2
:106C000006038946012B00F09280CEF1080302931F
:106C10000D9B002B40F388806F4BA046F1460A94F1
:106C2000186804910E9A049953181A460B93B0F9F8
:106C30000A30013A9342099269DCB0F90E308B4276
:106C400065DB059B002B62DD00260F9B069F03EB97
:106C50000A04354607974DE0C9EB0606029B48FA41
:106C600003F208FA09F812F0FF025FFA88F802D17D
:106C7000037C9B0739D4D0F83CC0DCF80030039388
:106C8000089B0BB153F82220B0F9083004F1FF3E05
:106C9000B0F90CB09942CCF80020B8BF1946DE45D7
:106CA0007346A8BF5B468B421CDBB0F90A20049FE9
:106CB000B0F90EE0BA42B8BF3A46099FBE45A8BF38
:106CC000BE4672450EDC407C444F57F82000D0F899
:106CD0000CC0CDF800E0DCF810B0D8473E4B186887
:106CE000D0F83CC0039BCCF800300135059B5444E0
:106CF000AB420CD0CAEB0401002EADD1079A029E24
:106D0000134692F80080013307933346A7E7069AAB
:106D10000C990A9B0A44013306920B9A0A93049237
:106D20000D9A9A427FF47EAF11B0BDE8F08F2A4BE6
:106D30001868B0F90A20531A002B46DD0D99CC1AB9
:106D4000002CF1DD069E0C9901FB036306930D9B5D
:106D50004B44B0F90E10013B5B1A002B02DDE41A24
:106D6000002CE1DD0F99059E8B19B0F90C10013B49
:106D70005B1A002B01DDF31A05930F9B591BB0F929
:106D8000083099420DDA5B1A059F1D4423F007066F
:106D9000FB1A31440593069B03EBE50305F0070559
:106DA0000693059B002BBFDD467C0C48089F50F8DE
:106DB0002600C6681E95069D1F971D950C9DCDF853
:106DC0006CE01C951A94746814E70D9C0A462346DF
:106DD000BEE700BFDC420220B4000020CC4202200B
:106DE000B8B130F0010315D030F0030301D1082011
:106DF000704730F00703FAD030F00F03F7D030F0CF
:106E00001F03F4D030F0FF03F1D00B4B03401BB94C
:106E10001020704701207047084B0340002BF7D02B
:106E2000074B0340002BF3D0064B0340002B0CBF55
:106E300010202020704700BF00FEFFFF00F0FFFF82
:106E40000080FFFF0000FFFF30B5456883B00446B7
:106E50000146284600F008FA90B123680B2B11D0A8
:106E60000F2B1CD12846FAF733FD034602A840F841
:106E7000043D5B6E1C68FAF7FFFD0CB12846A04785
:106E800003B030BD284602ADFAF722FD0346383084
:106E900045F8043DFAF7C6FB2846FAF7EDFD204613
:106EA00000F0A6FC03B030BD2DE9F04F8B46B0F9E1
:106EB0000C108BB0B0F90A60856901EB030A438AB4
:106EC0001644B0F90E804035B0F9109000270593B4
:106ED000B0F90840FBF7BAFEDFF8E8E05146039549
:106EE0003046CDF800B04B464246CDF808E0019759
:106EF00000F082FB054628B9FDF7F6FC28460BB0EA
:106F0000BDE8F08F0520FAF719FB80460028F3D082
:106F1000DFF8B4902846FAF7DBFC3A4621464C46A7
:106F2000079000F0BDFA2846254900F0ABFADDF8DD
:106F30001CE054F8043B4FF0020C0EF14C064FF0ED
:106F4000640BCEF864300FCC0FC694E803009DF8B4
:106F5000143086E803008EF868304046CEF844705E
:106F6000CEF83880AEF840C0CEF848B0FAF7B0FCA2
:106F7000079A0AA90890546C936C664241F8040D74
:106F80001B1B57630BFB06F090FBF3F0FAF798FD21
:106F9000099B252208A8591C09911A70099B1F708A
:106FA000FAF76AFD07A8FAF767FDD9F80030284616
:106FB0005B689847FDF798FC28460BB0BDE8F08F5A
:106FC00030B50108496E0008F400002043680B2B1F
:106FD0002DE9F041044682B0056A50D0122B3DD015
:106FE000052B03D0002002B0BDE8F08128680028FE
:106FF00065D02069A7696B683F1A594E01377F1029
:10700000002B40F098804FF0010ED6F810C0726946
:10701000E1690192C219CB1ACDF800C06169013053
:107020007144FBF747F96B68002B7DD1D6F818E067
:10703000D6F81CC001262069E569A2693844616957
:10704000EB1ACDF804C00130CDF800E0013A31442C
:10705000FBF730F9002002B0BDE8F0812B68002B6F
:10706000C0D13F4BAD68586AFDF7C4F90220FDF767
:107070001DFA284662692169FBF7E0F8B2E7384B50
:10708000186AFDF7B7F9A26921696069FBF7C6FACA
:10709000A2692169E069FBF7C1FAE26961692069C7
:1070A000013A0131FBF758FBE2696169A069013AD5
:1070B0000131FBF751FB002002B0BDE8F0816169AE
:1070C000E7696A687F1A264E01377F10002A40D18F
:1070D0004FF00108D6F800C07368D4F818E00193A7
:1070E000CB19CDF800C0C2EB0E022069013140443B
:1070F000FBF7BAF96A682ABBD6F808E0D6F80CC0E4
:1071000001266169E369A56939442069013BCDF82D
:1071100004C001313044CDF800E0AA1AFBF7A4F90D
:10712000002002B0BDE8F081D6F808E00123D6F8CF
:107130000CC000267FE701234FF0000ED6F800C0F8
:10714000726865E7D6F818E00122D6F81CC0002660
:10715000D7E780460122D6F810C07369BDE700BFAB
:10716000A8010020806BFAF7B3BB00BF2DE9F04106
:10717000054610460F46B5F90420B5F90630B5F9B5
:107180000080B5F90240C8EB02081C1BFBF738FC75
:107190000646FBF7FBFBB5F8403008F10108EA6A48
:1071A000013403F003031268012B21D0022B17D006
:1071B00012B2B6B2AB8F241A06F1FF3600F1FF30DF
:1071C0001A4448BF0134EB8F92B203EB64043A8057
:1071D0003244A4B2BA8020447C80F880BDE8F081BB
:1071E000B8EB0602B6B248BF013242F34F02E1E704
:1071F000D243B6B24244921B12B2DBE730B490F8ED
:107200006830C26ADB07146819D5456CB0F90230E2
:10721000A942B0F90620806CB8BF2946D21A88422C
:1072200002F10102D4BF011A411AA2EB4403401B30
:1072300003FB01F393FBF0F0204430BC7047456C36
:10724000B0F90030B0F90420A942806CA2EB03022F
:10725000B8BF294601328842D4BFC5EB0001C5EB57
:107260000101A2EB4403E2E72DE9F04184B020B92B
:107270000125284604B0BDE8F0810C460746FAF720
:1072800027FB064622680290162A00F092802ADD2B
:107290001F2A7ED053DD312A37D0B2F5407F49D145
:1072A000E26802A8F36A002514681B68F26204AE63
:1072B0001C1BFAF7E1FBFBF7C9FC3846FAF708FBA1
:1072C000624223460094114646F8040D02F07CFE0B
:1072D0003046FAF7D1FBFDF707FB384600F066FFB2
:1072E000029B5BB9C5E7112A59D03EDD142A12D0A2
:1072F000152A1FD1B0F930300025E36002A8FAF753
:10730000BBFB284604B0BDE8F08100250346E560DC
:10731000002BF3D1ADE7E4680025214601F08CFF96
:10732000F36A214620461A68FEF72AFB029B002BCF
:10733000E4D19EE733460125002BDFD199E71E2AD1
:10734000F8D1D4F80C80B8F1010F36D1438E03F098
:107350001005ADB2002D54D102A8FAF78DFB029BA7
:10736000C4F80C80002BC9D183E70D2AE2D1E36871
:10737000DB68002BDED01B7A002BDBD002A80025B7
:10738000FAF77AFB384600F0EFF8029B002BB5D1F4
:107390006FE7438E0025C3F30013E360AEE7438E2F
:1073A000DB0604D5E36813B11B7A002B3FD101251E
:1073B000A4E7E36800250386A0E7458EFBF746FCBB
:1073C0003846FAF785FA25F00105438E03909D4271
:1073D00003D04586384600F0E9FE03A80925FAF7F0
:1073E0004BFBFDF781FA02A8FAF746FB294638461F
:1073F000002501F063FA029BE560002B7FF47EAF6D
:1074000037E743F00105FBF721FC3846FAF760FA4D
:10741000438E0390AB4203D04586384600F0C6FE4B
:1074200003A80825FAF728FBFDF75EFADBE702A8B8
:107430000125FAF721FB384601F0C8FB029B002B1F
:107440007FF45CAF15E700BF00B9704730B5044664
:1074500083B00D46FBF7FAFB2046FAF739FA418E66
:107460000346019035EA010204D02943204659869B
:1074700000F09CFE01A8FAF7FFFAFDF735FA03B019
:1074800030BD00BF00B585B000224FF440730391BA
:1074900069460292009301F0E3FA05B05DF804FB3F
:1074A000024B42861B680186C3627047D0010020F0
:1074B000024B01221B6883F854207047B40000205F
:1074C0002DE9F043044687B0FBF7C0FB24B9FDF774
:1074D0000BFA07B0BDE8F083204604ADFAF7F8F9DF
:1074E0000190076AD0F8288003C885E8030001A846
:1074F000FAF7C2FA204602F00BF806460028E6D05A
:10750000FBF7A4FB2046FAF7D1FAD0F81890FDF764
:10751000EBF918F0020F20D12046FAF7D9F90190C3
:107520004846FAF7D5F903903046FAF7D1F9039AAD
:1075300003460199D56901A81F620D62D4610293C7
:10754000FAF79AFA03A8FAF797FA02A8FAF794FA60
:10755000FDF7CAF907B0BDE8F08328463A46494628
:1075600002F082FBD8E700BF30B5044683B0FBF7DA
:107570006DFB1CB9FDF7B8F903B030BD2046FAF732
:10758000A7F9036A009043B3826A12070DD4184624
:10759000FAF79EF9836A01901B0725D56846FAF72A
:1075A0006BFA01A8FAF768FAE4E703469D696846B2
:1075B000FAF762FA204602F0A7FC2946204602F0BC
:1075C000B7F8204600F0F2FD20460022094900F0FD
:1075D000C5FBFDF789F903B030BD6846FAF74CFAF0
:1075E000FDF782F903B030BD01A8FAF745FA009B18
:1075F000DCE700BF11F600082DE9F04F87B01E460A
:1076000081468A461546DDF84080139CFBF71EFB39
:10761000684B1F68B8F1000F0FD1674B1B88002B18
:107620006CD104F12C00F9F789FF044630BBFDF75B
:107630005BF9204607B0BDE8F08FB8F1FF3F68D096
:107640004046FAF745F9B0F90020B0F9023091440C
:1076500001909A441DB9B0F90450AD1A01351EB914
:10766000B0F90660F61A013601A8FAF705FA04F136
:107670002C00F9F763FF04460028D8D04E4A4D4449
:10768000119B56440DF1180B013D1F431388013E19
:1076900001331380FAF71CF9484A0346816A3A40DD
:1076A00012984BF8183D0A4318619D805846DE80B9
:1076B000A3F80090A3F802A09A62FAF7DDF9404B14
:1076C0001868002857D11C604146204602F030F867
:1076D000BA062CD4F8071FD4790624D4BB0758D493
:1076E000012306A92046039441F8103D02F02EFC28
:1076F000FDF7FAF8204607B0BDE8F08F314A324B6B
:107700001268527C53F822305A1C012A89D99846B3
:1077100096E74FF0000884E72C4A7906136803F1D6
:1077200001031360DAD52046FFF7CAFED6E7254EDF
:10773000FBF78CFA254633689C6400E00546284632
:10774000FAF7B4F980690028F8D11F4B1A689542FE
:107750001CD05B689D4218D0FFF776F92046FAF7F7
:10776000A5F93368B0F90010B0F90220D9641A65A0
:10777000FDF7BAF8AEE7FAF799F905462046FAF7A9
:1077800095F96B6943616C619EE70120FCF706FE89
:10779000E2E72046FAF79CF8034658469A6A0093B7
:1077A00042F002029A62FAF767F90021204600F0DF
:1077B0008FFC95E708470220164702209F3F3F00B5
:1077C0000C470220B400002064470220204702201A
:1077D00008B5064B00221B6883F85420FBF736FAE5
:1077E000FFF732F9BDE80840FDF77EB8B40000208D
:1077F00003680E3B10B5044640681A2B12D8DFE828
:1078000003F01B11111111110E1111201111111181
:107810001111111111112211111111111400E1682E
:1078200001F0F6FC0023E36010BD0028FCD000212D
:10783000BDE8104000F04CBC2146BDE8104001F00E
:107840002DB9E06010BD6FF07043E36010BD00BF64
:1078500000B97047AFF300802DE9F047844E86B041
:107860000446FBF7F3F9306848B1A04202D10BE0BF
:10787000844209D0FAF71AF940690028F8D1FDF7D7
:1078800033F806B0BDE8F087254600E01D462846DF
:10789000FAF70CF98369002BF8D1764F3A689542D4
:1078A00000F0DE807B689D4214BF4FF0FF3501255C
:1078B0000B230DF118082046039448F8103D41466B
:1078C00002F044FB204601F0B5FB2046FAF700F831
:1078D000436A0190002B40F0A280674B0021674A69
:1078E0001B686748816052F82300844208BF42F851
:1078F0002310644A52F823108C4200F09480624BAB
:107900001B6853B1002101E01B6833B15A689442EF
:10791000FAD159601B68002BF8D12046072100F0EE
:10792000CDFFDDF80490D9F81C0000285DD1204679
:10793000F9F7CEFF81690290002962D14046FAF73B
:107940009BF8306858B1FAF7B1F880464069844234
:10795000F8D12046FAF7AAF84369C8F81430019B19
:107960009B6AD90703D549490A68013A0A609A0611
:1079700042D401A8FAF780F8454A20461388013B13
:107980001380F9F725FE6B1C3FF479AF57F82550AB
:10799000FBF75CF9DFF80081D8F8003005B93568ED
:1079A0009D642C4600E01C462046FAF77FF8836968
:1079B000002BF8D139682F4A8C4253D053689C422F
:1079C00054D0FFF741F82846FAF770F8D8F800309D
:1079D000B0F90010B0F90220D9641A65FCF784FFF1
:1079E000FCF782FF06B0BDE8F087FFF735FFD9F856
:1079F0001C00002899D19AE7264A1388013B13807E
:107A0000B7E7026A202302F0C3F82046FAF74EF8DF
:107A10008146806958B9029B00229A618EE7184618
:107A2000FBF7AAFA59E7002142F8231067E7FAF7B3
:107A30003DF8C36982469C420BD0002BEBD0184620
:107A4000FAF734F8036A9C42F7D1D9F82030036280
:107A5000E1E72046FAF72AF8036ACAF81C30DAE7A9
:107A60001D4625E71846FCF799FCAAE70120FAE72E
:107A70000C470220644702201C4702206C4702206A
:107A8000F84002205C470220804702202047022065
:107A90001647022014470220B400002000B97047A6
:107AA00010B50446FBF7D2F82046F9F7FFFF044B68
:107AB000826A1340BDE810408362FCF715BF00BF27
:107AC000FBDFFFFF2DE9F04FABB0FBF7BFF8994BA1
:107AD0001B6803B1984700231C4600E0012405F011
:107AE0007BF90028FAD1DFF85CA20694DAF80030BE
:107AF00093F8543023B1904B1B88002B40F09680B4
:107B00000793DFF84CB2FCF7EFFE20E01846059330
:107B10008A4B1E68FCF72AFC23681A6B5B6B039286
:107B20000493002E32D1864B03989E60FCF762FCD2
:107B30000498FCF753FC0598FCF70EFCFCF7D4FE08
:107B4000B8F80030002B00F0D08001230693DAF85B
:107B500000307C4C93F85430002B00F0C680DFF8E6
:107B6000D881B8F80030002B00F0BF80FBF76EF82A
:107B7000734B9E680DAB002EC8D018460593FCF7DA
:107B8000F5FB23681A6B5B6B039204930BAD3046D5
:107B90000896F9F79DFE00F10803826A0990D0F873
:107BA000189017460469029293E8030085E80300E1
:107BB00009A8F9F761FF44F220033B40002B3ED0B7
:107BC000D4B1089C09E0FDF7A1FD0A9B0AA89F69B2
:107BD000002F3BD03C46F9F74FFF2046F9F778FEDF
:107BE00002462846936A11460A9213F00203EAD12C
:107BF0000AA81C46F9F740FF0898F9F769FE524BAE
:107C0000826A09901340920448BF43F004038362E0
:107C100009A8F9F731FFB8F80030013BA8F80030A7
:107C20006CB13046F9F742FF46697CE7474B1B6869
:107C3000002B7AD001221B680792984761E73046F3
:107C4000F9F734FF4669002EA1D16CE7F9F714FF6C
:107C5000DBF80020A24205D03D4B5A68944201D087
:107C60003C46C9E7089CFAF7F1FFDAF800300CB996
:107C7000324A14689C64274600E01F463846F9F7EC
:107C800015FF8369002BF8D1DBF800108F4242D03A
:107C9000DBF804309F423AD0FEF7D6FE2046F9F7D3
:107CA00005FFDAF80030B0F90010B0F90220D9640D
:107CB0001A65FCF719FE029A510711D5B9F1000FA8
:107CC0000CD002F0010383F001030093002308AA03
:107CD000204928461C46FBF779F98DE70123F4E794
:107CE0000898012402F0C0F886E7FAF7AFFF079B77
:107CF0003BB1164B186880B143689847164B002279
:107D00001A60FCF7F1FD06982BB0BDE8F08F01205A
:107D1000FCF744FBC0E71846FAE7FDF741FDFCF726
:107D2000E3FD06982BB0BDE8F08F01200790FDF72A
:107D300037FDE6E67C470220144702200C4702206C
:107D4000F8400220B4000020DFBFFFFF0047022000
:107D50006447022015F600081047022070B504465B
:107D60000D461646FAF772FF29462046324601F0C4
:107D7000A1F9BDE87040FCF7B7BD00BF014B1B681F
:107D8000986C7047B400002038B50546FAF75EFFDE
:107D9000084B1C6814B9084B1B689C6CFAF756FF1B
:107DA0002946204601F034FAFCF79EFDBDE8384034
:107DB000FCF79ABD74470220B400002038B5044691
:107DC0000D46FAF743FF2946204601F021FABDE8A7
:107DD0003840FCF789BD00BF00B585B017220023ED
:107DE00004A9039341F8102D00F03AFE039805B062
:107DF0005DF804FB034A044B1268527C53F82200DE
:107E0000704700BFB40000206447022010B504464C
:107E100038B1FAF71BFF2046F9F748FEC469FCF7B2
:107E200063FD204610BD00BF10B5FAF70FFF044AEE
:107E3000044B126853F82240FCF756FD204610BD53
:107E40001C4702206C47022010B50446FAF7FEFEDC
:107E50001CB12046F9F72AFE046AFCF745FD2046CE
:107E600010BD00BF10B5044638B1FAF7EFFE20464A
:107E7000F9F71CFE8469FCF737FD204610BD00BFF2
:107E800010B5044640B1FAF7E1FE2046F9F70EFEC0
:107E9000B0F90040FCF728FD204610BD80B179B153
:107EA00038B505460C46FAF7D1FE2846F9F7FEFD2F
:107EB000034603CB20606160BDE83840FCF714BD89
:107EC000704700BF10B5044682B0FAF7BFFE14B980
:107ED000FFF754FF04462046F9F7FAFCB0F90430E6
:107EE000B0F9004002AA1C1B42F8040D10460134F0
:107EF000F9F7C2FDFCF7F8FC204602B010BD00BF48
:107F000010B5044682B0FAF7A1FE14B9FFF736FFA8
:107F100004462046F9F7DCFCB0F90630B0F902401F
:107F200002AA1C1B42F8040D10460134F9F7A4FD07
:107F3000FCF7DAFC204602B010BD00BF044A054B36
:107F4000126853F82230181AB0FA80F040097047CE
:107F50001C4702205C470220044A054B126853F874
:107F60002230181AB0FA80F0400970471C470220EE
:107F70006C4702202DE9F04F454D85B02B78002B42
:107F80007AD1444F1C46DFF840919A4638684249FE
:107F9000424ADFF82881424EDFF830B1AB604364DB
:107FA000C9F800300B8013802046FAF757F843F6E3
:107FB000FF7300214FF0020C4FF0FF3E1A4688B1CC
:107FC000CDF80CA008460296CDF804C0CDF800E02C
:107FD000FFF712FB6FF0704248F824004BF82420A2
:107FE000002850D10134022CDED12E4801F01AF8BD
:107FF0002D4801F017F82D4801F014F82C4801F035
:1080000011F82C4801F00EF82B4801F00BF8D8F8C5
:108010000060FAF71BFE3B680EB9D9F800609E6459
:10802000344600E004462046F9F740FD8069002808
:10803000F8D1D8F80030214A9C4221D053689C42A4
:108040001DD0FEF701FD3046F9F730FD3B68B0F971
:108050000010B0F90220D9641A65FCF745FC012331
:108060003968174A174881F854302B706A6205B096
:10807000BDE8F04FFDF794BC05B0BDE8F08F0120DE
:10808000FCF78CF9DDE7002100F022F8AAE700BF39
:10809000F8400220B40000201447022016470220B6
:1080A00061F500083C4702202C4702204C47022083
:1080B00044470220344702205447022064470220EC
:1080C00031E400081C4102200C4702202447022012
:1080D0002DE9F041074686B00C46FAF7B7FD384661
:1080E000F9F7F6FBD0F82880009018F0020F2FD097
:1080F00004AE18F4803F03C886E8030045D17CB184
:10810000206802AB6168009C03C3B4F9022002A896
:10811000B4F90010FCF79EF802A93046FDF7F6FA14
:108120003D4608E0FDF7F2FA019B01A89C69BCB14D
:108130002546F9F7A1FC2846F9F7CAFB0346304665
:108140009A6A194601939307ECD401A8F9F794FCB5
:108150006846F9F791FCFCF7C7FB06B0BDE8F08173
:10816000F9F78AFC104B1A68AA4202D05B689D425C
:10817000EED140F6010308EA0303012B0BD0314690
:108180003846202205F072FFE2E7384601F03AFB5C
:10819000002CB5D1C4E70099304620230A6A8969CA
:1081A00001F0F6FCD4E700BF6447022000B9704735
:1081B0002DE9F041064684B0FAF748FD3046F9F75C
:1081C00087FBD0F82880009018F0020F1ED002AF75
:1081D00018F4803F03C887E803001FD1354608E044
:1081E000FDF794FA019B01A89C69DCB12546F9F7DB
:1081F00043FC2846F9F76CFB034638469A6A194651
:1082000001939307ECD401A8F9F736FC6846F9F717
:1082100033FCFCF769FB04B0BDE8F081304601F0A7
:10822000F1FADBE7F9F728FC0D4B1A68954202D00A
:108230005B689D42EAD140F6010308EA0303012B83
:1082400005D039463046202205F010FFDEE70099C0
:10825000384620230A6A896901F09AFCD6E700BFF4
:10826000644702202DE9F04F044683B0FAF7EEFC94
:1082700024B903B0BDE8F04FFCF736BB2046FFF74A
:1082800095FFFAF7E3FC2046F9F710FCD0F81C80C4
:10829000FCF72AFBB8F1000FEBD0FAF7D7FC404609
:1082A000FFF784FFFAF7D2FC4046F9F7FFFBD0F85E
:1082B0001C90FCF719FBB9F1000F00F0B880FAF739
:1082C000C5FC4846FFF772FFFAF7C0FC4846F9F7CD
:1082D000EDFBD0F81CA0FCF707FBBAF1000F00F093
:1082E0009B80FAF7B3FC5046FFF760FFFAF7AEFC4D
:1082F0005046F9F7DBFBD0F81CB0FCF7F5FABBF100
:10830000000F7ED0FAF7A2FC5846FFF74FFFFAF7AE
:108310009DFC5846F9F7CAFBC3691C460193FCF75C
:10832000E3FA002C63D0FAF791FC019C2046FFF79A
:108330003DFFFAF78BFC2046F9F7B8FBC669FCF75E
:10834000D3FA002E4AD0FAF781FC3046FFF72EFF11
:10835000FAF77CFC3046F9F7A9FBC569FCF7C4FACB
:10836000A5B3FAF773FC2846FFF720FFFAF76EFC77
:108370002846F9F79BFBC469FCF7B6FAF4B1FAF7A3
:1083800065FC2046FFF712FFFAF760FC2046F9F77C
:108390008DFBC769FCF7A8FA47B13846FFF762FFC3
:1083A0003846F9F783FB076A002FF6D1FCF79CFAF1
:1083B0002046F9F77BFB046A002CE0D1FCF794FA25
:1083C0002846F9F773FB056A002DCAD1FCF78CFA31
:1083D0003046F9F76BFB066A002EB4D1FCF784FA3D
:1083E0000198F9F763FB036A0193002B9BD1FCF71B
:1083F0007BFA5846F9F75AFBD0F820B0BBF1000FD2
:1084000080D1FCF771FA5046F9F750FBD0F820A064
:10841000BAF1000F7FF465AFFCF766FA4846F9F74A
:1084200045FBD0F82090B9F1000F7FF448AFFCF77E
:108430005BFA4046F9F73AFBD0F82080B8F1000F1C
:108440007FF42BAF15E700BF00B970472DE9F04F5F
:10845000A1B004460D460192F9F73AFA836A0590F5
:108460009A0740F15681024629460EA8FDF76CF99D
:10847000002800F04E8105A8F9F7FEFA2046019A7F
:108480000EA905F0F3FD2046FFF7C0FC04460028C6
:1084900000F042812046F9F71BFA836A06909B0799
:1084A00040F13D8102460EA910A8FDF74DF90028C4
:1084B00000F0358106A8F9F7DFFA019A10A92046E5
:1084C00005F0D4FD2046FFF7A1FC0546002800F08A
:1084D000188102942846F9F7FBF9836A07909F07F1
:1084E00040F12181024610A912A8FDF72DF90028BC
:1084F00000F0198107A8F9F7BFFADDF804A02846B3
:1085000012A9524605F0B2FD2846FFF77FFC00286D
:1085100000F0EF80039505462846F9F7D9F9836AFC
:1085200008909E0740F10381024612A914A8FDF7A6
:108530000BF9002800F0FB8008A8F9F79DFA2846FF
:10854000524614A905F092FD2846FFF75FFC00286B
:1085500000F0C780AB4680464046F9F7B9F9836A18
:1085600009909D0740F1E780024614A916A8FDF77F
:10857000EBF8002800F0DF8009A8F9F77DFA404603
:10858000524616A905F072FD4046FFF73FFC002851
:1085900000F09D8081464846F9F79AF9836A0A906F
:1085A0009C0740F1D580024616A918A8FDF7CCF823
:1085B000002800F0CD800AA8F9F75EFA524618A903
:1085C000484605F053FD4846FFF720FC05460028C5
:1085D00074D02846F9F77CF9836A0B90990740F12B
:1085E000C480024618A91AA8FDF7AEF8002800F0CA
:1085F000BC800BA8F9F740FA52461AA9284605F0A4
:1086000035FD2846FFF702FC0646002850D03046CC
:10861000F9F75EF9836A0C909A0740F1B18002463F
:108620001AA91CA8FDF790F8002800F0A9800CA852
:10863000F9F722FA52461CA9304605F017FD3046DC
:10864000FFF7E4FB074668B33846F9F741F9836A58
:108650000D909B0740F19F8002461CA91EA8FDF7C4
:1086600073F8002800F097800DA8F9F705FA524634
:108670001EA9384605F0FAFC3846FFF7C7FB04464A
:1086800050B1204652461EA9FFF7DEFE2046F9F7FC
:108690000DFA046A002CF4D13846F9F707FA076A94
:1086A000002FD1D13046F9F701FA066A002EAED17B
:1086B0002846F9F7FBF9056A002D8AD14846F9F7F3
:1086C000F5F9D0F82090B9F1000F7FF464AF40467F
:1086D000F9F7ECF9D0F82080B8F1000F7FF43CAF47
:1086E0005D462846F9F7E2F9056A002D7FF414AFDC
:1086F000039D2846F9F7DAF9056A002D7FF4EAAE02
:10870000029C2046F9F7D2F9046A002C7FF4C2AE2D
:1087100002E005A8F9F7B0F921B0BDE8F08F06A88E
:10872000F9F7AAF9EDE707A8F9F7A6F9E1E708A82C
:10873000F9F7A2F9D5E709A8F9F79EF94046F9F744
:10874000B5F9D0F82080B8F1000F7FF405AFC7E786
:108750000AA8F9F791F94846F9F7A8F9D0F8209056
:10876000B9F1000F7FF417AFB1E70BA8F9F784F95F
:108770002846F9F79BF9056A002D7FF42AAF9DE79B
:108780000CA8F9F779F93046F9F790F9066A002E46
:108790007FF43DAF8CE70DA8F9F76EF93846F9F78D
:1087A00085F9076A002F7FF44FAF7BE708B90020F7
:1087B000704730B5044685B0FAF748FA2046F9F715
:1087C00075F9856AFCF790F8AB0702D515F010052E
:1087D00002D0002005B030BD1F2304A92046039518
:1087E00041F8103D00F03CF90398F3E710B504465A
:1087F000FAF72CFA204601F0C5FA0446FCF774F8A3
:10880000204610BD2DE9F0438BB004460D461646B8
:10881000FAF71CFA002307930693089309930CB107
:108820002DB926B9FCF760F80BB0BDE8F0832046FF
:108830000DF10808F9F74CF80346019032460AAFEB
:1088400003C888E8030018462946FBF703FD019892
:10885000324629460830FBF7FDFC57F8243DD3F893
:108860001C903846F9F708F932462946484605F083
:1088700071FC2046F9F72CF8826A0190920701D525
:10888000816989B93846F9F7F7F8032204AB06A9DC
:108890002046069209930495059601F057FBFCF7D4
:1088A00023F80BB0BDE8F083026A01F0FDF8019BEC
:1088B00040461A6A996901F0F7F8E3E730B52623D4
:1088C00085B0044603910093FAF7C0F91CB9FCF790
:1088D0000BF805B030BDFAF7B9F92046F9F7E6F81C
:1088E0008569FCF701F8002DF1D02846694602940D
:1088F00001F02CFBFBF7F8FF05B030BD30B587B0B9
:1089000004460D46FAF7A2F90D4A0E4B126853F8C9
:10891000220028B90446FBF7E7FF204607B030BD28
:108920000E230094012402A902930195CDF814D0DE
:1089300001F00CFBFBF7D8FF204607B030BD00BFAD
:108940001C4702206C47022000B551EA020E00D0FD
:1089500008B95DF804FB5DF804EB00F001B800BF56
:108960002DE9F04106468AB088461746FAF76EF9B7
:108970003046F8F7ADFF04AC034606AD039003C8DC
:1089800084E8030085E80300B8F1000F09D09A6A73
:1089900002F42072802A56D0BDF81C209044ADF815
:1089A0001C8057B19A6A02F4A062B2F5807F51D060
:1089B000BDF81E201744ADF81E709A6AD1033CD44E
:1089C000920795E8030083E803000BD52A46214669
:1089D00008A8FBF711FC039B08A81A6A996901F023
:1089E00043F9039BBDF91E201846BDF91640BDF999
:1089F0001C10BDF91430141BBDF91A70CB1ABDF947
:108A00001220BDF91850BDF91010BA1A00940AAC22
:108A1000691A01F0D9FA54F81C1D01F10800FCF79D
:108A200075FE0521304601F0C3FA2046F9F724F817
:108A3000FBF75AFF0AB0BDE8F081304600F0E2FED5
:108A4000039B9A6ABCE7BDF81820C8EB0208ADF892
:108A50001880A6E7BDF81A20D71BADF81A70ACE74E
:108A600000B9704738B504460D46FAF7EFF82946C5
:108A7000204601F06BFABDE83840FBF735BF00BF78
:108A800038B504460D46FAF7E1F82946204601F0CC
:108A90007BFABDE83840FBF727BF00BFE1B170B5F6
:108AA00005460C46FAF7D2F81DB9BDE87040FBF751
:108AB0001BBFFAF7CBF82846F8F7F8FF8669FBF7F3
:108AC00013FF002EF1D0A5602146304601F03EFA9A
:108AD000BDE87040FBF708BF704700BFF0B50F4E10
:108AE00085B005460F460E4CFAF7B0F8336854F8D7
:108AF000230058B1A84209D0182304A941F8103D19
:108B000001F024FA3368002244F82320054A44F88F
:108B100023501770FBF7E8FE05B0F0BD1C4702209C
:108B20005C470220044702202DE9F04385B00E4641
:108B300091461F468046FFF701FA002838D0224BA5
:108B40003468B3F90020B3F902507368A41A5D1BAE
:108B5000B9F1000F08D13FB92A4621464046FFF738
:108B600051FE05B0BDE8F08340466946FFF796F92F
:108B70002FB1BDF80230013B1F44ADF806704046EE
:108B8000FFF770F902A9FFF789F92A4621466846DE
:108B9000FBF760FB02A94A460846FCF7F1FE02A972
:108BA0006846FBF7BBFB0028D6D105B0BDE8F083D3
:108BB00040460121FFF792FF034B96E8060019801B
:108BC0005A8005B0BDE8F083D44102202DE9F04180
:108BD000002586B004460395029504950595FAF79D
:108BE00035F8002C4ED0DFF8B8802C4FD8F8003084
:108BF00057F82300844245D01E2305958DE81100C7
:108C00000293002845D1012302A92046059301F0D3
:108C10009DF9059E002E36D1D8F80030202547F862
:108C2000234004E00295CDF814D001F08FF9FAF753
:108C30000DF82046F8F73AFF8469FBF755FE02A9C4
:108C40002046002CEED1009CFAF700F8204601F0F7
:108C500099F80546FBF748FEADB1A4B1202504E024
:108C60000295CDF814D001F071F9F9F7EFFF204625
:108C7000F8F71CFF8469FBF737FE02A92046002C99
:108C8000EED100E00126FBF72FFE304606B0BDE82E
:108C9000F08102A901F05AF9B5E700BF6C47022044
:108CA0001C47022070B510B90446204670BD064628
:108CB000F9F7CCFF304600F0CDFA0446002831D158
:108CC0003046F8F7F3FEC569AC4208BF00252C46D4
:108CD0000FE020460CB3F8F7E9FE036A1BB93046F3
:108CE000F8F7E4FEC3699C4214BF1C460024A54269
:108CF00004D02046FFF75AFD0028EAD06CB10C4D95
:108D000020462E6800F01EFC421C034606D020467A
:108D10002B60FFF75BFF2E6000B10024FBF7E4FD42
:108D2000204670BDF8F7C2FE056A002DCCD1C7E71A
:108D30001C47022038B5044608B9204638BDF9F76B
:108D400085FF204600F086FA044628BB204600F046
:108D5000A7FA0546AC4208BF00252C460DE0204688
:108D600084B100F0D5FB10B9204600F099FA844296
:108D700014BF04460024A54204D02046FFF716FD88
:108D80000028ECD02046FFF721FF002818BF002460
:108D9000FBF7AAFD204638BD00F0BAFB05460028C7
:108DA000D8D1D3E730B5044683B0F9F74FFF1CB9EB
:108DB000FBF79AFD03B030BD2046F8F789FD836AC2
:108DC0000190DB0706D501A8F8F756FEFBF78CFDEE
:108DD00003B030BD204600F06FF8019D05492046E4
:108DE000AA6A0B6842F001020133AA620B60FFF726
:108DF000DDF9E8E72047022000B970472DE9F0418E
:108E0000044682B017468846F9F720FF2046F8F757
:108E10005FFDB0F90010B0F906500DF1080EB0F981
:108E20000230B0F90460EB1A4EF8040D761A704661
:108E30000133751CFE1AF8F71FFEC5EB080555EA4D
:108E4000060304D1FBF750FD02B0BDE8F0813246C5
:108E500029462046FFF784FDF4E700BF38B50546F4
:108E6000F9F7F4FE044B1B685C6C5D6400F046F897
:108E7000FBF73AFD204638BDB400002000B970472A
:108E800010B5044682B0F9F7E1FE2046F8F720FD60
:108E9000826A03460190910706D501A8F8F7ECFD18
:108EA000FBF722FD02B010BD42F0020220469A629A
:108EB000FFF7D8F9F1E700BF10B5044682B0F9F723
:108EC000C5FE1CB9FBF710FD02B010BD2046F8F737
:108ED000FFFC836A01909A0606D5074923F0200318
:108EE0000A888362531E0B8001A8F8F7C5FDFBF7C3
:108EF000FBFC02B010BD00BF144702202DE9F04179
:108F0000454F86B03B6893F85420002A39D1986CBD
:108F100002AEF8F7DDFC0090DFF8008103C886E8B8
:108F200003006846F8F7A8FDD8F80040002C50D19F
:108F30003F687A6C002A67D004AD106851682B46F0
:108F4000D8F8004003C3D4B1204606ACF8F7C0FC03
:108F50000346B0F902202846B3F9001044F8143D46
:108F6000FBF778F92046F8F787FD28463146FCF7ED
:108F7000CDFB2846FDF74EFD06B0BDE8F081BC6C88
:108F8000E2E7596C002943D004AD244C08682A4616
:108F90004968246803C2D4B1204606ACF8F798FCAF
:108FA0000346B0F902202846B3F9001044F8103DFA
:108FB000FBF750F92046F8F75FFD19492846FCF702
:108FC000A5FB2846FDF726FD06B0BDE8F0819C6CA8
:108FD000E2E704AD07E0FCF799FB049B28469C6997
:108FE0007CB1F8F749FD2046F8F772FC034630469D
:108FF0009A6A194604939307EDD42846F8F73CFD86
:1090000096E7F8F739FD93E73046FDF703FDB3E740
:109010000348FDF7FFFCAFE7B400002074470220CF
:109020000C410220024B1A6802601860704700BFB2
:109030008047022070B582B00546F9F707FE684602
:10904000FBF7DCFA78B1044601212046FBF7B8FAB9
:10905000009B02466946204603B142B9FBF7E6FA97
:109060000446002CF0D1FBF73FFC02B070BD18465F
:10907000F8F71CFD436869462046AB42EED1009EDE
:10908000FBF7D4FA0446002EEBD0F9F7DFFD3046AB
:10909000F8F71EFC034600680193FBF727FA01A8C6
:1090A000F8F7EAFC3046F8F793FAFBF71DFC002CC2
:1090B000CAD1D8E72DE9F04F85B00D461446F8F730
:1090C000F5FCC3690293002B00F09E80029E2146AE
:1090D0003046A8473046F8F7E9FCC3690393002BF4
:1090E00000F08A80039E21463046A8473046F8F7B4
:1090F000DDFCD0F81C80B8F1000F75D02146404649
:10910000A8474046F8F7D2FCD0F81C90B9F1000F00
:1091100062D021464846A8474846F8F7C7FCD0F831
:109120001CA0BAF1000F4FD021465046A847504628
:10913000F8F7BCFCD0F81CB0BBF1000F3CD02146C6
:109140005846A8475846F8F7B1FCC36901935BB38A
:10915000019E21463046A8473046F8F7A7FCC6696D
:10916000DEB121463046A8473046F8F79FFCC76974
:109170006FB138462146A847384622462946FFF7B0
:1091800099FF3846F8F792FC076A002FF1D1304674
:10919000F8F78CFC066A002EE3D10198F8F786FCFC
:1091A000036A0193002BD3D15846F8F77FFCD0F81F
:1091B00020B0BBF1000FC2D15046F8F777FCD0F8D1
:1091C00020A0BAF1000FAFD14846F8F76FFCD0F8F5
:1091D0002090B9F1000F9CD14046F8F767FCD0F819
:1091E0002080B8F1000F89D10398F8F75FFC036A7B
:1091F0000393002B7FF476AF0298F8F757FC036ACD
:109200000293002B7FF462AF05B0BDE8F08F00BF82
:1092100080B179B130B583B00C46F8F759FB02AD97
:10922000214645F8040D00F007F82846F8F724FC1D
:1092300003B030BD704700BF0023828830B40B807C
:109240004B8005884488C388521B1B1B8A80CB80B7
:1092500030BC7047F0B5104E83B0104D336855F8F0
:10926000233013B9002003B0F0BD07461846F8F7C5
:109270002FFB0446019050B1846901A8F8F7FCFB6C
:10928000A742EFD1336855F8230003B0F0BD01A821
:10929000F8F7F2FB2046E6E71C4702206C47022065
:1092A00010B5044608B906E01C462046F8F7FEFB58
:1092B000036A002BF8D1204610BD00BF2DE9F04312
:1092C000DFF8488287B0D8F8003093F8540030B106
:1092D0008D4E336A012B05DD013B0020336207B060
:1092E000BDE8F083F36906F1140702AD013397E896
:1092F0000300F36185E803006BB9F268B6F90E303C
:109300000292B6F91220804C9A421ADA336A00208F
:10931000013B3362E3E7328BB6F910100132B6F944
:10932000163012B2ADF80A309142ADF80820E8DAF2
:10933000738BB2890133ADF808201BB2ADF80A3047
:10934000DFE7D8F80030DFF8C491986CF8F7C0FA7E
:10935000BDF90830B4F90C1002460090994200F0B3
:10936000BB80D8F80020ADF80C30906C10B90DE03F
:10937000A06958B1F8F79AFB29460446006A04F040
:1093800035F80028F4D0BDF90830EAE7009B2946FB
:10939000D86904F02BF80028F5D1B6F91030BDF9E2
:1093A0000820ADF80C309A4200F38E80D8F80030D7
:1093B000986C00282FD00DF11008F8F777FB046A9D
:1093C00081466CB923E0E1074CD4BDF81030019818
:1093D000013BADF80C30046A01A8F8F74DFBB4B1BD
:1093E0002046F8F775FA846A0190A307F3D503C8FD
:1093F00088E8030041462846FAF790FF0028E2D1AA
:109400000198046A01A8F8F737FB002CE8D1D9F8D5
:1094100018000028D1D1009BDC69002C43D00DF14D
:1094200010080DE0E3072ED4BDF810300198013B81
:10943000ADF80C30046A01A8F8F71EFB002C32D0FE
:109440002046F8F745FA846A0190A207F2D503C8CE
:1094500088E8030041462846FAF760FF0028E1D17A
:109460000198E7E70198C469002CB4D02046424631
:10947000294604F001F82046F8F718FB046A002C8E
:10948000F4D10198BDE70198C469002CD2D02046E0
:109490004246294603F0F0FF2046F8F707FB046A2E
:1094A000002CF4D1DCE76846F8F7E6FAF26944F6F6
:1094B00020639A423FF72AAF95E8030087E803004C
:1094C000FFF71CFD01200AE795E8030087E8030089
:1094D0006846F8F7D1FA2BE7D9F800102369886CB1
:1094E000039350B1F8F7E2FA04462946006A04F003
:1094F00073F8A0690028F5D1009AD069294604F0D4
:109500006BF8BDF908302CE7F8400220B4000020C9
:1095100038B50546FEF7A6FC10B90024204638BD34
:10952000F8F7C4FAC46900E01C46AC422046F4D007
:10953000002CF2D0F8F7BAFA036A9D42F4D1204623
:1095400038BD00BF10B5044600E01C462046F8F7C1
:10955000ADFA8369002BF8D1064A11688C4206D017
:1095600053689C420CBF01204FF0FF3010BD1846DD
:1095700010BD00BF64470220B0F90430B0F900000C
:10958000181A0130704700BFB0F90630B0F9020078
:10959000181A0130704700BF2DE9F0435E4C89B0C6
:1095A000226892F854304BB15C4D2B6A0133012B89
:1095B0002B6209DD012009B0BDE8F083FFF79EFCB6
:1095C000012009B0BDE8F0830746906CF8F780F9F8
:1095D000534B4FF0FF3201901B78EA61002B61D0B2
:1095E000083004AE03C886E803001FB13946304690
:1095F000FCF78CF823684B4F5A6C002A00F08780E8
:10960000106806AB51680DF108083A6803C3019B66
:109610000293002A60D1B3F9001006A8B3F9022022
:10962000FAF718FE304606A9FCF770F84046F8F73E
:1096300023FAD7F800900DF10C08B9F1000F26D1EC
:1096400023689F6C08E0FCF761F8039B40469C6927
:109650008CB32746F8F710FA3846F8F739F903467D
:1096600030469A6A194603939307ECD44046F8F7BC
:1096700003FA2B6A0020013B2B629CE7FCF746F8BB
:10968000039B40469F6987B3B946F8F7F5F948460A
:10969000F8F71EF9034630469A6A19460393920773
:1096A000E4D5EBE7836A13F0020628D004AE03C8C2
:1096B00086E8030099E7F8F7DFF91B4B1A68974231
:1096C00002D05B689F42D4D1184B96E8030083E830
:1096D0000300FFF7F3FD6EE74046F8F7CDF9386871
:1096E000F8F7F6F80346029095E7F8F7C5F90E4B40
:1096F0001A689145A4D05B689945A1D0B9E72B6A57
:1097000001A8013B2B62F8F7B7F9304653E701A8EF
:10971000F8F7B2F98DE700BFB4000020F84002204E
:1097200018470220744702206447022004410220A7
:1097300001B9704770B584B00C460546F8F7C8F813
:109740000022034620469C611A620193F8F7C0F894
:10975000C46902902CB3019B20469E6AF8F7B8F8C2
:10976000039006F008062EBB836A1A073CD402A8B1
:10977000F8F782F903A8F8F77FF92046F8F796F989
:1097800005E02046F8F792F9836A1B0727D4046A9C
:109790000390002CF5D1056201A8F8F76DF904B02B
:1097A00070BDC56101A8F8F767F902A8F8F764F978
:1097B00004B070BD02A8F8F75FF903A8F8F75CF9E8
:1097C0002046F8F773F9026A0390002AE3D01046A6
:1097D000F8F76CF9026A0390002AF8D1DBE7039AE4
:1097E000019B15621C62D7E7019A01A8029B1462D3
:1097F000DD61F8F741F902A8F8F73EF903A8F8F798
:109800003BF9D5E700B970472DE9F04F8FB004461A
:10981000F8F75EF8836A05909A0740F13C81406A48
:1098200040B1A04B1B689C4204D0F9F7A5FB059BF7
:1098300000225A622046FEF7E9FA0390002800F061
:109840002A81DFF860820398F8F742F8836A06906D
:109850009B0740F11581406A48B1D8F80030039A5F
:10986000934204D0F9F788FB069B00225A620398C2
:10987000FEF7CCFA0290002800F002810298F8F777
:1098800027F8836A07909F0740F1EF80406A48B14C
:10989000D8F80030029A934204D0F9F76DFB079B89
:1098A00000225A620298FEF7B1FA8346002800F0BF
:1098B000DC805846F8F70CF8836A08909E0740F160
:1098C000C880406A40B1D8F800305B4504D0F9F751
:1098D00053FB089B00225A625846FEF797FA8246CD
:1098E000002800F0B6805046F7F7F2FF836A09902F
:1098F0009D0740F1A280406A40B1D8F8003053453E
:1099000004D0F9F739FB099B00225A625046FEF752
:109910007DFA0190002800F090800198F7F7D8FFB9
:10992000836A0A909C077DD5406A48B1D8F8003018
:10993000019A934204D0F9F71FFB0A9B00225A6256
:109940000198FEF763FA064600286BD03046F7F719
:10995000BFFF836A0B9099075BD5406A40B1D8F886
:109960000030B34204D0F9F707FB0B9B00225A6288
:109970003046FEF74BFA054600284AD02846F7F74E
:10998000A7FF836A0C909A073AD5406A40B1D8F88D
:109990000030AB4204D0F9F7EFFA0C9B00225A6278
:1099A0002846FEF733FA044650B34FF0000920462C
:1099B000F7F78EFF836A0D909B0718D5406A40B178
:1099C000D8F80030A34204D0F9F7D6FA0D9BC3F8BB
:1099D00024902046FEF71AFA074640B13846FFF7B2
:1099E00011FF3846F8F762F8076A002FF6D10DA884
:1099F000F8F742F82046F8F759F8046A002CD6D157
:109A00000CA8F8F739F82846F8F750F8056A002D41
:109A1000B4D10BA8F8F730F83046F8F747F8066AE3
:109A2000002E93D10AA8F8F727F80198F8F73EF826
:109A3000036A0193002B7FF470AF09A8F8F71CF8B4
:109A40005046F8F733F8D0F820A0BAF1000F7FF4B1
:109A50004AAF08A8F8F710F85846F8F727F8D0F8F2
:109A600020B0BBF1000F7FF424AF07A8F8F704F88B
:109A70000298F8F71BF8036A0293002B7FF4FEAEFE
:109A800006A8F7F7F9FF0398F8F710F8036A0393AD
:109A9000002B7FF4D8AE05A8F7F7EEFF0FB0BDE8B6
:109AA000F08F00BF784702202DE9F041054686B0CF
:109AB00008460C461746F7F7F9FF836A13F4803F10
:109AC00014BF4FF48046202614B906B0BDE8F081DB
:109AD0002046F7F7FDFED0F82880009018F0020F1E
:109AE00043D00246294602A8FBF72EFE00283CD0B0
:109AF00040F6010308EA0303012B40D0204632461A
:109B000002A904F0B3FA009BDC6974B3A7422CD01D
:109B10002046F7F7DDFE836A01909B072BD50246AE
:109B200002A904A8FBF710FE28B301A8F7F7A4FFC9
:109B3000324604A9204604F099FA2046FEF766F959
:109B4000054650B12846324604A9FEF77DFC28465A
:109B5000F7F7ACFF056A002DF4D12046F7F7A6FF12
:109B6000046AA74201D0002CD2D16846F7F784FFDF
:109B700006B0BDE8F08101A8F7F77EFFEDE7009998
:109B8000334602A80A6A896900F002F8BBE700BF01
:109B900001B970472DE9F041054686B008460C46EC
:109BA0001E461746F7F794FED0F82880009018F06C
:109BB000020F41D00246294602A8FBF7C5FD002846
:109BC0003AD040F6010308EA0303012B44D02046B3
:109BD000324602A904F04AFA009BDC69BC422BD051
:109BE00054B32046F7F774FE836A01909B0729D58A
:109BF000024602A904A8FBF7A7FD18B301A8F7F7CE
:109C00003BFF324604A9204604F030FA2046FEF716
:109C1000FDF8054650B12846324604A9FEF714FC6B
:109C20002846F7F743FF056A002DF4D12046F7F7E1
:109C30003DFF046AA742D3D16846F7F71DFF06B07F
:109C4000BDE8F08101A8F7F717FF2046F7F72EFFD0
:109C5000046AA742C4D1EFE70099334602A80A6A12
:109C60008969FFF795FFB7E701B97047F0B5054679
:109C700087B0084616460C46F7F72AFE876A00901A
:109C8000BA0742D50246294602A8FBF75DFD002827
:109C90003BD040F601033B40012B3FD02046202221
:109CA00002A904F0E3F9009BDC6974B3A6422CD04E
:109CB0002046F7F70DFE836A01909B072AD50246DE
:109CC00002A904A8FBF740FD20B301A8F7F7D4FED2
:109CD000202204A9204604F0C9F92046FEF796F890
:109CE000054650B12846202204A9FEF7ADFB2846C0
:109CF000F7F7DCFE056A002DF4D12046F7F7D6FE13
:109D0000046AA64201D0002CD2D16846F7F7B4FE0F
:109D100007B0F0BD01A8F7F7AFFEEEE700992023EA
:109D200002A80A6A8969FFF733FFBCE768B110B57A
:109D30000C4631B1F7F7BAFE8069844203D000289F
:109D4000F8D1002010BD012010BD0020704700BFD9
:109D5000884215D090B110B50C4609B9002010BD4D
:109D6000F7F7A4FE8069844206D00028F6D0F7F702
:109D70009DFE80698442F8D1012010BD002070470B
:109D800001207047094B10B50446186848B1A0423D
:109D900002D108E0844206D0F7F788FE4069002827
:109DA000F8D1002010BD012010BD00BF0C470220DB
:109DB0002DE9F04389B00646F7F78AFD00F1080364
:109DC000076902AC0190856A93E8030084E8030008
:109DD00001A8F7F751FE0FB1AB0702D409B0BDE8F7
:109DE000F0831F4F2E213046FEF74AFE3B7815F4D4
:109DF000805503F101033B7019D12046FFF7CCFBDE
:109E000018B3DFF860904FF00F080596CDF810807A
:109E10000794F7F7FDF8D9F8003004A930465D64DF
:109E200000F094F8FFF74AFA0028EED10DE00F2376
:109E3000059607940493F7F7EBF80A4B002204A960
:109E400030461B685A6400F081F83B7830462F2179
:109E5000013B3B70FEF714FE09B0BDE8F08300BF84
:109E600018470220B400002030B583B00446F7F74D
:109E70002FFD40F60103826A01901340012B0ED0A2
:109E800001A8F7F7F9FD2046F7F710FE826A1B4B91
:109E9000204612F4803F1A4A08BF13469847194BD0
:109EA0001B680BB903B030BD204604F00DFD204601
:109EB000F7F7FCFD8569046A002DF3D084B12046D4
:109EC000F7F7F4FD836A03F00303032B11D0204658
:109ED00004F0FAFC2046F7F7E9FD046A002CEED105
:109EE0002846F7F7E3FD8569046A002DE6D103B043
:109EF00030BD204604F088FCE9E700BFF5310008DA
:109F0000B19D00082047022070B50446F7F7CEFD4A
:109F10000546806900B970BDF7F7C8FDC3690646FC
:109F20009C420CD013B910E0002BF4D01846F7F780
:109F3000BDFD036A9C42F7D12B6A036270BD2046C7
:109F4000F7F7B4FD036AF36170BD70BD70B50D4CD9
:109F50002268132A00DD70BD06460D46F7F7A6FD00
:109F600002696E6042B1236828460133236090473E
:109F70002368013B236070BD2846BDE87040FDF7B3
:109F800037BC00BFD841022030B5002385B00C4655
:109F900005460193009302930393F7F787FD036946
:109FA0001BB1019568460094984705B030BD00BFCD
:109FB00000B585B004AB019043F8101D1946FFF7BA
:109FC000C5FF05B05DF804FB2DE9F04FD0F81CB0DB
:109FD0008BB0BBF1000F00F0868007939BB201921B
:109FE00003938BB206910493BDF85030059335E08E
:109FF0000699771807995D183FB22DB202F4A06256
:10A00000B2F5807F48D0B2F5A06F5FD1019A0AEB1C
:10A010000208149A09EB02040FFA88F824B2B74236
:10A02000CAEB0802A7EB060144D1002A42D1ED1B7E
:10A030009E1BC8EB0404CAEB0909B542A5EB060157
:10A04000C9EB04024BD1002A49D1099B09A8D3F8D6
:10A0500020B0F7F711FDBBF1000F44D05846F7F7D9
:10A0600037FC826A099002F42071B0F90060B0F9FF
:10A0700002A08029B0F90430B0F9069020D0B1F5E3
:10A08000207FB5D0049902F4A0628F19CD18B2F5E3
:10A09000807F3FB22DB2B6D10599B74201EB0A08D5
:10A0A00001EB0904A7EB06010FFA88F824B2CAEB0A
:10A0B0000802BAD058460293FEF7A4FB029BB6E70B
:10A0C00003998F19CD183FB22DB297E7BDF8041050
:10A0D00001EB0A0849440FFA88F80CB29FE758468A
:10A0E000FEF732FCB1E70BB0BDE8F08FC04BDA6889
:10A0F000F0B5013A9C6B0D182244AA4203D30A58CA
:10A10000002A00F0A1808C4205D251F8042C8A1A52
:10A110001468002C4AD0D3F8B840B54AA04280F069
:10A120001E81D2F8B040A04280F01B81D2F8A84036
:10A13000A04280F01881D2F8A040A04280F01581A2
:10A14000D2F89840A04280F01281D2F89040A0420C
:10A1500080F00F81D2F88840A04280F00C81D2F8C4
:10A160008040A04280F00981946FA04280F0078176
:10A17000126F904280F005819C6E9D4AA04280F053
:10A180000281146EA04280F00081946DA04280F0A4
:10A19000FE80146DA04280F0FC80946CA04280F0A0
:10A1A000FA80126C904280F0A680F0BD5168D3F81E
:10A1B000B85008448E4CA94280F0F980D4F8B050D1
:10A1C000A94280F00681D4F8A850A94280F0FF800F
:10A1D000D4F8A050A94280F0F880D4F89850A94251
:10A1E00080F0FC80D4F89050A94280F0FF80D4F831
:10A1F0008850A94280F0F880D4F88040A14280F0D5
:10A20000F1809D6F7A4CA94280F0EA80256FA942C7
:10A2100080F01381A56EA94280F00D81256EA942C0
:10A2200080F00781A56DA94280F00181256DA942CA
:10A2300080F0FB80A56CA94280F00481246CA142CF
:10A2400080F08180114666E76A68D3F8B8601044F0
:10A25000B24280F0AE80D3F8B060B24280F0B280FB
:10A26000D3F8A860B24280F0AA80D3F8A060B242CE
:10A2700080F0A280D3F89860B24280F0AC80D3F82E
:10A280009060B24280F0BF80D3F88860B24280F024
:10A29000B780D3F88060B24280F0AF809F6FBA423F
:10A2A00080F0A8801F6FBA4280F0B9809F6EBA42DA
:10A2B00080F0B2801F6EBA4280F0AB809F6DBA42D0
:10A2C00080F0A4801F6DBA4280F0AC809F6CBA42CF
:10A2D00080F0B5801E6CB242FFF415AF4FF0000E57
:10A2E0001E68AF68B21AED681A6007B17D60002D74
:10A2F00058D02F6007E70022083200270D1801F11F
:10A30000080603EBC204646848608C6009610F6052
:10A3100045F8040C04B166601D6800278C6003EBEF
:10A32000C202CF60411993F8294056601960304A43
:10A33000002C7FF43AAFD3689468591AA1427FF693
:10A3400034AF9160F0BD00261C689568611AD4682E
:10A35000196005B16C6004B325601146DBE60F227D
:10A36000CAE70E22C8E70D22C6E70C22C4E70B227B
:10A37000C2E70A22C0E70922BEE70822BCE707229B
:10A38000BAE70622B8E70522B6E70422B4E70322BB
:10A39000B2E70222B0E70122AEE703EBC6061146A0
:10A3A0007564B8E603EBCE0ECEF84470ABE60F262C
:10A3B000CAE74FF00F0E93E74FF00C0E90E74FF007
:10A3C0000D0E8DE74FF00E0E8AE70C26BCE70D262A
:10A3D000BAE70E26B8E74FF00B0E81E70B26B3E77E
:10A3E0000726B1E70826AFE70926ADE70A26ABE75F
:10A3F000F44102204FF0070E72E74FF0080E6FE7AE
:10A400004FF0090E6CE74FF00A0E69E74FF0030EAC
:10A4100066E74FF0040E63E74FF0050E60E74FF07C
:10A42000060E5DE74FF0020E5AE702268CE7032680
:10A430008AE7042688E7052686E7062684E74FF0A4
:10A44000010E4DE701267FE72DE9F041C14C05469D
:10A4500094F82830002B00F0F780206C854202D35E
:10A46000E81C20F0030000F10C062368B94DB3424C
:10A4700002D20020BDE8F0816B682A6B934240F263
:10A480005681656A013B626B01214FEAC508636032
:10A4900002EB08035B68636202F83510002DE8D018
:10A4A000AC4FD4F8B8E0764580F02381D7F8B030CF
:10A4B0009E4280F02081D7F8A8309E4280F01D8116
:10A4C000D7F8A0309E4280F01C81D7F898309E4289
:10A4D00080F01581D7F890309E4280F01681D7F831
:10A4E00088309E4280F00F81D7F880309E4280F005
:10A4F0001081BB6F9E4280F00A813B6F9E4280F0CC
:10A500000C81A36E9E4280F006813B6E9E4280F0DD
:10A510000681BB6D9E4280F004813B6D9E4280F0BF
:10A520000481BB6C9E4280F0FE803B6C9E424FF0EB
:10A53000FF3328BF00230F2B11D8002104EBC100EB
:10A54000436C2BB907E05A6896421CD99B6813B13B
:10A550009B68002BF7D1013108301029F0D130462B
:10A5600004F082FA00289CD063680021626B666A5E
:10A570000133904408466360C8F8046002F835105F
:10A580006562BDE8F081216C971B01F10C008742E8
:10A590002CBF30461046964540F2F580D4F8B07096
:10A5A0006C4EBA4280F0F180D6F8A870BA4280F0C2
:10A5B000E880D6F8A070BA4280F0D080D6F89870C3
:10A5C000BA4280F0D880D6F89070974240F2DF808F
:10A5D000D6F88870974240F2DE80D6F880709742B5
:10A5E00040F2D780B76F974240F2E580366F9642CF
:10A5F00040F2DF80A66E574F964240F2D8803E6E02
:10A60000964240F2D280BE6DB24280F0CC803E6D68
:10A61000964240F2C680BE6CB24280F0C080914249
:10A6200040F2BB80646B002619189042A044C8F821
:10A6300004301D6058601B619E6041F8040CC0F23C
:10A6400082802846BDE8F081434B01219A6884F856
:10A65000281058680AB982089A605A2710222026C2
:10A660004FF0400E2762802722644FF48072A66468
:10A670004FF400761968C4F850E04FF4806EA76577
:10A680004FF4006722664FF48052A6664FF40056DE
:10A69000A1F11403C4F870E0A7674FF4804EC4F82A
:10A6A00080204FF40047C4F888604FF480324FF4A4
:10A6B00000360344C4F890E04FF4802EC4F898703C
:10A6C0004FF40027C4F8A0200222C4F8A860012695
:10A6D000A1636363C4F8B0E02261E060C4F8B870BD
:10A6E0005E6066626660FFF701FD02F005FB2663AF
:10A6F000B3E60F2122E70E2120E70D211EE70B21F3
:10A700001CE70C211AE7092118E70A2116E707219F
:10A7100014E7082112E7052110E706210EE70421BE
:10A720000CE703210AE7012108E7022106E7013AC5
:10A730002A6302F0E1FA2B6B01332B6300287FF4CC
:10A7400098AE6B689DE6101AFFF7D0FC2846BDE86E
:10A75000F08100BFF4410220F43F02200C21266862
:10A760009F68C2EB060EDE68C4F800E007B17E60A9
:10A770001EB1376056E70B21F1E704EBC1014F64CE
:10A7800050E70D21EBE70F21E9E70E21E7E70A216A
:10A79000E5E70821E3E70921E1E70021DFE70121FF
:10A7A000DDE70221DBE70321D9E70421D7E7052113
:10A7B000D5E70621D3E70721D1E700BF0120704785
:10A7C000F0B5DFF834C00B4F50F8044B013AC4F336
:10A7D00007455FFA84FEC4F307267D5D17F80E4037
:10A7E0001CF8066005EBC42404EB46140C801944E5
:10A7F000EAD1F0BD448401084483010870B450F8E4
:10A80000044B013A4FEA0445C4F3074604F47F447D
:10A8100005F47F0545EA060544EA05040C60194481
:10A82000EDD170BC704700BFF0B450F8044B013A52
:10A830006FEA0405C4F307474FEA044604F47F4473
:10A8400005F07F4506F47F0645EA070545EA06055B
:10A8500044EA05040C601944E7D1F0BC704700BF1E
:10A86000F0B5134FD7F800E0BEF1000F03D0F44667
:10A87000BDE8F040604706460C4615461F46DFF827
:10A8800038E00C4856F8043B013DC3F30742C3F3DC
:10A89000072CD9B2825C1EF80C304FEAC222415C10
:10A8A00002EB43130B4423803C44EBD1F0BD00BFCB
:10A8B000EC3F0220448401084483010810B450F89E
:10A8C000044B013A24F07F440C601944F7D15DF841
:10A8D000044B704710B450F8044B013A84F07F44A5
:10A8E0000C601944F7D15DF8044B70472DE9F0472F
:10A8F0000B4C05468946924698462768094E55F8FE
:10A90000044B24F07F40240EB847BAF1010A335DAE
:10A9100040EA031089F80000C144F0D1BDE8F08797
:10A920001C830108448501082DE9F8430B4C0646B9
:10A93000894615469846276856F8044B24F07F4010
:10A94000240CB847013D04F47F4440EA0400A9F810
:10A950000000C144F0D1BDE8F88300BF3C630108AA
:10A96000F0B5144FD7F800E0BEF1000F03D0F44665
:10A97000BDE8F040604706460C4615461F460E48A7
:10A9800056F8042B013D5FFA82FEC2F3074C4FEAF2
:10A99000D273C2F3072110F80EE010F80C20415CCE
:10A9A00002EB8E2202EBC33303EB411323803C44C2
:10A9B000E6D1F0BDDC3F022044840108F0B51D4F14
:10A9C000D7F800E0BEF1000F03D0F446BDE8F04038
:10A9D000604706460C4615461F46174856F8043B86
:10A9E000013D4FEA136CC3F3074ED9B2C3F30722FC
:10A9F0000CF108030EF1080E01F1080102F1080242
:10AA0000A0FB03C3A0FB01C1A0FB0ECE4FEA1313B2
:10AA10004FEA1111A0FB02C24FEA1E1E01EB0333E5
:10AA200022F00F0203EB0E23134423803C44D5D1C4
:10AA3000F0BD00BFE43F0220F1F0F0F010B450F898
:10AA4000044B013A0C601944F9D15DF8044B70478E
:10AA50002DE9F8430646FBF71FFC0746FBF752FCBF
:10AA600058B1A0F104080020434602E001308742BB
:10AA700005DD53F8042FB242F8D1BDE8F883002475
:10AA80006FF07F49254658F8041F3046F7F78CF8D9
:10AA9000814501D981462C460135AF42F3DC204681
:10AAA000BDE8F883F0B4C0F30724C0F30742C0B296
:10AAB000651C561C471C1346542D94BF00250125C8
:10AAC000542E4FEA850194BF00260126542F06EB31
:10AAD000050201EB460194BF0027012735433A44A4
:10AAE00001EBC70103D117B90846F0BC70472344F6
:10AAF000C2EB8215C2EBC21203445819B0FBF2F24A
:10AB000001EB5201F0BC0846704700BF064B10B580
:10AB100004461B6820F07F409847044B240E1B5DC1
:10AB200040EA031010BD00BF1C83010844850108E2
:10AB300010B4084AC4B2C0F307430749C0F3072062
:10AB4000D35C125D085C03EBC2235DF8044B03EB9E
:10AB500040107047448401084483010830B4C0F3B6
:10AB60000743C0F307240E4D010EC2B29C42A5FB61
:10AB700001104FEA101006D1A24204D1000130BCEE
:10AB800040EA53107047D109DA09E40942EA810228
:10AB900042F0080242EA001343EA440030BC704726
:10ABA000F1F0F0F00346800F17D0C3F30721C3F391
:10ABB0000742DBB2914205D18B4203D1120902EB6D
:10ABC000001070479B099209890942EA031380012A
:10ABD00043EA810300F47F501843704710B470B10A
:10ABE000C0F30721C0F30743C0B299420AD188429B
:10ABF00008D108331548A0FB0330000978305DF810
:10AC0000044B704700EB8000114C03EB830201EB17
:10AC1000810100F17F0302F17F007F31A4FB032358
:10AC2000A4FB0020A4FB0121DB09C0095DF8044B53
:10AC300003EBC303C90900EB830301EB410003EB02
:10AC400040006B2894BF0C301C307047F1F0F0F0DE
:10AC50008180808010B50446044B20F07F40240C96
:10AC60001B68984704F47F44204310BD3C630108EF
:10AC70000304C0F3074200F47F4003F47F0313434F
:10AC800018437047C343C0F30741020400F47F40F8
:10AC900003F07F4302F47F020B43134318437047D2
:10ACA0000949C2B2C30F8A5C10B4C0F3072402EB97
:10ACB000C333C0F307400C5D085C03EB44135DF83D
:10ACC000044B03EB802070474484010810B5C2B2E6
:10ACD0000E4B040EC0F307410832C0F307200834BE
:10ACE0000831A3FB02E20830A3FB04E4A3FB01E16B
:10ACF00012092409A3FB0003090902EB043023F025
:10AD00000F0300EB0120184410BD00BFF1F0F0F07C
:10AD1000084AC0F30743C0F30721C0B2D35C105CFC
:10AD2000DB0210B4044C615C5DF8044B03EB41138F
:10AD300018447047448401084483010820F07F4090
:10AD4000704700BF80F07F40704700BF704700BF72
:10AD50002DE9F843846805460E4617463CB3BE42CB
:10AD60001DD0E4B1EB68082128469B6A9847A16989
:10AD70006369A26803FB01F300FB03F0C30882B11F
:10AD800052F8261052F82790D4F83880B8F1000F06
:10AD900017D03A463146A869C047C4F80090BDE8CC
:10ADA000F883626803FB062103FB0729ECE75020C8
:10ADB000F6F75EFC2146A8605022FAF771FEAC68F7
:10ADC000CDE7034D1A4648462B689847E5E700BF94
:10ADD0002401002030B58BB00446F6F779FDC26D32
:10ADE0000AAB956843F8280D1846F6F745FE0AA801
:10ADF00000226B6840F8244D029298470BB030BD9A
:10AE000030B58BB00446F6F763FD426E0AAB956829
:10AE100043F8280D1846F6F72FFE0AA800222B68E3
:10AE200040F8244D029298470BB030BD70B582B007
:10AE3000214D224C164602AB019043F8081D1946DD
:10AE40002B68984723680190586918B13146F9F783
:10AE500065FAA8B10120FAF7A3FC2268D3695B69FF
:10AE6000ABB1174C216869B1B2F922509B680198C7
:10AE7000009998472846236898470020FAF790FCE5
:10AE800002B070BD9B68009901989847F5E70D4D99
:10AE9000009B01A8013B002B0093EEDBF9F7E6FBDA
:10AEA00023680646DB691B6898472B68002BEFD0A8
:10AEB00030469847ECE700BF10010020B4000020A6
:10AEC000E4420220E84202202DE9F04F8BB00C460C
:10AED000159D02900393691E83681698149E009036
:10AEE0001898DDF85C800190199D0F2937D8DFE8AC
:10AEF00011F03900AB003600F7003600360036009E
:10AF00004401360036003600360036003600360082
:10AF10001000DD6C2DB1BE490968097CC90740F1FC
:10AF20005483002E1BDD1546039ADFF8E8A2570074
:10AF30002E44DDF808B0DDF8009001E0DBF80830C1
:10AF4000186A41461B683A4600FB05400135C84473
:10AF500003EB4000DAF800309847B542EED10BB071
:10AF6000BDE8F08FDF6B2FB1A9490968097CC907DB
:10AF700040F11A83002EF2DD019999461346B2186A
:10AF80006018C1F1080104929A46A14A4E46089100
:10AF90002946DFF884B213460590069207951B6890
:10AFA00098F800201B7C1BF8024003F00303019A71
:10AFB000356A1441022B059A486805FB0A2500F002
:10AFC000B481032B00F09181012B00F08E81336856
:10AFD0002A46DDF80CC0C146CDF824A09A46654645
:10AFE000DDF820E00E68944675452F460AEB4C02CA
:10AFF00028BF77463B4614F0010F4FEA54040CBFBC
:10B0000031460146013B22F8021BF4D1BEEB070E8C
:10B01000BC44A5EB070507D199F801304FF0080EA5
:10B0200009F101091BF80340002DDDD1DDF824A052
:10B03000009B0AF1010A9844049B9A458FD0029B19
:10B0400007999E68069BAAE7002E88DD019906EB0A
:10B05000020B6F486118039F00680C460491C021E1
:10B06000029027440298047C98F8000014F003042E
:10B0700000F09F80022C2DD1002D00F06E81DDF8B4
:10B0800004E0C246DDF810C0914601E0674520D0DB
:10B09000CEF103060EF1010E7600C6F1060441FA68
:10B0A00004F40440F44007D01E6A55F8244006FB1F
:10B0B00009C61A6822F81640BEF1040F0CF1010C03
:10B0C000E4D167459AF801004FF0000E0AF1010A39
:10B0D000DED14A46013200985A458044C2D13EE74B
:10B0E000002E7FF73CAF019906EB020B4848611830
:10B0F000039F00680C460491F021029027440298B7
:10B10000047C98F8000014F0030400F0A380022CE3
:10B110002DD1002D00F04A81DDF804E0C246DDF8B3
:10B1200010C0914601E0674520D0CEF101060EF136
:10B13000010EB600C6F1040441FA04F40440F440E0
:10B1400007D01E6A55F8244006FB09C61A6822F883
:10B150001640BEF1020F0CF1010CE4D167459AF8DC
:10B1600001004FF0000E0AF1010ADED14A46013219
:10B1700000985A458044C2D1F1E61F6C002F00F0C0
:10B180003E8123490968097C880700F13881002D38
:10B1900000F03581029BBC460099986943461691A0
:10B1A0002146039C1795159614940BB0BDE8F04FFB
:10B1B00060471C6AC1461E6804FB02FA049CDDF865
:10B1C00004E004EB0A0CBA4406EB4C0C06EB4A0A0A
:10B1D0001DB92CE0D4453FF47DAFCEF103040EF150
:10B1E000010E6600BEF1040FC6F1060441FA04F434
:10B1F00004EA000424FA06F455F824402CF8024B23
:10B20000E8D199F801004FF0000E09F10109E1E7DA
:10B21000B400002024010020B486010899F8010040
:10B220004FF0000E09F10109D4453FF453AFCEF1C0
:10B2300003040EF1010E6600BEF1040FC6F1060410
:10B2400041FA04F404EA000424FA06F42CF8024B50
:10B25000EAD1E3E71C6AC1461E6804FB02FA049CBB
:10B26000DDF804E004EB0A0CBA4406EB4C0C06EBE8
:10B270004A0A1DB926E0D4453FF479AFCEF1010466
:10B280000EF1010EA600BEF1020FC6F1040441FA50
:10B2900004F404EA000424FA06F455F824402CF8D7
:10B2A000024BE8D199F801004FF0000E09F10109B5
:10B2B000E1E799F801004FF0000E09F10109D445CA
:10B2C0003FF455AFCEF101040EF1010EA600BEF120
:10B2D000020FC6F1040441FA04F404EA000424FA5B
:10B2E00006F42CF8024BEAD1E3E7029B1B699B684A
:10B2F0009847039B414603EB050E6D00089B4FEA00
:10B300004E0E14F0010F4FEA540403D03768EA5B85
:10B310004240EA53013B04D14A78082301311BF82B
:10B32000024002357545ECD182E6039B4146089AFE
:10B330005F196D007F0014F0010F4FEA540401D033
:10B3400033685853013A04D14B78082201311BF875
:10B3500003400235AF42EED16AE6DDF804C0C246D2
:10B36000DDF81090AE4601E04F451DD0CCF103064C
:10B370000CF1010C7600C6F1060441FA04F4044015
:10B38000F44005D01E6A1D6806FB029625F816409B
:10B39000BCF1040F09F10109E6D19AF801004FF060
:10B3A000000C0AF1010ADFE7754693E6DDF804C0F8
:10B3B000C246DDF81090AE4601E04F451DD0CCF1FD
:10B3C00001060CF1010CB600C6F1040441FA04F4C4
:10B3D0000440F44005D01E6A1D6806FB029625F85D
:10B3E0001640BCF1020F09F10109E6D19AF80100FB
:10B3F0004FF0000C0AF1010ADFE77546B7E6002EB0
:10B400007FF7ADAD03981644774FA0F108014FEADE
:10B41000400AD7F800E0C808DDF80C90CDF814A079
:10B420004FEA001C471CA1EBC00B0CF12000DDF81B
:10B4300000C0CDF818B00490F800019038010290D7
:10B44000F5B1186A9EF810A01F6800FB02411AF0BF
:10B45000030A07EB41011AD0BAF1020F10D1B9F17A
:10B46000000F0DDD059808F1FF3701EB000A17F812
:10B47000010F10B155F82000088002315145F6D176
:10B480000132E044B242DBD10BB0BDE8F08FB9F13C
:10B49000070F40F3868001F1100008F108079A4673
:10B4A0000090049800EB010B009817F8083C10304E
:10B4B000083755F8233020F8203C17F80F3C55F892
:10B4C000233020F81E3C17F80E3C55F8233020F8A6
:10B4D0001C3C17F80D3C55F8233020F81A3C17F89F
:10B4E0000C3C55F8233020F8183C17F80B3C55F865
:10B4F000233020F8163C17F80A3C55F8233020F882
:10B50000143C17F8093C55F8233020F8123C8345C9
:10B51000CBD102985346DDF818A00144019840446D
:10B52000BAF1030F21DD0778AAF1040A55F827B014
:10B530004FEA9A07A1F800B0AAEB870A90F801B089
:10B54000013755F82BB0A1F802B090F802B055F8C9
:10B550002BB0A1F804B090F803B000EB870055F8C9
:10B560002BB0A1F806B001EBC701BAF1000F87D0EC
:10B570000778BAF1010F55F827700F8080D047780F
:10B58000BAF1020F55F827704F803FF479AF8078F9
:10B590000132E04455F82000B24288807FF450AF79
:10B5A00072E7CA464046BBE7029BBC4600999869D1
:10B5B000434617912146039C18951594019C1696B5
:10B5C00014940BB0BDE8F04F6047029BAC46009965
:10B5D00098694346169103991596149121460BB02C
:10B5E000BDE8F04F604700BFB40000202DE9F04FE8
:10B5F00095B00C460B92AA4A0D9012680993106EF2
:10B600001F9DDDF88C90F6F763F942691190002ACE
:10B6100040F0B38003461046DB68129011A80793F0
:10B62000229BE3180893F6F727FA9D4B12981B68A4
:10B6300020B11A7C9A4C910700F0D480186EF6F76E
:10B6400047F904460B9914A8B4F90620E3688A1A4E
:10B65000B4F904B040F8044D03FB02F3089A183320
:10B66000CBEB020B03EB4B03E3180293F6F704FA60
:10B67000102D00F08780172D45DD1E9B002B40F319
:10B68000B984219BDDF82C90A3F1040A1E9B129E25
:10B6900003EB090BCDF80CB0DDF834B01AF1040F50
:10B6A0001FD0029FEFB1002E59D0B0684A46099DC5
:10B6B000D046446830462B460899A047089CDBF8E2
:10B6C000103058F8040F1B689847B368214627F8D4
:10B6D000020B4A461B68304601349847013DEED1C3
:10B6E000129E029B09F10109079A13440293209BC1
:10B6F0009A44039B9945D1D116B112A8F6F7BCF92B
:10B7000015B0BDE8F08F082D75D0664BB9F1000F6C
:10B7100008BF99461E9B002B40F32F811C46229A9E
:10B72000229B520007989B00209E069203930023C1
:10B73000029A2199022D00F02781042D00F0FD814D
:10B74000012D00F037830133314402449C42F1DC87
:10B75000DDF848B0DE46BEF1000FCED1D0E73D4661
:10B760005646099CDBF8103056F8040F1B689847C2
:10B77000013C25F8020BF5D1B2E71046F6F7A8F820
:10B78000119B49E7129D002D00F026841E9B002B83
:10B79000B3DD099B0024444F5E00A046DDF81CB0D9
:10B7A0000396DDF87890029EDDF880A0219C84B19C
:10B7B0002146039A304666B13B6898470B9B284662
:10B7C000089903EB0802099B15B1AD686D68A8479D
:10B7D000129D08F1010854445E44C145E7DC002D88
:10B7E0008BD18DE71E9B0B9A00930899099BF8F764
:10B7F00065FF236822E71E9B002B40F30484219BF6
:10B80000099A013B0B9DDDF848B00393029B584613
:10B81000CDF88C90A94603EB42061E9B2B44239D3A
:10B820000493039B591C1E4B1B681B7C002D48D0A6
:10B8300013F003033AD0022B1ED1BBF1000F63D0EB
:10B84000DDF80CA0DDF80880099F089C1AF8013F7C
:10B8500021464A46013458463BB155F823E0DBF80F
:10B860000830A8F800E01B689847013F08F102087B
:10B87000ECD1DDF848B05846029B09F10109079A5E
:10B880001946039B16441144029120990B440393DB
:10B89000049B4B45C5D100287FF42FAF30E700BF94
:10B8A000B4000020F0B4010824010020039A029B98
:10B8B00012F8011F55F8211023F8021BB342F7D1EB
:10B8C000DAE713F0030300F06583022BD4D1BBF158
:10B8D000000F00F07783DDF80CA0DDF80880099FE9
:10B8E000089C1AF8013F21464A460134584633B1B4
:10B8F000DBF808E0A8F80030DEF800309847013F98
:10B9000008F10208EDD1B4E70399029B11F8012F69
:10B9100012B155F822201A8002339E42F6D1AAE7CE
:10B920004246039B14F0010F4FEA540403D01988D8
:10B930008AEA01011980013A03F10203F2D1039B63
:10B9400003EB48030393B9F1000F40F0C482DDF824
:10B950008CA00A9B11A8079A01331C460A93029BEC
:10B960001344209A02930C9B13440C93F6F784F82B
:10B970001E9B1A46A24200F32882DDF848E0BEF181
:10B98000000F7FF4BAAEBBE60A93229BDDF848B005
:10B99000C3F104030292DA46CB46DBB221910C9349
:10B9A000D6465746A34B219A1B6814781B7C069AEF
:10B9B00003F003039440012BE4B200F09E807CD39B
:10B9C000022B67D1099B0A9A0393219BDDF83090E3
:10B9D0000593089B029D04930B9B03EB020A039AB9
:10B9E000039B9145C8BF5FFA82F9C9EB030309F1D4
:10B9F000FF3903934FB35FFA89F9049E09F10108F7
:10BA000005EB480814F0C00F31464FEA941306F1D5
:10BA100001065246384606D05BF823E0BB68A5F81D
:10BA200000E01B6898470235A4004545E4B2E9D11F
:10BA3000049B01334B440493039BD3B1059B4FF00C
:10BA4000040913F8014F0593C9E75FFA89F909F171
:10BA5000010105EB4101A30014F0C00F4FEA94125D
:10BA6000DCB202D05BF822302B800235A942F2D141
:10BA7000DEE7129FBE46219A20990A9B0A44079945
:10BA800001332192029A0A930A4402921E9A9A4220
:10BA900088DC60E6219ABA4620990A9B0A440799F5
:10BAA00001332192029A0A930A4402921E9A9A4200
:10BAB0003FF776AFBB46DE464DE60C9B029E099DE6
:10BAC000DDF884C0AB42C8BFEBB2581EED1AB31EFE
:10BAD000C0B206EB4001A209A4005BF82220E4B248
:10BAE00023F8022F9942F6D1013006EB4006002DD3
:10BAF000C1D01CF8014F0423E4E70C99029B09987C
:10BB00000A46219D8242C8BFC2B2511E801AC9B2E4
:10BB1000013103EB4101A20014F0C00FD4B203D0F5
:10BB20001A8882F0FF021A8002338B42F3D1002878
:10BB3000A1D015F8014F0422E4E72191CA462299C9
:10BB40000A93DDF848B0C1F10203DDF88490D9B260
:10BB50005F46134606910233BE46CB460293354BF1
:10BB6000029A1B68A2F1020803991B7C9BF8002033
:10BB700003F003038A40012BD4B200F0CB80C0F065
:10BB80009680022B40F083800B990A9B0B44194648
:10BB90000593229B002B00F0E18012F0F00F40F0A3
:10BBA0000282089B0BF10106DDF80880591C099BF5
:10BBB0009BF80140013B012B4CDD023B002F00F0C4
:10BBC000D18004935B088A1C08F104090C935B0084
:10BBD000CDF83C800D460D93D318CDF884B00E926D
:10BBE0009B46DDF814801AE05AF823E0BB6829F878
:10BBF00004EC1B68984714F00F0409D05AF824305D
:10BC00004246691C384629F8023CBB681B689847C5
:10BC1000023509F1040916F8014F5D450CD014F006
:10BC2000F00F4FEA1413294642463846DCD1002C67
:10BC3000EED0E3E7B40000200C9B0E980D995A1C3F
:10BC4000DDF83C8001440498DDF884B008EB8208FC
:10BC5000A0EB43035BB1240909D05AF82430A8F8BB
:10BC6000003027B1BB683846059A1B689847129F79
:10BC7000BE46209A07999344029A0A9B0A440133CC
:10BC800002921E9A0A939342FFF669AF63E50A9BFC
:10BC9000D9461E9901331A460A93209B8A42994439
:10BCA000079B4344FFF657AFBB46DE4653E5229B56
:10BCB000002B50D02409099B0BF101025D1E5AF89C
:10BCC0002430A8F80030DDF808809BF80140012DF1
:10BCD00018DD6E1008F1040305F001059019844683
:10BCE000210904F00F0404335AF821005AF82410F3
:10BCF00023F8080C23F8061C12F8014F6245EFD117
:10BD000008EB8608002DB4D024095AF82430A8F88E
:10BD10000030AEE7069B584609998B42C8BFCBB2AC
:10BD20005A1EC91AD2B2013208EB4202230114F0A2
:10BD3000C00FDCB205D0B8F8003083F0FF03A8F8DC
:10BD4000003008F102089045F0D1002991D010F898
:10BD5000014F0223E1E7099D5A46B8E7099B5E4679
:10BD6000089928E71A46049308F104034FEA520E93
:10BD70000EF1010C06EB0C0014F0F00F4FEA141258
:10BD800003D05AF8222023F8042C14F00F0403D017
:10BD90005AF8242023F8022C16F8014F0433B0423D
:10BDA000EAD10231049B08EB8C08A3EB4E0301EBB4
:10BDB0004E014FE70A930B46CA4602920133219186
:10BDC0000C93229BC3F108030E93924B0B990A9A92
:10BDD0001B680A440C9C186E0492F5F779FD8D4B94
:10BDE00004F1FF3814F8012C1B688B491B7C8C5C18
:10BDF00003F00303229A1190022B44FA02F4DDF8B7
:10BE000048B072D0032B1FD0012B1DD00E98029E7C
:10BE1000099DA842314628BF28462D1A024604F043
:10BE20000103013A4FEA54045AF8233021F8023B47
:10BE3000F5D106EB4006002D3FF48BAD18F8013F1D
:10BE40000820754AD45CE4E70C9A0D9B0592029A8F
:10BE50001B690392089A9B68DDF824900692984724
:10BE600083B2CDF88CA0DDF838809A46C84528BF4B
:10BE7000C846C8EB0909BBF1000F3FF451AD454678
:10BE8000039E069F05E0013D06F1020607F101074A
:10BE900016D014F0010F4FEA5404F4D0DBF8083048
:10BEA0003946049A58461B680236984736F8023CD1
:10BEB000013D07F101078AEA030326F8023CE8D1B5
:10BEC000039B03EB48030393069B43440693B9F19A
:10BED000000F3FF43CAD059B4FF008084E4A1B781D
:10BEE000D45C059B01330593C0E70E9D099FBAF80A
:10BEF0000430BD42CDF80C80CDF88CA0984628BF08
:10BF00003D46029EDDF82090DDF810A07F1BBBF1BE
:10BF1000000F2BD044B936E0013D09F1010906F1CB
:10BF2000020612D064082ED0E207F5D5DBF80830FF
:10BF30004946524658461B6809F101099847013D98
:10BF4000A6F8008006F10206ECD1002F3FF4FFAC0A
:10BF5000039A082512F8013FBD42039228BF3D46CF
:10BF60002D4A7F1BD45CBBF1000FD3D114B90EE076
:10BF700064080CD0E30706F1020648BF26F8028CDD
:10BF8000013DF5D1E1E706EB4506A944DDE706EB07
:10BF90004506DAE7214B099A1B6802989847DDF8B5
:10BFA00048B0584668E424095AF82430A8F800300C
:10BFB000002F3FF4F6ADBB680A46384608991B6867
:10BFC0009847EEE50399029B11F8012F02B11A8000
:10BFD0000233B342F8D14EE4114B1C686CB1209B84
:10BFE000079A019300921E9B099A21990298A047F3
:10BFF000FFF786BB129EFFF77FBB1E9B002B7FF7D0
:10C000007FABFFF7C6BB129800287FF476ABFFF733
:10C0100077BB00BFB4000020B486010824010020D3
:10C02000C84102202DE9F04FA94C93B02568DDF8F6
:10C0300084A02E6E1D9D16B913B0BDE8F08F074683
:10C04000304608920C460393F5F742FC42690F9084
:10C05000002A40F0D68003461046DB6810900FA8F7
:10C060000493209BE3180593F5F706FD984B109871
:10C070001B6820B11A7C964C960740F19980186E87
:10C08000F5F726FC0446089912A8B4F90620E368DF
:10C090008A1A059940F8044D03FB02F3B4F9042011
:10C0A00018338A1A03EB8203E3180293F5F7E4FCD2
:10C0B000172D4EDD1C9B002B41DD039BDDF82080FE
:10C0C0009B000797DFF8149208931C9B1F9F434423
:10C0D0000693109828B181684246039B4C680599E5
:10C0E000A047079B1B69DA68002A40F083805B68E1
:10C0F0004FF07F4098473E46DDF808A0040E039DB0
:10C100001F973346002753F8042BB4EB126F58D017
:10C11000002F59D13068020E64D1013D0AF1040AA2
:10C120000436002DEDD11F9F1E9B08F10108049AD3
:10C130001F44029B13440293069B9845C9D1109B50
:10C14000002B3FF479AF10A8F5F796FC13B0BDE8CB
:10C15000F08F102D5AD0082D00F0C2805D4BBAF13F
:10C16000000F08BF9A461C9B002B40F3A980209B20
:10C17000209A9B001F9952000A9300230C92029A66
:10C18000022D00F03983042D00F0F081012D00F024
:10C190002C811E9801330144049802441C98984253
:10C1A000EEDCDDF840B0DE46BEF1000FCBD143E758
:10C1B0001C9B089A00930599039BF8F77FFA236864
:10C1C0005DE70137AF429ED14FEA870BED1B314649
:10C1D0005046D9F800305A465E449847DA44002D5C
:10C1E0008FD1A0E73C4BDAF800101B689847CAF8DB
:10C1F000000092E7D9F800303946089A029898472B
:10C2000092E71046F5F764FB0F9B26E71C9B002B7B
:10C2100095DD1F9BDDF820A0A3F1020B1C9B109E57
:10C220005344069356B3B0685246039DD9464468BA
:10C2300030462B460599A047DDF80880059C3B69F0
:10C2400039F8020F5B689847B368214648F8040B39
:10C2500052461B68304601349847013DEFD1029B9E
:10C260000AF1010A049A134402931E9B9B44069B05
:10C270009A453FF464AF109E002ED4D15E46029DD5
:10C28000039C3B6936F8020F5B689847013C45F810
:10C29000040BF6D1E3E7DDF884A0069B0FA81E9AF5
:10C2A00001331C4606931F9B1344049A1F93029B61
:10C2B00013440293F5F7E0FB1C9A9442C0F29E806F
:10C2C000DDF840E0BEF1000F7FF43DAFB4E600BF03
:10C2D000B4000020D4BE0108BC00002024010020CE
:10C2E0001C9B002B40F369831F9B039ADDF840B031
:10C2F000DDF820909C181C9B58465D464B440693E5
:10C30000984B1B681B7CBAF1000F3FD013F003035E
:10C3100031D0022B1CD11F9B002D5AD003F1FF3BC3
:10C32000DDF80880039F059E1BF8013F31464A4611
:10C330000136284633B15AF82330C8F80030AB68CC
:10C340001B689847013F08F10408EDD1109D28466D
:10C350001F9B09F101091E9A1344049A1F93029B23
:10C36000134402931E9B1C44069B4B45C8D10028D6
:10C370007FF4E9AE60E61F9B029A13F8011B5AF89E
:10C3800021109C4242F8041BF7D1E1E713F00303AC
:10C3900000F00A83022BDBD1002D00F014831F9BD9
:10C3A000029F03F1FF38DDF80CB0059E18F8013F3D
:10C3B00031464A46013628462BB1D5F808E03B60A5
:10C3C000DEF800309847BBF1010B07F10407EDD10F
:10C3D000BCE7029A13F8011B11B15AF82110116041
:10C3E000A34202F10402F5D1B1E70693209BDFF8E6
:10C3F0007891C3F1080302921F910A93594B1B686D
:10C40000186EF5F765FA574B1F9A1B6812781B7C5C
:10C4100019F8024003F00303209A0F90022B44FA0C
:10C4200002F448D0032B20D0012B1ED00A98029E84
:10C43000039D1F9FA842314628BF28462D1A024659
:10C4400004F00103013A4FEA54045AF8233041F84A
:10C45000043BF5D106EB8006002D3FF41EAF17F824
:10C46000013F082019F80340E4E703681B699B6853
:10C4700098470A9D029F039EDDF87CE0B5423A464C
:10C4800028BF3546761B2B4614F0010F4FEA5404A3
:10C4900002D0116841401160013B02F10402F3D166
:10C4A00007EB8507002E3FF4F8AE1EF8013F082584
:10C4B00019F80340E2E71F9ADAF804300992089964
:10C4C000069ACDF884A09A460A44DDF840B00A9D49
:10C4D000029EDDF80C80059F0792454528BF454622
:10C4E000C5EB0808BBF1000F29D044B923E0013D9A
:10C4F00007F1010706F1040611D064081BD0E1071B
:10C50000F5D5DBF808303946079A58461B680137DD
:10C510009847013DC6F800A006F10406EDD1B8F138
:10C52000000F3FF4B8AE099A082512F8013F0992AE
:10C5300019F80340D1E706EB85062F44EFE774B105
:10C54000534601E0640809D0E20706F1040648BF3B
:10C5500046F8043C013DF5D19A46E0E79A4606EBE1
:10C560008506DCE7B4000020B48601081F912099FD
:10C57000DDF840B00693C1F10203D846DDF87CB087
:10C58000D9B213460B910433C64645460793994BDF
:10C590000A991A68079B127CA3F104099BF80030E2
:10C5A00002F003028B40012ADCB200F0D480C0F01C
:10C5B000A080022A5CD10899069A0A44209909921F
:10C5C000002900F0128113F0F00F0AD024095AF864
:10C5D0002430C9F8003025B1AB68284605991B689E
:10C5E0009847059B0BF10107DDF81C9001339BF880
:10C5F00001400293039B5E1E012E58DD002D00F0CA
:10C60000CE803246029B09F10808CDF830900D9695
:10C6100091461E461DE05AF8233048F8083CAB68A6
:10C620001B68984714F00F0409D05AF82430099A6F
:10C6300048F8043CAB68711C28461B689847A9F170
:10C640000209023608F1080817F8014FB9F1010F85
:10C650001EDD14F0F00F4FEA1413099A31462846F4
:10C66000D9D1002CEBD05AF8243048F8043CE1E74B
:10C67000069BA8461C9901331A4606931E9B8A42C4
:10C680009B44049B4B44FFF67EAFAB46DE468BE5F6
:10C690000D9E0299023EDDF83090023173085A1C5B
:10C6A00001EB4301A6EB430609EBC209029166B117
:10C6B00024090AD05AF82430C9F800302DB1AB68EB
:10C6C0002846099A02991B689847109DAE461E9A03
:10C6D00004999344079A069B0A44013307921C9AD3
:10C6E00006939342FFF653AFBEF1000F7FF42BADDC
:10C6F000A2E4209B002B4FD02409039B0BF10102E5
:10C70000591E5AF82430C9F80030DDF81C909BF807
:10C710000140012917DD4F1009F1080301F0010163
:10C72000D619200904F00F0408335AF8200043F802
:10C73000100C5AF8240043F80C0C12F8014FB242C6
:10C74000EFD109EBC7090029C1D024095AF82430D8
:10C75000C9F80030BBE70B9B584603998B42C8BF12
:10C76000CBB25A1EC91AD2B2013209EB820223019E
:10C7700014F0C00FDCB205D0D9F8003083F0FF030D
:10C78000C9F8003009F104099145F0D100299ED083
:10C7900010F8014F0223E1E703995A46B9E7023E38
:10C7A00009F108037208511C9446781814F0F00F30
:10C7B0004FEA141E03D05AF82E2043F8082C14F028
:10C7C0000F0403D05AF8244043F8044C17F8014FE3
:10C7D0000833B842EAD1029B09EBC109A6EB4C062B
:10C7E000023303EB4C03029361E7059B5F46039E14
:10C7F000029301E7B40000200693D046209BDDF8A9
:10C8000040B0C3F1040302921F91DBB20B93DE46EA
:10C810005F46724B1F9A1B6814781B7C0C9A03F0BE
:10C8200003039440012BE4B200F09F807DD3022BE0
:10C8300069D11F9A06990992059A0B9B0792089A4B
:10C84000029DDDF80CA002EB010B5345C8BF5FFA57
:10C850008AF3C3EB0A0A013B4FB3DBB2079E03F135
:10C8600001090A9305EB890914F0C00F31464FEA1C
:10C87000941306F101065A46384605D058F823307D
:10C880002B60BB681B6898470435A4004D45E4B293
:10C89000EAD1079B0A9A01331A440792BAF1000FB2
:10C8A0001BD0099B13F8014F09930423CDE7DAB29B
:10C8B000501C05EB8000A30014F0C00F4FEA941148
:10C8C000DCB202D058F821302B600435A842F2D1F6
:10C8D000079B0133D3180793E0E7109FBE461F9ACA
:10C8E0001E99069B0A44049901331F92029A0693EB
:10C8F0000A4402921C9A9A428BDCBEF1000F7FF42C
:10C9000022ACFFF799BB1F9ABB461E99069B0A44AF
:10C91000049901331F92029A06930A4402921C9AC8
:10C920009A423FF774AFDE463EE40B9B029E039DA6
:10C93000DDF87CC0AB42C8BFEBB2581EED1A331F06
:10C94000C0B206EB8001A209A40058F82220E4B28C
:10C9500043F8042F8B42F6D1013006EB8006002D00
:10C96000BDD01CF8014F0423E4E70B9A029B039807
:10C970001F9D8242C8BFC2B2511E801AC9B2013186
:10C9800003EB8101A20014F0C00FD4B203D01A68E7
:10C9900082F0FF021A6004338B42F3D100289ED04C
:10C9A00015F8014F0422E4E70D4B039A1B681F9909
:10C9B00002989847109D2846CAE4109800287FF4F2
:10C9C000C2ABFFF739BB1F9A029B12F8011B01B1E2
:10C9D0001960A24203F10403F7D1B8E4B4000020C7
:10C9E00024010020704700BF00B5A1B001A8FBF7EB
:10C9F000CBF903A8F7F7BAFC094B1868FAF732F835
:10CA0000BDF90A30BDF90820BDF90610BDF90400D2
:10CA1000F5F75AFE03A8F7F79FFC21B05DF804FB79
:10CA2000EC010020704700BF10B59EB0044601A87D
:10CA3000F7F79CFC094B1868FAF714F8B4F90630BC
:10CA4000B4F90420B4F90210B4F90000F5F73CFE83
:10CA500001A8F7F781FC1EB010BD00BFEC0100205B
:10CA6000704700BF00B583B0009200F0FFF903B03B
:10CA70005DF804FB00B583B0009200F035FB03B015
:10CA80005DF804FB00B583B0009200F0E7FB03B053
:10CA90005DF804FB704700BF00B5A1B001A8FBF72B
:10CAA00073F903A8F7F762FC094B1868F9F7DAFF86
:10CAB000BDF90A30BDF90820BDF90610BDF9040022
:10CAC000F5F702FE03A8F7F747FC21B05DF804FB79
:10CAD000EC010020704700BF10B59EB0044601A8CD
:10CAE000F7F744FC094B1868F9F7BCFFB4F90630B6
:10CAF000B4F90420B4F90210B4F90000F5F7E4FD2C
:10CB000001A8F7F729FC1EB010BD00BFEC01002002
:10CB100000B583B000930B4600F0A8F903B05DF8B0
:10CB200004FB00BF2DE9F043374F154685B0814621
:10CB30003A681E468846106EF4F7CAFE43690190B3
:10CB40001846002B3DD13B680290186EF4F7C0FEEA
:10CB5000024604A8B2F90640D3682C1B40F8042D05
:10CB600003FB04F3B2F904401833C4EB080403EBED
:10CB70004403D418F4F780FF3B681A7CD20723D40F
:10CB8000DA6B0298019B1268DF68002834D01FFA24
:10CB900082F900E0029883682A46013541461B6805
:10CBA0009847AE42A4F800903C44F3DA01A8F4F7A9
:10CBB00063FF029B13B102A8F4F75EFF05B0BDE866
:10CBC000F083F4F785FEBEE7D9F810309B689847EC
:10CBD00087B2029B2A4641460135184613B19B682D
:10CBE0001B6898472388B542019A83EA0703D268F5
:10CBF00023801444EDDDD9E7731B92B20133013B6E
:10CC000022803C44FBD1D1E7B40000202DE9F04361
:10CC1000364F1E4685B089463B681546186EF4F7B8
:10CC200057FE436901901846002B3BD13B680290A8
:10CC3000186EF4F74DFE024604A8B2F90640D36818
:10CC40002C1B40F8042D03FB04F3B2F90440183305
:10CC5000C4EB090403EB8403D418F4F70DFF3B681D
:10CC600001991A7CD20720D4DB6B0298D3F800809C
:10CC7000CF6808B931E0029883682A4601354946F1
:10CC80001B689847AE42C4F800803C44F3DA01A820
:10CC9000F4F7F2FE029B13B102A8F4F7EDFE05B023
:10CCA000BDE8F083F4F714FEC0E70B681B699B68CE
:10CCB00098470746029B2A4649460135184613B154
:10CCC0009B681B6898472368B542019A83EA07036B
:10CCD000D26823601444EDDDD9E7731B0133013BB7
:10CCE000C4F800803C44FAD1D1E700BFB400002072
:10CCF00001700120704700BF2DE9F041334DEB6A10
:10CD000073B9334B9C685B680834B3FBF4F40234AA
:10CD1000E000FDF799FB804660B90120BDE8F08195
:10CD20002B691C1D04EBD304E000FDF78DFB80464E
:10CD30000028F2D0696B2A6901EBC000254BD200B4
:10CD4000EF6A46681B680836304698472869611EB6
:10CD50006E63C5F82C80884236D206EBC0020346CB
:10CD6000013308328B4242F8043CF9D106EBC10191
:10CD70000026DFF858804E606B686862181A2C61D4
:10CD800004446C60EFB1F5F761FFD8F83430FC0073
:10CD9000234459684868FDF7A9F9D8F80430D8F851
:10CDA0003420D8F8241001331444C8F804306160EA
:10CDB00002F83760C8F82470F7F796FD3046BDE8F2
:10CDC000F0813846BDE8F0810146CFE7F44102200A
:10CDD000F43F02202401002070B51F4E82B073681A
:10CDE000CBB91E4B1B6803B198471D4B1B680BB199
:10CDF000984768B91B4B1B6893F8540008B902B0F8
:10CE000070BDF7F739FA003018BF012002B070BDCD
:10CE1000012002B070BDF5F719FF134B1C688CB1EF
:10CE20002046F4F755FD034601A89A6A01931204BF
:10CE30000DD55D69F4F720FE20462C46FAF70CFD6F
:10CE4000002CEDD100237360F7F74EFDC9E701A870
:10CE50005C69F4F711FEE2E7F840022088470220FF
:10CE600084470220B40000200C4702202DE9F04F37
:10CE7000876887B07E6B109C56B1994D80692D688C
:10CE8000ED6B2D688DE83000B04707B0BDE8F08F3E
:10CE90009C463B6A0D4692495B109646A21AC5EB2A
:10CEA0000C0C18460B6814460392197C6A08661C21
:10CEB0003C6800FB0E2EC9070290304604EB8E0240
:10CEC0000CF1010450D515F0010712D0002E00F02E
:10CED00002810299354613468F001C68013D814945
:10CEE00081EA040119603B44F7D107FB06270432AD
:10CEF0006446012C28DD002E00F0E580029B4FEAFD
:10CF0000830C039B0CFB03F9CCF1000802EB09072F
:10CF10003B4637469E46013F754621462B680239FF
:10CF2000DB43012945F8043BF8DCCCEB0E0E002F67
:10CF3000F1D1A31E03995B0808FB0198013308EBAC
:10CF400083031A4404F00104012C9ED1002E9CD0CE
:10CF5000029B9C0011684FF6FF73013883EA0103BE
:10CF600013602244F6D190E7DB6B15F00105D3F88E
:10CF700000E014D0002E00F0AA80029B3746144631
:10CF800099004FEA0E432588013F45EA03052560D5
:10CF90000C44F8D101FB06250432644601E04FEA57
:10CFA0000E430F2C734439DDA4F11008002E00F05D
:10CFB000948002994FEA8109039901FB09FAC9F1AA
:10CFC000000B0AF120071744394637468C46013FCB
:10CFD00061464546103D41F8203C41F81C3C01F1BA
:10CFE000200141F8383C41F8343C41F8303C41F8EC
:10CFF0002C3C41F8283C41F8243CEBD5C9EB0C0C07
:10D00000002FE4D14FEA1811039D013105FB0BAA53
:10D010000AEB41110A4404F00F041546012C3FDDD0
:10D02000002E52D00299A71EA4F1040BA4F1060A07
:10D030004FEA810C0399A4F10809A4F10A0801FB45
:10D040000CF1CCF100050591511804953546012FDE
:10D0500005F1FF350B6013DDBBF1010F4B600FDDF8
:10D06000BAF1010F8B600BDDB9F1010FCB6007DD69
:10D07000B8F1010F0B6103DD0D2C4B6100DD8B61FD
:10D08000CCEB0101002DE2D17B080499039D059FA3
:10D09000013305FB017101EB83031A4404F0010421
:10D0A000012C7FF4F2AE002E3FF4EFAE029B99000C
:10D0B000146801380B4B03EA04034EEA03031360C0
:10D0C0000A44F5D1E1E63A463CE72A46E6E715464A
:10D0D0004FEA0E4360E7174609E72A469BE700BF81
:10D0E000B40000200000FFFF2DE9F04F5A4F8946A1
:10D0F000154689B03A68C9EB030383460DF1200851
:10D10000D16B1C46106ED1F800A0661C0593F4F795
:10D11000DFFB3B680690186EF4F7DAFBB0F90630D7
:10D12000C2680146EB1AB0F9044048F8040D4046C5
:10D1300002FB03F3C4EB0904183303EB4403CC18DC
:10D14000F4F79AFC069B5869DB68029300286FD1BC
:10D15000129B9D425EDC1FFA8AF304933B681B7CA2
:10D16000DB075DD5DBF810309B689847C4F34003BC
:10D1700080B2B34228BF3346032E98BF3346002BFC
:10D1800054D02288A446012B82EA00022CF8022BFC
:10D190000CD06288032B04F1040C82EA0002628046
:10D1A00004D1A28804F1060C4240A280B3422BD0E5
:10D1B000C3EB060AAAF1020E4FEA5E0E0EF1010E53
:10D1C0004FEA4E020392059A934218D04FF000099D
:10D1D00004EB4303494660F30F09A3F1040860F32D
:10D1E0001F4958F8042F013189EA02028E4543F89D
:10D1F000042BF6D8039A92450CEB420C04D0BCF8F1
:10D2000000305840ACF80000029B01351C44129BD2
:10D21000AB42A3DA06A8F4F72FFC09B0BDE8F08F03
:10D22000324604992046F8F77BFCEDE7A446BFE7B9
:10D23000F4F74EFB129B49462A46C5EB030E3346D4
:10D2400007900EF1010ECDF800E0F7F737FA4046EF
:10D25000F4F712FC7CE700BFB40000202DE9F04F8A
:10D26000DFF8E0801F4687B00C46D8F8003016463D
:10D2700003910DF1180B186E3F1BDDF84090F4F789
:10D2800027FBD8F8003001370490186EF4F720FB24
:10D29000B0F90620C1680346B21AB0F904504BF841
:10D2A000040D584601FB02F2651B183202EB8502A1
:10D2B0009D18F4F7E1FB049BD8F800205869D26B65
:10D2C000D3F80CA0146858BB4E4510DCD8F80030D9
:10D2D0001B7CDB0711D4002F05DD3B462A46013BB2
:10D2E00042F8044BFBD101365544B145EEDA04A8AF
:10D2F000F4F7C2FB07B0BDE8F08F049B1B681B6905
:10D300009B68984729463A460B68013A83EA00032E
:10D3100041F8043BF8D101365544B145D6DAE6E789
:10D32000F4F7D6FAC6EB090E03993B460EF1010E4F
:10D3300032460590CDF800E0F7F7C0F95846F4F70B
:10D340009BFBC1E7B40000202DE9F041044684B006
:10D35000002849D00F46904600260CE0E3072FD462
:10D36000BDF80C300126019833443B80046A01A8C3
:10D37000F4F782FBE4B12046F4F7AAFA846A01903C
:10D38000A207F3D502ADB8F1000F15D00146424611
:10D390002846F8F7D9F929463846F6F7BFFF00289E
:10D3A000DCD10198046A01A8F4F766FB002CE2D1F5
:10D3B000304604B0BDE8F08103C885E80300EAE721
:10D3C0000198C469002CD1D02A4639462046FFF77F
:10D3D000BBFF0028204618BF0126F4F767FB046A4C
:10D3E000002CF1D10198DDE70646E1E7F0B50446EF
:10D3F00085B000283ED00F46002602AD0CE0E307C2
:10D4000024D4BDF80C300126019833443B80046AD3
:10D4100001A8F4F731FBB4B12046F4F759FA846A55
:10D420000190A207F3D503C885E8030029463846D2
:10D43000F6F774FF0028E2D10198046A01A8F4F716
:10D440001BFB002CE8D1304605B0F0BD0198C46943
:10D45000002CDCD02A4639462046FFF775FF00280D
:10D46000204618BF0126F4F721FB046A002CF1D1F5
:10D470000198E2E70646E6E7002843D0F0B50E46FD
:10D4800085B0174604460BE0E3072AD4BDF8083000
:10D490000198013BB380046A01A8F4F7EDFAD4B116
:10D4A0002046F4F715FA846A0190A207F3D502AD7D
:10D4B0009FB101463A462846F8F746F929463046D4
:10D4C000F6F72CFF0028DFD10198046A01A8F4F7D1
:10D4D000D3FA002CE4D105B0F0BD03C885E8030001
:10D4E000ECE70198C469002CD5D020462A46314685
:10D4F000FFF7C2FF2046F4F7D9FA046A002CF4D1F2
:10D500000198E2E7704700BF002863D0F0B50E46EF
:10D5100085B0174604462046F4F7DAF9846A01908C
:10D52000A20724D502AD002F3FD001463A46284637
:10D53000F8F70AF929463046F6F7F0FE68B3E30734
:10D5400001981CD4002F42D0B7F90220B0F9023064
:10D550009342B8BF1346B6F90220934229DDBDF9C4
:10D560000A30B6F906209A4201DB013BF380046AD7
:10D5700001A8F4F781FA002CCDD105B0F0BDC46943
:10D58000002CF4D020462A463146FFF7BDFF204646
:10D59000F4F78CFA046A002CF4D10198046A01A80B
:10D5A000F4F76AFA002CB6D1E7E703C885E8030070
:10D5B000C0E7BDF90E30B6F906209A42D7DD046AFD
:10D5C00001A8F380F4F758FA002CA4D1D5E7B0F9FC
:10D5D0000230C0E7704700BF002850D070B584B05B
:10D5E0000E46044602AD2046F4F772F9846A0190B3
:10D5F000A20718D503C885E8030029463046F6F788
:10D600008DFE30B3E307019815D4B6F90230B0F9B6
:10D6100002209A4225DDBDF90A30B6F906209A4269
:10D6200001DB013BF380046A01A8F4F725FA002C22
:10D63000D9D104B070BDC469002CF4D020462A466C
:10D640003146FFF761FF2046F4F730FA046A002CF8
:10D65000F4D10198046A01A8F4F70EFA002CC2D1A3
:10D66000E7E7BDF90E30B6F906209A42DBDD046A21
:10D6700001A8F380F4F700FA002CB4D1D9E7704781
:10D68000F3F7A6BF70B58AB00C460646F4F720F94A
:10D690000AAB056D43F8280D1846F4F7EDF901962D
:10D6A000032C05D8DFE804F0140E080217230293B8
:10D6B00001A8A8470AB070BD152301A80293A84786
:10D6C0000AB070BD162301A80293A8470AB070BD26
:10D6D000182301A80293A8470AB070BD00787047CC
:10D6E000012070470129024818BF0020704700BF81
:10D6F000BCB401080129024818BF0020704700BFD0
:10D70000BCB401080129024818BF0020704700BFBF
:10D71000A0BE0108013928294AD8DFE801F01F1D01
:10D720001B19491749491547454349413F4949494B
:10D730003D3B39374949334949494949492F2D2BFF
:10D7400027492349494921001A4870471A48704718
:10D750001A4870471A4870471A4870471A48704765
:10D760001A48704703689B68186C704703689B6889
:10D77000586C7047164870471648704703689B6896
:10D78000D86B704703689B68586B704712487047A6
:10D790001248704712487047124870471248704745
:10D7A0001248704712487047124870471248704735
:10D7B0000020704771F1000815F20008C1D9000877
:10D7C0009DEF000819EC0008A1E90008B1F100087C
:10D7D00055F2000851AD000811ED0008A9EC000851
:10D7E000C1EC000859EC0008ADE30008B9E30008FB
:10D7F000BDDF000815F10008DDF100081629024818
:10D8000018BF0020704700BF0D38000816290248D5
:10D8100018BF0020704700BF3D36000801398368FB
:10D820000D2916D8DFE801F00F11130D1515150B92
:10D8300007090907070700207047012070471020DB
:10D840007047D86970471869704758697047986978
:10D8500070474FF0FF307047082901D11020704702
:10D86000006810B1C3689B6A18474FF0FF307047DB
:10D8700008290CBF20200020704700BF08B5F8F72A
:10D880000BFDB0F5807F14D07F280ED83F2812D82A
:10D890001F280CD80F2810D8072812D803280ED814
:10D8A000012894BF0020012008BD7F2008BD1F2053
:10D8B00008BDFF2008BD3F2008BD0F2008BD032084
:10D8C00008BD072008BD00BF0F207047FF2070472C
:10D8D0004FF6FF70704700BFFF207047FF20704772
:10D8E000FF207047FF2070474FF6FF70704700BF62
:10D8F0006FF07F40704700BF4FF0FF30704700BFB0
:10D900004FF6FF70704700BF4FF6FF70704700BFC3
:10D910004FF6FF70704700BF6FF07F40704700BF49
:10D920004FF0FF30704700BF4FF0FF30704700BF2F
:10D930008068036A006803FB021230F81200704727
:10D940000E4B1B6870B5186E82B00E461446F3F786
:10D95000BFFF054602A8B5F90620EB68A21AB5F983
:10D96000044040F8045D03FB02F3341B183303EB5F
:10D970004404F4F781F8285B02B070BDB4000020C5
:10D980000E4B1B6870B5186E82B00E461446F3F746
:10D990009FFF054602A8B5F90620EB68A21AB5F963
:10D9A000044040F8045D03FB02F3341B183303EB1F
:10D9B0008404F4F761F8285902B070BDB400002067
:10D9C000F8B584680F46164624B1636A3B60A36AC3
:10D9D0003360F8BD05465020F3F74AFE2146A860A3
:10D9E0005022F8F75DF8AC68002CEED1F8BD00BF0E
:10D9F000836800209A69DB69013A0880013B48800E
:10DA00008A80CB80704700BF70B582B080680D46B9
:10DA1000F3F75EFF024602A8B2F904601489B2F976
:10DA20000610538934442E800B44013C6980013B2D
:10DA3000AC8040F8042DEB80F4F71EF802B070BD06
:10DA400070B582B080680D46F3F742FF024602A827
:10DA5000B2F904601489B2F90610538934442E8057
:10DA60000B44013C6980013BAC8040F8042DEB8005
:10DA7000F4F702F802B070BDF0B56FF04044561EE6
:10DA8000104FC3F1000C1444DFF83CE003FB060028
:10DA900001EB840100E0013E02886044D30A02F0F9
:10DAA0001F04C2F345153A5DFC5C1EF8053004EB1B
:10DAB000024202EB032242F07F4241F80429002E89
:10DAC000E9D1F0BD848601084486010870B4046879
:10DAD000013A18444FEA0445C4F3074604F47F446E
:10DAE00005F47F0545EA060545F07F4544EA05044F
:10DAF00041F8044BEBD170BC704700BFF0B4046830
:10DB0000013A18446FEA0405C4F307474FEA044694
:10DB100004F47F4405F07F4506F47F0645EA0705D7
:10DB200045EA060544EA050441F8044BE7D1F0BC98
:10DB3000704700BF2DE9F041174C64681CB1A44642
:10DB4000BDE8F04160478C466FF040418046501E72
:10DB50001144C3F1000E114E03FB0083104F0CEB78
:10DB6000810100E001381A88734402F01F044FEA73
:10DB7000D22CC2F34515345D16F80C207D5D04EB04
:10DB8000024202EB052242F07F4241F804290028BC
:10DB9000E8D1BDE8F08100BFEC3F02208486010897
:10DBA0004486010810B40468013A184444F07F44E4
:10DBB00041F8044BF7D15DF8044B704710B404688A
:10DBC000013A184484F07F4441F8044BF7D15DF8E2
:10DBD000044B70472DE9F0476FF0404A0E4C02F1BC
:10DBE000FF39C3F100089244676803FB09050B4E37
:10DBF00001EB8A0A01E009F1FF392C7845442046FF
:10DC00002409B847325D40EA02604AF80409B9F1D4
:10DC1000000FF0D1BDE8F0871C830108A48601083D
:10DC20002DE9F8436FF040490D4C02F1FF385F4297
:10DC30009144666803FB080501EB890901E008F1DE
:10DC4000FF382C883D44E0B22404B04704F07F4400
:10DC5000204349F80409B8F1000FF0D1BDE8F8837A
:10DC60003C6301082DE9F041174C64681CB1A446DF
:10DC7000BDE8F04160478C466FF040418046561E3B
:10DC80001144C3F1000E114803FB06830CEB810124
:10DC900000E0013E1D88734405F01F0445F3C037C2
:10DCA000C5F34412C5F38425045D825C04EB07646C
:10DCB000455D04EB022202EB054241F80429002EE7
:10DCC000E7D1BDE8F08100BFDC3F02208486010877
:10DCD0002DE9F041174C64681CB1A446BDE8F04141
:10DCE00060478C466FF040418046501E1144C3F19E
:10DCF000000E114E03FB00830CEB810100E00138A4
:10DD00001A887344170B02F00F04C2F3032CC2F3FA
:10DD10000315F75D345D16F80C2004EB0764755DA0
:10DD200004EB024202EB052241F804290028E6D167
:10DD3000BDE8F081E43F0220A486010810B4046825
:10DD4000013A184441F8044BF9D15DF8044B70478F
:10DD500038B50446F8F7A0FA0546F8F7D3FA20B12B
:10DD6000A54202D950F8240038BD002038BD00BFBC
:10DD7000C0F3C003F0B400EA0301C0F38006C0F3AF
:10DD8000400500EA0607CA012840521AFC01C101F9
:10DD9000E41B02EBC313081A04EBC61243F07F43E3
:10DDA00000EBC51043EA0223F0BC43EA0040704791
:10DDB000054B10B504465B68C0B29847034B240975
:10DDC0001B5D40EA036010BD1C830108A4860108A6
:10DDD000030716D500F00102134B002A06BF4FF0CF
:10DDE0007F434FF0FF226FF47F0210F0020F18BF45
:10DDF000134610F0040F0CBF00204FF47F001843AF
:10DE0000704700F00701C0F3031001EBC10249089D
:10DE100000EB001001EB820202EB022302EB032273
:10DE200042EA0060704700BFFF0000FF3F2804D8AF
:10DE30000F2826D84FF07F407047C0F38102C0F30F
:10DE4000011300F00301800902EB820203EB83035C
:10DE500000EB800001EB810110B401EB011102EB3A
:10DE6000021403EB031200EB0013E4B2D2B2C8B207
:10DE70001B0642EA04225DF8044B43EA00401043CB
:10DE8000704700F00F03000903EB031200EB800062
:10DE900003EB021300EB001003EB033343EA0060D3
:10DEA000704700BFA0F178030F2B32D9A0F10C030B
:10DEB000E72B2BD877281C4A88BFA0F11C031B48EE
:10DEC00010B4A0FB0341A2FB03428908D208A0FBC7
:10DED000014001EB410402EB42028008A3EB440342
:10DEE0005DF8044B00EB400003EB4303A1EB400162
:10DEF00003EB031301EB410102EB021201EB0111F1
:10DF000002EB034202EB0123184670470023184638
:10DF1000704700EB0012064B00EB021000EB0030E4
:10DF200003441846704700BF398EE338ABAAAAAA4B
:10DF3000080000F810B50446044BC0B224045B6826
:10DF4000984704F07F44204310BD00BF3C630108A4
:10DF50000A4900F01F0240F3C0338A5C10B4C0F3DA
:10DF6000441402EB0363C0F384200C5D085C03EBF4
:10DF700004235DF8044B03EB0040704784860108DE
:10DF80000B49C0F30322C0F303338A5CCB5C120459
:10DF900010B400F00F0402EB0363C0F303100C5D38
:10DFA000085C23445DF8044B03EB0020704700BF7E
:10DFB000A486010880F07F40704700BF38B58468B0
:10DFC00005464CB1A8690022012104F077FC002C21
:10DFD00008BF40F0010038BD5020F3F749FB21464F
:10DFE000A8605022F7F75CFDAC68EBE738B5194D37
:10DFF0000446194A00F108012B6902671A1D03F152
:10E0000008009B63DA631B64144A60615B7C52F80E
:10E010002300C3681B6B98472B690122696808338A
:10E020000F48E16163612276E2766066F9F7E2FE0D
:10E030006FF070430322A064236384F86820636355
:10E04000E868F8F7D5FCA868F8F70CFD054B064A18
:10E050001A6038BDA400002088400220CC42022073
:10E0600094640108E042022034830108F0B585B0D1
:10E0700016460C460546F3F719FD836A01909A0788
:10E0800005D5B4F90410B4F90020914201DA05B0C5
:10E09000F0BDB4F90210B4F906209142F7DC40F665
:10E0A00001021A40012AF2D0284602AFF3F710FC11
:10E0B0000346214638461A460193F7F745FBBDF95A
:10E0C0000820BDF90C309A422EDCBDF90A20BDF9BA
:10E0D0000E309A4228DC019A44F22003916A0B40E8
:10E0E0003BBB184C0E4302F1080E238897E803004F
:10E0F00001338EE803002380966200E01D46284627
:10E10000F3F7D4FC8369002BF8D10F4B1A689542C2
:10E1100016D05B68AB420CBF022300230B4A116888
:10E120000B431360F6F7D2F901A8F3F7A5FC05B08D
:10E13000F0BD02F108013A460846F6F75DF8F3E74C
:10E140000123EBE714470220644702201047022016
:10E15000704700BF2DE9F04F0023B5B01D93069026
:10E160001C931E931F93002800F01C818A46914641
:10E170004FF0030B0698F3F7ABFB4A4651460A9063
:10E18000F6F768F80A984A4651460830F6F762F8FA
:10E190000A9B0AA8DA691B6A144605920793F3F7EB
:10E1A0006BFC00232093219322932393002C00F0F7
:10E1B000E7800598F3F78CFB4A4651460B90F6F73B
:10E1C00049F80B984A4651460830F6F743F80B9B3E
:10E1D0000BA8DA691B6A144604920893F3F74CFC07
:10E1E00000232493259326932793002C00F0B680D8
:10E1F0000498F3F76DFB4A4651460C90F6F72AF85F
:10E200000C984A4651460830F6F724F80C9B0CA8A7
:10E21000DA691B6A144602920993F3F72DFC002376
:10E22000289329932A932B93002C00F08580544641
:10E230004D460298F3F74CFB2A4621460D90F6F71F
:10E2400009F80D982A4621460830F6F703F80D9B89
:10E250000DA8D3F81C901B6A0393F3F70DFC002361
:10E260002C932D932E932F93B9F1000F52D001933D
:10E270004846F3F72DFB2A4621460E90F5F7EAFFB4
:10E280000E982A4621460830F5F7E4FF0E9B0EA8AB
:10E29000DE691B6A0093F3F7EFFB019B3093319328
:10E2A000329333933EB31AAF3046F3F711FB2A464D
:10E2B00021460F90F5F7CEFF0F982A4621460830E9
:10E2C000F5F7C8FF0F9B0FA8D3F81CA0D3F8208048
:10E2D000F3F7D2FB214650462A46FFF73BFF304674
:10E2E000464630A9CDF8C0B033971A941B95FBF77A
:10E2F0002DFE002ED8D1484618ABDDF800902CA991
:10E30000CDF8B0B02F9318941995FBF71FFEB9F113
:10E31000000FADD1039B28A902981E46029316ABAD
:10E32000CDF8A0B016942B931795FBF70FFE002E97
:10E330007FF47FAFA246A946099B24A904981C46F6
:10E34000049314ABCDF890B0CDF850A02793CDF83E
:10E350005490FBF7FBFD002C7FF44AAF089B20A9EB
:10E3600005981C46059312ABCDF880B0CDF848A0B7
:10E370002393CDF84C90FBF7E9FD002C7FF419AF07
:10E38000032306981CA9CDF840A01C93079BCDF849
:10E3900044901C46069310AB1F93FBF7D7FD002C4F
:10E3A0007FF4E8AE35B0BDE8F08F00BF8069002291
:10E3B000062104F083BA00BF80690022052104F021
:10E3C0007DBA00BF70B50024094D0A4E7422214663
:10E3D00028463368EC679847336821460822064888
:10E3E00098470649064A074B0D6114701C6070BDC2
:10E3F0000840022028010020CC420220A400002076
:10E40000C6420220B442022010B5084C2068F3F73F
:10E41000FFF86068F3F7FCF8A068F3F7F9F8002359
:10E42000A36063602360E360236110BDD0400220DD
:10E430002DE9F0410024184E184D18223460214671
:10E440002C60174F174E184D184B3C60346003F189
:10E450000C002C60164F174D174E3C6034607460F2
:10E460007C602E681C705C609C60B047134B21463A
:10E47000134810221C6004605C6012482B689847A7
:10E480002B6821461022104898472B6821461022FD
:10E490000E48BDE8F041184780470220204702207F
:10E4A000744702200847022000470220F84002205B
:10E4B0006C470220280100205C47022064470220AC
:10E4C0007C4702203C4702202C4702204C47022078
:10E4D00010B5034C2068F3F79BF80023236010BDB0
:10E4E0008841022010B5044C2068F3F791F800230E
:10E4F000024A2360136010BDF8420220BC41022092
:10E500002DE9F04F93B08146F3F7E2F9C26D089020
:10E510009768426B046D0792F2F776FC019012A89F
:10E5200050F8283DB3F95860F3F7A6FA4846F9F7D2
:10E53000C9FC82464846F9F7E3FC3B680121804666
:10E54000484698473B6803218346484698473B68BE
:10E5500000210546484698473B68009002214846FE
:10E56000984707460020CDF82490FBF715F80028BF
:10E5700052D0C7EB0807C5EB0A059DE80A00013F2A
:10E58000013D0B440AF1FF310DF1340A1E440293A0
:10E59000013B0191013E08F1FF3104930FABBE42F4
:10E5A00003910DF12408059339DA069600272E46CB
:10E5B0005D46DDF81CB0019B40460E970F93039B10
:10E5C0000D9710930B230A93A047029B0D9540468D
:10E5D0000E93069B0F9610930E230A93A047009A62
:10E5E00005230D950E924046049A0A9310920F96B9
:10E5F000A047059A51464846F2F73EFC0220F5F73F
:10E6000055FF5846F5F70EFF122340460A93A047E0
:10E61000FAF754FE0028CED113B0BDE8F08F06976C
:10E6200000262F465D46DDF81CB0019B40460E9645
:10E630000F93039B0D9610930B230A93A047029B05
:10E640000D9540460E93069B0F9710930E230A9349
:10E65000A047009A05230D950E924046049A0A930E
:10E6600010920F97A047059A51464846F2F704FCCE
:10E670000220F5F71BFF5846F5F7D4FE122340465B
:10E680000A93A047FAF71AFE0028CED113B0BDE8CE
:10E69000F08F00BF2DE9F04393B00546F3F718F96A
:10E6A00090F86820416B0DF1080802F00102076E36
:10E6B000009004AC0692D0F84C90F8F79FFD064607
:10E6C0006846F3F7D9F906AB284641461193F9F7A6
:10E6D00075FBBDF908300B22BDF90A1009A80A9292
:10E6E0000D93BDF90C20BDF90E300E9110930F92D1
:10E6F0000995B847012298E8030084E80300214601
:10E700002046F7F73DF92046FAF7A8FB0522069BBD
:10E7100009950A92002B53D0BDF90A30BDF90810B3
:10E72000F2180E93BDF90C300D9110920F93002347
:10E7300009A80793B847069B002B4DD0BDF90A30B6
:10E74000BDF908101E44BDF90C20BDF90E3001368C
:10E750000D910F920E961093012309A80793B847C5
:10E760002846F3F7B5F80090F8F7FCFC0190002874
:10E7700041D048461226F5F755FE41469DE8050072
:10E78000F8F7F4FC6846F3F777F9BDF90A10BDF91C
:10E790000C2009A8BDF90E30BDF908400995019D6E
:10E7A0000E910F92109308950A960D94B84701A800
:10E7B000F3F762F90020FAF751FB13B0BDE8F083DC
:10E7C000BDF90830BDF90A10F2180D93BDF90E30ED
:10E7D0000E910F921093AAE7BDF90820BDF90A30F7
:10E7E0001644BDF90C200E930136BDF90E300F9280
:10E7F0000D961093B0E76846F3F73EF90020FAF75C
:10E800002DFB13B0BDE8F0832DE9F0432A4D83B012
:10E8100006462B68986CF3F75BF800903046F3F7E8
:10E8200057F8009B0146019003F10800F5F776FDCB
:10E8300050B904466846F3F71FF901A8F3F71CF92D
:10E84000204603B0BDE8F08302AF01992B68012494
:10E8500057F8082D01F10800D3F84C900832D3F88E
:10E860005080F6F771FF3846F3F706F902A82B68D7
:10E8700050F8042D114FB2F90010B2F90220D964FA
:10E880001A653E60F3F7F8F83046F3F70FF9826A3D
:10E890000B4B304612F4803F0A4A08BF1346984794
:10E8A0002B6800222046C3F84C90C3F850803A6091
:10E8B00003B0BDE8F08300BFB4000020744702201D
:10E8C000F5310008B19D00082DE9F04782B00646F9
:10E8D000F2F7FEFF836A01909B0724D5C46914B345
:10E8E00001AD04E00C6A6846F3F7C6F8ACB1204607
:10E8F000F2F7EEFF836A0146009003F00303032B57
:10E90000F0D101990831F5F709FD98B900996846E9
:10E910000C6AF3F7B1F8002CE9D12846F3F7ACF80C
:10E9200002B0BDE8F08701AD2846F3F7A5F802B0C4
:10E93000BDE8F087019B2846B3F908A0B3F90A9017
:10E94000B3F90C80B3F90E70F3F796F86846F3F755
:10E9500093F82046FFF758FF88B93046F2F7B8FF22
:10E9600001902046F2F7B4FF019B00900146A3F806
:10E9700008A0A3F80A90A3F80C80DF81B2E7204634
:10E98000F3F794F800902046FFF79EFF2046F3F738
:10E990008DF800903046F3F789F80190DDE700BF6D
:10E9A0005B1A2DE9F04F5E1E806885B003F1010E01
:10E9B000D0F820905B007608D0F800C009FB021761
:10E9C0000F99013603934FEA4E030CEB4705019371
:10E9D0004FEA460A4FEA49034FEA860802930B1DA5
:10E9E000281DAB428CBF00230123814228BF43F086
:10E9F00001036BB341EA0503BEF10C0FC3F301033E
:10EA000094BF00200120002B18BF002000B32C1F52
:10EA1000084600239346013354F8042F9E4240F8E1
:10EA2000042BF8D8D6455A4607EB0A0303D03CF826
:10EA3000133021F80830019B01320E984F441944DD
:10EA4000029B1D44531E9842C9DC05B0BDE8F08FFF
:10EA500003988B1E01EB000B284630F8024B23F87D
:10EA6000024F5B45F9D1E6E72DE9F04FDFF8A481CD
:10EA700083B08246D8F80C70C146D8F83830013FD0
:10EA80005E681F441D6835B133449F4206D993E840
:10EA90006000002DF8D199198F4203D8012003B0EE
:10EAA000BDE8F08F9D594C6855B1D8F8342012F864
:10EAB000350002EBC502012805D026460B46E2E7E9
:10EAC00026460B46E7E7D9F8B800D9F82CB0B04293
:10EAD00073D9D9F8B000B04275D9D9F8A800B042BE
:10EAE00074D9D9F8A000B0426AD9D9F89800B042D8
:10EAF00078D9D9F8900086426ED2D8F8880086423C
:10EB00006DD2D9F88000864263D2D9F87800864267
:10EB100074D2D9F87000864273D2D9F86800864260
:10EB200066D2D9F86000864265D2D9F8580086428C
:10EB30005BD2D9F85000864269D2D9F848008642A3
:10EB40001FD2D9F8400086425ED253601846224652
:10EB5000F1F7E9FB5D4503460BD01C4430462146E6
:10EB6000FBF7C4FABAF1000F01D0504507D2234693
:10EB70008BE7D8F83420921BC8F83420EDE700204A
:10EB80008DE701200190D8F80000D3F808E0801B41
:10EB9000D3F80CC0C8F80000BEF1000F01D0CEF8C9
:10EBA00004C0BCF1000F02D0CCF800E0CDE7019822
:10EBB00008EBC000C0F844E0C7E70F200190E2E78F
:10EBC0000C200190DFE70E200190DCE70D20019082
:10EBD000D9E708200190D6E70A200190D3E7092061
:10EBE0000190D0E70B200190CDE703200190CAE708
:10EBF00005200190C7E704200190C4E70720019099
:10EC0000C1E706200190BEE700200190BBE702208B
:10EC10000190B8E7F441022070B5002382B0846807
:10EC200005460E4601934CB102AA0A21E662A86984
:10EC300042F8046D03F042FE02B070BD5020F2F7BE
:10EC400017FD2146A8605022F6F72AFFAC68002C79
:10EC5000EAD102B070BD00BF00B583B0806902AADE
:10EC600042F8041D0B2103F029FE03B05DF804FBFC
:10EC700038B50B4C2268516B81420DD0557C094947
:10EC8000506351F825301B691B68984723681A7C2C
:10EC9000520702D49B6B186038BDDB6B186038BD1F
:10ECA000B4000020CC42022000B583B080690091FE
:10ECB0000D2101926A4603F001FE03B05DF804FBEA
:10ECC00000B583B0806902AA42F8041D0C2103F04C
:10ECD000F5FD03B05DF804FB38B50B4C2268116BF1
:10ECE00081420DD0557C0949106351F825301B69CC
:10ECF0001B68984723681A7C520702D4DB6B1860A4
:10ED000038BD9B6B186038BDB4000020CC42022097
:10ED1000F8B585680C46174625B3E31E222B14D898
:10ED2000DFE803F016131313131313131313131342
:10ED3000131313131313131313131813131313139E
:10ED4000131A1C131E121400EF64F8BD2F64F8BDD3
:10ED5000AF64F8BD6F63F8BDEF63F8BDAF63F8BD96
:10ED60006F64F8BD06465020F2F782FC2946B06079
:10ED70005022F6F795FEB568002DCED1F8BD00BF44
:10ED80000A4B1B681A7C82EA000149070AD5D96B35
:10ED900070B49C6B0E68256826600D601874104670
:10EDA00070BC704718741046704700BFB400002054
:10EDB0002DE9F043002383B0044680690F46904656
:10EDC00001930093A668F7F747FA0546A069F7F79D
:10EDD00053FA8146A069F7F7BFFA800040EA49007C
:10EDE0002843072810D8DFE800F0171A222A363AFD
:10EDF0004204F2697069B3693169121A591AC8EB91
:10EE00000202CF1B8DE884006A460321A06903F04B
:10EE100055FD03B0BDE8F0838DE88001F4E7B369E8
:10EE20003169CDF80480591ACF1B0097ECE7F369DC
:10EE3000726900979A1AC8EB02020192E4E7B1697D
:10EE40003069F3697269091A9A1ACF1BC8EB02027A
:10EE500000970192D8E7CDF800800197D4E7F369D5
:10EE6000726901979A1AC8EB02020092CCE7B36963
:10EE70003169CDF80080591ACF1B0197C4E700BF54
:10EE8000006810B1C3681B6A184770470068C36800
:10EE90001B6A184710B48468206A246800FB0212B9
:10EEA00024F812305DF8044B704700BF2DE9F043A1
:10EEB0001B4C994683B00F462368904602AE186EED
:10EEC000F2F706FD23680090186EF2F701FDB0F925
:10EED0000620C1680546C2EB0802B0F9044046F8B6
:10EEE000040D304601FB02F23C1B183202EB4404D5
:10EEF000F2F7C2FD009B25F80490586950B1F2F773
:10EF0000E7FC01908368424639461B6898473046C3
:10EF1000F2F7B2FD6846F2F7AFFD03B0BDE8F0834B
:10EF2000B40000202DE9F0431B4C994683B00F46F6
:10EF30002368904602AE186EF2F7CAFC2368009070
:10EF4000186EF2F7C5FCB0F90620C1680546C2EBA1
:10EF50000802B0F9044046F8040D304601FB02F205
:10EF60003C1B183202EB8404F2F786FD009B45F847
:10EF70000490586950B1F2F7ABFC019083684246A7
:10EF800039461B6898473046F2F776FD6846F2F737
:10EF900073FD03B0BDE8F083B40000202DE9F04F0D
:10EFA000002389B0846805460F46164603930293F2
:10EFB0000493059306930793002C46D0A36C33B1BA
:10EFC00032463946A869984709B0BDE8F08F6762B4
:10EFD000A662F7F721FA8146F7F764FAEB688246F2
:10EFE000082128469B6AD4F810B0D4F814809847BA
:10EFF000C21D48BF00F10E02002F4FEAE202069246
:10F000004BDB07EB0B03029799452CDBCDF810B0D7
:10F01000002E4CDB06EB080303969A4539DB41468C
:10F02000CDF81480049B002B21DD00291FDD029BFD
:10F0300099451CDDB2451ADD236B002B44D002AA92
:10F04000A869082103F03AFCBEE75020F2F710FB54
:10F050002146A8605022F6F723FDAC68002CADD104
:10F0600009B0BDE8F08FC7EB09070497D0E7236B21
:10F07000012BA9D10023AC680193002C31D00023CF
:10F0800008AAA8690921236342F81C3D03F016FC75
:10F090009AE7C6EB0A010591C4E7079B07EB0B0152
:10F0A00002FB17370023049107970293B0E702FB96
:10F0B00006F2079B06EB080100200BFB12330591BB
:10F0C000064607930390ADE7AC680193B4B1012302
:10F0D00008AAA8690921236342F81C3D03F0EEFB4E
:10F0E000ADE75020F2F7C4FA2146A8605022F6F7A7
:10F0F000D7FCAC68002C3FF467AFC0E75020F2F7B4
:10F10000B7FA2146A8605022F6F7CAFCAC68002C7A
:10F1100095D0DCE7F0B5002383B0846805460F4640
:10F12000164601930093ACB1236A53B16A46072196
:10F1300027616661A8690097019603F0BFFB03B0E1
:10F14000F0BDA869F7F708F900280CBF384630462B
:10F150002062EBE75020F2F78BFA2146A86050229C
:10F16000F6F79EFCAC68002CDED103B0F0BD00BF0A
:10F1700070B5002382B0846806460D46019354B1F1
:10F1800002AA022125606560B06942F8045D03F0BF
:10F1900095FB02B070BD5020F2F76AFA2146B060CC
:10F1A0005022F6F77DFCB468002CE9D102B070BDA6
:10F1B00070B584680D461CB12B68A560236070BDD6
:10F1C00006465020F2F754FA2146B0605022F6F776
:10F1D00067FCB468002CEFD170BD00BFF8B584683F
:10F1E00005460E4617464CB1A869F7F7B5F8A66173
:10F1F000E76108B92662F8BD2762F8BD5020F2F732
:10F2000037FA2146A8605022F6F74AFCAC68002C79
:10F21000EAD1F8BD70B5002382B0846805460E4679
:10F2200001934CB102AA09212663A86942F8046D32
:10F2300003F044FB02B070BD5020F2F719FA2146EA
:10F24000A8605022F6F72CFCAC68002CEAD102B082
:10F2500070BD00BF70B5002382B0856804460E46BD
:10F26000019345B102AA0E21A06942F8046D03F092
:10F2700025FB02B070BD5020F2F7FAF92946A060D4
:10F280005022F6F70DFCA368002BEBD102B070BD45
:10F290002DE9F04F91B0884614469A460890F2F74F
:10F2A00017FB034610A85D4D1A6840F8083D126927
:10F2B000B3F90A9052680792B3F908200692F2F760
:10F2C000DBFB2A680821564B527C53F82200C368A6
:10F2D0009B6A9847172810D80328064608BF0826B7
:10F2E000DAF8043000200993DAF800300C93F5F7CF
:10F2F00005FB20B111B0BDE8F08F2026F0E706999C
:10F300002A680B46B2F90C504344013B5D1B002DAB
:10F310007DDD4D1BB2F90830434573DC0021002D23
:10F32000E8DD09EB0403B2F90E00013B1B1A002BC8
:10F33000C8BFC3EB0909B2F90A30A34269DC002750
:10F34000B9F1000FD6DD069BB346CDF82CA007FB24
:10F35000031704EB0903BF000A9320E00423069A75
:10F3600031463046C8474FF0010E002300212A469F
:10F37000059340467346039104962146CDF808B0A4
:10F3800004EB0E09CDF804E0CDF800E0069CF6F79A
:10F390000BFD0A9B07EB84074B45ABD04C46089806
:10F3A000F3F7EEFE0FABC219214601934046079BCF
:10F3B00000932B46F5F70AFE064600289AD0099BD3
:10F3C0001A46184B9A42CED0DDF82C905A46294660
:10F3D0004B46F5F7CBFB0028C5D1D9F81090B9F111
:10F3E000000FBBD10D95A246DDF8189035460C9C58
:10F3F0002868A047B9F1010945F8040BF8D10D9D23
:10F400005446B0E7C8EB030198466D1A87E70D46EE
:10F4100080E71F1B1C46C7EB090991E7B4000020D9
:10F42000CC420220C9660008F8B5144682680F462F
:10F430000646136A0069116803FB0473826831F899
:10F4400013509047B3686840196A1B6801FB047445
:10F4500023F81400F8BD00BF2DE9F0431E4C83B023
:10F4600081460F462368904602AE186EF2F730FAD6
:10F4700023680090186EF2F72BFAB0F90630C268D4
:10F480000546C3EB0803B0F9044046F8040D3046C6
:10F4900002FB03F33C1B183303EB4404F2F7ECFAD2
:10F4A000D9F810309B6898472B5B009A434050690D
:10F4B0002B5350B1F2F70CFA01908368424639465B
:10F4C0001B6898473046F2F7D7FA6846F2F7D4FA45
:10F4D00003B0BDE8F08300BFB40000202DE9F04187
:10F4E0001E4C82B00F469046236802AE186EF2F7AB
:10F4F000EFF923680090186EF2F7EAF9B0F90630D8
:10F50000C2680546C3EB0803B0F9044046F8040D91
:10F51000304602FB03F33C1B183303EB8404F2F781
:10F52000ABFA009B1B681B699B6898472B59009A94
:10F5300058402851506950B1F2F7CAF901908368D8
:10F54000424639461B6898473046F2F795FA6846B6
:10F55000F2F792FA02B0BDE8F08100BFB4000020DB
:10F5600003680E2B34D00F2B10B5044616D1264A53
:10F57000436811688B4245D05268934214BF4FF0E4
:10F58000FF33012321496FF0704251F8230090426C
:10F590001BD0F4F723FFF2F731FB23680E3B6068C2
:10F5A0001A2B12D8DFE803F01911111111110E11E5
:10F5B000111E11111111111111111111201111111F
:10F5C00011112400E168F9F723FE0023E36010BD68
:10F5D000C3685A68012A12D070472146BDE810401E
:10F5E000F9F75CBAE06010BD6FF07043E36010BDE6
:10F5F0000028ECD00021BDE81040F8F769BD18687C
:10F60000F4F76CBF0023BDE76447022024470220C3
:10F61000F8F7CCBD2DE9F047194D82B082462B6832
:10F6200002AC986CF2F754F92B6800F10802B0F9BB
:10F6300008900833B0F90A80B0F90C70B0F90E6088
:10F6400044F8040D93E8030082E803002046F2F733
:10F6500013FADAF80000FAF707FC2B68986CF2F757
:10F6600037F903462046A3F80890A3F80A809F8143
:10F67000DE810193F2F700FA02B0BDE8F08700BF27
:10F68000B40000202DE9F0413E4E84B03E4F316879
:10F690004B7C083157F82300C3681B6B9847F7F77A
:10F6A00015F8044600285CD1054628460135F2F7D6
:10F6B000D5FC0C2103460DEB0100039343B1DB683D
:10F6C0005B6A9847034600285AD00398984704433A
:10F6D000022DEAD1002C44D1F7F718F82B4A6FF02D
:10F6E000704312689A4238D00124294D2046F2F71F
:10F6F000B5FC03462046013C039363B3F4F74EFE8A
:10F700002B6804209B689847306843F6FF7CB0F96B
:10F710000C30B0F90810634521EAE171A8BF6346D7
:10F720008B420ADBB0F90EE0B0F90A20E64522EA86
:10F73000E272A8BFE646964517DA2B6800209B6860
:10F740009847039B0E2103A8DB685B6A9847034632
:10F7500008B103989847631CC8D1002004B0BDE8E5
:10F76000F081204604B0BDE8F081407C57F82000CD
:10F77000D0F80CC0CDF800E0DCF81080C047DCE722
:10F780000120EFE7B4000020CC420220B0000020AE
:10F79000C400002010B501240348610300F0DEFE20
:10F7A00000B10024204610BD000802407047000050
:10F7B0000146014802F0B4B914020020044810B513
:10F7C00002F0C0F9042801D0012010BD002010BDB6
:10F7D0001402002010B500F015F8012801D0022015
:10F7E00010BD074802F098FA040006D104484FF40F
:10F7F000006102F05BF800B10124204610BD00005A
:10F800001402002008B501208DF80000FFF7C2FFA8
:10F8100010B900208DF800009DF8000008BD000020
:10F8200013460A4610B500240146034802F00AFBBD
:10F8300000B10124204610BD14020020034801211C
:10F840004FF0FF32406805F0E9B8000004000020E6
:10F8500013460A4610B500240146034802F074FB23
:10F8600000B10124204610BD1402002003480221EB
:10F870004FF0FF32406805F0D1B8000004000020CE
:10F88000FEE700001CB5F8F7B5FA0346044A00206D
:10F890000090019002210348F2F7ECF91CBD000032
:10F8A000F1480108846201082DE9F04780461D46B1
:10F8B00008A816460F4690E8100604F083FF0D498D
:10F8C00001200870404600F0A9F90B4965F31F4478
:10F8D0004A150A60CF60CE63C1F81090C1F840A00D
:10F8E000C8614C64086840F001000860BDE8F0475A
:10F8F00004F068BF1C00002000B002402DE9F04772
:10F900009846144689460746089EDDE909A504F095
:10F9100059FF104901200870384600F07FF90E4960
:10F9200068F31F460D4A0A60C1F80C90CC634C6125
:10F930000022C1F810A00D648D61CA61486248635D
:10F940004E64086840F001000860BDE8F04704F02C
:10F9500039BF00001C00002000B00240000202007D
:10F96000014800F0B5BA000040BE01200B490A482A
:10F9700010B50861084600F039FB08B100F025F821
:10F980000648012100F054FA002803D0BDE81040D9
:10F9900000F01BB810BD00000143010840BE01206B
:10F9A00030B50468256825F4802525600468636007
:10F9B0008368402B036803D099600068C26030BD43
:10F9C0009A600068C16030BD70477047002200F047
:10F9D00001B800000E4B70B505465C7A0120002C82
:10F9E00014D15E7A03F108009C555E7A03EB86061B
:10F9F00075605D7A2A54587A421C5A723A232F2233
:10FA0000303008704B7020468A70CC7070BD00009A
:10FA1000E0BE0120F0B5D1E90125D1E90343D1E9E8
:10FA200005762A43D1F800C044EA0304D1E907353A
:10FA300042EA0402496A42EA0702BCF1010F42EAC3
:10FA4000060208D004681A432A430A43E30BDB0387
:10FA50001A4302600BE0066844682B4326F4F8451D
:10FA600029430B4303606FF30E04224342600020DE
:10FA7000F0BD426942EA410141610020704738B55A
:10FA800091E81C00C9686FF01F051A4305EB441488
:10FA900044EA41210A4300920261002038BD00007F
:10FAA0002DE9F043914691E81C006FF00F05521EBE
:10FAB0002E0105EB03131A430B7E06EB04268C8AFA
:10FAC0002F034FEA054C0D8A32434FF07F4808EB75
:10FAD0000366CB68B9F1010F07EB05450CEB045445
:10FAE0000CD081683F1107EB03331A432A432243AA
:10FAF000324301F070410A43826011E08168DFF80F
:10FB000028C0C7681B03A3F5805323432A4301EA97
:10FB10000C0132430B43836007F070442243C26000
:10FB20000020BDE8F0830000FF0F0FFF10B503F0C9
:10FB300081F803F091FB03F02BFB03F04DF8BDE8D7
:10FB40001040FFF713BFF2F7BBBF0000FFF79AFEAC
:10FB5000F2F754F84FF0FF30F4F74CFC0B48F4F791
:10FB600061FCF6F789FCA0F11404F6F73FFC963827
:10FB700004EBD47100EBD0704A10411004A0F2F7EE
:10FB80005DFB6420F2F780FAFBE70000EC640108FB
:10FB900048656C6C6F20776F726C64210000000008
:10FBA00002484FF4DC31F1F70BBD0000980500204E
:10FBB00004F0C4BE04F0EDBF04F0D5BE70470000F1
:10FBC0007CB500246846009404F056FF044D0121E2
:10FBD000286001A8019404F0AFFF68607CBD0000BC
:10FBE0009400002002484FF0FF31006804F070BF1D
:10FBF000940000200148006804F042BF94000020F7
:10FC0000C0EBC001044800EB8101D1E9030249695E
:10FC10005043484370470000C4BE0120B8B937487C
:10FC200037490068884201D1012100E00021354AAE
:10FC3000904201D1012200E00022334B41EA02014F
:10FC4000984201D1012200E00022114301D000209E
:10FC500070472E49884201D1012100E000212C4A41
:10FC6000904201D1012200E00022114301D0012085
:10FC700070472849884201D1012100E00021264A2D
:10FC8000904201D1012200E00022114301D0022064
:10FC900070472249884201D1032070472049884299
:10FCA00001D1042070471F49884201D1012100E0A1
:10FCB00000211D4A904201D1012200E000221B4B8D
:10FCC00041EA0201984201D1012200E00022184BD2
:10FCD00041EA0201984201D1012200E000221143D1
:10FCE00001D0052070471349884201D10620704792
:10FCF0001149884201D107207047FEE7200000200B
:10FD0000B463010844640108FC6301082C64010821
:10FD1000E4630108CC6301081464010884630108EA
:10FD20009C6301080C630108246301083C6301081B
:10FD300054630108F46201086C630108F0B5012600
:10FD4000044600201E2301E05B1E05D303F01F07BD
:10FD500006FA07F50D42F7D072B1082A0AD0102A28
:10FD600005D0182A01D1072B06D30120F0BD082B9E
:10FD7000FBD201E0102BF8D22368596121688B680F
:10FD800023F0180313438B60F0BD000010B504008E
:10FD900010D0607F20B900202077204600F032F894
:10FDA00021790220607739B1D4E902122046FFF7A9
:10FDB000C5FF48B1012010BD216811484861206885
:10FDC000816821F0180181606079A0B12168206903
:10FDD0000861012220686369816821F0600119438C
:10FDE00081602068A369816821F0800119438160E6
:10FDF0006277002010BD21684FF0FF30E8E7000077
:10FE0000B71DC10408B500680649884208D10648F4
:10FE1000016841F480510160006800F48050009056
:10FE200008BD00000030024030380240704700003A
:10FE300070B590F83820012A23D0244C012680F890
:10FE40003860022300EB011280F83930158CD36939
:10FE500018320A2B43EA054515D0092B13D0137B22
:10FE600045EA0363056899B1E969A1431943E9616A
:10FE7000016813680B6151680A291BD0092919D040
:10FE80001DE0022070BDD36803F07F432B43E9E7F8
:10FE9000696AA14319436962016813688B615168FB
:10FEA0000A2901D009290AD1D168026821F07F41CD
:10FEB000916204E0D168026821F07F411162002163
:10FEC00080F8396080F83810084670BD0F0003FFD5
:10FED0002DE9F0470446006800274FF004084FF072
:10FEE000010946680568F10714D0E90512D50368D1
:10FEF00023F480730360E06B40F00100E06320684E
:10FF0000C0F8089084F8398084F83870616909B1C4
:10FF100020468847B00615D5A80413D520682022AE
:10FF2000036823F40053036020688260E06B40F0B4
:10FF30000200E06384F8398084F83870616909B19F
:10FF400020468847300715D5280513D52068082294
:10FF5000036823F40063036020688260E06B40F074
:10FF60000400E06384F8398084F83870616909B16D
:10FF70002046884770070CD568050AD520680268B6
:10FF800022F4806202602068C0F80880204600F0F9
:10FF90005AF8B00713D5A80511D5206802220368C6
:10FFA00023F40073036020688260E06BE06384F8F0
:10FFB000399084F83870216909B120468847F006E5
:10FFC00012D5E80410D52068016821F48051016041
:10FFD000226810219160E16BE16384F8399020463A
:10FFE00084F83870FFF722FFBDE8F08770B5040091
:10FFF00004D094F83900002510B106E0012070BD4E
:020000040801F1
:10000000204684F8385000F01FF8022084F83900A8
:10001000D4E900030121026822F440321A4302604D
:100020002068A368426B22F007021A4342632068EB
:10003000E368026C6FF30D021A430264E56384F80F
:100040003910002070BD704708B500680B49884220
:1000500012D10B48016841F40001016000680022E0
:10006000052100F4000000905A2000F045FEBDE894
:1000700008405A2000F033BE08BD000000B0024026
:100080003038024090F83510022903D080214165B4
:1000900001207047052180F835100068016821F0C3
:1000A0000101016000207047406D70472DE9F0416B
:1000B000044690F8340000250128A66D0ED094F86F
:1000C00035C00127002084F83470BCF1010F07D03F
:1000D000022584F834002846BDE8F0810220FBE7C1
:1000E000022784F8357060652046FFF759FC94F8C4
:1000F0005C103F208840B0602068016841F0160124
:1001000001602068416941F080014161206C20B1AB
:100110002068016841F0080101602068016841F031
:1001200001010160D7E7000070B5044600F020FA35
:100130000546601C02D004480078044400F018FA18
:10014000401BA042FAD370BD24000020F0B587B058
:1001500014216846F0F70FF92148016800293CD1C5
:10016000012101601F48016841F001010160006840
:1001700002240025694600F00100059003264FF691
:1001800083700C278DE8F100174800F0FBF848F267
:10019000331069468DE8F100144800F0F3F84CF292
:1001A000037069468DE8F100114800F0EBF84FF656
:1001B0003F0069468DE8F1000E4800F0E3F8282082
:1001C00069468DE8F1000C4800F0DCF8082069462B
:1001D0008DE8F100094800F0D5F807B0F0BD000047
:1001E000140000203838024000100240001802407D
:1001F000000C024000140240001C024000080240B3
:100200002DE9F04FDFF84CE100224FF001094FF0EB
:100210000F0A00BF09FA02F401EA0403A3427CD1E9
:1002200022F0030676449707D6F808C83F0FDFF898
:1002300028810AFA07FB40450BEA0C0502D14FF072
:10024000000C40E0DFF814C1604502D14FF0010C12
:1002500039E0DFF80CC1604502D14FF0020C32E00A
:10026000DFF800C1604502D14FF0030C2BE0DFF84E
:10027000F8C0604502D14FF0040C24E0DFF8ECC078
:10028000604502D14FF0050C1DE0DFF8E4C0604589
:1002900002D14FF0060C16E0DFF8D8C0604502D15D
:1002A0004FF0070C0FE0DFF8D0C0604502D14FF0EF
:1002B000080C08E0DFF8C4C0604502D14FF0090C1B
:1002C00001E04FF00A0C0CFA07FCAC451DD1D6F842
:1002D0000888DFF8ACC028EA0B08C6F808880CF1DB
:1002E0000405DCF800802E1D371D28EA0308CCF831
:1002F0000080D5F800C02CEA030CC5F800C03568B2
:100300009D4335603D689D433D6003230768D508E4
:100310004FEA42084FEA427C00E015E04FEADC6C0D
:1003200003FA08F39F4307600AFA0CF600EB850511
:100330002F6AB7432F6285689D4385604568A54352
:100340004560C4689C43C460521C102AFFF462AF2D
:10035000BDE8F08F00300140000002400004024080
:1003600000080240000C024000100240001402404D
:1003700000180240001C02400020024000240240FD
:10038000003C01402DE9F84FDFF89CE100224FF0DE
:1003900001084FF0030B4FF00F0A00BF0B6808FA7B
:1003A00002F42340A34271D14D68022D01D0122DD9
:1003B0000FD1D5080E69570700EB8505A9462D6AB0
:1003C000FF0E0AFA07FCBE4025EA0C052E43C9F8C9
:1003D00020600F79550006680BFA05FC07F003074B
:1003E00026EA0C06AF40374307604E68012E05D061
:1003F000022E03D0112E01D0122E0ED18668CF68A6
:1004000026EA0C06AF403743876046680F79A6435B
:10041000C7F30017974037434760C4688E6824EAE3
:100420000C04AE402643C6604C68E40075D53F4CD2
:10043000256845F480452560246822F00306950769
:1004400004F4804400943A4C2D0F2644D6F8084812
:10045000DFF8E0C00AFA05F7604524EA070401D195
:1004600000272EE0344FB84201D1012729E0334F55
:10047000B84201D1022724E0314FB84201D103270D
:100480001FE0304FB84202D104271AE045E02E4F5A
:10049000B84201D1052714E02C4FB84201D10627FC
:1004A0000FE02B4FB84201D107270AE0294FB8428D
:1004B00001D1082705E0284FB84201D1092700E003
:1004C0000A27AF4027437546C6F808784E68DEF81D
:1004D0000040F60324EA030400D51C43124E2C60AE
:1004E000361D4D683468AD0324EA030400D51C436F
:1004F0000D4F346008374D683C68ED0224EA030470
:1005000000D51C43084D3C600C354E682C68B60283
:1005100024EA030400D51C432C60521C102AFFF46B
:100520003DAFBDE8F88F0000003C01404438024078
:100530000030014000000240000402400008024078
:10054000000C02400010024000140240001802405B
:10055000001C0240002002400024024000690840C4
:1005600000D0012070470AB1816170470904FBE7A0
:10057000014880687047000024000020024881681C
:10058000027811448160704724000020032010B5D8
:1005900000F0D2FB002000F005F800F073FB002013
:1005A00010BD000010B500220146362088B000F0D2
:1005B000A3FB362000F093FB1348016841F01001C3
:1005C0000160006805A900F010000690684600F080
:1005D0000FFF00F02DFF0D49400000220C4CB0FB36
:1005E000F1F10C4840F2E7330460C0E90332491EE0
:1005F000C0E9011201F058FD10B1012008B010BD92
:10060000044801F09FFDF9E74038024040420F00E6
:100610000010004058030020F0B590F8A040012CD5
:1006200007D0012680F8A060022480F8A1400025B0
:100630001FE00220F0BD00BF03EB830404EBC30402
:1006400000EB8404A46C062C1CD00F68FCB207F4E9
:100650007F4C44EA056407F47F0744EA0C043C43FA
:1006600007684FF0C40C0CEBC31C47F80C40091D85
:100670006D1C9542E0D3002180F8A16080F8A010A5
:100680000846F0BDD1F800C005EB051E0CF0FF04D4
:100690000CF47F4744EA0E643C430CF47F0C44EABC
:1006A0000C04DDE730B590F8A030012B18D0012301
:1006B00080F8A030022580F8A150902404EBC212EB
:1006C0000468A55805F07F45A5500468A15002684C
:1006D0000021536280F8A13080F8A010084630BD98
:1006E000022030BD2DE9F041044690F8A0001646E6
:1006F0000F4601281DD0012584F8A050022084F85F
:10070000A10006EB860000EBC600342204EB80005B
:100710003830EFF708FE32463946204602F05CF9E1
:10072000216800204D6284F8A15084F8A000BDE843
:10073000F0810220FBE710B5044600F04DF90020DF
:10074000C4F8A40084F8A10084F8A00010BD10B57E
:1007500090F8A020012A16D0012280F8A0200224BF
:1007600080F8A140842303EBC11350F8A01BCC58A0
:1007700024F00204CC5050F8A03C00215A62427090
:100780000170084610BD022010BD10B590F8A020E1
:10079000012A16D0012280F8A020022480F8A1406E
:1007A000842303EBC11350F8A01BCC5844F002047F
:1007B000CC5050F8A03C00215A62427001700846AB
:1007C00010BD022010BD70472DE9F04104460068BD
:1007D00000274FF00408856B466B690715D5710734
:1007E00013D5426B22F0040242632068C0F83C80BB
:1007F000D4F8A40040F00100C4F8A40084F8A1805B
:10080000204684F8A070FFF7DEFFA80716D5B007D2
:1008100014D520680222436B23F00203436320684F
:10082000C263D4F8A40040F00200C4F8A40084F825
:10083000A180204684F8A070FFF7C5FF05EA0600F6
:100840004FF00108C0070ED021684A6B22F0010268
:100850004A632168C1F83C8084F8A180204684F86E
:10086000A07000F091F8280710D530070ED5206849
:100870000822436B23F0080343632068C26384F8B3
:10088000A180204684F8A07000F08CF9BDE8F081CA
:100890002DE9F041040004D094F8A100002518B11E
:1008A00007E00120BDE8F081204684F8A05000F068
:1008B000C9F83448022184F8A110012202CC8B69C6
:1008C00023F070438B6194E84A001943E3681E43A8
:1008D00054F8043D31439E693143996121688B6826
:1008E00003408B602168A68AA7698B683B4343EA73
:1008F00006438B602168CB680340CB602168A38BE3
:10090000276ACE683E4346EA0346CE6021680B69FB
:1009100003400B612368A68CA76A1969394341EA31
:100920000641196121684B6903404B612068A38D22
:10093000266B4169314341EA03414161236894F8E0
:10094000351094F83600DE6A000406F07F46DE6259
:10095000236840EA012094F83460D96A31430143A6
:10096000D9622068416B41F00601416320688169CA
:1009700041F001018161C4F8A45084F8A120002055
:1009800090E7000000F800F02DE9F041114C054619
:1009900000226068002817DBD4E9036C67692968C6
:1009A0002368784306FB0CF606FB0030C1F8AC0068
:1009B0002868416A41F00101416261681046F3F71D
:1009C00005FC4FF0FF3060602846BDE8F041002193
:1009D00000F0C6B8C4BE012010B5006812498842B4
:1009E00020D11248016821F0806101601048102177
:1009F000FFF706FC0F484EF6FF71FFF701FC0E48AB
:100A0000F721FFF7FDFB0D484FF48051FFF7F8FB8E
:100A10000B484FF44641FFF7F3FBBDE81040582068
:100A200000F04CB910BD000000680140443802409D
:100A3000001002400024024000280240001802403A
:100A40000020024070B586B0044614216846EFF7D6
:100A500092FC3C492068884272D13B48016841F0D1
:100A600080610160006800F08060059036481438AD
:100A7000016841F010010160016801F01001059169
:100A8000016841F400710160016801F40071059191
:100A9000016841F480610160016801F480610591A1
:100AA000016841F040010160016801F040010591D9
:100AB000016841F480710160006800240E266946D7
:100AC00000F4807005901020009002251F48CDE9A9
:100AD0000154CDE90346FFF755FC4EF6FF70009038
:100AE000CDE901541A486946CDE90346FFF74AFCAF
:100AF000F7200090CDE9015416486946CDE9034638
:100B0000FFF740FC0921E8020090CDE90154CDE94E
:100B1000034111486946FFF735FC4FF44640009009
:100B2000CDE901540D486946CDE90346FFF72AFC9B
:100B300000220521582000F0DFF8582000F0CFF8FF
:100B400006B070BD00680140443802400010024009
:100B50000024024000280240001802400020024009
:100B600070B590F8A020012A18D00D4D012380F80F
:100B7000A030022280F8A120002450F8A02B566B50
:100B800026F001065663296050F8A01C4A6B42F01B
:100B900001024A6343700470204670BD022070BD9C
:100BA00040680140704770B5044690F8A0000B46BD
:100BB000012818D002EB820000EBC201012584F865
:100BC000A050022084F8A10004EB81012046CB65EF
:100BD000383101F001FF216800204D6284F8A150F6
:100BE00084F8A00070BD022070BD70B5044690F876
:100BF000A0000B46012818D002EB820000EBC201D6
:100C0000012584F8A050022084F8A10004EB8101A2
:100C10002046CB64383101F0DFFE216800204D62B0
:100C200084F8A15084F8A00070BD022070BD70B59A
:100C3000044690F8A0000E46012820D003EB830064
:100C400000EBC301012584F8A050022084F8A10024
:100C500004EB81018E63086E3044C1E90F02486ED7
:100C60001044486438311A46204601F0B5FE216828
:100C700000204D6284F8A15084F8A00070BD0220CD
:100C800070BD00000C4882B0016841F080510160E5
:100C9000006800F0805000900748001D016841F492
:100CA00080410160006800220F2100F48040009024
:100CB000901E02B000F020B84038024000280DDB42
:100CC000410900F01F028900012001F1E02190405C
:100CD000C1F88001BFF34F8FBFF36F8F70470028BB
:100CE00009DB410900F01F028900012001F1E02128
:100CF0009040C1F8000170470E4BF0B41B680D46E0
:100D0000C3F30223C3F10706042E00D90426191DDC
:100D1000072901D2002300E0DB1E012404FA06F1BA
:100D20009C40491E2940641E994014402143F0BC58
:100D300003F0BEBD0CED00E0064900F0070210B55F
:100D40004FF6FF040868044B204040EA0220184395
:100D5000086010BD0CED00E00000FA051848F8B579
:100D6000016841F0805101600068164C00F080502D
:100D70000090206840F480302060FFF7F9FB4FF4CA
:100D80007A76054605E000BFFFF7F2FB401BB04254
:100D90000FD86068C003F7D5206840F400302060A9
:100DA000FFF7E6FB054606E0FFF7E2FB401BB0421B
:100DB00001D90320F8BD60688003F5D50020F8BD97
:100DC00040380240007000402DE9F84F044600789A
:100DD000DFF824944FF000063746C0070ED0D9F84C
:100DE000001021F40001C9F80010D9F80010626B5E
:100DF0001143C9F80010606B00B90126FE4D206850
:100E0000843500030ED5E16B286820F440100843B8
:100E10002860E06BB0F5801F01D010B102E0012620
:100E200000E0012720684FF4800BC0020CD5216C34
:100E3000286820F4400008432860206C584501D100
:100E4000012601E000B901272068C10100D5012673
:100E5000800666D5E8483830016841F0805101606D
:100E60000068DFF898A300F080500090DAF80010D6
:100E700041F48071CAF80010FFF77AFB804605E064
:100E8000FFF776FBA0EB080064287DD8DAF80000B5
:100E9000C005F5D5DFF8608308F16808D8F80000D0
:100EA00010F440702AD0218E01F44071814225D087
:100EB000D8F80010D8F8002021F4407142F48032B4
:100EC000C8F80020D8F8002022F48032C8F80020AA
:100ED000C8F80010D8F80000C0070FD0FFF748FB93
:100EE000824607E0FFF744FBA0EB0A0141F288309D
:100EF0008142CAD8D8F800008007F3D5206BC0F330
:100F0000012103297ED0D9F8001021F4F811C9F885
:100F10000010228ED8F80010C2F30B021143C8F85B
:100F200000102078C00607D5286820F0807028605F
:100F30002868A16B084328602188AF48883049049D
:100F400005D5626E016821F44031114301602188AA
:100F5000090405D5A26E016821F440211143016006
:100F60002168C90305D5E26E016821F440111143DF
:100F700001602168890305D5226F016821F44001D1
:100F800011430160217800E018E1490605D5626C43
:100F9000016821F00301114301602178090605D59C
:100FA000A26C016821F00C01114301602188C90580
:100FB00005D5E26C016821F0300111430160218800
:100FC000890505D5226D016821F0C001114301603A
:100FD0002188490505D5626D016821F440711143EE
:100FE00001602188090505D5A26D016821F44061E1
:100FF000114301602188C90407D5E26D016821F41D
:10100000405100E041E0114301602188890405D589
:10101000226E016821F440411143016021684902B8
:1010200005D5A26F016821F080611143016021683C
:101030004FF0006A890209D5E26F016821F0006172
:1010400011430160E16F514500D1012721680A0772
:1010500000D50127490305D5626F016821F0407171
:10106000114301602168090206D5D4F88020016887
:1010700021F0805111430160DFF88491012E0ED0E0
:101080002068B0F1007F0AD08FE05E4AD9F80030C6
:10109000104023F4F8120243C9F8002039E7D9F8C8
:1010A00000004E4620F08060C9F80000FFF760FAAB
:1010B000804605E0FFF75CFAA0EB080064287DD8C5
:1010C00030680001F6D421784B487C30C90712D033
:1010D000616B81B9237A62680168D0F800C092011F
:1010E000C1F3014142EA0142CCF3036142EA0161EA
:1010F00041EA0371016021680A0303D5E26BB2F58E
:10110000801F04D0C9021AD5216C594517D16368D4
:10111000016894F80CC002689B01C1F3014143EAE5
:101120000141C2F3027241EA0C6141EA02710160BD
:101130002968626A21F01F01521E1143296021684B
:10114000C90110D5238A62680168D0F800C09201F5
:10115000C1F3036142EA034242EA0162CCF3027145
:1011600042EA01710160216889010CD56168228A17
:10117000237B94F808C0890141EA024141EA0361F6
:1011800041EA0C7101603168B04641F08061316024
:10119000FFF7EEF9064604E0FFF7EAF9801B642842
:1011A0000CD8D8F800000001F6D56FB3D9F80000CC
:1011B0004E4620F08050C9F8000000E079E0FFF7CB
:1011C000D7F9074605E000BFFFF7D2F9C01B642836
:1011D0006FD83068C0438000F6D50748216880305A
:1011E0000A0301D5E26B1AB1C90225D5216C19BBDE
:1011F00063690168277E08E00838024000700040FB
:1012000000380240FFFCFF0F5AE00268C1F30141C1
:101210009B0143EA0143C2F3027143EA076242EAD7
:101220000171016029686FF0FF03A26A21F4F8518F
:1012300003EB0222114329602168890212D5E16F74
:1012400051450FD1238C6269016807689201C1F38F
:10125000036142EA034242EA0162C7F3027142EAD1
:10126000017101602178090716D561690268D0F81B
:1012700000C08B01277FC2F30362CCF3014143EA34
:10128000014141EA026141EA077101602868E16AAF
:1012900020F4403008432860306840F080503060CF
:1012A000FFF766F9044607E0FFF762F9001B6428C0
:1012B00002D90320BDE8F88F3068C0438000F3D422
:1012C0000020F7E72DE9F04705000F4663D0444EB4
:1012D000306800F00F00B84209D2306820F00F00EB
:1012E00038433060306800F00F00B84253D12868AE
:1012F0003C4C810712D5400703D5206840F4E050EC
:1013000020602878000703D5206840F46040206002
:10131000A968206820F0F000084320602878C00702
:101320002AD0304968680839012810D00968022895
:1013300010D0890700292EDA216821F0030101432A
:101340002160FFF715F9804641F288390DE0096800
:101350008903EFE78901EDE7FFF70AF9A0EB080140
:10136000494502D90320BDE8F0876868216801F08B
:101370000C01B1EB800FEFD1306800F00F00B842E4
:101380000BD9306820F00F0038433060306800F02F
:101390000F00B84201D00120E5E72878400705D5C5
:1013A000E968206820F4E0500843206028780007AE
:1013B00006D52869216821F4604141EAC000206017
:1013C00000F056F82168084AC1F30311515CC84087
:1013D000064908600020FFF7E5F80020C3E7000099
:1013E000003C024008380240BC6201083000002086
:1013F0000D4A0F2330B503604FF4E0540B4B1568D2
:1014000005F003054560156805F0F0058560156871
:1014100005F4E055C560126804EAD202026118685A
:1014200000F00F00086030BD08380240003C024068
:101430000449054809680068044AC1F38221515CE7
:10144000C84070470838024030000020CC620108D4
:101450000449054809680068044AC1F34231515CF7
:10146000C84070470838024030000020CC620108B4
:10147000154910B51548096811F00C0213D014492C
:10148000042A0FD0082A0ED10F4C241F226823688B
:1014900002F03F025B0207D52068C0F38810A0FB72
:1014A000010106E0084610BD2168C1F38811A1FBC7
:1014B00000010023EEF706FF2168C1F30141491C3A
:1014C0004900B0FBF1F010BD083802400024F400E0
:1014D00040787D012DE9F84F05004FF000076ED0F0
:1014E0002878DFF81C93A9F1040AC007AAF10404C4
:1014F0004CD0D9F800104846C1F38101012908D029
:101500000068C0F3810002280AD1DAF80000400226
:1015100006D52068800339D568680028DFD035E01B
:101520006868B0F5803F0BD010B1B0F5A02F11D096
:10153000206820F480302060206820F4802002E0C1
:10154000206840F480302060686890B1FFF710F8A0
:1015500006460AE0206840F480202060F0E700BFE3
:10156000FFF706F8801B642872D820688003F7D53F
:101570000CE0FEF7FDFF064605E000BFFEF7F8FFB2
:10158000801B6428F0D820688003F7D4287880076F
:1015900042D5D9F80010484611F00C0F08D0006869
:1015A000C0F3810002280BD1DAF80000400207D412
:1015B0002068800718D5E868012800D114E01CE1F4
:1015C000E8680028206817D040F001002060FEF78E
:1015D000CFFF064605E000BFFEF7CAFF801B0228CA
:1015E000C2D820688007F7D52869216821F0F80162
:1015F00041EAC00020600FE020F001002060FEF70B
:10160000B7FF064605E000BFFEF7B2FF801B0228C9
:101610001ED820688007F7D42878000729D5784895
:1016200069696C3000298046016812D041F00101DF
:101630000160FEF79DFF064605E000BFFEF798FF3C
:10164000801B022804D8D8F800008007F6D510E0E7
:1016500089E021F001010160FEF78AFF064604E0FF
:10166000FEF786FF801B02287DD8D8F8000080078F
:10167000F6D4287840076BD5DFF8848108F1380864
:10168000D8F80000C0000BD4D8F8001041F0805109
:10169000C8F80010D8F80000012700F08050009032
:1016A00058480168C90512D40168834641F4807125
:1016B0000160FEF75DFF064605E000BFFEF758FF3C
:1016C000801B64284FD8DBF80000C005F6D54C4ECF
:1016D000A868683601280AD008B1052811D03068FA
:1016E00020F001003060306820F0040002E0306833
:1016F00040F001003060A868A0B1FEF739FF8346D2
:101700000CE0306840F004003060F0E7FEF730FF96
:10171000A0EB0B0141F28830814266D83068800727
:10172000F4D50EE0FEF724FF834607E0FEF720FF26
:10173000A0EB0B0141F28830814256D83068800717
:10174000F4D42FB1D8F8001021F08051C8F800105F
:10175000A869C8B3D9F80010C1F3810102294CD09F
:101760000228206800E040E020F08070206003D074
:10177000FEF7FEFE05463BE0FEF7FAFE064604E0F5
:10178000FEF7F6FE801B02282FD820688001F7D4D0
:10179000D5E90962D5E907011B4B570895F82C20BC
:1017A000084303EB074343EA8611084340EA02601B
:1017B00040F00050CAF80000206840F080702060BF
:1017C000FEF7D6FE054606E015E000BFFEF7D0FEA8
:1017D000401B022809D820688001F7D50BE000BF24
:1017E000FEF7C6FE401B022802D90320BDE8F88F91
:1017F00020688001F4D40020F8E70120F6E700001B
:1018000008380240007000400000FFFF70B504007F
:101810000D4603D094F82C0010B107E0012070BDF4
:10182000002084F82D00204600F011F8022084F8F2
:101830002C002068211DFEF7EDF8D4E900022946AE
:10184000FEF72EF9012084F82C00002070BDFEF771
:101850007DBC10B5044690F82C00022809D0022067
:1018600084F82C002068FEF704F9012084F82C008D
:10187000002010BD70B5044690F82C000D460228DB
:101880000DD0022084F82C002068FEF7F8F82868B4
:10189000022805D05FF0010084F82C00002070BD04
:1018A0000520F9E710B5FDF781FF10BDFEB5044630
:1018B0000D46416C032084F83400032920D0B5F58F
:1018C000805F1DD0B5F5006F05D045B1A06B40F02D
:1018D0000060A06309E0204602F0A3FA02E020467F
:1018E00002F078FAA16B0143A163A06B012658B105
:1018F000216840F2FF50886384F834600120FEBD07
:10190000A06B40F08050E4E7211DD4E905070EC923
:10191000CDE900500297206802F03EF884F8346068
:101920000020FEBD7047F0B5426E120E93090B7099
:10193000C2F3830402F003024C708A70426E120CF0
:10194000CA70B0F86420120A0A7190F864204A71D3
:101950004FF6FF73826E120E03EA0212CA80CB8822
:10196000826EC2F3074214092343CB8002F00F02B8
:101970000A72B0F868200025C2F30722D3094B721F
:10198000C2F38014C2F34016C2F300178C72CE72F9
:101990000F734D730123446C4FF400766CB1012C2E
:1019A00046D0026840F2FF519163816B41F0805153
:1019B000816380F834300120F0BD9207120D0A6176
:1019C0000C6990F8682044EA82020A610C69C26ED0
:1019D000120E9709C2F3C20C3C430C6102F00702DD
:1019E00081F814C04A75C26EC2F3074294075709C2
:1019F0008F75640FC2F38202CA750C760A7EB0F846
:101A00006C40C4F3072442EAD4120A760A69521CD5
:101A100042650F7EBF1CBA4042650F7A03FA07F792
:101A200087654FEA572C02FB0CF2C0E917261CE031
:101A300090F868209206920A0A610C69C26E120E32
:101A400044EA02220A610C69C26EC2F307421443DF
:101A50000C610A69B0F86C40521C4FEA8222426560
:101A6000C4F30724C0E916620666C4F380124FEA85
:101A700084644A764FEA54648C7690F86C208C7EAD
:101A80004FEAD21602F07F0244EA06048C76CA7648
:101A900050F8702F4FEA12624FEAD2140C77C2F35B
:101AA0004116C2F382074FEA82724E778F774FEA70
:101AB0001272CA77CC7F0268C2F3074244EA9214DA
:101AC000CC77C2F3401602F0010281F8206081F861
:101AD000215081F822200288C2F307224FEAD21453
:101AE00081F82340C2F38015C2F34016C2F30017F9
:101AF000C2F3810C02F0030281F8245081F82560C2
:101B000081F8267081F827C081F8282000784FEAF4
:101B1000500081F8290081F82A304FF00000F0BD14
:101B2000426C0A60826C4A60C26C8A60026DCA6054
:101B3000426D0A61826D4A61C26D8A61006EC86140
:101B40000020704770B5B0F85010002504460068BA
:101B5000090401F06DFD18B1A16B0143A16304E01C
:101B60002068002101F012FF0546C5F3432070BD37
:101B700070B504460068012540F2FF56416BC90567
:101B800048D5290281632068C16B21F49D71C1632E
:101B9000206B0007206B20D5800702D4206B8006C5
:101BA00009D5206801F076FD28B1A16B0143A1633E
:101BB0002046FFF7B7FE2068866384F83450206B18
:101BC000C00702D1206B800703D5204600F0B4F98E
:101BD00070BD204600F0B4F970BD0006FCD5206B46
:101BE000800609D5206801F055FD28B1A16B01439D
:101BF000A1632046FFF796FE206BC007ECD1206B57
