:020000040800F2
:10000000C8C70120DD010008F904010849F3000810
:10001000F504010875BD0008251B0108000000005B
:100020000000000000000000000000008113010833
:1000300071BF000800000000FB040108F501000882
:10004000F7010008F7010008F7010008F7010008B0
:10005000F7010008F7010008F7010008F7010008A0
:10006000F7010008F7010008F7010008F701000890
:10007000F7010008F7010008F7010008F701000880
:10008000F7010008F7010008F7010008F701000870
:10009000F7010008F7010008F7010008F701000860
:1000A000F7010008F7010008F7010008F701000850
:1000B000F7010008F7010008F7010008F701000840
:1000C000F7010008F7010008F7010008F701000830
:1000D000F7010008F7010008F7010008F701000820
:1000E000F7010008F7010008F7010008F701000810
:1000F000F7010008F7010008F7010008F701000800
:10010000F7010008F7010008F7010008F7010008EF
:10011000F7010008F7010008E5140108F7010008DD
:10012000F7010008F7010008F7010008F7010008CF
:10013000F7010008F7010008F7010008F7010008BF
:10014000F7010008F7010008F7010008F7010008AF
:10015000F7010008F7010008F7010008F70100089F
:10016000F7010008F7010008F7010008F70100088F
:10017000F7010008F7010008F7010008000000007F
:10018000F7010008F7010008F7010008F70100086F
:10019000F7010008F7010008F7010008F70100085F
:1001A000D5F90008F701000835BF0008F70100087D
:1001B000F7010008F7010008F7010008F70100083F
:1001C000F7010008F7010008DFF80CD000F0A4F8F0
:1001D00000480047973B0108C8C7012006488047F0
:1001E00006480047FEE7FEE7FEE7FEE7FEE7FEE71C
:1001F000FEE7FEE7FEE7FEE781140108C9010008FB
:100200002DE9F05F0546002092469B46884606464B
:10021000814640241BE0284641464746224600F0DE
:100220006BF853465A46C01A914110D311461846EE
:10023000224600F052F82D1A67EB01084F4622467D
:100240000120002100F049F817EB00094E41201E63
:10025000A4F10104DFDC484631462A464346BDE8A6
:10026000F09F10B5441A0346944209D284181144F1
:1002700003E011F8013D04F8013D521EF9D210BD12
:1002800040EA0104A40703D009E010C9121F10C3FB
:10029000042AFAD203E011F8014B03F8014B521E75
:1002A000F9D210BDD2B201E000F8012B491EFBD2F9
:1002B00070470022F6E710B513460A460446194671
:1002C000FFF7F0FF204610BD034611F8012B00F8A0
:1002D000012B002AF9D118467047202A04DB203A66
:1002E00000FA02F1002070479140C2F1200320FA89
:1002F00003F3194390407047202A04DB203A21FA87
:1003000002F00021704721FA02F3D040C2F120022E
:100310009140084319467047064C074D06E0E068D7
:1003200040F0010394E8070098471034AC42F6D33C
:10033000FFF74EFFB4A20108D4A2010870B58C18D3
:1003400010F8015B15F0070301D110F8013B2A11E9
:1003500006D110F8012B03E010F8016B01F8016BD6
:100360005B1EF9D12B0705D40023521E0DD401F8D2
:10037000013BFAE710F8013BCB1A921C03E013F89B
:10038000015B01F8015B521EF9D5A142D8D30020D0
:1003900070BD00002DE9F047466886B0054630463E
:1003A00001F014F9C36D0090D0F88840D0F8807047
:1003B000D0F86880B0F87C90002B64D0D3F800A00F
:1003C000684601F017F914B909E024683CB1636884
:1003D000284698470028F8D006B0BDE8F0872B687B
:1003E000172B00F0A5801DDC0F2B00F08D807DDC2D
:1003F0000B2B00F0BF800D2B0AD119F0080F07D18D
:10040000EB68DB6823B11B7A13B1304606F05AF86B
:100410003046294604F0C6FE0028DDD0284605F007
:100420003FF9D9E7262B75D02FDC1E2B00F0AE80CC
:10043000202BEDD1EC68002CEAD03146606807F043
:100440008FF8002800F0BC80304601F0BFF8B0F80B
:100450007C3002460190180740F1258101A801F087
:10046000C9F83146606807F069F80028D0D03046F6
:1004700001F0ACF86268034601A80193C3F880203C
:1004800001F0B8F8C4E79A469AE72A2B65D0B3F58D
:10049000107FBDD106AC3046D5F80C8001F096F83F
:1004A000B0F87C7044F8140D204601F0A3F8EB6816
:1004B000002B91D098F80830002B00F0A780380767
:1004C00040F1B380304604F0CBFF07F48873B3F5F6
:1004D000887F81D107F080039BB2002B7FF47CAF33
:1004E00041463046052205F09BFF75E7112B22D0CF
:1004F000142B8DD1304601A900F07CFB02ABEA68D9
:1005000003CB1060516067E7BAF1000F80D030462E
:10051000D0477DE7EB68022B7FF45EAF272206A968
:10052000A86841F8142D0396049307F06BF853E77D
:10053000C5F80C8050E7EC68304601F047F80190B0
:100540002389012B05D1B0F87C3043F48073A0F8E7
:100550007C3001A801F04EF85AE7304601F036F839
:10056000EB680090002B64D0C0F88430684601F03E
:1005700041F831E7304601F029F803467030009326
:1005800000F0E0FE684601F035F841E7EC68012C28
:1005900053D0002E3FF420AF304601F017F8B0F8EA
:1005A0007C30024601901C0706D523F00803304634
:1005B000A2F87C3005F08CFB01A801F01BF80BE7DA
:1005C000304601F003F8B0F87C300246019019077C
:1005D00006D523F008033046A2F87C3005F078FBFE
:1005E00001A801F007F83146206806F0A7FF0028AF
:1005F0003FF40EAF304600F0E9FF2268034601A841
:100600000193C3F8802000F0F5FF01E7304600F0C9
:10061000DDFF03462046B3F87C20019322F480726C
:10062000A3F87C2000F0E6FFD6E6304605F04AFF4E
:1006300048E7D0F88430EB6098E7384605F0C2FD13
:1006400000B3384605F03EFF384605F021FA90B970
:1006500026B9002F7FF4C0AEEF60BDE6304600F053
:10066000B5FFB0F87C3002460190190723D501A8E8
:1006700000F0C0FFEDE72146384604F075FE002E7D
:10068000E7D0EBE7404605F06FFF0746304600F045
:100690009DFF03466846C3F88070009300F0AAFFF0
:1006A000002ED6D0DAE743F008033046A2F87C30BB
:1006B00005F00EFBD2E643F008033046A2F87C308A
:1006C00005F006FBD3E700BF2DE9F04F04468DB0DF
:1006D0004FF480564B4F0091A569B0F90C1060356E
:1006E000B0F90A001944B4F910301044B4F90E20DE
:1006F000039502970196B4F812A0B4F90860D4F8F3
:1007000004B004F0EBFE054618B928460DB0BDE86C
:10071000F08F00F05BFFDFF8F49031460CAE302232
:10072000049004F047FE56F8207DCE464FF00008B6
:1007300007F13404BEE80F000FC4BEE80F000FC479
:100740009EE80300169B84E803007B663046D9F8D8
:10075000283041F28274A7F87CA0FB65C7F880803E
:10076000C7F86C80C7F8888000F044FF07A92846C6
:10077000254F00F03FFABDF922E0BDF92010BDF988
:100780002420BDF926300846521A0194CEEB03030B
:1007900071460132CDF80C8001330095029704F0C8
:1007A0009DFED9F82830044628465B6898472846BD
:1007B00000F00CFF034630469C66049300F01AFFDD
:1007C000284605F0B9F8284600F000FF034605A8C2
:1007D0001A6F0593069200F00DFF594606A803F024
:1007E00037FA002891D0284600F0F0FE069A03461A
:1007F00005A81A67059300F0FDFE284605F068FA83
:1008000083E700BF95030008150E00085400002080
:100810002DE9F041044690B0006800F0D5F9B04BE6
:100820006668A3F12C05002808BF1D461C2E00F2A7
:10083000F780DFE816F02200F500F500F500F5007E
:100840003500F500F500F500F500F5005100F50064
:10085000F500FA00F500F500F5000E01F500F500D1
:1008600048014A014C014E01F500F500F5001D005C
:100870006E69304610B0BDE8F081206800F0A6FE39
:10088000034610A8B3F85A2040F82C3D42F00C0261
:10089000A3F85A2000F0AEFE206805F0DBFEE8E782
:1008A0002A690026B4F910300192B4F91470184680
:1008B000EA68B4F918503946B4F91C40ADF81C3058
:1008C000009223462A46ADF81E70ADF82050ADF8D0
:1008D000224001F04FFACCE723681C221846089208
:1008E000079300F073FE034607A805931B6D984716
:1008F000064605A800F07EFE012E40F32781A96878
:100900003346626902916868A16901902F68206985
:10091000009702F01FFF2769A3693744C6EB03085D
:10092000286802F083FB42463946606901F0F2FA1A
:10093000686802F07BFB606942463946013001F08D
:10094000E9FA6B6A022B00F3F4802A6A964217DAFE
:100950006769012E206907F1020840F32A810244E9
:10096000374430444146013A3B4601F083FBA069DD
:10097000821B3B46EF694146C01B013001F07AFB08
:10098000012E40F3138163691E44E7692868013F23
:1009900002F04CFB314620693A4601F047FB3A46EB
:1009A0003146A06901F042FBE769686802F03EFB4E
:1009B000023F206931463A46013001F037FBA06919
:1009C0003A463146013801F031FBEB69022B40F326
:1009D0008280AB6AE769022BA868CCBFFF1A023F8E
:1009E00002F024FBEA69022A00F39A802B6A022BA8
:1009F00000F38C80286802F019FBA2692169E06984
:100A000001F088FA686802F011FBA2692169E069C7
:100A1000013A0131013801F07DFAAF6A022F61DC41
:100A20000026304610B0BDE8F08104F114012769BA
:100A3000A8680026ADF81C700EC9ADF81E10ADF800
:100A40002020ADF8223002F0F1FA07A801F036FBC1
:100A50000FE7298B2269A3690A4465695B1AE1697A
:100A60002068ADF82030ADF81C20ADF81E50ADF870
:100A7000221000F0ABFD036F0590FBB1022002F0E5
:100A80000FFB059AB2F87C30C3F3C0030E3302EBC0
:100A90008303986802F0CAFA059B586B02F0C8FA03
:100AA000059B186F00F092FD059B07A90690B3F90E
:100AB0005A2001F06BF806A800F09CFD05A800265E
:100AC00000F098FDD5E6AE6AD3E6EE69D1E62E6A6F
:100AD000CFE66E6ACDE62B6A022B8BDD79E700BF8D
:100AE000EC000020D4F81C800026A2692169A868C7
:100AF000951E8C1C02F09AFAC7EB08012A46204684
:100B0000A8F10203013101F0B5FAB2E6A0693B4653
:100B1000EF693146821EC01B013001F0ABFA69E774
:100B200020693B46314602440230013A01F0A2FA04
:100B30005CE7A86802F07AFA636938466F6A991C24
:100B400042463B44013B01F095FA19E7286802F060
:100B50006DFA2269EB69114660691A44013A01F0A5
:100B6000D9F9A369E9691A466069591A013101F096
:100B7000D1F9676920690137394601F0F1F9394641
:100B8000A06901F0EDF9686802F050FA2069394671
:100B9000013001F0E5F9A0693946013801F0E0F9CA
:100BA0002769A3690237A3F10208B9E6666902362C
:100BB000EBE60244434602304146013A474601F023
:100BC00059FAA069821ED4E610B582B018B904465D
:100BD000204602B010BD00F0F9FCB0F87C4002AB3A
:100BE000C4F3C00443F8040D184600F003FD20468A
:100BF00002B010BD2DE9F04F89B007460D4600F058
:100C0000E5FC034601213846DA6D059394682368B4
:100C10009847236803218046384698472368022175
:100C200083463846984723680021824638469847CD
:100C30008146059806F0A8F80646059806F0ACF837
:100C400003460598448E04F02004A4B2B4B1B0F970
:100C50005420B0F95840002A4AD091B2C06E0C44DA
:100C6000A4B280B103910292019304F0EDFE019BC6
:100C70000FFA80FC029A80B2039905E021462246D1
:100C8000C06E0028EED184461FFA89FE013E013B6A
:100C90000FFA88F8CBEB060674440EF1FF3ECAEB60
:100CA000030336B2044471446B812A8005A8A5F879
:100CB00002C0EC8069822E812E82A5F80480A5F8FE
:100CC0000C80A5F80E9000F095FC08AAB5F910402C
:100CD0003846B5F90C3006A942F8044D069300F0E9
:100CE0004BF8069A079BAA812B8209B0BDE8F08FCA
:100CF000406B019301F08EFA821C019B059891B222
:100D000012B20C44A4B2BBE708B5438E03F0200333
:100D10009BB24BB10246B0F9540000B108BD506B14
:100D200001F078FA023008BD184608BD70B58AB0E7
:100D30000C46064600F04AFC0AABC26D43F8280D8B
:100D40001846956800F056FC0196032C05D8DFE89C
:100D500004F00F0C0902172302936B6801A898474F
:100D60000AB070BD15230293F7E716230293F4E748
:100D700018230293F1E700BF2DE9F04383B08846C2
:100D80000446914600F022FC034602A8DA6D40F8C2
:100D9000083D9568B3F90070B3F9026000F02AFCD1
:100DA0002B682046002198470546204604F002FEA5
:100DB00068B3044607E001A800F01CFC204604F0DC
:100DC0000DFE044618B3204600F000FCB0F90230D6
:100DD00001909B1B9D42EED1836A1B060BD5B0F997
:100DE0000030D9F80020DB1B934203F1FF33E2DC33
:100DF000C9F80030DFE7B0F90430D8F80020DB1B79
:100E0000934203F10103A8BFC8F80030D3E703B051
:100E1000BDE8F0832DE9F043456887B004462846D5
:100E200004F0E6FD074600F0D1FB034606A85E6E1F
:100E300040F8143DD3F84880D3F8809000F0DAFBF6
:100E400023680E3B232B3FD8DFE803F035463E3EB8
:100E50003E3E12123E123E3E3E3E3E3E18243E3E76
:100E60002B3E3E3E3E3E3E3E3E3E3E3E3E3E3E30C3
:100E7000204604F015FC07B0BDE8F083E368002BC2
:100E8000F9D0B9F1000F3BD04D4539D0484605F0B7
:100E900019FBF0E72146384604F084F907B0BDE8B5
:100EA000F083C4F80C8007B0BDE8F0830023E36052
:100EB00007B0BDE8F083E3685A68002A04DD1B68C8
:100EC000092B1DD00A2B1FD0002ED1D020466760E1
:100ED000B04707B0BDE8F0836FF07043984504D089
:100EE000404603F033FD00F047FC002EC3D002AFB4
:100EF00094E80F0087E80F0038460395B047BAE73B
:100F0000284605F031FBB6E7284605F071FBB2E74D
:100F1000014B83E803007047FCC00120014B83E8CC
:100F20000300704704C10120014B83E803007047B0
:100F30000CC10120704700BF704700BF2DE9F04F82
:100F40005C4E8DB03368DA69B3F92250D469B4F8D5
:100F50000CB0834500F29780E1898142C0F0938014
:100F60002168CBEB000B08914FF0FF310A91BBF1E8
:100F7000FF3F00F0828092F81880A27CB3F92A101B
:100F8000B3F9249018FB02F3084607911F4694F822
:100F900010A003F047FDD6F800E008994346DEF8BC
:100FA00038C05246099007FB0B10DEF81CE00B9787
:100FB000012704904946CDF814C0284694F812C081
:100FC0000297CDF80CC09EF81BC0DFF8E8B0CDF852
:100FD00004C09EF81AE0CDF800E002F0FDFF0A9F81
:100FE0007B1C25D0079941F0020003F01BFDDBF8C4
:100FF00000100B9A43460898D1F838C002FB07004E
:10100000D1F81CE00127CDF814C00490524694F8A2
:1010100012C0494602972846CDF80CC09EF81BC066
:10102000CDF804C09EF81AE0CDF800E002F0D4FF3D
:101030003368DFF88080DB695A7E1B7E9A4215D9BF
:10104000079B022B12D083F0040003F0EBFCD8F8CE
:1010500000302846DB691F7ED97E9A7E5B7E07FBC7
:1010600001910AFB02524B4403F0BEF99DF82400A3
:1010700003F0D8FC3368B3F92250627C15445D84D8
:101080000DB0BDE8F08FA1680029F6D00F88B842F6
:10109000F3D3B1F802E08645EFD3C01B4968676817
:1010A00080B2089701EB800731F920B0B7F9021040
:1010B0000A915CE74C000020044B1B68DB69DB698C
:1010C00009B11A7C0A60587C704700BF4C000020B0
:1010D00002230B80704700BFC3699A898A4202D8F5
:1010E000DA898A4211D2986818B10388994201D2EC
:1010F0000020704742888A42FAD3C91A436833F8FD
:101100002100C043C0F3C03070470120704700BFCA
:101110002DE9F04F3A4D89B02B68DA69B3F92A907E
:10112000D36943B11A88904202D35988814205D2CB
:101130009B68002BF6D109B0BDE8F08F841AD3F874
:101140000480484608EBC40696F802B003F06AFC37
:101150008246286818F834204FF0010EC769D0F88D
:1011600038C0B0F92410B0F922003B7E0790CDF8CA
:1011700014C07068CDF80CB00490CDF808E097F872
:101180001BE00798CDF804E0BF7E009702F024FF33
:101190002B68DA69537E177EBB4223D9B9F1020F5F
:1011A00007931FD092F81BB000F0DCFF814600F0DF
:1011B000BDFF01F03BFF124B18F834E01868079BA5
:1011C000C169B0F92240CA7EB0F9241020460EFB56
:1011D00002420BFB03130BFB071103F005F9484612
:1011E00001F024FF504603F01DFC2B687178D8698C
:1011F0005A8C807E00FB01225A8409B0BDE8F08F32
:101200004C000020114B1B6870B4DD69EB6943B1E1
:101210001A88904202D35C88844205D29B68002BD6
:10122000F6D1184670BC7047821A5E68AC7E06EB39
:10123000C2035B7813FB04F00029F3D016F83230B8
:1012400014FB03F370BC0B60704700BF4C00002020
:1012500001230B80704700BFC06950B103888B42E7
:1012600002D843888B4203D280680028F6D17047A9
:101270000120704700B9704706F042BC08B9002051
:101280007047F8B5064606F03BFC044638B3154DEA
:101290003246154F0021E8696B6B013003EBC40641
:1012A000E86113F83400013003F8340076683B68D5
:1012B00006F10800984731686A6B12F83130012B4B
:1012C00001D9E86920B9013B204602F83130F8BD68
:1012D0000138013BE861204602F83130F8BD0020BA
:1012E000F8BD00BFD4C20120A400002021F00301FA
:1012F000014B83E80300704714C1012000B9704717
:1013000070B50A4CC6000546636B3344596848689B
:1013100006F048FA6368626B0021606A0133164484
:101320006360706002F83510656270BDD4C2012040
:1013300028B1034AD36B036003B15860D063704790
:10134000D4C20120F8B50468054694B10A4EE700FE
:10135000736B3B445968486806F024FA7368726BF3
:101360000020716A013317447360796002F8340019
:10137000746200232B60F8BDD4C20120F8B58B4EF7
:10138000044696F82830002B2FD00334356CF26BCE
:1013900024F003040434A54238BF254662B152F854
:1013A000043C14469D4204D114E054F8043C9D4290
:1013B00010D02468002CF8D1F368B46B1C4454F8A6
:1013C000041C611A0B68002B68D14B689D426FDDCD
:1013D000002408E023680BB161685960616801B1BD
:1013E0000B60A24256D02046F8BD714B01219A688D
:1013F00086F8281058680AB982089A605A2710227D
:1014000020254FF0400E3762802732644FF48072FF
:10141000B5644FF400751968C6F850E04FF4806E5B
:10142000B7654FF4006732664FF48052B5664FF4EB
:101430000055A1F11403C6F870E0B7674FF4804E71
:10144000C6F880204FF40047C6F888504FF4803229
:101450004FF400350344C6F890E04FF4802EC6F8F0
:1014600098704FF40027C6F8A0200222C6F8A850B2
:101470000125B1637363C6F8B0E03261F060C6F86D
:10148000B8705D607562756006F08CF908F036FA28
:1014900035637AE723682046F363F8BD002009F03E
:1014A000E3FE54F8041C611A0B68002B90D18CE702
:1014B000581BD6F8B8703D4A041DBB420C4472D28A
:1014C000D2F8B070BB426CD2D2F8A870BB4266D2E0
:1014D000D2F8A070BB4260D2D2F898709F425AD91D
:1014E000D2F89070BB4254D2D2F88870BB424ED230
:1014F000D2F88070BB4248D2926F934243D2376F8A
:101500002A4ABB423DD2976EBB4238D2176EBB42CD
:1015100033D2976DBB422ED2176DBB4229D2976C46
:10152000BB4224D2126C93420CD2F2687369521BF4
:101530002B44F260736110B944F8045C53E706F081
:1015400031F9F9E700223768D1F808E0FF1ACB68D3
:101550003760BEF1000F01D0CEF8043013B1C3F8EC
:1015600000E0E2E706EBC202C2F844E0DDE7012258
:10157000E9E70222E7E70322E5E70422E3E70522A1
:10158000E1E70622DFE70722DDE70822DBE70922A1
:10159000D9E70A22D7E70B22D5E70C22D3E70D22A1
:1015A000D1E70E22CFE70F22CDE700BFD4C2012042
:1015B00014C1012030B1044B5B6B03EBC0004368E6
:1015C00058680C38704700BFD4C20120084AD1695E
:1015D000536B013110B4D16103EBC00413F8302018
:1015E000013203F8302060685DF8044B0830704722
:1015F000D4C2012003680B4A30B4044653F8085C97
:10160000506B10F83530012B03D9D16909B101397C
:10161000D1610022013B00F835301046226030BC19
:10162000704700BFD4C20120034B5B6B03EBC000CB
:1016300040680830704700BFD4C2012070B50D4625
:10164000044600F0C9FE00222B46C1B22046BDE888
:10165000704000F001B800BFB0F1004F2DE9F04339
:1016600046D0002851DB00254D1B4FF0000EEDB297
:101670000AB1013DEDB275B36C1EAA42274F4FF07F
:101680003108DFF89CC0E4B21ED057F8246090FB0C
:10169000F6F1C9B20A2901F1010906FB11001AD8B5
:1016A00024B9BEF1000F01D05FFA89F10A2901F1D6
:1016B000300115D01D686E1C1E6029705CB1254676
:1016C0006C1EAA42E4B2E0D119684E1C1E609CF860
:1016D00000600E70D9E71B6800221A70BDE8F08325
:1016E00019682C464D1C1D60254681F80080E7E7EF
:1016F0001C684FF0010E4D1E2D2104EB0E066FF0FD
:101700000040EDB21E602170B2E71C6801252D2655
:10171000404267191F602670A6E700BF50480108C5
:1017200098C30120C3B2CAB29A1A92B210B414B2CA
:10173000002C1EDBC1F30722C0F307239B1A9BB2C8
:101740001AB2002A12DB090C02FB02F2C1EB1041B3
:1017500004FB042089B20CB2002C01DA49420CB21D
:10176000A1B25DF8044B01FB010070475B421AB265
:10177000E9E7524214B2DDE700212DE9F0410846C5
:1017800082B000F05DFD042003F04CF9144B154FBE
:1017900043F6FF761B6980463D463446DA6C684660
:1017A0001B6D174416441D441C44ADF80070ADF881
:1017B0000460ADF80250ADF8064005F0F5FA48B106
:1017C000234632462946384602F00EFE05F07EF9E1
:1017D0000028F5D1404603F025F902B0BDE8F081BC
:1017E0003C00002001C0FFFF2DE9F047044682B015
:1017F0000D461646002B37D09A46009651460B9B55
:10180000204626680A9AB047074618B9384602B0FB
:10181000BDE8F08704F0B4F8618A8046384603F0EA
:10182000A3FD013D384604F047FF404604F044FF65
:10183000002D1DDD4FF0000903E004F03DFF013DE8
:1018400016D054F81C6F0023CDF800904146204676
:101850001A46B04706460028EFD1384603F050FF3D
:10186000304602B0BDE8F08704F098F88246C4E73D
:1018700040461D2104F09EFDBAF1FF3FC6D004F0A2
:10188000A3F840B9BA450CD0384604F06DFE38468E
:10189000BDE70028F8D0FFF7C7FE80698742F8D17E
:1018A000B4E75046B3E700BF012B3BDC2DE9F8431A
:1018B00081461C2090460F461E46FFF75FFD0546F9
:1018C00000287FD0414A002F31D00023DFF804E107
:1018D00052F8264003609EF8001007618E42866130
:1018E000A0F81480C0F80C904360836002DB731C86
:1018F0008EF80030002C5DD021464C68002CFBD1C6
:10190000D9F80000CB681B6883422CDD09680029E8
:10191000F8D148B92E4B163628461A6842F8265098
:10192000BDE8F883002070472846BDE8F88352F8E8
:101930002610002930D0084600E018460368002B26
:10194000FBD10069DFF88CE02B6028619EF8000075
:10195000AE618642A5F81480C5F80C906B60AB6050
:10196000CBDB0C46C3E70AD04B6843B31D606B600A
:101970008D4214BF0B4600234D602B60C9E7B8F1C0
:10198000010FF1D104E0DC68194623688342EBDBE8
:101990000B68002BF7D1E7E7DFF838E001609EF82D
:1019A000003086619E42A0F81480C0F80C9041601F
:1019B0008160D6DA42F82650D9F80000A9E742F84B
:1019C0002650D5E70020BDE8F88300BFA4C301205E
:1019D0004C0000209FC30120FFF7AABC0F4A816979
:1019E00052F8213098420AD042680AB10368136065
:1019F000036803B15A6000230360436070470368C3
:101A000042F821302BB100225A604268002AEED100
:101A1000F0E74268002AEAD1EDE700BFA4C3012045
:101A200001280EDC084B53F8200058B1C3681B682E
:101A30001BB908E0C3681B6823B100680028F9D10E
:101A40007047002070477047A4C301202DE9F04F74
:101A5000484D83B0044600F093FB2B680646B3F96B
:101A6000228000F0BFFB2B681FFA80F99A8CC9EB2B
:101A7000020212B29A84217800294FD0B6B22F46C2
:101A800047F6FF71204601F0A1FF0146834620463C
:101A900001F05CFF29688B8D03F00303012B58D004
:101AA000022B5AD01FFA80FA4FF0000E4B8C0AF12D
:101AB000FF3CB1F92420CEEB0303ADF80220013A3C
:101AC0009BB2B0186A460FFA83FE6344ADF8060075
:101AD0002046A1F822E05946ADF800E0ADF8043008
:101AE00001F010FD2B682046BDF8022059469A846B
:101AF00001F0B8FB235C04440A2B19D00D2B17D03E
:101B0000BDF800003B688244A3F822A022781AB1F5
:101B100062780134002AB3D1B3F92420998D91441D
:101B200021F00302A3F824909A8503B0BDE8F08F5A
:101B30002B689A8D02F00302013A012A16D8A3F805
:101B4000228022780A2AE2D19A8C32449A8422781E
:101B5000DDE71FFA80FEF246A8E7002803461FFAD9
:101B600080FAB8BF431CC3F34F0E9FE71A8C5A8408
:101B7000E7E700BF4C000020034B1B6859849A84A0
:101B800008B1FFF763BF70474C00002000B3F0B509
:101B9000054683B016460C46C1B1084604F080FDE8
:101BA000074638B102462146684601F087FF68467D
:101BB00004F076FD32462146284647F6FF7301F0D1
:101BC00003FD384604F06CFD03B0F0BD0F46F1E7AD
:101BD000704700BF2DE9F04F654C91B02468E56C6B
:101BE000246D2818AA186118E318064602900EA85A
:101BF0000192079114460893ADF83860ADF83C2087
:101C0000ADF83A10ADF83E3005F0CEF8002800F0FF
:101C10009580C6EB040B1A999DF86820C1F3072440
:101C2000BBF1000F1B995B46B8BF0BF101030BFB27
:101C300002FEC1F307271A995B109DF86CC0C1F32F
:101C400007401B9903EB0E05C1F307461A990A9545
:101C5000090E0BFB04353C1B0B9503940BFB003466
:101C6000301A0BFB01335E460C940D931B9B0490C2
:101C7000C1EB13630593C2EB0C03069300F072FAF9
:101C80001A9B1B9A0990934268D0002E52D0029D55
:101C9000019A95425ADC0AAF86464FF0010B97E84D
:101CA000800706E00BF1010B0135019BA646AB4214
:101CB0002FDB70469AFBF6F499FBF6F197FBF6F3EF
:101CC00098FBF6FC2206059C43EA0C23A24442EA58
:101CD0000144049A1C43029B9144069AAB42174468
:101CE000039A9044E0DA7445DCD002F069FEBBF15F
:101CF000010FCBEB0500089B05F1FF32079920D0BF
:101D000002F072FB0135019B4FF0010BA646AB427E
:101D1000CFDA204602F054FEBBF1010F18D0019A31
:101D2000089BCBEB02000799013002F05DFB09989C
:101D300002F046FE04F0CAFE00289FD111B0BDE8B3
:101D4000F08F1A46681E02F027FBADE702F038FE5E
:101D5000089A0799019802F01FFBE8E7184602F07D
:101D60002FFE089B019A0799029802F03DFBDEE7DF
:101D70004C0000202DE9F04F654C91B02468E56CD3
:101D8000246D2818AA186118E318064607900EA8B3
:101D900008920D46029101931C46ADF83860ADF8EB
:101DA0003C20ADF83A10ADF83E3004F0FDFF0028BD
:101DB00000F09580C5EB040B1A999DF86820C1F3DB
:101DC0000724BBF1000F1B995B46B8BF0BF1010361
:101DD0000BFB02FEC1F307271A995B109DF86CC03C
:101DE000C1F307401B9903EB0E05C1F307461A998F
:101DF0000A95090E0BFB04353C1B0B9503940BFB5A
:101E00000034301A0BFB01335E460C940D931B9B80
:101E10000490C1EB13630593C2EB0C03069300F02F
:101E2000A1F91A9B1B9A0990934267D0002E52D0B9
:101E3000029D019A954259DC0AAF86464FF0010B8C
:101E400097E8800706E00BF1010B0135019BA646E0
:101E5000AB422FDB70469AFBF6F499FBF6F197FB49
:101E6000F6F398FBF6FC2206059C43EA0C23A244F9
:101E700042EA0144049A1C43029B9144069AAB42F5
:101E80001744039A9044E0DA7445DCD002F098FDE0
:101E9000BBF1010FCBEB050105F1FF33089A079861
:101EA00020D002F0A1FA0135019B4FF0010BA646AC
:101EB000AB42CFDA204602F083FDBBF1010F17D011
:101EC000019B089ACBEB03010798013102F08CFAD1
:101ED000099802F075FD04F0F9FD00289FD111B0BA
:101EE000BDE8F08F691E02F0FDF9AEE702F068FD73
:101EF000089A0199079802F0F5F9E9E7184602F007
:101F00005FFD019B089A0299079802F06DFADFE7DE
:101F10004C000020F0B5114F83B03B681D6DDC6CA8
:101F200005446846661814442BB2ADF80060ADF85D
:101F30000440ADF80230ADF8063004F035FF50B182
:101F40003B682246294630465B6E1B68984704F082
:101F5000BDFD0028F4D103B0F0BD00BF4C0000204F
:101F600070B5104E82B03368DD6C1C6D0544684658
:101F70000C442AB223B2ADF80420ADF80020ADF82D
:101F80000630ADF8023004F00FFF48B13368214647
:101F900028465B6E5B68984704F098FD0028F5D1F1
:101FA00002B070BD4C0000202DE9F0431E4C83B000
:101FB00025682E7E2F6DEC6C013E07EB010907EBC7
:101FC000030825181444B2B26846AE1A1119C2EBC0
:101FD00009034244ADF80060ADF80410ADF80230DA
:101FE000ADF8062004F0E0FED8B109F1010708F1D0
:101FF000FF3622464946284602F074F922464146F9
:10200000284602F06FF932463946284602F0C4F9F4
:1020100032463946204602F0BFF904F057FD002849
:10202000E7D103B0BDE8F0834C000020104B1B68E3
:1020300070B5DD6C82B01C6D0544684666181444AA
:102040002BB2ADF80260ADF80640ADF80030ADF847
:10205000043004F0A9FE40B122463146284602F081
:102060009BF904F033FD0028F6D102B070BD00BF2B
:102070004C000020F0B5104C83B02468E56C246D52
:102080002F18154466181C446846ADF80070ADF86A
:102090000450ADF80260ADF8064004F085FE48B18A
:1020A00023462A463146384602F09EF904F00EFDDA
:1020B0000028F5D103B0F0BD4C000020154B0146BF
:1020C0001B68F0B5DA6C83B01B6DB1F9007068461F
:1020D000B1F90450B1F902601744B1F90640154452
:1020E0001E44ADF800701C44ADF80450ADF8026019
:1020F000ADF8064004F058FE48B123462A46314662
:10210000384602F071F904F0E1FC0028F5D103B083
:10211000F0BD00BF4C000020034B082153F8200005
:10212000C3689B6A184700BFA4C3012008B502F02A
:102130009BF9BDE8084002F0DDBA00BF024B002168
:102140001B68DB695B6818474C000020024B1B686A
:10215000DB695B68184700BF4C00002008B103F042
:10216000FFBB704708B502F087F9BDE8084002F0F0
:10217000C1BA00BF014B1B68187C70474C0000209F
:10218000024B1B68DB69587E704700BF4C00002083
:10219000034B1B68DB69187EDB7E00FB03F0704796
:1021A0004C00002038B50D46144602F0D3F910B1AA
:1021B00000232B60236038BD10B5044601F02EFCCF
:1021C00001462046BDE8104001F0C0BB044B34225C
:1021D000352061219A70187018461971DA707047AD
:1021E000340000200A4B1A68938D03F00C03082B6F
:1021F00005D00C2B03D0042B05D000207047D369E9
:10220000187E40087047D369187E0138704700BFB8
:102210004C000020027EC07E02FB00F0704700BF31
:10222000024B53F820301B6918687047A4C3012083
:10223000024B53F820301B6958687047A4C3012033
:10224000024B1B6858840020998470474C00002082
:1022500090B583B000AF534A524B1B6823F0010383
:102260001360514B1B68C3F30A0340F24942934287
:102270000CBF01230023DAB24B4B1B68C3F30A03E4
:1022800040F251418B420CBF01230023DBB21343C8
:10229000DBB21946444B1B68C3F30A0340F25242B7
:1022A00093420CBF01230023DBB20B43002B10D061
:1022B0003E4B01221A6000BF3C4B1B68002BFBD138
:1022C0003B4B3C4A1A603A4B1B683B4A934218D03E
:1022D000FEE73A4B1B68C3F30A03B3F58A6F10D1CC
:1022E000374B01221A6000BF354B1B68002BFBD116
:1022F000344B304A1A60334B1B682F4A934200D04C
:10230000FEE701F0BFF8304B2E221A7009F04AFFA9
:102310002E4808F055FB09F02FFC786002F05AF9BE
:102320000346002B0CBF01230023DCB202F088F926
:102330000346002B0CBF01230023DBB22343DBB297
:10234000002B09D002F04CF9044602F07FF9034655
:102350001946204602F060FB0021002000F086FEB6
:1023600003F0A4FB1A4B1B68002B12D00DE0184B96
:102370001B681B68002B03D0154B1B681B68984714
:10238000134B1B685B68124A1360114B1B68002BD0
:10239000EDD1104B01221A707B6818460C37BD46F0
:1023A00090BD00BF002000E0002004E008300240A3
:1023B00000300240C2A507F4CDB5E8B50010005CBE
:1023C000084C0258004C025898C3012028C1012033
:1023D000A0C101209EC3012080EAE0730246A3EB66
:1023E000E073092B1FDD632B20D9B3F57A7F20D34F
:1023F00042F20F718B421FD917498B421FD91749DF
:102400008B421FD916498B421FD916498B421FD9BF
:1024100015498B428BBF0A20092009230823002A73
:10242000B8BF981C704701200023F8E70220012361
:10243000F5E703200223F2E704200323EFE705205A
:102440000423ECE706200523E9E707200623E6E757
:1024500008200723E3E700BF9F8601003F420F00EB
:102460007F969800FFE0F505FFC99A3BC0B1114B7C
:102470001B681B6E984210B5044682B016D02046E9
:10248000FFF7A4F8436901905BB90068FFF7A4FA6D
:1024900001A8FFF7AFF82046FEF730FF02B010BDED
:1024A0007047184600F004FF0198EEE700F098FD31
:1024B000E5E700BF4C00002030B583B018B90446F2
:1024C000204603B030BDFFF781F8036802AD1B69F9
:1024D00045F8040D9B68984702F030FC04462846F6
:1024E000FFF788F8204603B030BD00BF70B110B5CB
:1024F00082B0FFF76BF800F1180402AB43F8040D4B
:102500001846FFF777F8204602B010BD704700BFAD
:1025100000B970472DE9F04FA3B08B4692460446B0
:10252000FFF754F822AB456943F81C0D1846FFF736
:1025300061F82046FFF7C0FF0828814640DD002DE6
:102540003ED12046FFF742F822AA0346B0F9081010
:1025500042F8100D10460D92B3F90A200A91099223
:102560001968DA680E690B930E92FFF743F89248E8
:1025700092490068D6F80480407C51F820100D691B
:102580002B680C93FFF7C8FD08280B9B14D9102863
:102590008BBF20221022042702270B92AE4200F0AC
:1025A000F882B9F1200F00F0B381B9F1100F00F0FB
:1025B000458123B0BDE8F08F082201270B92EDE79B
:1025C0000021012320467C4E20910DF188080B91BB
:1025D00021930A93FEF7FAFF074630683A68FB68D2
:1025E000B7F908101269139314913B69B7F90A10EF
:1025F000407C0993169148F8147D5568D7F81490DB
:10260000FFF78AFD32680E90507CFFF711FE0746F7
:102610004046FEF7EFFF099A0A9B082A0B9940F201
:102620009D80102A13460A918CBF042302230C9329
:10263000BD4200F0C1813368587CFFF7F1FD149B67
:1026400006469800FEF716FE10900028B1D02046EE
:10265000FFF74CFF0446B9F1000F00F088804846B0
:10266000FEF7B4FF169B1E90002B40F3A1810023C0
:10267000DDF83880CDF834A00B93139BCDF848B02B
:10268000E31815931FAB19460F93836800225B690B
:102690001F920B9A9847159B139A04469B1A0E9308
:1026A000149B834200F0F680099B012B00F0888088
:1026B000002842D01CAB11931098FEF787FF099BAE
:1026C00007461C90082B1F9A65D90C9BA3460E99B0
:1026D000824602FB031939F8020BA847B047BBF149
:1026E000010B4AF8040BF6D1B8F11F0F04D8384695
:1026F0004246214600F0F2FD0A9901231F98224626
:10270000059112991C9F08440021019300930391A5
:10271000CDF808800D99049701F05EFC1198FEF742
:1027200069FF1F9B1E981C440B9A83680F991F9486
:102730005B69984704460028BED1159A13990B9BF4
:102740000A44013315920D9A0B9301320D92169A99
:102750009A4200F02D811E980F9996E7012A03D125
:1027600020AB0C920A9363E70C930A9160E7012572
:102770000A9B139A09990593049058460392029173
:102780005146169B149A0195009501F025FC10986E
:10279000FEF7B4FD0DE70C9BA2460E99814602FBA5
:1027A000031B1BF8010BA847B047BAF1010A49F80F
:1027B000040BF6D198E700BF4C000020A4C3012011
:1027C0000028BAD0CDF8608019960B9F0A9EDDF8DC
:1027D0003880DDF83490DDF848A0DDF83CB017957E
:1027E0001192DDF87CE02246119D01230EF00700D6
:1027F00049460395012506900AEB0E00BEF1000F35
:1028000005960295B8BF0EF1070E0195009508EBED
:10281000EE0ECDF810E002F083F91F9B1E983A46A9
:102820001C44594683681F945B69984704460028F6
:10283000D7D1179DDDF86080199E7EE70A9B03FBC8
:1028400007F0FEF717FD109000283FF4B2AEFEF738
:10285000BDFE20902046FEF7B9FE00F118031E9041
:102860000E932B69002B00F0A6817369002B00F0FA
:10287000A281B0F908008000FEF7FCFC119000284E
:1028800040F0BA811F900D98FEF7B4FE20A8FEF725
:10289000B1FE7CE71098FEF799FE099B81461C90DB
:1028A000082B149F0446DDF838A028D93AF8020B0B
:1028B000A847B047013F44F8040BF7D1B8F11F0F08
:1028C00004D848464246149900F008FD22AB1298FD
:1028D0000D991A460A9B059300230393012352F88E
:1028E00018EDCDF8088017460193149A0093CDF89F
:1028F00010E001F071FB3846FEF77CFE1DE71AF888
:10290000010BA847B047013F44F8040BF7D1D5E7C6
:102910000A9B07FB03F0FEF7ADFC0E9000283FF486
:1029200048AEFEF753FE20902046FEF74FFE1E9065
:102930002C6900F11808002C00F0EB800A9A5C4624
:1029400001260A954FEA82099346CDF83090DDF8CA
:10295000249017E0042F21D0012F15D00B9B0020CD
:10296000209D51460293012305905A46039020462C
:1029700001969A440096049501F02EFBB9F10109E5
:1029800000F0E880022FE5D10C9D40463B465A46B8
:10299000A8440A9D20992D69A847DFE70C9B404673
:1029A0000A9D5A46984420993B462D69A847D5E789
:1029B0001EA8FEF71FFEEAE62046FFF797FD8046B9
:1029C000B9F1000F00F0D4804846FEF7FFFD169BDA
:1029D0001E90002B40F3C88000261FABCDF834A01A
:1029E0000125B146DA461F4683683246CDF87C9011
:1029F00039465B699847149B0446834231D0099B52
:102A0000012B57D020B30D9B0B9603EB060B1F98A1
:102A100001230C990A9A01FB008E099E13995044D8
:102A20000592224603915946CDF810E00296019591
:102A3000009501F0D1FA1F9B1E9839461C440B9A51
:102A400083681F945B69984704460028DFD10B9E7A
:102A5000139B01369844169BB34240F385801E9821
:102A6000C2E7CDF82C80B346984600E0A3461E98F6
:102A70000BF101043946836822465B69984780451B
:102A8000F4D00A9AC6EB0B03DDF82C805046059271
:102A900001330D9ACDF810809119139E099A03966F
:102AA00002920195149A06FB03880095264601F0D0
:102AB00093FAD0E70028CBD00D9B0B9603EB060BC7
:102AC000DDF87CE022460A9E01230EF007005946FD
:102AD000059606900AEB0E00BEF1000F139E0295BC
:102AE000B8BF0EF1070E0396019508EBEE0E0095A8
:102AF000CDF810E002F014F81F9B1E9839461C44D4
:102B00000B9A83681F945B69984704460028D7D1C5
:102B10009DE7A1460125099E0123022F51460A9AED
:102B200058460AEB030E00F0A981042F00F07D81C6
:102B30009F4200F052810B9CF246CDF81490029413
:102B4000209CCDF80C9001950095049401F044FA76
:102B5000013EE1D10D98FEF74DFD20A8FEF74AFD9C
:102B60000E98FEF7CBFB24E51EA8FEF743FD20E5FB
:102B700001240A9B139A09990593049058460392DD
:102B800002915146169B149A0194009401F024FA84
:102B90000FE50E9A01241833002503925146049341
:102BA0005846099BCDF808900A9A0595019400941F
:102BB00001F012FAFDE40125DDF82890099E0123B9
:102BC000022F51464A4658460AEB030E00F0D480C5
:102BD000042F00F0A0809F426DD000240195009545
:102BE000F246059403940B9C0294209C049401F0FB
:102BF000F3F9013EE3D146E6FEF7E8FC1F9000281A
:102C00003FF441AE0A9A0124CDF828B04FEA4209B8
:102C100090460C95CDF83C90B146DDF838B017E001
:102C2000042F2ED0012F28D00B9B0020209D514631
:102C3000029301230590424603909A440194009424
:102C40000A98049501F0C8F9099B013B09932BD020
:102C5000022FE5D1209B1E463B4642461F9958460F
:102C6000D9F81450A8470F9D31463B46AB440C9D04
:102C700042461F982D69A847D6E7209B1E4602238F
:102C8000EBE7209B42460F9E58461D461F990223A4
:102C9000B344D9F81460B04729460C9D3B464246E0
:102CA0001F982D69A847BFE71FA8FEF7A3FC11983E
:102CB000FEF724FBE7E50A9B444609965D000C9E5F
:102CC0000C95209DDDF83880DDF8289038F8020B4F
:102CD000A047B047B9F1010905F8010BF6D10E9DE7
:102CE00001230B985146AE460C9D02905846AE44C7
:102CF000209DCDF814909A440A9ACDF80C90019733
:102D000000970495CDF838E001F066F9099B013B86
:102D10000993D6D1B7E50A9B0125099644465E0082
:102D20000C9F0C96209EDDF83880DDF8289038F84E
:102D3000020BA047B847B9F1010946F8040BF6D1D8
:102D40000E9E01230B985146B6460C9E02905846A3
:102D5000B644209ECDF814909A440A9ACDF80C906F
:102D6000019500950496CDF838E001F035F9099BFE
:102D7000013B0993D6D186E50A9B01250996444675
:102D80005E000C9F0C96209EDDF83880DDF82890C0
:102D900038F8020BA047B847B9F1010926F8020B31
:102DA000F6D10E9E01230B985146B6460C9E02901A
:102DB0005846B644209ECDF814909A440A9ACDF80D
:102DC0000C90019500950496CDF838E001F004F9D7
:102DD000099B013B0993D6D155E595000C9C0996BA
:102DE0000C95209D4646DDF8289056F8040BA04728
:102DF000B9F1010905F8010BF7D10B980123209EC9
:102E0000514602905846CDF814909A440A9ACDF84B
:102E10000C900197009704960C9D01F0DDF8099B3A
:102E2000A844013B0993DCD194E60996012596005C
:102E30000C9C0C96209E4746DDF8289057F8040B12
:102E4000A047B9F1010946F8040BF7D10B9801230B
:102E5000209F514602905846CDF814909A440A9A01
:102E6000CDF80C900195009504970C9E01F0B4F8F4
:102E7000099BB044013B0993DCD16BE6099601251F
:102E800096000C9C0C96209E4746DDF8289057F83B
:102E9000040BA047B9F1010926F8020BF7D10B98F2
:102EA0000123209F514602905846CDF814909A4431
:102EB0000A9ACDF80C900195009504970C9E01F0AC
:102EC0008BF8099BB044013B0993DCD142E600BF7B
:102ED000094B1A6A002A18BF002003EB800210B4C5
:102EE0009469002C04DB4FF0FF3443F82010946108
:102EF0005DF8044B704700BFC4C1012058B311B343
:102F00000AB3B1F90030F0B5B2F90050B2F902E0FD
:102F1000B1F902409D42B2F90470B2F90660A8BF4F
:102F20001D46B1F904207445B1F90630A8BF7446B6
:102F3000BA420580B8BF3A46B3424480B8BF334670
:102F40008280C380F0BD002908BF11460A684B6823
:102F5000026043607047704778B189B2C38892B20B
:102F600070B40688448885880E4414441A44294461
:102F7000068044808180C28070BC7047B0F9022016
:102F8000B1F906309A4214DCB1F90220B0F90630EA
:102F90009A420EDCB0F90020B1F904309A4208DC04
:102FA000B0F90400B1F900308342CCBF0020012009
:102FB00070470020704700BF08B5034B01467422DC
:102FC0001868FDF74EF908BD4C00002008B5034B0A
:102FD00074221968FDF745F908BD00BF4C000020B8
:102FE00008B501F091FC01F089FDBDE8084002F050
:102FF000E9B900BF70B50A4D01282A68567C01D98D
:10300000304670BD0446FEF70BFD0028F8D02B6853
:103010005C74FFF7E5FF034B30461C6070BD00BFDA
:103020004C000020E4C7012001F090BC01F0C8BCB6
:10303000034B02461B68D86902B1DA61704700BFD2
:103040004C00002010B418B111B10346002002E07A
:10305000002101200B46034C034A216013605DF8F8
:10306000044B7047ACC30120B0C30120084A0B4693
:10307000014670B415681A46064C074E6D7C3080C8
:1030800054F82500054DC4682B80236A70BC18478E
:103090004C000020A4C301209AC301209CC301203E
:1030A000034B1B68B3F92A2058851046704700BFB0
:1030B0004C000020024B1B6803B11847704700BF4B
:1030C00088C20120024B1A6802B91860FFF7F2BFEC
:1030D00028C2012000B970472DE9F041DFF8B8801F
:1030E00082B00546D8F80040A04242D06F461CB9D5
:1030F00019E0FEF77FFAB4B12046FEF767FA0346FF
:1031000038469C680093A542F3D12846FEF75EFA44
:103110000346009A01A8996801939160FEF76AFA44
:103120003846FEF767FA2846FEF750FAD8F804400A
:103130000090A542184B29D094B101AE02E0FEF7F1
:1031400059FA6CB12046FEF741FA034630465C68F6
:103150000193A542F3D1009A52685A60FEF74AFAE9
:103160003846FEF747FA2846FEF7C8F802B0BDE831
:10317000F08102AEFEF72AFA83686F4646F8040D26
:103180003046C8F80030FEF735FACCE742683846DA
:103190005A60FEF72FFAE6E7C0C2012010B582B0F0
:1031A00018B90124204602B010BD0C46FEF70EFAF5
:1031B000828902AB224243F8040D184614BF012451
:1031C0000024FEF717FA204602B010BD0A4A002379
:1031D00030B5146883B003605CB105462046FEF745
:1031E000F5F902AB026943F8040D18462A60FEF7B0
:1031F00001FA204603B030BDC0C20120002370B5E3
:103200000B6082B018B90446204602B070BD0D466E
:10321000FEF7DCF9846801AE01902CB93046FEF768
:10322000E9F9204602B070BD3046FEF7E3F92046CA
:10323000FEF7CCF9036901902B60EFE7F8B5084E73
:1032400005460468336820461B689847336807467C
:1032500020465B689847044438462C60F8BD00BFA0
:10326000B8C30120F8B569B105460C460026064FE3
:103270003B6828465B689847013C05440644F7D103
:103280003046F8BD0E46FBE7B8C301202DE9F843F0
:10329000089C054689469846A96843462846561C18
:1032A0004F684946B847013C3246F5D1BDE8F8833E
:1032B00030B583B00546FEF789F9034602A89C891C
:1032C00040F8043D013C24B29C81FEF793F914B907
:1032D0002846FEF713F803B030BD00BF082A10B42B
:1032E0000EDD102A1CDC00EB4101034650F8042BD4
:1032F00023F8022B9942F9D101205DF8044B704765
:10330000022A11D0042A00F09A80012A3FD00144F9
:10331000034650F8042B03F8012B9942F9D1EBE74F
:1033200000205DF8044B704700F1100252F8103C89
:1033300001294FEA8313DBB226D052F80C4C022944
:103340004FEA041404F0300443EA04031CD052F89A
:10335000084C03294FEA840404F00C0443EA0403F4
:1033600012D052F8044C043902F1100204F00304A4
:1033700043EA040300F8013BBED052F8103C012997
:103380004FEA8313DBB2D8D103700120B5E700F117
:10339000200252F8203C01294FEAC313DBB2F3D0DC
:1033A00052F81C4C02294FEA841404F0400443EA0A
:1033B0000403E9D052F8184C03294FEA441404F0EE
:1033C000200443EA0403DFD052F8144C04294FEAE6
:1033D000041404F0100443EA0403D5D052F8104C4E
:1033E00005294FEAC40404F0080443EA0403CBD0DF
:1033F00052F80C4C06294FEA840404F0040443EA12
:103400000403C1D052F8084C073902F120024FEAF8
:10341000440404F0020443EA0403B5D052F8244CF7
:10342000012904F0010443EA040300F8013B52F8C7
:10343000203C4FEAC313DBB2B2D10370A5E700F121
:10344000080454F8083C01294FEA0313DBB213D0F7
:1034500054F8042C023904F1080402F00F0243EA84
:10346000020300F8013B3FF447AF54F8083C012940
:103470004FEA0313DBB2EBD1037008465DF8044B4F
:10348000704700BFF0B51B4E85B0F36F0BB105B0B0
:10349000F0BD194B6F4604AD4FF0010E06F18004EC
:1034A000C6F87CE00FCB07C7190C15F8102D27F8CC
:1034B000023B397004F8012B15F8012F002AF9D1CD
:1034C000FEF784FE234610F8012B194603F8012B62
:1034D0000278002AF7D14A7008F05AFE0CF004F97D
:1034E000064B0748C6F8943005B0BDE8F04000F040
:1034F0009BBB00BF28C101209048010899AD00087E
:10350000BCC101202E4B1B682DE9F041044682B05E
:103510000D4683B1002003F047FC48B16E463246A9
:103520002946204604F0DEFF03F0D0FA0028F6D149
:1035300002B0BDE8F081DFF88C806B4610686E4603
:10354000D8F800705168B7F84CC0B7F850E003C322
:10355000BDF800706846BDF80410BDF8022067444D
:10356000BDF8063061447244ADF800707344ADF8A4
:103570000410ADF80220ADF8063003F015FC60B978
:10358000D8F80030598C9A8CDC6C186D091B121A13
:1035900059849A8402B0BDE8F081D8F800303246F0
:1035A000BDF802002946BDF80070988420465F846B
:1035B00004F098FF03F08AFA0028EED1E0E700BF9C
:1035C000B4C301204C0000202DE9F04F0C4687B019
:1035D00017461D460190FEF7D3FDDDF804A0814695
:1035E000002C00F0A48004AB2068616803C317F0CE
:1035F0000C0B5FD1BDF91260CDF804A0002D56D0A0
:103600000DF1040809F1FF39504607F003070024C3
:103610001FFA89F9DFF838A12DE0022F3CD00FB94D
:10362000BDF91040013833B20FFA84FCDAF80020FB
:10363000204409EB060EA2F822C05946938402AA40
:10364000ADF80C000198ADF808C0ADF80A30ADF83F
:103650000EE0FFF757FF59460198FFF703FE019B65
:1036600018440190FEF78CFD0644404600F0F0F946
:10367000E8B9E5B10198294600F0A8F98346019818
:103680005946CBEB050500F061F9012FC5D1BDF915
:103690001440241A0134C5E7BDF91040BDF91430B7
:1036A0001B1B1B1A48BF013304EB6304BAE707B0C6
:1036B000BDE8F08F002D3ED02C4600260DF1040809
:1036C00000E094B12146019800F080F9034601988A
:1036D00001361946E41AFFF7C5FD019B0344404635
:1036E000019300F0B5F90028EBD0BBF1080F09D029
:1036F000BBF10C0F0DD0BBF1040F03D0CDF804A02B
:1037000000267FE706FB09F6BDF916309E1B013641
:1037100072E706FB09F6BDF91210BDF91620521A20
:10372000531C9B1B48BF013301EB630664E704A8ED
:10373000FEF714FD5BE7BBF1080F05D0BBF10C0FE2
:1037400004D0BBF1040FB2D10026DDE72E46E2E73C
:103750004C0000202DE9F04F7B4C8FB01D460493A8
:1037600023686F1E1C6DDB6C14441A180B440CA8E4
:10377000ADF8324019460793E3190692ADF83020B0
:10378000ADF83410ADF8363003F00EFB00285BD0F6
:1037900007FB07F305FB05FA18460393AB1E0593D9
:1037A000EB1E0B9363190893A31C0A93C0EB0A0347
:1037B0000993049B002B43DD1898FFF737FC002F7B
:1037C00045D0089B3C4609980025DE1B00F020FBF5
:1037D000069A034604991046079A9B4600EB010996
:1037E00010460A9AC1EB0008921B0292C5EB09022F
:1037F0003146CBEB0900C344013A00F073FD05EB01
:103800000800029B31465A4601301E4400F06AFD12
:10381000013C4FF0000504FB04F318D0C3EB0A0091
:10382000019300F0F5FAA7428346019BDEDD039A7F
:10383000D01A00F0EDFA0546D8E7049B022B49D1D7
:1038400003F044F90028B4D10FB0BDE8F08F049B19
:10385000012BF5D01998FFF7E9FB059B002BECD065
:103860001D46069B049A1946C2F10206134601EB57
:103870000209079A1146C3EB0108089B1E4413E096
:10388000C4EB09023146C3EB090003EB080B013A14
:1038900000F028FD04EB080031465A46013001369D
:1038A00000F020FD013DC8D005FB05FB0024CBEB5B
:1038B0000A0000F0ADFAAF422346E1DD039BCBEBFB
:1038C000030000F0A5FA059A0346AA42C8BF00F11A
:1038D000FF34D5E71A98FFF7A9FB0B9C002CAFD05B
:1038E000069B049A1946C2F1030501EB02080799E9
:1038F0008E1A08F1FF3B731C0193089B1D4411E0D5
:10390000002000EB06092946C0EB08005A4600F0EB
:10391000E9FC29464A46019800F0E4FC013C05F127
:1039200001058DD004FB04F9C9EB0A0000F070FA20
:10393000A742E5DD039BC9EB030000F069FA059B94
:103940000138A342DCDDDCE74C00002070B584B018
:103950001C4A04AB019043F8101D194613689847A0
:10396000019050B3184B1B68DB695B692BB11B6876
:103970001BB10099984704B070BD009B013B002B20
:1039800000931CDB002401A8FFF758FC0546FEF756
:10399000D5FB009B0444013B002B0093F3DA002687
:1039A00004A9284641F8046DFEF7D0FB039B98421A
:1039B000B8BF1E1A301904B070BD04B070BD002528
:1039C0002C46ECE79C0000204C00002030B583B072
:1039D0000190E0B1104B0D461B68DB695B6923B1B8
:1039E0005B6813B1984703B030BD002D11DD002492
:1039F00001A8FFF723FC38B10A2805D00134A542FD
:103A0000F6D1284603B030BD204603B030BD03B028
:103A100030BD0020E7E700BF4C000020F8B50446A9
:103A200088B10026094D00E001362B6820461B684E
:103A300098472B68074620465B6898470444002F48
:103A4000F2D13046F8BD06463046F8BDB8C3012075
:103A500010B5044682B0236802A840F8043DFFF781
:103A6000EDFB48B10A2802D0002002B010BD019B36
:103A70000020236002B010BD012002B010BD00BFC5
:103A8000B1F90030B0F900209A42B0F90220B8BF75
:103A90000380B1F902309A42B0F90420B8BF4380E4
:103AA000B1F904309A42B0F90620C8BF8380B1F959
:103AB00006309A42C8BFC380704700BFB2F90030D9
:103AC000F0B5B1F90040B1F90250B2F902E0A342F9
:103AD000B2F90470B8BF2346AE457446B2F9066029
:103AE000B8BF2C46B1F90450B1F906203946AF42AF
:103AF00003804480A8BF2946B242A8BF32468180D5
:103B00009442D8BF8B42C280CCBF0123002383F0F4
:103B10000100F0BD3A4B1B682DE9F0415D7C82B09D
:103B2000012D03DD012002B0BDE8F081354E0446D1
:103B3000736813B1014628469847012C27D0022C00
:103B40000FD0002CEED1AC00DFF8B8803719BB687D
:103B5000012B3AD001202644002B18BF013BB36053
:103B6000E1E72846FDF75CFF01900028DAD0C36842
:103B70000D2101A85B6A984704460028D2D033681B
:103B800003B1984702210198A0470020CBE706EB3C
:103B90008506B7681FB101372046B760C3E72846DE
:103BA000FDF73EFF01900028BCD0C3680D2101A89D
:103BB0005B6A984703460028B4D02146019898478D
:103BC000B36838460133B360ADE72846FDF728FFF8
:103BD000019088B1C3680D2101A85B6A984705462A
:103BE00050B1D8F8003003B1984700210198A84798
:103BF000331900209B68AEE7BB680120ABE700BF2C
:103C00004C00002090C20120CB8892B270B40E8884
:103C10008D884C881644AD1A11199A1A0680858031
:103C20004180C28070BC704780B483B000AF7860C0
:103C3000064B1A687B685A60044A7B68136000BFB1
:103C40000C37BD465DF8047B704700BF9CC1012066
:103C5000F0B5076883B005460E46CFB9002E58D0A0
:103C600033464FF0FF3200E0224613F8010B541C9C
:103C70000028F9D1941C3846FDF79CFC844222D0E0
:103C80002046FDF7F7FA074668BB002003B0F0BDF9
:103C90003846FDF79BFC224B0190002E14BF3246A4
:103CA0001A46002808BF1846137801788B4206D1BF
:103CB0005BB310F8011F12F8013F8B42F8D001A846
:103CC000FDF798FCCAE7384602ADFDF77FFC154BBF
:103CD0002246314645F8040D1B6898472846FDF7F3
:103CE00089FC0120D2E702ACFDF770FC314644F8B4
:103CF000040DFCF7E9FA2046FDF77CFC2846FDF7A9
:103D000021FB01202F6003B0F0BD01A8FDF772FC7C
:103D1000BBE73846FDF74EFC0028B6D03446AFE787
:103D2000B0A20108A0000020F8B506464AB18407F9
:103D3000C9B208D001E0830705D0013A00F8011BA1
:103D4000F9D13046F8BD97083B464FB301EB01244B
:103D5000032F02F0030204EB044415D900F1100311
:103D60003D46043D43F8104C43F80C4C1033032DF2
:103D700043F8184C43F8144CF3DC043FBB085D1CBB
:103D8000A7EB830300EB051043B1012B046003D0C4
:103D9000022B446018BF846000EB8300002AD0D05F
:103DA000FCF789FA3046F8BD70B4840702D501806B
:103DB000013A023056080DD0032E334601EB014480
:103DC0000DD8012B046003D0022B446018BF84601F
:103DD00000EB8300D30770BC48BF0180704700F13F
:103DE00010033546043D43F8104C43F80C4C103397
:103DF000032D43F8184C43F8144CF3DC043EB3088D
:103E00005D1CB6EB830300EB0510DAD1E2E700BFDF
:103E1000B0F1804F2BBF4FF0004300234FF08042A2
:103E200000225B08801A03F1805203F10051904296
:103E30002CBF0B4600225B08821A03F1806103F15C
:103E400000608A422CBF034600215B08501A03F130
:103E5000807203F1007190422CBF0B4600225B0878
:103E6000811A03F5800203F5000091422CBF03463E
:103E700000225B088A1A03F5801103F500108A42BC
:103E80002CBF034600215B08501A03F5802203F57E
:103E9000002190422CBF0B4600225B08811A03F5DB
:103EA000803203F5003091422CBF034600225B08AC
:103EB0008A1A03F5804103F500408A422CBF03466D
:103EC00000215B08501A03F5805203F5005190421F
:103ED0002CBF0B4600225B08811A03F5806203F5B4
:103EE000006091422CBF034600225B088A1A03F54A
:103EF000807103F500708A422CBF034600215B08E5
:103F0000501A03F1400203F1800190422CBF0B468E
:103F100000225B08811A03F1100203F12000914294
:103F20002CBF034600225B088A1A191D03F1080002
:103F30008A422CBF034600215B08521A581C991C68
:103F4000904294BF0846184640087047044A054B03
:103F50001268527C53F822301B691B68184700BF57
:103F60004C000020A4C30120C0F30721C0F3074385
:103F7000C0B2994210B40AD1884208D1083314481B
:103F80005DF8044BA0FB033000097830704700EB6C
:103F90008000104C03EB83027F3001EB81017F3204
:103FA000A4FB00307F31A4FB0232A4FB0131C00925
:103FB000D2095DF8044B00EBC000C90902EB800395
:103FC00001EB410003EB40006B2888BF28307047AD
:103FD000F1F0F0F0818080802DE9F04FB64C91B087
:103FE000D4F800E01B9D1D9E1E9F1F9C0F90059204
:103FF0000C93DDF868A00D95DDF870C00E9607975C
:104000000894BEF1000F06D0DEF80040A44611B0BF
:10401000BDE8F04F60474AEA05038946012B00F0EE
:104020009380CCF1080302930C9B002B40F3898012
:10403000A24BF046E146CDF828E0186804910D9AAD
:10404000049953181A460B93B0F90A30013A934277
:10405000099269DCB0F90E308B4265DB059B002BC1
:1040600062DD00260F9B079F03EB0A043546069787
:104070004DE0C9EB0606029B48FA03F208FA09F87C
:1040800012F0FF025FFA88F802D1037C9B0739D453
:10409000D0F83CC0DCF800300393089B0BB153F818
:1040A0002220B0F9083004F1FF3EB0F90CB099427B
:1040B000CCF80020B8BF1946DE457346A8BF5B4662
:1040C0008B421CDBB0F90A20049FB0F90EE0BA4223
:1040D000B8BF3A46099FBE45A8BFBE4672450EDC32
:1040E000407C774F57F82000D0F80CC0CDF800E0A6
:1040F000DCF810B0D847714B1868D0F83CC0039B6F
:10410000CCF800300135059B5444AB420CD0CAEBCF
:104110000401002EADD1069A029E134692F800804B
:10412000013306933346A7E7079A0E990A9B0A4480
:10413000013307920B9A0A9304920C9A9A427FF4E5
:104140007EAF11B0BDE8F08F5C4B1968B1F90A2061
:10415000C9EB0203002B40F3C1800C98C41A002C59
:10416000EFDD06FB037307930C9B4B44B1F90E0084
:10417000013B1B1A002B02DDE41A002CE1DD0F9835
:10418000059D4319B1F90C00013B1B1A002B01DD01
:10419000EB1A0593B1F908300F9D9D4215DB002500
:1041A000059B002BCDDD4E7C4548089F50F826002E
:1041B0000F99C6681E95079D1F971D950E9DCDF8FA
:1041C0006CC01C951A94746820E7059E5D1B0CF169
:1041D000FF30761B05961F28E2D801A656F820F07E
:1041E000C5420008A1420008A14100088942000818
:1041F000A1410008A1410008A14100087D4200083A
:10420000A1410008A1410008A1410008A141000806
:10421000A1410008A1410008A14100086F42000827
:10422000A1410008A1410008A1410008A1410008E6
:10423000A1410008A1410008A14100086142000815
:10424000A1410008A1410008A1410008A1410008C6
:10425000A1410008A1410008A141000861420008F5
:1042600007980F9300EB85000025079098E70798C3
:104270000F9300EB45000025079091E707980F93F7
:104280002844002507908BE7079825F0010300EBF1
:10429000650005F0010507900F9818440F907FE71F
:1042A000079825F0030300EBA50005F00305079030
:1042B0000F9818440F9073E7B4C301204C000020FE
:1042C000A4C30120079825F0070300EBE50005F0E3
:1042D000070507900F9818440F9061E70C9C4A4619
:1042E000234642E7114B30B41C68B4F90A308B42C4
:1042F0000FDCB4F90E3099420BDCB4F90850B4F974
:104300000C30A842B8BF28469342A8BF1346984233
:1043100001DD30BC7047657C0A46054C014654F807
:104320002500C468A468A44630BC60474C00002047
:10433000A4C30120164B1B68B3F90A208A421CDC77
:10434000B3F90E20914218DCB3F90820824214DC44
:10435000B3F90C20904210DC30B41A7CD2070DD493
:104360005D7C0A460B4C0146DB6B54F825001B684C
:10437000C468A469A44630BC604770475C7C0A46A8
:10438000044B014653F82400C36830BCDB6918476E
:104390004C000020A4C30120114B30B41C68B4F9B8
:1043A000083083420FDCB4F90C3098420BDCB4F9CE
:1043B0000A50B4F90E30A942B8BF29469342A8BFAB
:1043C0001346994201DD30BC7047657C0A46054CB6
:1043D000014654F82500C468E468A44630BC604730
:1043E0004C000020A4C3012070B5154C82B0246895
:1043F000B4F90850B4F90C60A842B8BF2846B242DC
:10440000A8BF324682420BDBB4F90A60B4F90E5001
:10441000B142B8BF31469D42A8BF1D46A94201DD49
:1044200002B070BD667C1346064C0A46014654F83D
:104430002600C46800952469A04702B070BD00BF83
:104440004C000020A4C30120012801DD002070479A
:1044500010B5FDF7E5FA28B1C36808219B6ABDE8ED
:1044600010401847002010BD024B1B689B6B18685A
:10447000704700BF4C000020024B1B68DB6B1868C4
:10448000704700BF4C000020012801DD002070476C
:1044900010B5FDF7C5FA28B1C3680C219B6ABDE8C9
:1044A00010401847002010BD012801DD0020704792
:1044B00010B5FDF7B5FA28B1C3680D219B6ABDE8B8
:1044C00010401847002010BD094B1B68587C01287C
:1044D00001DD0020704710B5FDF7A2FA28B1C368CE
:1044E00009219B6ABDE810401847002010BD00BF9D
:1044F0004C000020012801DD0020704710B5FDF7B9
:104500008FFA28B1C36809219B6ABDE8104018479B
:10451000002010BD10B50020FDF782FA041C4FF0FA
:10452000010018BF0124FDF77BFA00B101342046D9
:1045300010BD00BF064B1B6810B5587CFDF770FA24
:1045400028B1C3680221DB6ABDE81040184710BDDE
:104550004C00002030B583B00C461546FDF760FADC
:10456000019070B1C36804215B6A0DEB01009847AC
:10457000034630B101982A4621469847002003B0EF
:1045800030BD012003B030BD012801DD002070479F
:1045900010B5FDF745FA28B1C3680E219B6ABDE846
:1045A00010401847002010BD094B1B68587C01289B
:1045B00001DD0020704710B5FDF732FA28B1C3685D
:1045C00001219B6ABDE810401847002010BD00BFC4
:1045D0004C000020014B1868704700BFF0C101205B
:1045E00038B5012500242846FDF71AFA012178B1D3
:1045F000C3689B6A98478442B8BF04460DB92046F9
:1046000038BD00252846FDF70BFA01210028EFD11F
:10461000F1E700BF094B1B68587C012801DD002031
:10462000704710B5FDF7FCF928B1C36802219B6AF9
:10463000BDE810401847002010BD00BF4C0000200E
:10464000014B5868704700BFF0C1012038B5012503
:1046500000242846FDF7E4F9022178B1C3689B6A7B
:1046600098478442B8BF04460DB9204638BD00259E
:104670002846FDF7D5F902210028EFD1F1E700BF68
:104680002DE9F84360B3856865B3DFF86480D8F836
:10469000006006B30768B7F5807F1FDC124B8146C8
:1046A0001B689F42A8BF1F46002F0DDD043D00245C
:1046B00001E0D8F8006055F8040FFFF747FC46F812
:1046C00024000134BC42F4D1084B1B680BB14846AE
:1046D0009847D8F800603046BDE8F8830026FAE72E
:1046E0000646F8E72E46F6E7A8000020A8C20120FB
:1046F000C4C30120044A054B1268527C53F822308F
:104700001B695B68184700BF4C000020A4C3012050
:1047100030B40949C0F3C42300F01F05074CC0F3AF
:104720004512CB5C485DA25C03EB004000EB02202D
:1047300030BC40F07F407047786A0108386A010851
:10474000A0F178030F2B10B42DD96B2827D81E4960
:104750001E4BA1FB0042A3FB00439208DB08A1FB18
:10476000024102EB420403EB43038908A0EB44003F
:104770005DF8044B01EB410100EB4000A2EB41026C
:1047800000EB001002EB420203EB031302EB0212F8
:1047900003EB004000EB022040F07F40704793287D
:1047A0000ED92838D3E700EB0012094B5DF8044B13
:1047B00000EB021000EB0030034443F07F407047F1
:1047C00000205DF8044B7047ABAAAAAA398EE338E3
:1047D000080000F80304C0F3074200F47F4003F42C
:1047E0007F03134343F07F4318437047C343C0F331
:1047F0000741020400F47F4003F07F4302F47F028C
:104800000B431343184370470A49C0F3C422C0F353
:10481000451300F01F008A5C085C120410B4064CBB
:10482000E35C5DF8044B02EB0323184440F07F4047
:10483000704700BF786A0108386A010840F07F407D
:10484000704700BF704700BF38B50B4D2C680CB1E6
:10485000002038BD094B18688000FCF78FFD2860E8
:1048600038B1074B074840F8043FFFF7DDF9204611
:1048700038BD012038BD00BFC4C30120A8000020FE
:104880007DAE0008A8C201202DE9F84FFFF742FED7
:10489000B0F100092FDD0025184FDFF868B0284679
:1048A000FDF7BEF820B33B68284693F811805D748D
:1048B000FFF7CAFD082818DC5BF82530104A1B6991
:1048C000934212D02846FFF715FE061E0DDD002488
:1048D0005FFA84FA01345046FFF70CFF5146024656
:1048E000284600F0A5F8A642F2D13B6883F8118073
:1048F0000135A945D3D1BDE8F88F00BF4C00002099
:1049000040990108A4C3012010B50E4C0E4B22683B
:10491000517C53F8210038B1C36813B11B68042BD4
:104920000BD000680028F7D1002102F108031166BE
:104930005361BDE8104000F035B8FDF74FF822682C
:10494000F2E700BF4C000020A4C30120014B1B680C
:104950005B68184750000020044B1B681A7C520704
:104960004CBFDB6B9B6B1860704700BF4C00002096
:1049700030B50A4C05460A4B83B022686946527C22
:1049800053F82200C3681B6B984720686A46294683
:104990000830FFF793F803B030BD00BF4C00002093
:1049A000A4C30120044A054B11684A7C083153F81E
:1049B0002200C3681B6B18474C000020A4C30120D1
:1049C000014B1B681B68184750000020044B1B68F4
:1049D0001A7C52074CBF9B6BDB6B1860704700BFA3
:1049E0004C00002030B583B00C461546FDF718F892
:1049F000019068B1C368162101A85B6A9847034615
:104A000030B101982A4621469847002003B030BDB6
:104A1000012003B030BD00BF014B83E803007047A5
:104A2000F0C10120014B1B689B6818475000002013
:104A300030B583B00C461546FCF7F2FF019068B123
:104A4000C368102101A85B6A9847034630B10198FA
:104A50002A4621469847002003B030BD012003B00C
:104A600030BD00BF30B583B00C461546FCF7D8FF0B
:104A7000019068B1C3680B2101A85B6A984703469F
:104A800030B101982A4621469847002003B030BD36
:104A9000012003B030BD00BF10B582B00C46FCF75A
:104AA000BFFF019060B1C368092101A85B6A984704
:104AB000034628B1019821469847002002B010BD56
:104AC000012002B010BD00BF30B583B00C461546C2
:104AD000FCF7A6FF019068B1C3680A2101A85B6AD0
:104AE0009847034630B101982A462146984700204E
:104AF00003B030BD012003B030BD00BF10B5074C7E
:104B00002368186BFFF722FAFFF760FF2368586BE2
:104B1000FFF71CFABDE81040FFF71EBF4C00002055
:104B20002DE9F04F91B0824C1B9D24682E460E95C6
:104B30001D9D0F900C951E9D059206951F9D0D9332
:104B40000895DDF868A0DDF870E0209D2CB12468A0
:104B5000A44611B0BDE8F04F60474AEA0603894613
:104B6000012B00F09280CEF1080302930D9B002BE5
:104B700040F388806F4BA046F1460A941868049170
:104B80000E9A049953181A460B93B0F90A30013A59
:104B90009342099269DCB0F90E308B4265DB059BCC
:104BA000002B62DD00260F9B069F03EB0A043546AF
:104BB00007974DE0C9EB0606029B48FA03F208FA94
:104BC00009F812F0FF025FFA88F802D1037C9B0714
:104BD00039D4D0F83CC0DCF800300393089B0BB10B
:104BE00053F82220B0F9083004F1FF3EB0F90CB0C0
:104BF0009942CCF80020B8BF1946DE457346A8BFDD
:104C00005B468B421CDBB0F90A20049FB0F90EE032
:104C1000BA42B8BF3A46099FBE45A8BFBE467245D4
:104C20000EDC407C444F57F82000D0F80CC0CDF883
:104C300000E0DCF810B0D8473E4B1868D0F83CC014
:104C4000039BCCF800300135059B5444AB420CD09B
:104C5000CAEB0401002EADD1079A029E134692F8CA
:104C60000080013307933346A7E7069A0C990A9B05
:104C70000A44013306920B9A0A9304920D9A9A42BF
:104C80007FF47EAF11B0BDE8F08F2A4B1868B0F901
:104C90000A20531A002B46DD0D99CC1A002CF1DDA9
:104CA000069E0C9901FB036306930D9B4B44B0F9E0
:104CB0000E10013B5B1A002B02DDE41A002CE1DD33
:104CC0000F99059E8B19B0F90C10013B5B1A002B54
:104CD00001DDF31A05930F9B591BB0F90830994277
:104CE0000DDA5B1A059F1D4423F00706FB1A3144B9
:104CF0000593069B03EBE50305F007050693059B6B
:104D0000002BBFDD467C0C48089F50F82600C66883
:104D10001E95069D1F971D950C9DCDF86CE01C956A
:104D20001A94746814E70D9C0A462346BEE700BF38
:104D3000B4C301204C000020A4C30120B8B130F05E
:104D4000010315D030F0030301D10820704730F083
:104D50000703FAD030F00F03F7D030F01F03F4D080
:104D600030F0FF03F1D00B4B03401BB9102070470C
:104D700001207047084B0340002BF7D0074B03403E
:104D8000002BF3D0064B0340002B0CBF102020203B
:104D9000704700BF00FEFFFF00F0FFFF0080FFFF35
:104DA0000000FFFF30B5456883B004460146284641
:104DB00000F0F8F990B123680B2B11D00F2B1CD108
:104DC0002846FCF703FC034602A840F8043D5B6E4E
:104DD0001C68FCF70FFC0CB12846A04703B030BD9F
:104DE000284602ADFCF7F2FB0346383045F8043D97
:104DF000FCF7A8FA2846FCF7FDFB204600F050FC23
:104E000003B030BD2DE9F04F044689B03B4F00267A
:104E10000091A569B0F90C104035B0F90A001944A9
:104E2000B4F910301044B4F90E200395029701969E
:104E3000678AB4F9085000F051FB044618B92046BF
:104E400009B0BDE8F08F0520FCF718FA804600286D
:104E5000F5D0DFF8B0902046FCF7B8FB3246294683
:104E60004D46059000F0A6FA2046254900F094FA38
:104E7000DDF814C055F8043B4FF0640A0CF14C0EF9
:104E80004FF0020BCCF864300FCDAEE80F0095E880
:104E900003008EE803008CF868704046CCF844604C
:104EA000CCF83880ACF840B0CCF848A0FCF78EFBCA
:104EB000059A08A90690556C936C6F4241F8040D51
:104EC0005B1B56630AFB07F090FBF3F0FCF7B6FBA5
:104ED000079B252206A8591C07911A70079B1E7074
:104EE000FCF788FB05A8FCF785FBD9F800302046C5
:104EF0005B689847204609B0BDE8F08FA54D0008D3
:104F0000249901088000002043680B2B2DE9F04113
:104F1000044682B0056A50D0122B3DD0052B03D039
:104F2000002002B0BDE8F0812868002865D0206923
:104F3000A7696B683F1A594E01377F10002B40F06C
:104F400098804FF0010ED6F810C07269E1690192A5
:104F5000C219CB1ACDF800C0616901307144FCF769
:104F600039FE6B68002B7DD1D6F818E0D6F81CC04E
:104F700001262069E569A26938446169EB1ACDF818
:104F800004C00130CDF800E0013A3144FCF722FEC4
:104F9000002002B0BDE8F0812B68002BC0D13F4B50
:104FA000AD68586AFEF742F80220FEF779F8284605
:104FB00062692169FCF7E0FDB2E7384B186AFEF739
:104FC00035F8A26921696069FCF7A4FFA26921692B
:104FD000E069FCF79FFFE26961692069013A0131EC
:104FE000FDF724F8E2696169A069013A0131FDF732
:104FF0001DF8002002B0BDE8F0816169E7696A68C8
:105000007F1A264E01377F10002A40D14FF0010849
:10501000D6F800C07368D4F818E00193CB19CDF826
:1050200000C0C2EB0E02206901314044FCF7A2FE31
:105030006A682ABBD6F808E0D6F80CC00126616978
:10504000E369A56939442069013BCDF804C0013109
:105050003044CDF800E0AA1AFCF78CFE002002B024
:10506000BDE8F081D6F808E00123D6F80CC0002690
:105070007FE701234FF0000ED6F800C0726865E7A5
:10508000D6F818E00122D6F81CC00026D7E78046E3
:105090000122D6F810C07369BDE700BF24010020CB
:1050A000806BFCF793BA00BF2DE9F041054610462E
:1050B0000F46B5F90420B5F90630B5F90080B5F909
:1050C0000240C8EB02081C1BFDF776F80646FDF708
:1050D0005FF8B5F8403008F10108EA6A013403F0DE
:1050E00003031268012B21D0022B17D012B2B6B2E3
:1050F000AB8F241A06F1FF3600F1FF301A4448BF87
:105100000134EB8F92B203EB64043A803244A4B2D0
:10511000BA8020447C80F880BDE8F081B8EB0602BC
:10512000B6B248BF013242F34F02E1E7D243B6B212
:105130004244921B12B2DBE730B490F86830C26A86
:10514000DB07146819D5456CB0F90230A942B0F9F3
:105150000620806CB8BF2946D21A884202F10102AB
:10516000D4BF011A411AA2EB4403401B03FB01F315
:1051700093FBF0F0204430BC7047456CB0F9003030
:10518000B0F90420A942806CA2EB0302B8BF294603
:1051900001328842D4BFC5EB0001C5EB0101A2EB8F
:1051A0004403E2E72DE9F04184B020B90125284607
:1051B00004B0BDE8F0810C460746FCF707FA064646
:1051C00022680290162A00F08E8026DD1F2A7AD0EF
:1051D0004FDD312A33D0B2F5407F45D1E26802A8D5
:1051E000F36A002514681B68F26204AE1C1BFCF70E
:1051F00001FA3846FCF7EAF9624223460094114668
:1052000046F8040D02F03CFA3046FCF7F3F9384654
:1052100000F05EFD029B5BB9C9E7112A59D03EDD63
:10522000142A12D0152A1FD1B0F930300025E360BE
:1052300002A8FCF7DFF9284604B0BDE8F08100259C
:105240000346E560002BF3D1B1E7E4680025214671
:1052500001F0FAFBF36A214620461A68FEF7D4FCF7
:10526000029B002BE4D1A2E733460125002BDFD1BE
:105270009DE71E2AF8D1D4F80C80B8F1010F36D181
:10528000438E03F01005ADB2002D4FD102A8FCF7FC
:10529000B1F9029BC4F80C80002BC9D187E70D2A15
:1052A000E2D1E368DB68002BDED01B7A002BDBD079
:1052B00002A80025FCF79EF9384600F0D1F8029BC1
:1052C000002BB5D173E7438E0025C3F30013E360D1
:1052D000AEE7438EDB0604D5E36813B11B7A002BDF
:1052E00036D10125A4E7E36800250386A0E7458EB3
:1052F0003846FCF76BF9438E25F0010503909D427B
:1053000003D04586384600F0E3FC03A80925FCF7E6
:1053100071F902A8FCF76EF929463846002500F01D
:10532000A9FF029BE560002B82D140E7384643F09D
:105330000105FCF74BF9438E0390AB4203D0458641
:10534000384600F0C5FC03A80825FCF753F9E0E750
:1053500002A80125FCF74EF9384601F0B3F8029B8C
:10536000002B7FF465AF22E700B9704730B583B0FA
:105370000C460546FCF72AF9418E0346019034EAB3
:10538000010204D021432846598600F0A1FC01A85F
:10539000FCF730F903B030BD00B585B000224FF402
:1053A0004073039169460292009300F0FFFF05B03D
:1053B0005DF804FB024B42861B680186C36270479E
:1053C0004C010020024B01221B6883F854207047D7
:1053D0004C00002000B970472DE9F04387B0044627
:1053E000FCF7F4F8076A019004ADD0F8288003C8F0
:1053F00085E8030001A8FCF7FDF8204601F090FCC9
:10540000064618B32046FCF70FF918F0020FD0F843
:1054100018901ED12046FCF7D9F801904846FCF7B9
:10542000D5F803903046FCF7D1F8039A034601996A
:10543000D56901A81F620D62D4610293FCF7DAF806
:1054400003A8FCF7D7F802A8FCF7D4F807B0BDE82A
:10545000F08328463A46494602F00EF8DAE700BFE4
:1054600000B9704730B583B00446FCF7AFF8036A63
:10547000009033B3826A120715D503469D696846CA
:10548000FCF7B8F8204602F09BF82946204601F0C8
:1054900057FD204600F01CFC204600220E4900F07B
:1054A00057FA03B030BD1846FCF790F8836A0190B4
:1054B0001B070BD56846FCF79DF801A8FCF79AF886
:1054C000EFE76846FCF796F803B030BD01A8FCF79B
:1054D00091F8009BD2E700BF75BB00082DE9F04FA3
:1054E00087B0684C81468A46DDF8408015462768BB
:1054F0001E46139CB8F1000F0DD1634B1B88002B87
:1055000068D104F12C00FBF7B9FE044620BB20460D
:1055100007B0BDE8F08FB8F1FF3F66D04046FCF71A
:1055200055F8B0F90020B0F90230914401909A4446
:105530001DB9B0F90450AD1A01351EB9B0F90660B5
:10554000F61A013601A8FCF755F804F12C00FBF718
:1055500095FE04460028DAD04B4A4D44119B564430
:105560000DF1180B013D1F431388013E01331380D9
:10557000FCF72CF8454A0346816A3A4012984BF8EA
:10558000183D0A4318619D805846DE80A3F80090BC
:10559000A3F802A09A62FCF72DF83D4B186800288A
:1055A00051D11C604146204601F0CAFCBA062AD4FB
:1055B000F8071DD4790622D4BB0752D4012306A9CB
:1055C0002046039441F8103D02F01CF8204607B035
:1055D000BDE8F08F2F4A304B1268527C53F82230CE
:1055E0005A1C012A8DD9984698E74FF0000888E7A1
:1055F0002A4A7906136803F101031360DCD52046BB
:10560000FFF7E8FED8E7234E254633689C6400E0A8
:1056100005462846FCF708F880690028F8D11E4B9B
:105620001A6895421AD05B689D4216D0FFF7BAF906
:105630002046FBF7F9FF3368B0F90010B0F90220FB
:10564000D9641A65B4E7FBF7EFFF05462046FBF780
:10565000EBFF6B6943616C61A4E70120FDF7CAFCB5
:10566000E4E72046FBF7B2FF034658469A6A0093E8
:1056700042F002029A62FBF7BDFF0021204600F0D3
:10568000BDFA9BE7D0C70120DEC701209F3F3F0046
:10569000D4C701204C0000202CC80120E8C70120FD
:1056A00003680E3B10B5044640681A2B12D8DFE899
:1056B00003F01B11111111110E11112011111111F3
:1056C0001111111111112211111111111400E168A0
:1056D00001F0A6F90023E36010BD0028FCD00021F2
:1056E000BDE8104000F08ABA2146BDE8104000F045
:1056F00063BEE06010BD6FF07043E36010BD00BF9B
:1057000008B100F001B870472DE9F0477F4E04461C
:1057100086B0306848B1A04202D109E0844207D087
:10572000FBF782FF40690028F8D106B0BDE8F0879A
:10573000254600E01D462846FBF776FF8369002BCF
:10574000F8D1734F3A68954200F0D8807B689D424B
:1057500014BF4FF0FF3501250B230DF1180820462B
:10576000039448F8103D414601F04CFF204601F0FB
:1057700071F82046FBF72AFF436A0190002B40F0A6
:105780009C80644B0021644A1B686448816052F825
:105790002300844208BF42F82310614A52F82310C4
:1057A0008C4200F08E805F4B1B6853B1002101E0FA
:1057B0001B6833B15A689442FAD159601B68002BB8
:1057C000F8D12046072100F055FDDDF80490D9F806
:1057D0001C00002857D12046FBF7F8FE8169029093
:1057E00000295CD14046FBF705FF306858B1FBF754
:1057F0001BFF804640698442F8D12046FBF714FF26
:105800004369C8F81430019B9B6AD90703D5464900
:105810000A68013A0A609A063CD401A8FBF7EAFE3E
:10582000424A20461388013B1380FBF767FD6B1C3F
:105830003FF47BAFDFF8FC8057F82550D8F80030F4
:1058400005B935689D642C4600E01C462046FBF7F0
:10585000EBFE8369002BF8D139682D4A8C424FD07A
:1058600053689C4250D0FFF79DF82846FBF7DCFEBA
:10587000D8F80030B0F90010B0F90220D9641A65E8
:1058800006B0BDE8F087FFF73FFFD9F81C000028FD
:105890009FD1A0E7264A1388013B1380BDE7026A27
:1058A000202301F07DFD2046FBF7BEFE8146806986
:1058B00058B9029B00229A6194E71846FCF7D6FD7E
:1058C0005FE7002142F823106DE7FBF7ADFEC369E7
:1058D00082469C420BD0002BEBD01846FBF7A4FE6F
:1058E000036A9C42F7D1D9F820300362E1E72046F1
:1058F000FBF79AFE036ACAF81C30DAE71D462BE76D
:105900001846FDF777FBAEE70120FAE7D4C7012080
:105910002CC80120E4C7012034C80120F8C10120AF
:1059200024C8012048C80120E8C70120DEC70120A3
:10593000DCC701204C00002000B9704708B5FBF718
:1059400073FE024B826A1340836208BDFBDFFFFFD8
:1059500000F0B8BF014B1B68986C70474C000020EA
:10596000044B0146186810B9034B1B68986C01F092
:1059700057B800BF3CC801204C00002001F050B8CF
:1059800000B585B01722002304A9039341F8102D18
:1059900000F00CFD039805B05DF804FB034A044BCE
:1059A0001268527C53F82200704700BF4C00002060
:1059B0002CC8012008B510B90346184608BDFBF7EE
:1059C00033FEC369184608BD024A034B126853F8F8
:1059D00022007047E4C7012034C8012008B510B97F
:1059E0000346184608BDFBF71FFE036A184608BDAC
:1059F00008B510B90346184608BDFBF715FE8369C4
:105A0000184608BD48B141B110B50C46FBF70CFE75
:105A1000034603CB2060616010BD704710B582B0B3
:105A200008B9FFF797FFFBF7D1FDB0F90430B0F9E3
:105A3000004002AA1C1B42F8040D10460134FBF77B
:105A4000D9FD204602B010BD10B582B008B9FFF7ED
:105A500081FFFBF7BBFDB0F90630B0F9024002AAA6
:105A60001C1B42F8040D10460134FBF7C3FD204611
:105A700002B010BD044A054B126853F82230181AC0
:105A8000B0FA80F040097047E4C7012024C8012023
:105A9000044A054B126853F82230181AB0FA80F005
:105AA00040097047E4C7012034C801202DE9F04FB8
:105AB000424D85B02B78002B75D1414F1C46DFF845
:105AC00034919A4638683F493F4ADFF81C813F4E7F
:105AD000DFF824B1AB604364C9F800300B80138059
:105AE0002046FBF79DFF43F6FF7300214FF0020CA9
:105AF0004FF0FF3E1A4688B1CDF80CA0084602963A
:105B0000CDF804C0CDF800E0FFF7E8FC6FF070427C
:105B100048F824004BF8242000284BD10134022CF3
:105B2000DED12B4800F08EFE2A4800F08BFE2A487A
:105B300000F088FE294800F085FE294800F082FE2A
:105B4000284800F07FFED8F800603B680EB9D9F80D
:105B500000609E64344600E004462046FBF764FD86
:105B600080690028F8D1D8F800301F4A9C421ED026
:105B700053689C421AD0FEF715FF3046FBF754FDE0
:105B80003B68B0F900400122B0F9020017491865DE
:105B90001748DC6483F854202A70696205B0BDE8B8
:105BA000F04FFEF741B805B0BDE8F08F0120FDF7DA
:105BB00021FAE0E7002100F021F8AFE7F8C1012069
:105BC0004C000020DCC70120DEC70120C5BA000858
:105BD00004C80120F4C7012014C801200CC801200A
:105BE000FCC701201CC801202CC80120DDAD000825
:105BF0001CC20120D4C70120ECC701202DE9F041CF
:105C000086B00C468046FBF7E1FC876A0090B90736
:105C10002ED504AEFA0303C886E8030047D47CB14E
:105C2000206802AB6168009C03C3B4F9022002A89B
:105C3000B4F90010FDF790F902A93046FDF720FFF6
:105C4000454608E0FDF71CFF019B01A89C69ACB12B
:105C50002546FBF7CFFC2846FBF7B8FC0346304649
:105C60009A6A194601939307ECD401A8FBF7C2FC8A
:105C70006846FBF7BFFC06B0BDE8F081FBF7BAFC55
:105C8000124B1A68AA4202D05B689D42F0D140F6DE
:105C900001033B40012B10D031464046202204F046
:105CA000CFFE6846FBF7A6FC06B0BDE8F081404693
:105CB00001F0B0F9002CB3D1C2E70099304620239F
:105CC0000A6A896901F06CFBD2E700BF2CC8012089
:105CD00000B970472DE9F04184B00746FBF776FC28
:105CE000D0F82880009018F0020F1ED002AE18F4F1
:105CF000803F03C886E803001DD13D4608E0FDF75C
:105D0000BFFE019B01A89C69CCB12546FBF772FC44
:105D10002846FBF75BFC034630469A6A1946019316
:105D20009307ECD401A8FBF765FC6846FBF762FC1F
:105D300004B0BDE8F081384601F06CF9DDE7FBF70F
:105D400059FC0D4B1A68954202D05B689D42ECD11C
:105D500040F6010308EA0303012B05D0314638461B
:105D6000202204F06DFEE0E70099304620230A6A05
:105D7000896901F015FBD8E72CC801202DE9F04115
:105D80000446FFF7A5FF0CB9BDE8F0812046FBF7FC
:105D90004BFCD0F81C80B8F1000FF5D04046FFF75F
:105DA00097FF4046FBF740FCC769002F32D03846CA
:105DB000FFF78EFF3846FBF737FCC66926B330463F
:105DC000FFF786FF3046FBF72FFCC569B5B12846C3
:105DD000FFF77EFF2846FBF727FCC46944B1204645
:105DE000FFF7CCFF2046FBF71FFC046A002CF6D11E
:105DF0002846FBF719FC056A002DE8D13046FBF771
:105E000013FC066A002EDAD13846FBF70DFC076A50
:105E1000002FCCD14046FBF707FCD0F82080B8F12A
:105E2000000FBBD1BDE8F08100B970472DE9F04FFC
:105E3000A1B004460D460192FBF7C8FB836A0590AA
:105E40009A0740F15681024629460EA8FDF736FE14
:105E5000002800F04E8105A8FBF7CCFB2046019AF4
:105E60000EA904F0EDFD2046FFF7A4FD044600282E
:105E700000F042812046FBF7A9FB836A06909B074E
:105E800040F13D8102460EA910A8FDF717FE00283B
:105E900000F0358106A8FBF7ADFB019A10A920465A
:105EA00004F0CEFD2046FFF785FD0546002800F0F2
:105EB000188102942846FBF789FB836A07909F07A5
:105EC00040F12181024610A912A8FDF7F7FD002834
:105ED00000F0198107A8FBF78DFBDDF804A0284628
:105EE00012A9524604F0ACFD2846FFF763FD0028D6
:105EF00000F0EF80039505462846FBF767FB836AB1
:105F000008909E0740F10381024612A914A8FDF7EC
:105F1000D5FD002800F0FB8008A8FBF76BFB2846A6
:105F2000524614A904F08CFD2846FFF743FD0028D3
:105F300000F0C780AB4680464046FBF747FB836ACC
:105F400009909D0740F1E780024614A916A8FDF7C5
:105F5000B5FD002800F0DF8009A8FBF74BFB4046A9
:105F6000524616A904F06CFD4046FFF723FD0028B9
:105F700000F09D8081464846FBF728FB836A0A9023
:105F80009C0740F1D580024616A918A8FDF796FD9A
:105F9000002800F0CD800AA8FBF72CFB524618A978
:105FA000484604F04DFD4846FFF704FD054600282D
:105FB00074D02846FBF70AFB836A0B90990740F1DF
:105FC000C480024618A91AA8FDF778FD002800F041
:105FD000BC800BA8FBF70EFB52461AA9284604F01A
:105FE0002FFD2846FFF7E6FC0646002850D0304635
:105FF000FBF7ECFA836A0C909A0740F1B1800246F5
:106000001AA91CA8FDF75AFD002800F0A9800CA8C9
:10601000FBF7F0FA52461CA9304604F011FD304659
:10602000FFF7C8FC074668B33846FBF7CFFA836A28
:106030000D909B0740F19F8002461CA91EA8FDF70A
:106040003DFD002800F097800DA8FBF7D3FA5246DB
:106050001EA9384604F0F4FC3846FFF7ABFC0446B2
:1060600050B1204652461EA9FFF7DEFE2046FBF740
:10607000DBFA046A002CF4D13846FBF7D5FA076A3C
:10608000002FD1D13046FBF7CFFA066A002EAED1F1
:106090002846FBF7C9FA056A002D8AD14846FBF766
:1060A000C3FAD0F82090B9F1000F7FF464AF4046F6
:1060B000FBF7BAFAD0F82080B8F1000F7FF43CAFBC
:1060C0005D462846FBF7B0FA056A002D7FF414AF51
:1060D000039D2846FBF7A8FA056A002D7FF4EAAE77
:1060E000029C2046FBF7A0FA046A002C7FF4C2AEA3
:1060F00002E005A8FBF77EFA21B0BDE8F08F06A804
:10610000FBF778FAEDE707A8FBF774FAE1E708A8D0
:10611000FBF770FAD5E709A8FBF76CFA4046FBF7E6
:1061200083FAD0F82080B8F1000F7FF405AFC7E7FD
:106130000AA8FBF75FFA4846FBF776FAD0F82090FA
:10614000B9F1000F7FF417AFB1E70BA8FBF752FAD4
:106150002846FBF769FA056A002D7FF42AAF9DE710
:106160000CA8FBF747FA3046FBF75EFA066A002EEA
:106170007FF43DAF8CE70DA8FBF73CFA3846FBF700
:1061800053FA076A002F7FF44FAF7BE708B900206E
:10619000704710B584B00446FBF746FA836A9A0745
:1061A00002D513F0100302D0002004B010BD1F224E
:1061B00004A92046039341F8102D00F0F7F8039846
:1061C000F3E700BF01F0E6B92DE9F04300238BB0FF
:1061D000079306930893099308B119B912B90BB044
:1061E000BDE8F0830D46164604460DF10808FBF79E
:1061F000EDF90346019032460AAF03C888E8030070
:1062000018462946FCF7A8FE019832462946083070
:10621000FCF7A2FE57F8243DD3F81C903846FBF754
:10622000E9F932462946484604F07EFC2046FBF751
:10623000CDF9826A0190920701D5816979B9384612
:10624000FBF7D8F9032204AB06A92046049505966E
:106250000692099301F0D6F90BB0BDE8F083026A0B
:1062600001F02AF8019B40461A6A996901F024F866
:10627000E5E700BF10B5262384B00391009308B969
:1062800004B010BD0446FBF7CFF980690028F7D0B1
:106290006946029401F0B6F904B010BD00B551EAA8
:1062A000020E00D008B95DF804FB5DF804EB00F0C5
:1062B00001B800BF2DE9F0418AB08846174606466E
:1062C00004ACFBF783F906AD0346039003C884E8EA
:1062D000030085E80300B8F1000F09D09A6A02F4C0
:1062E0002072802A54D0BDF81C209044ADF81C8048
:1062F00057B19A6A02F4A062B2F5807F4FD0BDF820
:106300001E201744ADF81E709A6AD1033AD4920742
:1063100095E8030083E803000BD52A46214608A828
:10632000FCF7ECFD039B08A81A6A996901F0A4F830
:10633000039BBDF91E201846BDF91640BDF91C107F
:10634000BDF91430141BBDF91A70CB1ABDF9122017
:10635000BDF91850BDF91010BA1A00940AAC691AA8
:1063600001F08EF954F81C1D01F10800FDF788FBBF
:106370003046052101F078F92046FBF73BF90AB0D9
:10638000BDE8F081304600F045FE039B9A6ABEE707
:10639000BDF81820C8EB0208ADF81880A8E7BDF8D2
:1063A0001A20D71BADF81A70AEE700BF00B97047CE
:1063B00001F028B901F044B979B138B500B938BD58
:1063C0000C460546FBF730F980690028F7D0A56038
:1063D0002146BDE8384001F015B97047F0B50D4EC3
:1063E00005460D4C85B033680F4654F8230058B16C
:1063F000A84209D0182304A941F8103D01F002F980
:106400003368002244F82320044A44F823501770CC
:1064100005B0F0BDE4C7012024C80120CCC701208D
:106420002DE9F04385B00E4691461F468046FFF7A2
:1064300021FB002838D0224B3468B3F90020B3F98F
:1064400002507368A41A5D1BB9F1000F08D13FB95F
:106450002A4621464046FFF7B7FE05B0BDE8F08367
:1064600040466946FFF7CEFA2FB1BDF80230013B36
:106470001F44ADF806704046FFF7BAFA02A9FFF7CD
:10648000C1FA2A4621466846FCF766FD02A94A463B
:106490000846FDF7B9FB02A96846FCF76FFD002826
:1064A000D6D105B0BDE8F08340460121FFF796FF45
:1064B000034B96E8060019805A8005B0BDE8F083CA
:1064C000B8C20120F0B5002387B00393049305936D
:1064D00000283DD0224D0446224F2B6857F8230058
:1064E000844235D01E238DE811000293002833D159
:1064F000012302A92046059301F084F8059E46BBBE
:106500002B68202547F8234004E00295CDF814D0ED
:1065100001F078F82046FBF787F8846902A9204645
:10652000002CF2D1009C204601F034F888B184B1EF
:10653000202504E00295CDF814D001F063F8204640
:10654000FBF772F8846902A92046002CF2D100E022
:106550000126304607B0F0BD02A901F053F8C7E7A5
:10656000E4C7012034C8012070B510B900242046CA
:1065700070BD064600F076FA0446002830D1304659
:10658000FBF752F8C569AC4208BF00252C4610E065
:106590002046002CEAD0FBF747F8036A1BB93046C7
:1065A000FBF742F8C3699C4214BF1C460024A54275
:1065B00004D02046FFF7EAFD0028E9D0002CD5D012
:1065C0000A4D20462E6800F0C5FB421C0346CED083
:1065D00020462B60FFF776FF2E600028C6D1C6E765
:1065E000FBF722F8056A002DCDD1C8E7E4C70120EA
:1065F00038B510B90024204638BD00F033FA0446FF
:1066000010BB204600F054FA0546AC4208BF0025F6
:106610002C460DE0204684B100F082FB10B92046E4
:1066200000F046FA844214BF04460024A54204D078
:106630002046FFF7ABFD0028ECD02046FFF742FFD5
:106640000028D7D1204638BD00F06AFB0546002857
:10665000DBD1D6E700B9704730B583B00446FAF70E
:10666000B5FF836A0190DB0704D501A8FAF7C2FFE2
:1066700003B030BD204600F037F8019D07492046A1
:10668000AA6A0B6842F001020133AA620B60FFF7AD
:106690001FFB01A8FAF7AEFF03B030BDE8C7012029
:1066A000044B1B6810B55C6C586400F037F820464A
:1066B00010BD00BF4C00002000B9704710B582B07B
:1066C0000446FAF783FF826A03460190910705D4D6
:1066D00042F0020220469A62FFF750FB01A8FAF747
:1066E00089FF02B010BD00BF00B9704700B583B08C
:1066F000FAF76CFF836A01909A0606D5064923F0E3
:1067000020030A888362531E0B8001A8FAF772FFE8
:1067100003B05DF804FB00BFDCC701202DE9F041A8
:10672000454F86B03B6893F85420002A39D1986CC5
:1067300002AEFAF74BFF0090DFF8008103C886E84D
:1067400003006846FAF756FFD8F80040002C50D1F5
:106750003F687A6C002A67D004AD106851682B46F8
:10676000D8F8004003C3D4B1204606ACFAF72EFF98
:106770000346B0F902202846B3F9001044F8143D4E
:10678000FCF7EAFB2046FAF735FF28463146FDF7CD
:1067900077F92846FEF7ECF806B0BDE8F081BC6C4E
:1067A000E2E7596C002943D004AD244C08682A461E
:1067B0004968246803C2D4B1204606ACFAF706FF44
:1067C0000346B0F902202846B3F9001044F8103D02
:1067D000FCF7C2FB2046FAF70DFF19492846FDF7E2
:1067E0004FF92846FEF7C4F806B0BDE8F0819C6C6E
:1067F000E2E704AD07E0FDF743F9049B28469C69F6
:106800007CB1FAF7F7FE2046FAF7E0FE0346304681
:106810009A6A194604939307EDD42846FAF7EAFEDC
:1068200096E7FAF7E7FE93E73046FEF7A1F8B3E7FD
:106830000348FEF79DF8AFE74C0000203CC801205C
:106840000CC20120024B1A6802601860704700BF3A
:1068500048C8012070B582B005466846FCF7B6FC12
:1068600078B1044601212046FCF798FC009B0246C3
:106870006946204603B132B9FCF7C0FC0446002C3F
:10688000F0D102B070BD1846FAF7CEFE43686946F3
:106890002046AB42F0D1009EFCF7B0FC0446002E2F
:1068A000EDD03046FAF792FE034600680193FCF7FC
:1068B00011FC01A8FAF79EFE3046FAF71FFD002CE6
:1068C000D0D1DEE72DE9F04F85B00D461446FAF73A
:1068D000ABFEC3690293002B00F09E80029E21460E
:1068E0003046A8473046FAF79FFEC3690393002B52
:1068F00000F08A80039E21463046A8473046FAF7CA
:1069000093FED0F81C80B8F1000F75D021464046A8
:10691000A8474046FAF788FED0F81C90B9F1000F5E
:1069200062D021464846A8474846FAF77DFED0F88F
:106930001CA0BAF1000F4FD021465046A847504640
:10694000FAF772FED0F81CB0BBF1000F3CD0214624
:106950005846A8475846FAF767FEC36901935BB3E8
:10696000019E21463046A8473046FAF75DFEC669CB
:10697000DEB121463046A8473046FAF755FEC769D2
:106980006FB138462146A847384622462946FFF7C8
:1069900099FF3846FAF748FE076A002FF1D13046D2
:1069A000FAF742FE066A002EE3D10198FAF73CFEA0
:1069B000036A0193002BD3D15846FAF735FED0F87D
:1069C00020B0BBF1000FC2D15046FAF72DFED0F82F
:1069D00020A0BAF1000FAFD14846FAF725FED0F853
:1069E0002090B9F1000F9CD14046FAF71DFED0F877
:1069F0002080B8F1000F89D10398FAF715FE036AD9
:106A00000393002B7FF476AF0298FAF70DFE036A2A
:106A10000293002B7FF462AF05B0BDE8F08F00BF9A
:106A200080B179B130B583B00C46FAF7CFFD02AD35
:106A3000214645F8040D00F007F82846FAF7DAFD7C
:106A400003B030BD704700BF0023828830B40B8094
:106A50004B8005884488C388521B1B1B8A80CB80CF
:106A600030BC7047F0B5104E83B0104D336855F808
:106A7000233013B9002003B0F0BD07461846FAF7DB
:106A8000A5FD0446019050B1846901A8FAF7B2FD52
:106A9000A742EFD1336855F8230003B0F0BD01A839
:106AA000FAF7A8FD2046E6E7E4C7012034C8012034
:106AB00010B5044608B906E01C462046FAF7B4FDB6
:106AC000036A002BF8D1204610BD00BF2DE9F0432A
:106AD000DFF8488287B0D8F8003093F8540030B11E
:106AE0008D4E336A012B05DD013B0020336207B078
:106AF000BDE8F083F36906F1140702AD013397E8AE
:106B00000300F36185E803006BB9F268B6F90E3053
:106B10000292B6F91220804C9A421ADA336A0020A7
:106B2000013B3362E3E7328BB6F910100132B6F95C
:106B3000163012B2ADF80A309142ADF80820E8DA0A
:106B4000738BB2890133ADF808201BB2ADF80A305F
:106B5000DFE7D8F80030DFF8C491986CFAF736FD1B
:106B6000BDF90830B4F90C1002460090994200F0CB
:106B7000BB80D8F80020ADF80C30906C10B90DE057
:106B8000A06958B1FAF750FD29460446006A03F09F
:106B90006BF90028F4D0BDF90830EAE7009B2946DC
:106BA000D86903F061F90028F5D1B6F91030BDF9C4
:106BB0000820ADF80C309A4200F38E80D8F80030EF
:106BC000986C00282FD00DF11008FAF72DFD046AFB
:106BD00081466CB923E0E1074CD4BDF81030019830
:106BE000013BADF80C30046A01A8FAF703FDB4B11B
:106BF0002046FAF7EBFC846A0190A307F3D503C89B
:106C000088E8030041462846FCF7B8F90028E2D19D
:106C10000198046A01A8FAF7EDFC002CE8D1D9F834
:106C200018000028D1D1009BDC69002C43D00DF165
:106C300010080DE0E3072ED4BDF810300198013B99
:106C4000ADF80C30046A01A8FAF7D4FC002C32D05D
:106C50002046FAF7BBFC846A0190A207F2D503C86C
:106C600088E8030041462846FCF788F90028E1D16E
:106C70000198E7E70198C469002CB4D02046424649
:106C8000294603F037F92046FAF7CEFC046A002CB7
:106C9000F4D10198BDE70198C469002CD2D02046F8
:106CA0004246294603F026F92046FAF7BDFC046A5D
:106CB000002CF4D1DCE76846FAF79CFCF26944F654
:106CC00020639A423FF72AAF95E8030087E8030064
:106CD000FFF724FD01200AE795E8030087E8030099
:106CE0006846FAF787FC2BE7D9F800102369886C0F
:106CF000039350B1FAF798FC04462946006A03F062
:106D0000A9F9A0690028F5D1009AD069294603F0B5
:106D1000A1F9BDF908302CE7F8C101204C00002092
:106D200038B50546FEF764FE10B90024204638BD8C
:106D3000FAF77AFCC46900E01C46AC422046F4D065
:106D4000002CF2D0FAF770FC036A9D42F4D1204681
:106D500038BD00BF10B5044600E01C462046FAF7D7
:106D600063FC8369002BF8D1064A11688C4206D077
:106D700053689C420CBF01204FF0FF3010BD1846F5
:106D800010BD00BF2CC80120B0F90430B0F90000DC
:106D9000181A0130704700BFB0F90630B0F9020090
:106DA000181A0130704700BF2DE9F0435E4C89B0DE
:106DB000226892F854304BB15C4D2B6A0133012BA1
:106DC0002B6209DD012009B0BDE8F083FFF7A6FCC6
:106DD000012009B0BDE8F0830746906CFAF7F6FB96
:106DE000534B4FF0FF3201901B78EA61002B61D0CA
:106DF000083004AE03C886E803001FB139463046A8
:106E0000FCF73EFE23684B4F5A6C002A00F0878047
:106E1000106806AB51680DF108083A6803C3019B7E
:106E20000293002A60D1B3F9001006A8B3F902203A
:106E3000FCF792F8304606A9FCF722FE4046FAF726
:106E4000D9FBD7F800900DF10C08B9F1000F26D14D
:106E500023689F6C08E0FCF713FE039B40469C6987
:106E60008CB32746FAF7C6FB3846FAF7AFFB034662
:106E700030469A6A194603939307ECD44046FAF7D2
:106E8000B9FB2B6A0020013B2B629CE7FCF7F8FD65
:106E9000039B40469F6987B3B946FAF7ABFB484668
:106EA000FAF794FB034630469A6A19460393920711
:106EB000E4D5EBE7836A13F0020628D004AE03C8DA
:106EC00086E8030099E7FAF795FB1B4B1A6897428F
:106ED00002D05B689F42D4D1184B96E8030083E848
:106EE0000300FFF7F3FD6EE74046FAF783FB3868CF
:106EF000FAF76CFB0346029095E7FAF77BFB0E4B23
:106F00001A689145A4D05B689945A1D0B9E72B6A6E
:106F100001A8013B2B62FAF76DFB304653E701A84D
:106F2000FAF768FB8DE700BF4C000020F8C1012094
:106F3000E0C701203CC801202CC8012004C2012068
:106F400001B9704770B584B00C460546FAF73EFBB0
:106F50000022034620469C611A620193FAF736FB31
:106F6000C46902902CB3019B20469E6AFAF72EFB5F
:106F7000039006F008062EBB836A1A073CD402A8C9
:106F8000FAF738FB03A8FAF735FB2046FAF74CFB73
:106F900005E02046FAF748FB836A1B0727D4046AFA
:106FA0000390002CF5D1056201A8FAF723FB04B089
:106FB00070BDC56101A8FAF71DFB02A8FAF71AFB1C
:106FC00004B070BD02A8FAF715FB03A8FAF712FB8C
:106FD0002046FAF729FB026A0390002AE3D0104604
:106FE000FAF722FB026A0390002AF8D1DBE7039A42
:106FF000019B15621C62D7E7019A01A8029B1462EB
:10700000DD61FAF7F7FA02A8FAF7F4FA03A8FAF73B
:10701000F1FAD5E700B970472DE9F04F8FB004467B
:10702000FAF7D4FA836A05909A0740F13C81406AE6
:1070300040B1A04B1B689C4204D0FBF717FA059B9C
:1070400000225A622046FEF7B5FC0390002800F0AB
:107050002A81DFF860820398FAF7B8FA836A06900B
:107060009B0740F11581406A48B1D8F80030039A77
:10707000934204D0FBF7FAF9069B00225A62039868
:10708000FEF798FC0290002800F002810298FAF7BF
:107090009DFA836A07909F0740F1EF80406A48B1EC
:1070A000D8F80030029A934204D0FBF7DFF9079B2F
:1070B00000225A620298FEF77DFC8346002800F009
:1070C000DC805846FAF782FA836A08909E0740F1FE
:1070D000C880406A40B1D8F800305B4504D0FBF767
:1070E000C5F9089B00225A625846FEF763FC8246A7
:1070F000002800F0B6805046FAF768FA836A0990D3
:107100009D0740F1A280406A40B1D8F80030534555
:1071100004D0FBF7ABF9099B00225A625046FEF7F8
:1071200049FC0190002800F090800198FAF74EFA8F
:10713000836A0A909C077DD5406A48B1D8F8003030
:10714000019A934204D0FBF791F90A9B00225A62FC
:107150000198FEF72FFC064600286BD03046FAF760
:1071600035FA836A0B9099075BD5406A40B1D8F82D
:107170000030B34204D0FBF779F90B9B00225A622E
:107180003046FEF717FC054600284AD02846FAF795
:107190001DFA836A0C909A073AD5406A40B1D8F834
:1071A0000030AB4204D0FBF761F90C9B00225A621D
:1071B0002846FEF7FFFB044650B34FF00009204677
:1071C000FAF704FA836A0D909B0718D5406A40B11C
:1071D000D8F80030A34204D0FBF748F90D9BC3F860
:1071E00024902046FEF7E6FB074640B13846FFF7FD
:1071F00011FF3846FAF718FA076A002FF6D10DA8E2
:10720000FAF7F8F92046FAF70FFA046A002CD6D1FB
:107210000CA8FAF7EFF92846FAF706FA056A002DE6
:10722000B4D10BA8FAF7E6F93046FAF7FDF9066A89
:10723000002E93D10AA8FAF7DDF90198FAF7F4F9CC
:10724000036A0193002B7FF470AF09A8FAF7D2F913
:107250005046FAF7E9F9D0F820A0BAF1000F7FF410
:107260004AAF08A8FAF7C6F95846FAF7DDF9D0F898
:1072700020B0BBF1000F7FF424AF07A8FAF7BAF9EA
:107280000298FAF7D1F9036A0293002B7FF4FEAE5D
:1072900006A8FAF7AFF90398FAF7C6F9036A039359
:1072A000002B7FF4D8AE05A8FAF7A4F90FB0BDE81B
:1072B000F08F00BF40C801202DE9F041054686B09F
:1072C00008460C461746FAF7AFF9836A13F4803F75
:1072D00014BF4FF48046202614B906B0BDE8F081F3
:1072E0002046FAF773F9D0F82880009018F0020FC2
:1072F00043D00246294602A8FCF7E0FB00283CD018
:1073000040F6010308EA0303012B40D02046324631
:1073100002A903F095FB009BDC6974B3A7422CD053
:107320002046FAF753F9836A01909B072BD5024652
:1073300002A904A8FCF7C2FB28B301A8FAF75AF97E
:10734000324604A9204603F07BFB2046FEF732FBC1
:10735000054650B12846324604A9FEF765FD284689
:10736000FAF762F9056A002DF4D12046FAF75CF9C4
:10737000046AA74201D0002CD2D16846FAF73AF944
:1073800006B0BDE8F08101A8FAF734F9EDE70099FD
:10739000334602A80A6A896900F002F8BBE700BF19
:1073A00001B970472DE9F041054686B008460C4604
:1073B0001E461746FAF70AF9D0F82880009018F010
:1073C000020F41D00246294602A8FCF777FB0028AD
:1073D0003AD040F6010308EA0303012B44D02046CB
:1073E000324602A903F02CFB009BDC69BC422BD087
:1073F00054B32046FAF7EAF8836A01909B0729D52F
:10740000024602A904A8FCF759FB18B301A8FAF731
:10741000F1F8324604A9204603F012FB2046FEF79D
:10742000C9FA054650B12846324604A9FEF7FCFCCD
:107430002846FAF7F9F8056A002DF4D12046FAF744
:10744000F3F8046AA742D3D16846FAF7D3F806B036
:10745000BDE8F08101A8FAF7CDF82046FAF7E4F884
:10746000046AA742C4D1EFE70099334602A80A6A2A
:107470008969FFF795FFB7E701B97047F0B5054691
:1074800087B0084616460C46FAF7A0F8876A0090BF
:10749000BA0742D50246294602A8FCF70FFB00288E
:1074A0003BD040F601033B40012B3FD02046202239
:1074B00002A903F0C5FA009BDC6974B3A6422CD084
:1074C0002046FAF783F8836A01909B072AD5024683
:1074D00002A904A8FCF7F2FA20B301A8FAF78AF887
:1074E000202204A9204603F0ABFA2046FEF762FAF8
:1074F000054650B12846202204A9FEF795FC2846EF
:10750000FAF792F8056A002DF4D12046FAF78CF8C4
:10751000046AA64201D0002CD2D16846FAF76AF874
:1075200007B0F0BD01A8FAF765F8EEE7009920234F
:1075300002A80A6A8969FFF733FFBCE768B110B592
:107540000C4631B1FAF770F88069844203D0002804
:10755000F8D1002010BD012010BD0020704700BFF1
:10756000884215D090B110B50C4609B9002010BD65
:10757000FAF75AF88069844206D00028F6D0FAF764
:1075800053F880698442F8D1012010BD0020704773
:1075900001207047094B10B50446186848B1A04255
:1075A00002D108E0844206D0FAF73EF8406900288C
:1075B000F8D1002010BD012010BD00BFD4C70120AC
:1075C00070B50446FAF730F80546806900B970BD19
:1075D000FAF72AF8C36906469C420CD013B910E0AA
:1075E000002BF4D01846FAF71FF8036A9C42F7D133
:1075F0002B6A036270BD2046FAF716F8036AF3613E
:1076000070BD70BD70B50D4C2268132A00DD70BDD1
:1076100006460D46FAF708F802696E6042B1236823
:1076200028460133236090472368013B236070BDE7
:107630002846BDE87040FEF733B800BFBCC2012049
:1076400030B5002385B00C460546019300930293A4
:107650000393F9F7E9FF03691BB1019568460094AC
:10766000984705B030BD00BF00B585B004AB0190B0
:1076700043F8101D1946FFF7C5FF05B05DF804FB80
:107680002DE9F04FD0F81CB08BB0BBF1000F00F02B
:10769000868007939BB2019203938BB20691049369
:1076A000BDF85030059335E00699771807995D18B5
:1076B0003FB22DB202F4A062B2F5807F48D0B2F59D
:1076C000A06F5FD1019A0AEB0208149A09EB020439
:1076D0000FFA88F824B2B742CAEB0802A7EB0601FA
:1076E00044D1002A42D1ED1B9E1BC8EB0404CAEB17
:1076F0000909B542A5EB0601C9EB04024BD1002AEA
:1077000049D1099B09A8D3F820B0F9F773FFBBF161
:10771000000F44D05846F9F759FF826A099002F4E5
:107720002071B0F90060B0F902A08029B0F90430EE
:10773000B0F9069020D0B1F5207FB5D0049902F4BD
:10774000A0628F19CD18B2F5807F3FB22DB2B6D1AD
:107750000599B74201EB0A0801EB0904A7EB060102
:107760000FFA88F824B2CAEB0802BAD0584602933E
:10777000FEF72AFD029BB6E703998F19CD183FB299
:107780002DB297E7BDF8041001EB0A0849440FFA3F
:1077900088F80CB29FE75846FEF780FDB1E70BB0C2
:1077A000BDE8F08FC04BDA68F0B5013A9C6B0D185C
:1077B0002244AA4203D30A58002A00F0A1808C4236
:1077C00005D251F8042C8A1A1468002C4AD0D3F838
:1077D000B840B54AA04280F01E81D2F8B040A04225
:1077E00080F01B81D2F8A840A04280F01881D2F826
:1077F000A040A04280F01581D2F89840A04280F0CD
:107800001281D2F89040A04280F00F81D2F88840D7
:10781000A04280F00C81D2F88040A04280F0098123
:10782000946FA04280F00781126F904280F0058132
:107830009C6E9D4AA04280F00281146EA04280F0AE
:107840000081946DA04280F0FE80146DA04280F013
:10785000FC80946CA04280F0FA80126C904280F020
:10786000A680F0BD5168D3F8B85008448E4CA942A8
:1078700080F0F980D4F8B050A94280F00681D4F8A5
:10788000A850A94280F0FF80D4F8A050A94280F00F
:10789000F880D4F89850A94280F0FC80D4F8905039
:1078A000A94280F0FF80D4F88850A94280F0F88087
:1078B000D4F88040A14280F0F1809D6F7A4CA942BB
:1078C00080F0EA80256FA94280F01381A56EA9425D
:1078D00080F00D81256EA94280F00781A56DA94237
:1078E00080F00181256DA94280F0FB80A56CA94242
:1078F00080F00481246CA14280F08180114666E70B
:107900006A68D3F8B8601044B24280F0AE80D3F811
:10791000B060B24280F0B280D3F8A860B24280F08A
:10792000AA80D3F8A060B24280F0A280D3F8986019
:10793000B24280F0AC80D3F89060B24280F0BF8059
:10794000D3F88860B24280F0B780D3F88060B2424A
:1079500080F0AF809F6FBA4280F0A8801F6FBA425C
:1079600080F0B9809F6EBA4280F0B2801F6EBA423A
:1079700080F0AB809F6DBA4280F0A4801F6DBA4248
:1079800080F0AC809F6CBA4280F0B5801E6CB24231
:10799000FFF415AF4FF0000E1E68AF68B21AED6825
:1079A0001A6007B17D60002D58D02F6007E70022D4
:1079B000083200270D1801F1080603EBC2046468C1
:1079C00048608C6009610F6045F8040C04B1666082
:1079D0001D6800278C6003EBC202CF60411993F849
:1079E000294056601960304A002C7FF43AAFD368C2
:1079F0009468591AA1427FF634AF9160F0BD002619
:107A00001C689568611AD468196005B16C6004B38C
:107A100025601146DBE60F22CAE70E22C8E70D22D9
:107A2000C6E70C22C4E70B22C2E70A22C0E70922FC
:107A3000BEE70822BCE70722BAE70622B8E705221C
:107A4000B6E70422B4E70322B2E70222B0E701223C
:107A5000AEE703EBC60611467564B8E603EBCE0E3F
:107A6000CEF84470ABE60F26CAE74FF00F0E93E74F
:107A70004FF00C0E90E74FF00D0E8DE74FF00E0E0D
:107A80008AE70C26BCE70D26BAE70E26B8E74FF0CA
:107A90000B0E81E70B26B3E70726B1E70826AFE711
:107AA0000926ADE70A26ABE7D4C201204FF0070E46
:107AB00072E74FF0080E6FE74FF0090E6CE74FF0DA
:107AC0000A0E69E74FF0030E66E74FF0040E63E716
:107AD0004FF0050E60E74FF0060E5DE74FF0020E27
:107AE0005AE702268CE703268AE7042688E705265C
:107AF00086E7062684E74FF0010E4DE701267FE773
:107B00002DE9F041C14C054694F82830002B00F0D7
:107B1000F780206C854202D3E81C20F0030000F1BE
:107B20000C062368B94DB34202D20020BDE8F081B3
:107B30006B682A6B934240F25681656A013B626B27
:107B400001214FEAC508636002EB08035B686362CA
:107B500002F83510002DE8D0AC4FD4F8B8E07645E7
:107B600080F02381D7F8B0309E4280F02081D7F892
:107B7000A8309E4280F01D81D7F8A0309E4280F050
:107B80001C81D7F898309E4280F01581D7F890304C
:107B90009E4280F01681D7F888309E4280F00F8197
:107BA000D7F880309E4280F01081BB6F9E4280F0FB
:107BB0000A813B6F9E4280F00C81A36E9E4280F052
:107BC00006813B6E9E4280F00681BB6D9E4280F036
:107BD00004813B6D9E4280F00481BB6C9E4280F02C
:107BE000FE803B6C9E424FF0FF3328BF00230F2BDB
:107BF00011D8002104EBC100436C2BB907E05A688F
:107C000096421CD99B6813B19B68002BF7D10131B8
:107C100008301029F0D1304603F026FB00289CD014
:107C200063680021626B666A0133904408466360B2
:107C3000C8F8046002F835106562BDE8F081216C77
:107C4000971B01F10C0087422CBF30461046964529
:107C500040F2F580D4F8B0706C4EBA4280F0F180FA
:107C6000D6F8A870BA4280F0E880D6F8A070BA4280
:107C700080F0D080D6F89870BA4280F0D880D6F8DC
:107C80009070974240F2DF80D6F88870974240F2B9
:107C9000DE80D6F88070974240F2D780B76F974267
:107CA00040F2E580366F964240F2DF80A66E574F75
:107CB000964240F2D8803E6E964240F2D280BE6D2F
:107CC000B24280F0CC803E6D964240F2C680BE6CDF
:107CD000B24280F0C080914240F2BB80646B0026CB
:107CE00019189042A044C8F804301D6058601B6108
:107CF0009E6041F8040CC0F282802846BDE8F08105
:107D0000434B01219A6884F8281058680AB9820800
:107D10009A605A27102220264FF0400E27628027B3
:107D200022644FF48072A6644FF400761968C4F898
:107D300050E04FF4806EA7654FF4006722664FF461
:107D40008052A6664FF40056A1F11403C4F870E007
:107D5000A7674FF4804EC4F880204FF40047C4F862
:107D600088604FF480324FF400360344C4F890E04A
:107D70004FF4802EC4F898704FF40027C4F8A02068
:107D80000222C4F8A8600126A1636363C4F8B0E0CE
:107D90002261E060C4F8B8705E6066626660FFF7FA
:107DA00001FD01F0ABFD2663B3E60F2122E70E21B2
:107DB00020E70D211EE70B211CE70C211AE7092102
:107DC00018E70A2116E7072114E7082112E7052121
:107DD00010E706210EE704210CE703210AE7012141
:107DE00008E7022106E7013A2A6301F087FD2B6BC1
:107DF00001332B6300287FF498AE6B689DE6101A60
:107E0000FFF7D0FC2846BDE8F08100BFD4C20120B6
:107E100014C101200C2126689F68C2EB060EDE68A3
:107E2000C4F800E007B17E601EB1376056E70B2151
:107E3000F1E704EBC1014F6450E70D21EBE70F219F
:107E4000E9E70E21E7E70A21E5E70821E3E7092151
:107E5000E1E70021DFE70121DDE70221DBE7032184
:107E6000D9E70421D7E70521D5E70621D3E7072184
:107E7000D1E700BF01207047F0B5DFF834C00B4FE9
:107E800050F8044B013AC4F307455FFA84FEC4F38B
:107E900007267D5D17F80E401CF8066005EBC4242C
:107EA00004EB46140C801944EAD1F0BD386801088F
:107EB0003867010870B450F8044B013A4FEA0445A2
:107EC000C4F3074604F47F4405F47F0545EA06053C
:107ED00044EA05040C601944EDD170BC704700BF42
:107EE000F0B450F8044B013A6FEA0405C4F30747B5
:107EF0004FEA044604F47F4405F07F4506F47F060C
:107F000045EA070545EA060544EA05040C601944FC
:107F1000E7D1F0BC704700BFF0B5134FD7F800E0D1
:107F2000BEF1000F03D0F446BDE8F04060470646BE
:107F30000C4615461F46DFF838E00C4856F8043B5F
:107F4000013DC3F30742C3F3072CD9B2825C1EF88C
:107F50000C304FEAC222415C02EB43130B442380F6
:107F60003C44EBD1F0BD00BF0CC1012038680108D2
:107F70003867010810B450F8044B013A24F07F44EC
:107F80000C601944F7D15DF8044B704710B450F8F9
:107F9000044B013A84F07F440C601944F7D15DF83A
:107FA000044B70472DE9F0470B4C05468946924635
:107FB00098462768094E55F8044B24F07F40240E5C
:107FC000B847BAF1010A335D40EA031089F80000AE
:107FD000C144F0D1BDE8F087106701083869010895
:107FE0002DE9F8430B4C0646894615469846276806
:107FF00056F8044B24F07F40240CB847013D04F4AC
:108000007F4440EA0400A9F80000C144F0D1BDE873
:10801000F88300BF30470108F0B5144FD7F800E0EF
:10802000BEF1000F03D0F446BDE8F04060470646BD
:108030000C4615461F460E4856F8042B013D5FFAC4
:1080400082FEC2F3074C4FEAD273C2F3072110F845
:108050000EE010F80C20415C02EB8E2202EBC333E1
:1080600003EB411323803C44E6D1F0BDFCC001206A
:1080700038680108F0B51D4FD7F800E0BEF1000FD9
:1080800003D0F446BDE8F040604706460C4615466E
:108090001F46174856F8043B013D4FEA136CC3F3E3
:1080A000074ED9B2C3F307220CF108030EF1080EF4
:1080B00001F1080102F10802A0FB03C3A0FB01C10A
:1080C000A0FB0ECE4FEA13134FEA1111A0FB02C220
:1080D0004FEA1E1E01EB033322F00F0203EB0E23C7
:1080E000134423803C44D5D1F0BD00BF04C101201E
:1080F000F1F0F0F010B450F8044B013A0C60194460
:10810000F9D15DF8044B70472DE9F8430646FCF7BA
:10811000DBF90746FCF70EFA58B1A0F1040800207D
:10812000434602E00130874205DD53F8042FB24296
:10813000F8D1BDE8F88300246FF07F49254658F850
:10814000041F3046F9F7EEFA814501D981462C46E5
:108150000135AF42F3DC2046BDE8F883F0B4C0F34C
:108160000724C0F30742C0B2651C561C471C1346C7
:10817000542D94BF00250125542E4FEA850194BF4C
:1081800000260126542F06EB050201EB460194BFA1
:108190000027012735433A4401EBC70103D117B942
:1081A0000846F0BC70472344C2EB8215C2EBC212F2
:1081B00003445819B0FBF2F201EB5201F0BC08463F
:1081C000704700BF064B10B504461B6820F07F4087
:1081D0009847044B240E1B5D40EA031010BD00BFFE
:1081E000106701083869010810B4084AC4B2C0F326
:1081F00007430749C0F30720D35C125D085C03EB1B
:10820000C2235DF8044B03EB401070473868010847
:108210003867010830B4C0F30743C0F307240E4D9C
:10822000010EC2B29C42A5FB01104FEA101006D10C
:10823000A24204D1000130BC40EA53107047D1097A
:10824000DA09E40942EA810242F0080242EA001334
:1082500043EA440030BC7047F1F0F0F00346800F71
:1082600017D0C3F30721C3F30742DBB2914205D114
:108270008B4203D1120902EB001070479B0992094F
:10828000890942EA0313800143EA810300F47F5025
:108290001843704710B470B1C0F30721C0F307430F
:1082A000C0B299420AD1884208D108331548A0FBD0
:1082B0000330000978305DF8044B704700EB800014
:1082C000114C03EB830201EB810100F17F0302F10A
:1082D0007F007F31A4FB0323A4FB0020A4FB01212A
:1082E000DB09C0095DF8044B03EBC303C90900EBCC
:1082F000830301EB410003EB40006B2894BF0C307B
:108300001C307047F1F0F0F08180808010B5044699
:10831000044B20F07F40240C1B68984704F47F44F2
:10832000204310BD304701080304C0F3074200F4A6
:108330007F4003F47F03134318437047C343C0F3E4
:108340000741020400F47F4003F07F4302F47F0200
:108350000B431343184370470949C2B2C30F8A5CE9
:1083600010B4C0F3072402EBC333C0F307400C5D25
:10837000085C03EB44135DF8044B03EB802070476B
:108380003868010810B5C2B20E4B040EC0F30741A5
:108390000832C0F3072008340831A3FB02E208309A
:1083A000A3FB04E4A3FB01E112092409A3FB0003DE
:1083B000090902EB043023F00F0300EB01201844FD
:1083C00010BD00BFF1F0F0F0084AC0F30743C0F35E
:1083D0000721C0B2D35C105CDB0210B4044C615CBA
:1083E0005DF8044B03EB41131844704738680108EB
:1083F0003867010820F07F40704700BF80F07F4061
:10840000704700BF704700BF2DE9F84384680546F8
:108410000E4617463CB3BE421DD0E4B1EB680821BE
:1084200028469B6A9847A1696369A26803FB01F328
:1084300000FB03F0C30882B152F8261052F82790CF
:10844000D4F83880B8F1000F17D03A463146A86901
:10845000C047C4F80090BDE8F883626803FB0621BA
:1084600003FB0729ECE75020F8F788FF2146A860B6
:108470005022FBF759FCAC68CDE7034D1A4648463D
:108480002B689847E5E700BFA000002030B58BB00F
:108490000446F9F79BF8C26D0AAB956843F8280DBE
:1084A0001846F9F7A7F80AA800226B6840F8244D8F
:1084B000029298470BB030BD30B58BB00446F9F747
:1084C00085F8426E0AAB956843F8280D1846F9F70F
:1084D00091F80AA800222B6840F8244D0292984790
:1084E0000BB030BD70B582B0214D224C164602ABA8
:1084F000019043F8081D19462B689847236801909E
:10850000586918B13146FAF739FDA8B10120FBF7D7
:1085100001FB2268D3695B69ABB1174C216869B173
:10852000B2F922509B680198009998472846236821
:1085300098470020FBF7EEFA02B070BD9B680099E7
:1085400001989847F5E70D4D009B01A8013B002BD2
:108550000093EEDBFAF772FE23680646DB691B68C0
:1085600098472B68002BEFD030469847ECE700BFC8
:108570009C0000204C000020BCC30120C0C301208F
:108580002DE9F04F8BB00C46159D02900393691EA8
:1085900083681698149E00901898DDF85C8001900E
:1085A000199D0F2937D8DFE811F03900AB003600EC
:1085B000F70036003600360044013600360036003B
:1085C00036003600360036001000DD6C2DB1BE4995
:1085D0000968097CC90740F15483002E1BDD15464C
:1085E000039ADFF8E8A257002E44DDF808B0DDF862
:1085F000009001E0DBF80830186A41461B683A46F3
:1086000000FB05400135C84403EB4000DAF80030B8
:108610009847B542EED10BB0BDE8F08FDF6B2FB1BC
:10862000A9490968097CC90740F11A83002EF2DDC7
:10863000019999461346B2186018C1F108010492D5
:108640009A46A14A4E4608912946DFF884B213465D
:108650000590069207951B6898F800201B7C1BF874
:10866000024003F00303019A356A1441022B059A74
:10867000486805FB0A2500F0B481032B00F09181C6
:10868000012B00F08E8133682A46DDF80CC0C1460C
:10869000CDF824A09A466546DDF820E00E689446A1
:1086A00075452F460AEB4C0228BF77463B4614F02F
:1086B000010F4FEA54040CBF31460146013B22F83A
:1086C000021BF4D1BEEB070EBC44A5EB070507D196
:1086D00099F801304FF0080E09F101091BF8034029
:1086E000002DDDD1DDF824A0009B0AF1010A984499
:1086F000049B9A458FD0029B07999E68069BAAE728
:10870000002E88DD019906EB020B6F486118039F6C
:1087100000680C460491C021029027440298047C12
:1087200098F8000014F0030400F09F80022C2DD173
:10873000002D00F06E81DDF804E0C246DDF810C0C7
:10874000914601E0674520D0CEF103060EF1010EFF
:108750007600C6F1060441FA04F40440F44007D060
:108760001E6A55F8244006FB09C61A6822F816400E
:10877000BEF1040F0CF1010CE4D167459AF8010039
:108780004FF0000E0AF1010ADED14A46013200988C
:108790005A458044C2D13EE7002E7FF73CAF019995
:1087A00006EB020B48486118039F00680C460491D1
:1087B000F021029027440298047C98F8000014F0FD
:1087C000030400F0A380022C2DD1002D00F04A817B
:1087D000DDF804E0C246DDF810C0914601E06745CF
:1087E00020D0CEF101060EF1010EB600C6F1040450
:1087F00041FA04F40440F44007D01E6A55F82440BE
:1088000006FB09C61A6822F81640BEF1020F0CF1E9
:10881000010CE4D167459AF801004FF0000E0AF10F
:10882000010ADED14A46013200985A458044C2D13D
:10883000F1E61F6C002F00F03E8123490968097C96
:10884000880700F13881002D00F03581029BBC467D
:1088500000999869434616912146039C17951596F1
:1088600014940BB0BDE8F04F60471C6AC1461E6807
:1088700004FB02FA049CDDF804E004EB0A0CBA44A1
:1088800006EB4C0C06EB4A0A1DB92CE0D4453FF42C
:108890007DAFCEF103040EF1010E6600BEF1040FB0
:1088A000C6F1060441FA04F404EA000424FA06F4CA
:1088B00055F824402CF8024BE8D199F801004FF00C
:1088C000000E09F10109E1E74C000020A0000020A2
:1088D000A86A010899F801004FF0000E09F101099A
:1088E000D4453FF453AFCEF103040EF1010E660000
:1088F000BEF1040FC6F1060441FA04F404EA0004D0
:1089000024FA06F42CF8024BEAD1E3E71C6AC146CC
:108910001E6804FB02FA049CDDF804E004EB0A0C78
:10892000BA4406EB4C0C06EB4A0A1DB926E0D445C6
:108930003FF479AFCEF101040EF1010EA600BEF1B5
:10894000020FC6F1040441FA04F404EA000424FA14
:1089500006F455F824402CF8024BE8D199F80100B0
:108960004FF0000E09F10109E1E799F801004FF01D
:10897000000E09F10109D4453FF455AFCEF10104D1
:108980000EF1010EA600BEF1020FC6F1040441FA79
:1089900004F404EA000424FA06F42CF8024BEAD1A9
:1089A000E3E7029B1B699B689847039B414603EBE7
:1089B000050E6D00089B4FEA4E0E14F0010F4FEAB2
:1089C000540403D03768EA5B4240EA53013B04D1C8
:1089D0004A78082301311BF8024002357545ECD175
:1089E00082E6039B4146089A5F196D007F0014F0F0
:1089F000010F4FEA540401D033685853013A04D1AF
:108A00004B78082201311BF803400235AF42EED10A
:108A10006AE6DDF804C0C246DDF81090AE4601E01B
:108A20004F451DD0CCF103060CF1010C7600C6F1C8
:108A3000060441FA04F40440F44005D01E6A1D689F
:108A400006FB029625F81640BCF1040F09F1010956
:108A5000E6D19AF801004FF0000C0AF1010ADFE7B5
:108A6000754693E6DDF804C0C246DDF81090AE46C8
:108A700001E04F451DD0CCF101060CF1010CB60010
:108A8000C6F1040441FA04F40440F44005D01E6A1F
:108A90001D6806FB029625F81640BCF1020F09F18D
:108AA0000109E6D19AF801004FF0000C0AF1010A21
:108AB000DFE77546B7E6002E7FF7ADAD03981644A5
:108AC000774FA0F108014FEA400AD7F800E0C80844
:108AD000DDF80C90CDF814A04FEA001C471CA1EB68
:108AE000C00B0CF12000DDF800C0CDF818B00490E8
:108AF000F800019038010290F5B1186A9EF810A0B4
:108B00001F6800FB02411AF0030A07EB41011AD06B
:108B1000BAF1020F10D1B9F1000F0DDD059808F17F
:108B2000FF3701EB000A17F8010F10B155F82000CC
:108B3000088002315145F6D10132E044B242DBD126
:108B40000BB0BDE8F08FB9F1070F40F3868001F15B
:108B5000100008F108079A460090049800EB010BFA
:108B6000009817F8083C1030083755F8233020F8E3
:108B7000203C17F80F3C55F8233020F81E3C17F81E
:108B80000E3C55F8233020F81C3C17F80D3C55F8E6
:108B9000233020F81A3C17F80C3C55F8233020F805
:108BA000183C17F80B3C55F8233020F8163C17F802
:108BB0000A3C55F8233020F8143C17F8093C55F8C6
:108BC000233020F8123C8345CBD102985346DDF880
:108BD00018A0014401984044BAF1030F21DD077841
:108BE000AAF1040A55F827B04FEA9A07A1F800B095
:108BF000AAEB870A90F801B0013755F82BB0A1F81D
:108C000002B090F802B055F82BB0A1F804B090F87B
:108C100003B000EB870055F82BB0A1F806B001EBCC
:108C2000C701BAF1000F87D00778BAF1010F55F8E4
:108C300027700F8080D04778BAF1020F55F827705F
:108C40004F803FF479AF80780132E04455F820003E
:108C5000B24288807FF450AF72E7CA464046BBE715
:108C6000029BBC4600999869434617912146039C94
:108C700018951594019C169614940BB0BDE8F04F0E
:108C80006047029BAC460099986943461691039948
:108C90001596149121460BB0BDE8F04F604700BF18
:108CA0004C0000202DE9F04F95B00C460B92AA4ADB
:108CB0000D9012680993106E1F9DDDF88C90F8F7E7
:108CC00085FC42691190002A40F0B38003461046AB
:108CD000DB68129011A80793229BE3180893F8F71A
:108CE00089FC9D4B12981B6820B11A7C9A4C910705
:108CF00000F0D480186EF8F769FC04460B9914A8AC
:108D0000B4F90620E3688A1AB4F904B040F8044DB7
:108D100003FB02F3089A1833CBEB020B03EB4B0374
:108D2000E3180293F8F766FC102D00F08780172DEA
:108D300045DD1E9B002B40F3B984219BDDF82C9070
:108D4000A3F1040A1E9B129E03EB090BCDF80CB095
:108D5000DDF834B01AF1040F1FD0029FEFB1002EDE
:108D600059D0B0684A46099DD046446830462B46E3
:108D70000899A047089CDBF8103058F8040F1B68CE
:108D80009847B368214627F8020B4A461B683046CD
:108D900001349847013DEED1129E029B09F1010971
:108DA000079A13440293209B9A44039B9945D1D17F
:108DB00016B112A8F8F71EFC15B0BDE8F08F082D0B
:108DC00075D0664BB9F1000F08BF99461E9B002B6A
:108DD00040F32F811C46229A229B520007989B0049
:108DE000209E069203930023029A2199022D00F0FF
:108DF0002781042D00F0FD81012D00F03783013320
:108E0000314402449C42F1DCDDF848B0DE46BEF15C
:108E1000000FCED1D0E73D465646099CDBF8103016
:108E200056F8040F1B689847013C25F8020BF5D152
:108E3000B2E71046F8F7CAFB119B49E7129D002DD7
:108E400000F026841E9B002BB3DD099B0024444FB9
:108E50005E00A046DDF81CB00396DDF87890029E17
:108E6000DDF880A0219C84B12146039A304666B18A
:108E70003B6898470B9B2846089903EB0802099B1F
:108E800015B1AD686D68A847129D08F101085444FA
:108E90005E44C145E7DC002D8BD18DE71E9B0B9A0C
:108EA00000930899099BFAF7F1F9236822E71E9BC2
:108EB000002B40F30484219B099A013B0B9DDDF8B4
:108EC00048B00393029B5846CDF88C90A94603EB1B
:108ED00042061E9B2B44239D0493039B591C1E4B4F
:108EE0001B681B7C002D48D013F003033AD0022BE3
:108EF0001ED1BBF1000F63D0DDF80CA0DDF80880B7
:108F0000099F089C1AF8013F21464A4601345846F9
:108F10003BB155F823E0DBF80830A8F800E01B6807
:108F20009847013F08F10208ECD1DDF848B05846F7
:108F3000029B09F10109079A1946039B1644114443
:108F4000029120990B440393049B4B45C5D1002803
:108F50007FF42FAF30E700BF4C000020E4980108F9
:108F6000A0000020039A029B12F8011F55F821105F
:108F700023F8021BB342F7D1DAE713F0030300F042
:108F80006583022BD4D1BBF1000F00F07783DDF8AD
:108F90000CA0DDF80880099F089C1AF8013F2146C3
:108FA0004A460134584633B1DBF808E0A8F80030EF
:108FB000DEF800309847013F08F10208EDD1B4E730
:108FC0000399029B11F8012F12B155F822201A8043
:108FD00002339E42F6D1AAE74246039B14F0010FEA
:108FE0004FEA540403D019888AEA01011980013A32
:108FF00003F10203F2D1039B03EB48030393B9F19E
:10900000000F40F0C482DDF88CA00A9B11A8079ADB
:1090100001331C460A93029B1344209A02930C9B33
:1090200013440C93F8F7E6FA1E9B1A46A24200F38B
:109030002882DDF848E0BEF1000F7FF4BAAEBBE64F
:109040000A93229BDDF848B0C3F104030292DA468A
:10905000CB46DBB221910C93D6465746A34B219ABF
:109060001B6814781B7C069A03F003039440012BC1
:10907000E4B200F09E807CD3022B67D1099B0A9A50
:109080000393219BDDF830900593089B029D049388
:109090000B9B03EB020A039A039B9145C8BF5FFA3F
:1090A00082F9C9EB030309F1FF3903934FB35FFA68
:1090B00089F9049E09F1010805EB480814F0C00F76
:1090C00031464FEA941306F101065246384606D05F
:1090D0005BF823E0BB68A5F800E01B689847023501
:1090E000A4004545E4B2E9D1049B01334B44049309
:1090F000039BD3B1059B4FF0040913F8014F05936F
:10910000C9E75FFA89F909F1010105EB4101A30003
:1091100014F0C00F4FEA9412DCB202D05BF8223098
:109120002B800235A942F2D1DEE7129FBE46219A7A
:1091300020990A9B0A44079901332192029A0A93C3
:109140000A4402921E9A9A4288DC60E6219ABA4644
:1091500020990A9B0A44079901332192029A0A93A3
:109160000A4402921E9A9A423FF776AFBB46DE4609
:109170004DE60C9B029E099DDDF884C0AB42C8BF42
:10918000EBB2581EED1AB31EC0B206EB4001A209A5
:10919000A4005BF82220E4B223F8022F9942F6D112
:1091A000013006EB4006002DC1D01CF8014F04230E
:1091B000E4E70C99029B09980A46219D8242C8BFA8
:1091C000C2B2511E801AC9B2013103EB4101A200A3
:1091D00014F0C00FD4B203D01A8882F0FF021A80B4
:1091E00002338B42F3D10028A1D015F8014F04229D
:1091F000E4E72191CA4622990A93DDF848B0C1F10B
:109200000203DDF88490D9B25F461346069102331B
:10921000BE46CB460293354B029A1B68A2F1020868
:1092200003991B7C9BF8002003F003038A40012B69
:10923000D4B200F0CB80C0F09680022B40F0838047
:109240000B990A9B0B4419460593229B002B00F0B7
:10925000E18012F0F00F40F00282089B0BF1010652
:10926000DDF80880591C099B9BF80140013B012B4C
:109270004CDD023B002F00F0D18004935B088A1C78
:1092800008F104090C935B00CDF83C800D460D936A
:10929000D318CDF884B00E929B46DDF814801AE006
:1092A0005AF823E0BB6829F804EC1B68984714F0CF
:1092B0000F0409D05AF824304246691C384629F870
:1092C000023CBB681B689847023509F1040916F88F
:1092D000014F5D450CD014F0F00F4FEA14132946EE
:1092E00042463846DCD1002CEED0E3E74C000020AB
:1092F0000C9B0E980D995A1CDDF83C800144049893
:10930000DDF884B008EB8208A0EB43035BB12409CD
:1093100009D05AF82430A8F8003027B1BB68384685
:10932000059A1B689847129FBE46209A0799934456
:10933000029A0A9B0A44013302921E9A0A939342AC
:10934000FFF669AF63E50A9BD9461E9901331A46B9
:109350000A93209B8A429944079B4344FFF657AFE8
:10936000BB46DE4653E5229B002B50D02409099BC7
:109370000BF101025D1E5AF82430A8F80030DDF828
:1093800008809BF80140012D18DD6E1008F10403E0
:1093900005F0010590198446210904F00F040433F7
:1093A0005AF821005AF8241023F8080C23F8061C58
:1093B00012F8014F6245EFD108EB8608002DB4D0BA
:1093C00024095AF82430A8F80030AEE7069B584626
:1093D00009998B42C8BFCBB25A1EC91AD2B2013208
:1093E00008EB4202230114F0C00FDCB205D0B8F83C
:1093F000003083F0FF03A8F8003008F10208904520
:10940000F0D1002991D010F8014F0223E1E7099D26
:109410005A46B8E7099B5E46089928E71A4604931E
:1094200008F104034FEA520E0EF1010C06EB0C009A
:1094300014F0F00F4FEA141203D05AF8222023F848
:10944000042C14F00F0403D05AF8242023F8022C23
:1094500016F8014F0433B042EAD10231049B08EB05
:109460008C08A3EB4E0301EB4E014FE70A930B462A
:10947000CA460292013321910C93229BC3F1080347
:109480000E93924B0B990A9A1B680A440C9C186E17
:109490000492F8F79BF88D4B04F1FF3814F8012C77
:1094A0001B688B491B7C8C5C03F00303229A119090
:1094B000022B44FA02F4DDF848B072D0032B1FD01F
:1094C000012B1DD00E98029E099DA842314628BF4F
:1094D00028462D1A024604F00103013A4FEA5404CB
:1094E0005AF8233021F8023BF5D106EB4006002D57
:1094F0003FF48BAD18F8013F0820754AD45CE4E7CF
:109500000C9A0D9B0592029A1B690392089A9B681C
:10951000DDF824900692984783B2CDF88CA0DDF850
:1095200038809A46C84528BFC846C8EB0909BBF130
:10953000000F3FF451AD4546039E069F05E0013DF7
:1095400006F1020607F1010716D014F0010F4FEAE9
:109550005404F4D0DBF808303946049A58461B68A6
:109560000236984736F8023C013D07F101078AEAC6
:10957000030326F8023CE8D1039B03EB4803039363
:10958000069B43440693B9F1000F3FF43CAD059BA5
:109590004FF008084E4A1B78D45C059B01330593B5
:1095A000C0E70E9D099FBAF80430BD42CDF80C808B
:1095B000CDF88CA0984628BF3D46029EDDF820904D
:1095C000DDF810A07F1BBBF1000F2BD044B936E0B3
:1095D000013D09F1010906F1020612D064082ED0FE
:1095E000E207F5D5DBF808304946524658461B6875
:1095F00009F101099847013DA6F8008006F102062D
:10960000ECD1002F3FF4FFAC039A082512F8013F7C
:10961000BD42039228BF3D462D4A7F1BD45CBBF15F
:10962000000FD3D114B90EE064080CD0E30706F1A3
:10963000020648BF26F8028C013DF5D1E1E706EBB2
:109640004506A944DDE706EB4506DAE7214B099A12
:109650001B6802989847DDF848B0584668E424092A
:109660005AF82430A8F80030002F3FF4F6ADBB685C
:109670000A46384608991B689847EEE50399029B0D
:1096800011F8012F02B11A800233B342F8D14EE42F
:10969000114B1C686CB1209B079A019300921E9B92
:1096A000099A21990298A047FFF786BB129EFFF7FF
:1096B0007FBB1E9B002B7FF77FABFFF7C6BB1298CB
:1096C00000287FF476ABFFF777BB00BF4C0000208B
:1096D000A86A0108A0000020B4C20120704700BFA2
:1096E00000B5A1B001A8FCF73BF903A8F9F76EFC9F
:1096F000094B1868FBF764F9BDF90A30BDF9082079
:10970000BDF90610BDF90400F8F74EFC03A8F9F7FF
:1097100053FC21B05DF804FB50010020704700BFEE
:1097200010B59EB0044601A8F9F750FC094B186823
:10973000FBF746F9B4F90630B4F90420B4F9021085
:10974000B4F90000F8F730FC01A8F9F735FC1EB0B9
:1097500010BD00BF50010020704700BF00B583B0AE
:10976000009200F037F903B05DF804FB00B583B058
:10977000009200F06DFA03B05DF804FB704700BF83
:1097800000B5A1B001A8FCF7EBF803A8F9F71EFC9F
:10979000094B1868FBF714F9BDF90A30BDF9082028
:1097A000BDF90610BDF90400F8F7FEFB03A8F9F7B0
:1097B00003FC21B05DF804FB50010020704700BF9E
:1097C00010B59EB0044601A8F9F700FC094B1868D3
:1097D000FBF7F6F8B4F90630B4F90420B4F9021036
:1097E000B4F90000F8F7E0FB01A8F9F7E5FB1EB0BB
:1097F00010BD00BF5001002000B583B000930B46A0
:1098000000F0E8F803B05DF804FB00BF2DE9F04379
:10981000374F154685B081463A681E468846106E19
:10982000F7F7D4FE436901901846002B3DD13B6801
:109830000290186EF7F7CAFE024604A8B2F9064075
:10984000D3682C1B40F8042D03FB04F3B2F9044049
:109850001833C4EB080403EB4403D418F7F7CAFE2B
:109860003B681A7CD20723D4DA6B0298019B1268FA
:10987000DF68002834D01FFA82F900E0029883687C
:109880002A46013541461B689847AE42A4F800902D
:109890003C44F3DA01A8F7F7ADFE029B13B102A82E
:1098A000F7F7A8FE05B0BDE8F083F7F78FFEBEE737
:1098B000D9F810309B68984787B2029B2A464146E8
:1098C0000135184613B19B681B6898472388B54239
:1098D000019A83EA0703D26823801444EDDDD9E7B7
:1098E000731B92B20133013B22803C44FBD1D1E790
:1098F0004C00002001700120704700BF2DE9F843A3
:10990000314DEB6A73B9314B9C685B680834B3FB2B
:10991000F4F40234E000FEF7F3F8804660B9012069
:10992000BDE8F8832B691C1D04EBD304E000FEF7AF
:10993000E7F880460028F2D0696B2A6901EBC00085
:10994000234BD200EF6A46681B68083630469847BA
:109950002869611E6E63C5F82C80884232D206EBFE
:10996000C0020346013308328B4242F8043CF9D16D
:1099700006EBC1014FF00008DFF84C90C1F80480FD
:109980006B686862181A2C6104446C60BFB1FC00FB
:10999000264471684868FDF705FFD9F80430D9F806
:1099A00034104046D9F8242001330C44C9F804305F
:1099B000626001F83780C9F82470BDE8F883384642
:1099C000BDE8F8830146D3E7D4C2012014C10120C9
:1099D000A00000202DE9F04F876887B07E6B109CB7
:1099E00056B1994D80692D68ED6B2D688DE830007A
:1099F000B04707B0BDE8F08F9C463B6A0D469249E0
:109A00005B109646A21AC5EB0C0C18460B68144660
:109A10000392197C6A08661C3C6800FB0E2EC9077D
:109A20000290304604EB8E020CF1010450D515F083
:109A3000010712D0002E00F002810299354613462C
:109A40008F001C68013D814981EA040119603B4493
:109A5000F7D107FB062704326446012C28DD002ECF
:109A600000F0E580029B4FEA830C039B0CFB03F99B
:109A7000CCF1000802EB09073B4637469E46013F02
:109A8000754621462B680239DB43012945F8043B22
:109A9000F8DCCCEB0E0E002FF1D1A31E03995B086E
:109AA00008FB0198013308EB83031A4404F0010416
:109AB000012C9ED1002E9CD0029B9C0011684FF679
:109AC000FF73013883EA010313602244F6D190E763
:109AD000DB6B15F00105D3F800E014D0002E00F088
:109AE000AA80029B3746144699004FEA0E43258808
:109AF000013F45EA030525600C44F8D101FB06252A
:109B00000432644601E04FEA0E430F2C734439DD02
:109B1000A4F11008002E00F0948002994FEA810908
:109B2000039901FB09FAC9F1000B0AF12007174458
:109B3000394637468C46013F61464546103D41F85F
:109B4000203C41F81C3C01F1200141F8383C41F82F
:109B5000343C41F8303C41F82C3C41F8283C41F879
:109B6000243CEBD5C9EB0C0C002FE4D14FEA1811C3
:109B7000039D013105FB0BAA0AEB41110A4404F0D5
:109B80000F041546012C3FDD002E52D00299A71E6E
:109B9000A4F1040BA4F1060A4FEA810C0399A4F185
:109BA0000809A4F10A0801FB0CF1CCF100050591AC
:109BB000511804953546012F05F1FF350B6013DD73
:109BC000BBF1010F4B600FDDBAF1010F8B600BDDB4
:109BD000B9F1010FCB6007DDB8F1010F0B6103DDB7
:109BE0000D2C4B6100DD8B61CCEB0101002DE2D12E
:109BF0007B080499039D059F013305FB017101EB6F
:109C000083031A4404F00104012C7FF4F2AE002E09
:109C10003FF4EFAE029B9900146801380B4B03EA46
:109C200004034EEA030313600A44F5D1E1E63A4621
:109C30003CE72A46E6E715464FEA0E4360E717463B
:109C400009E72A469BE700BF4C0000200000FFFF09
:109C50002DE9F04F5A4F8946154689B03A68C9EB4D
:109C6000030383460DF12008D16B1C46106ED1F81A
:109C700000A0661C0593F7F7A9FC3B680690186ED8
:109C8000F7F7A4FCB0F90630C2680146EB1AB0F948
:109C9000044048F8040D404602FB03F3C4EB0904FA
:109CA000183303EB4403CC18F7F7A4FC069B586960
:109CB000DB68029300286FD1129B9D425EDC1FFA85
:109CC0008AF304933B681B7CDB075DD5DBF810301F
:109CD0009B689847C4F3400380B2B34228BF334621
:109CE000032E98BF3346002B54D02288A446012B64
:109CF00082EA00022CF8022B0CD06288032B04F1BC
:109D0000040C82EA0002628004D1A28804F1060CED
:109D10004240A280B3422BD0C3EB060AAAF1020E46
:109D20004FEA5E0E0EF1010E4FEA4E020392059AC3
:109D3000934218D04FF0000904EB4303494660F307
:109D40000F09A3F1040860F31F4958F8042F0131EB
:109D500089EA02028E4543F8042BF6D8039A92450D
:109D60000CEB420C04D0BCF800305840ACF80000BA
:109D7000029B01351C44129BAB42A3DA06A8F7F7FD
:109D800039FC09B0BDE8F08F324604992046FAF755
:109D90000BF8EDE7A446BFE7F7F718FC129B49461E
:109DA0002A46C5EB030E334607900EF1010ECDF89F
:109DB00000E0F9F76BFA4046F7F71CFC7CE700BFC0
:109DC0004C0000202DE9F041044684B0002849D021
:109DD0000F46904600260CE0E3072FD4BDF80C3068
:109DE0000126019833443B80046A01A8F7F702FC7E
:109DF000E4B12046F7F7EAFB846A0190A207F3D5A5
:109E000002ADB8F1000F15D0014642462846F9F7D9
:109E100055FE29463846F9F7B1F80028DCD10198FB
:109E2000046A01A8F7F7E6FB002CE2D1304604B043
:109E3000BDE8F08103C885E80300EAE70198C4693A
:109E4000002CD1D02A4639462046FFF7BBFF002818
:109E5000204618BF0126F7F7E7FB046A002CF1D172
:109E60000198DDE70646E1E7F0B5044685B0002835
:109E70003ED00F46002602AD0CE0E30724D4BDF827
:109E80000C300126019833443B80046A01A8F7F79F
:109E9000B1FBB4B12046F7F799FB846A0190A207A1
:109EA000F3D503C885E8030029463846F9F766F874
:109EB0000028E2D10198046A01A8F7F79BFB002C67
:109EC000E8D1304605B0F0BD0198C469002CDCD063
:109ED0002A4639462046FFF775FF0028204618BF5E
:109EE0000126F7F7A1FB046A002CF1D10198E2E703
:109EF0000646E6E7002843D0F0B50E4685B0174683
:109F000004460BE0E3072AD4BDF808300198013B72
:109F1000B380046A01A8F7F76DFBD4B12046F7F7C8
:109F200055FB846A0190A207F3D502AD9FB10146AB
:109F30003A462846F9F7C2FD29463046F9F71EF899
:109F40000028DFD10198046A01A8F7F753FB002C21
:109F5000E4D105B0F0BD03C885E80300ECE7019843
:109F6000C469002CD5D020462A463146FFF7C2FFEF
:109F70002046F7F759FB046A002CF4D10198E2E778
:109F8000704700BF002863D0F0B50E4685B0174675
:109F900004462046F7F71AFB846A0190A20724D5ED
:109FA00002AD002F3FD001463A462846F9F786FD1C
:109FB00029463046F8F7E2FF68B3E30701981CD45E
:109FC000002F42D0B7F90220B0F902309342B8BF57
:109FD0001346B6F90220934229DDBDF90A30B6F9DD
:109FE00006209A4201DB013BF380046A01A8F7F7DF
:109FF00001FB002CCDD105B0F0BDC469002CF4D01C
:10A0000020462A463146FFF7BDFF2046F7F70CFBF6
:10A01000046A002CF4D10198046A01A8F7F7EAFA5F
:10A02000002CB6D1E7E703C885E80300C0E7BDF917
:10A030000E30B6F906209A42D7DD046A01A8F380F3
:10A04000F7F7D8FA002CA4D1D5E7B0F90230C0E771
:10A05000704700BF002850D070B584B00E4604464B
:10A0600002AD2046F7F7B2FA846A0190A20718D52C
:10A0700003C885E8030029463046F8F77FFF30B370
:10A08000E307019815D4B6F90230B0F902209A42DC
:10A0900025DDBDF90A30B6F906209A4201DB013B05
:10A0A000F380046A01A8F7F7A5FA002CD9D104B00F
:10A0B00070BDC469002CF4D020462A463146FFF713
:10A0C00061FF2046F7F7B0FA046A002CF4D101983A
:10A0D000046A01A8F7F78EFA002CC2D1E7E7BDF9B0
:10A0E0000E30B6F906209A42DBDD046A01A8F3803F
:10A0F000F7F780FA002CB4D1D9E7704770B58AB071
:10A100000C460646F7F762FA0AAB056D43F8280DD0
:10A110001846F7F76FFA0196032C05D8DFE804F02C
:10A12000140E08021723029301A8A8470AB070BDB5
:10A13000152301A80293A8470AB070BD162301A8F1
:10A140000293A8470AB070BD182301A80293A8473C
:10A150000AB070BD0078704701207047012902489D
:10A1600018BF0020704700BFB098010801290248BD
:10A1700018BF0020704700BFB09801080139282996
:10A180004AD8DFE801F01F1D1B1949174949154737
:10A19000454349413F4949493D3B3937494933499D
:10A1A00049494949492F2D2B27492349494921002C
:10A1B0001A4870471A4870471A4870471A4870473B
:10A1C0001A4870471A4870471A48704703689B68D6
:10A1D000186C704703689B68586C70471648704746
:10A1E0001648704703689B68D86B704703689B6884
:10A1F000586B7047124870471248704712487047B2
:10A20000124870471248704712487047124870470A
:10A21000124870471248704700207047F1B8000894
:10A2200095B90008CDA300081DB7000819B40008AF
:10A23000A1B1000831B90008D5B9000809840008A7
:10A2400011B50008A9B40008C1B4000859B4000849
:10A2500081AD00088DAD000891A9000895B80008EF
:10A260005DB900081629024818BF0020704700BFDA
:10A2700011250008013983680D2916D8DFE801F09F
:10A280000F11130D1515150B0709090707070020F6
:10A2900070470120704710207047D86970471869CF
:10A2A000704758697047986970474FF0FF307047A2
:10A2B000082901D110207047006810B1C3689B6A5B
:10A2C00018474FF0FF30704708B5FAF7FDF8B0F5C2
:10A2D000807F14D07F280ED83F2812D81F280CD892
:10A2E0000F2810D8072812D803280ED8012894BFA9
:10A2F0000020012008BD7F2008BD1F2008BDFF20D1
:10A3000008BD3F2008BD0F2008BD032008BD072061
:10A3100008BD00BF0F207047FF2070474FF6FF7049
:10A32000704700BFFF207047FF207047FF20704735
:10A33000FF2070474FF6FF70704700BF6FF07F40FF
:10A34000704700BF4FF0FF30704700BF4FF6FF70FF
:10A35000704700BF4FF6FF70704700BF4FF6FF70A9
:10A36000704700BF6FF07F40704700BF4FF0FF3075
:10A37000704700BF4FF0FF30704700BF8068036A2E
:10A38000006803FB021230F8120070470E4B1B6886
:10A3900070B5186E82B00E461446F7F717F90546E9
:10A3A00002A8B5F90620EB68A21AB5F9044040F8F6
:10A3B000045D03FB02F3341B183303EB4404F7F78B
:10A3C00019F9285B02B070BD4C000020F8B5846814
:10A3D0000F46164624B1636A3B60A36A3360F8BD3A
:10A3E00005465020F6F7CAFF2146A8605022F9F72B
:10A3F0009BFCAC68002CEED1F8BD00BF8368002048
:10A400009A69DB69013A0880013B48808A80CB80E9
:10A41000704700BF70B582B080680D46F7F7D6F878
:10A42000024602A8B2F904601489B2F906105389F1
:10A4300034442E800B44013C6980013BAC8040F8E1
:10A44000042DEB80F7F7D6F802B070BDF0B56FF0D1
:10A450004044561E104FC3F1000C1444DFF83CE09A
:10A4600003FB060001EB840100E0013E028860442A
:10A47000D30A02F01F04C2F345153A5DFC5C1EF8D6
:10A48000053004EB024202EB032242F07F4241F826
:10A490000429002EE9D1F0BD786A0108386A010864
:10A4A00070B40468013A18444FEA0445C4F30746FF
:10A4B00004F47F4405F47F0545EA060545F07F4531
:10A4C00044EA050441F8044BEBD170BC704700BF6F
:10A4D000F0B40468013A18446FEA0405C4F307476E
:10A4E0004FEA044604F47F4405F07F4506F47F06F6
:10A4F00045EA070545EA060544EA050441F8044B28
:10A50000E7D1F0BC704700BF2DE9F041174C6468FB
:10A510001CB1A446BDE8F04160478C466FF0404155
:10A520008046501E1144C3F1000E114E03FB008300
:10A53000104F0CEB810100E001381A88734402F0DF
:10A540001F044FEAD22CC2F34515345D16F80C20D7
:10A550007D5D04EB024202EB052242F07F4241F8AE
:10A5600004290028E8D1BDE8F08100BF0CC101201A
:10A57000786A0108386A010810B40468013A18447E
:10A5800044F07F4441F8044BF7D15DF8044B704729
:10A5900010B40468013A184484F07F4441F8044B35
:10A5A000F7D15DF8044B70472DE9F0476FF0404A52
:10A5B0000E4C02F1FF39C3F100089244676803FBB7
:10A5C00009050B4E01EB8A0A01E009F1FF392C78ED
:10A5D000454420462409B847325D40EA02604AF803
:10A5E0000409B9F1000FF0D1BDE8F0871067010848
:10A5F000986A01082DE9F8436FF040490D4C02F1CB
:10A60000FF385F429144666803FB080501EB890946
:10A6100001E008F1FF382C883D44E0B22404B04743
:10A6200004F07F44204349F80409B8F1000FF0D149
:10A63000BDE8F883304701082DE9F041174C646804
:10A640001CB1A446BDE8F04160478C466FF0404124
:10A650008046561E1144C3F1000E114803FB0683C9
:10A660000CEB810100E0013E1D88734405F01F04DE
:10A6700045F3C037C5F34412C5F38425045D825CFD
:10A6800004EB0764455D04EB022202EB054241F84E
:10A690000429002EE7D1BDE8F08100BFFCC00120F5
:10A6A000786A01082DE9F041174C64681CB1A44692
:10A6B000BDE8F04160478C466FF040418046501E37
:10A6C0001144C3F1000E114E03FB00830CEB81011A
:10A6D00000E001381A887344170B02F00F04C2F32C
:10A6E000032CC2F30315F75D345D16F80C2004EB60
:10A6F0000764755D04EB024202EB052241F8042970
:10A700000028E6D1BDE8F08104C10120986A010863
:10A7100010B40468013A184441F8044BF9D15DF8CB
:10A72000044B704738B50446F9F7CEFE0546F9F7F5
:10A7300001FF20B1A54202D950F8240038BD002005
:10A7400038BD00BFC0F3C003F0B400EA0301C0F39A
:10A750008006C0F3400500EA0607CA012840521AE5
:10A76000FC01C101E41B02EBC313081A04EBC6127F
:10A7700043F07F4300EBC51043EA0223F0BC43EAF9
:10A7800000407047054B10B504465B68C0B298475F
:10A79000034B24091B5D40EA036010BD10670108EC
:10A7A000986A0108030716D500F00102134B002A2E
:10A7B00006BF4FF07F434FF0FF226FF47F0210F08F
:10A7C000020F18BF134610F0040F0CBF00204FF407
:10A7D0007F001843704700F00701C0F3031001EB3E
:10A7E000C102490800EB001001EB820202EB0223D8
:10A7F00002EB032242EA0060704700BFFF0000FF47
:10A800003F2804D80F2826D84FF07F407047C0F368
:10A810008102C0F3011300F00301800902EB820200
:10A8200003EB830300EB800001EB810110B401EB2B
:10A83000011102EB021403EB031200EB0013E4B26C
:10A84000D2B2C8B21B0642EA04225DF8044B43EAC6
:10A8500000401043704700F00F03000903EB0312A0
:10A8600000EB800003EB021300EB001003EB03335B
:10A8700043EA0060704700BFA0F178030F2B32D984
:10A88000A0F10C03E72B2BD877281C4A88BFA0F136
:10A890001C031B4810B4A0FB0341A2FB0342890820
:10A8A000D208A0FB014001EB410402EB4202800808
:10A8B000A3EB44035DF8044B00EB400003EB4303C0
:10A8C000A1EB400103EB031301EB410102EB021288
:10A8D00001EB011102EB034202EB01231846704722
:10A8E00000231846704700EB0012064B00EB0210E5
:10A8F00000EB003003441846704700BF398EE33840
:10A90000ABAAAAAA080000F810B50446044BC0B2CE
:10A9100024045B68984704F07F44204310BD00BFC7
:10A92000304701080A4900F01F0240F3C0338A5C37
:10A9300010B4C0F3441402EB0363C0F384200C5D35
:10A94000085C03EB04235DF8044B03EB0040704705
:10A95000786A01080B49C0F30322C0F303338A5C11
:10A96000CB5C120410B400F00F0402EB0363C0F3DD
:10A9700003100C5D085C23445DF8044B03EB0020DE
:10A98000704700BF986A010880F07F40704700BFA1
:10A9900038B5846805464CB1A8690022012104F04D
:10A9A00059FF002C08BF40F0010038BD5020F6F7D9
:10A9B000E5FC2146A8605022F9F7B6F9AC68EBE750
:10A9C00038B5194D0446194A00F108012B69026790
:10A9D0001A1D03F108009B63DA631B64144A60616B
:10A9E0005B7C52F82300C3681B6B98472B690122DC
:10A9F000696808330F48E16163612276E276606638
:10AA0000FAF7CCFF6FF070430322A064236384F84D
:10AA100068206363E868F9F799FFA868F9F7D0FF41
:10AA2000054B064A1A6038BD3C000020A8C1012031
:10AA3000A4C3012088480108B8C301202867010881
:10AA4000F0B585B016460C460546F6F7EDFD836A6F
:10AA500001909A0705D5B4F90410B4F90020914289
:10AA600001DA05B0F0BDB4F90210B4F90620914244
:10AA7000F7DC40F601021A40012AF2D0284602AF64
:10AA8000F6F7A4FD0346214638461A460193F9F726
:10AA900015F8BDF90820BDF90C309A422EDCBDF93D
:10AAA0000A20BDF90E309A4228DC019A44F22003B4
:10AAB000916A0B403BBB184C0E4302F1080E2388F1
:10AAC00097E8030001338EE803002380966200E0DC
:10AAD0001D462846F6F7A8FD8369002BF8D10F4BD9
:10AAE0001A68954216D05B68AB420CBF0223002364
:10AAF0000B4A11680B431360F8F7DCFA01A8F6F76C
:10AB000079FD05B0F0BD02F108013A460846F8F7B4
:10AB1000F5F9F3E70123EBE7DCC701202CC801209E
:10AB2000D8C70120704700BF2DE9F04F0023B5B012
:10AB30001D9306901C931E931F93002800F01C8108
:10AB40008A4691464FF0030B0698F6F73FFD4A46BA
:10AB500051460A90F8F700FA0A984A4651460830DA
:10AB6000F8F7FAF90A9B0AA8DA691B6A14460592F3
:10AB70000793F6F73FFD002320932193229323931D
:10AB8000002C00F0E7800598F6F720FD4A46514674
:10AB90000B90F8F7E1F90B984A4651460830F8F760
:10ABA000DBF90B9B0BA8DA691B6A14460492089325
:10ABB000F6F720FD00232493259326932793002C5A
:10ABC00000F0B6800498F6F701FD4A4651460C9015
:10ABD000F8F7C2F90C984A4651460830F8F7BCF924
:10ABE0000C9B0CA8DA691B6A144602920993F6F7CB
:10ABF00001FD0023289329932A932B93002C00F026
:10AC0000858054464D460298F6F7E0FC2A462146D8
:10AC10000D90F8F7A1F90D982A4621460830F8F76B
:10AC20009BF90D9B0DA8D3F81C901B6A0393F6F7B4
:10AC3000E1FC00232C932D932E932F93B9F1000F59
:10AC400052D001934846F6F7C1FC2A4621460E90A1
:10AC5000F8F782F90E982A4621460830F8F77CF971
:10AC60000E9B0EA8DE691B6A0093F6F7C3FC019BDE
:10AC700030933193329333933EB31AAF3046F6F7A5
:10AC8000A5FC2A4621460F90F8F766F90F982A4648
:10AC900021460830F8F760F90F9B0FA8D3F81CA0E5
:10ACA000D3F82080F6F7A6FC214650462A46FFF747
:10ACB0003BFF3046464630A9CDF8C0B033971A94D2
:10ACC0001B95FCF79FFC002ED8D1484618ABDDF849
:10ACD00000902CA9CDF8B0B02F9318941995FCF7DB
:10ACE00091FCB9F1000FADD1039B28A902981E4633
:10ACF000029316ABCDF8A0B016942B931795FCF7E2
:10AD000081FC002E7FF47FAFA246A946099B24A9AF
:10AD100004981C46049314ABCDF890B0CDF850A025
:10AD20002793CDF85490FCF76DFC002C7FF44AAFCC
:10AD3000089B20A905981C46059312ABCDF880B05E
:10AD4000CDF848A02393CDF84C90FCF75BFC002C89
:10AD50007FF419AF032306981CA9CDF840A01C93DB
:10AD6000079BCDF844901C46069310AB1F93FCF74D
:10AD700049FC002C7FF4E8AE35B0BDE8F08F00BF91
:10AD800080690022062104F065BD00BF80690022B1
:10AD9000052104F05FBD00BF70B50024094D0A4EC7
:10ADA0007422214628463368EC6798473368214669
:10ADB0000822064898470649064A074B0D61147059
:10ADC0001C6070BD28C10120A4000020A4C3012084
:10ADD0003C000020A0C3012094C301202DE9F041D4
:10ADE0000024184E184D1822346021462C60174F4D
:10ADF000174E184D184B3C60346003F10C002C606A
:10AE0000164F174D174E3C60346074607C602E689E
:10AE10001C705C609C60B047134B214613481022A5
:10AE20001C6004605C6012482B6898472B682146C0
:10AE30001022104898472B68214610220E48BDE882
:10AE4000F041184748C80120E8C701203CC801204C
:10AE5000D0C70120C8C70120F8C1012034C8012093
:10AE6000A400002024C801202CC8012044C80120CF
:10AE700004C80120F4C7012014C8012010B5044CF7
:10AE80002068F6F755FA0023024A2360136010BDCC
:10AE9000C4C30120A8C201202DE9F04F93B0814620
:10AEA000F6F794FBC26D08909768426B046D0792A9
:10AEB000F5F72AFF019012A850F8283DB3F9586021
:10AEC000F6F798FB4846FAF7A9FD82464846FAF796
:10AED000BBFD3B6801218046484698473B680321FB
:10AEE0008346484698473B680021054648469847B0
:10AEF0003B68009002214846984707460020CDF85D
:10AF00002490FBF751FF002852D0C7EB0807C5EB90
:10AF10000A059DE80A00013F013D0B440AF1FF319B
:10AF20000DF1340A1E440293013B0191013E08F1E8
:10AF3000FF3104930FABBE4203910DF1240805933A
:10AF400039DA069600272E465D46DDF81CB0019BD7
:10AF500040460E970F93039B0D9710930B230A9374
:10AF6000A047029B0D9540460E93069B0F961093AB
:10AF70000E230A93A047009A05230D950E92404692
:10AF8000049A0A9310920F96A047059A5146484694
:10AF9000F5F7F2FE0220F8F783F85846F8F748F87C
:10AFA000122340460A93A047FBF790FD0028CED11C
:10AFB00013B0BDE8F08F069700262F465D46DDF8FA
:10AFC0001CB0019B40460E960F93039B0D96109369
:10AFD0000B230A93A047029B0D9540460E93069BB8
:10AFE0000F9710930E230A93A047009A05230D95FF
:10AFF0000E924046049A0A9310920F97A047059A22
:10B0000051464846F5F7B8FE0220F8F749F8584689
:10B01000F8F70EF8122340460A93A047FBF756FDB7
:10B020000028CED113B0BDE8F08F00BF2DE9F0436A
:10B0300093B00546F6F7CAFA90F86820416B0DF117
:10B04000080802F00102076E009004AC0692D0F8E6
:10B050004C90FAF771F806466846F6F7CBFA06AB5D
:10B06000284641461193FAF789FCBDF908300B22B6
:10B07000BDF90A1009A80A920D93BDF90C20BDF97B
:10B080000E300E9110930F920995B847012298E85F
:10B09000030084E8030021462046F8F7B5FD20466A
:10B0A000FBF7FEFA0522069B09950A92002B53D066
:10B0B000BDF90A30BDF90810F2180E93BDF90C3035
:10B0C0000D9110920F93002309A80793B847069B90
:10B0D000002B4DD0BDF90A30BDF908101E44BDF952
:10B0E0000C20BDF90E3001360D910F920E96109383
:10B0F000012309A80793B8472846F6F767FA009096
:10B10000F9F7CEFF0190002841D048461226F7F704
:10B110008FFF41469DE80500F9F7C6FF6846F6F740
:10B1200069FABDF90A10BDF90C2009A8BDF90E3065
:10B13000BDF908400995019D0E910F921093089555
:10B140000A960D94B84701A8F6F754FA0020FBF7C9
:10B15000A7FA13B0BDE8F083BDF90830BDF90A10B5
:10B16000F2180D93BDF90E300E910F921093AAE7CD
:10B17000BDF90820BDF90A301644BDF90C200E9324
:10B180000136BDF90E300F920D961093B0E7684668
:10B19000F6F730FA0020FBF783FA13B0BDE8F0832E
:10B1A0005B1A2DE9F04F5E1E806885B003F1010E39
:10B1B000D0F820905B007608D0F800C009FB021799
:10B1C0000F99013603934FEA4E030CEB47050193A9
:10B1D0004FEA460A4FEA49034FEA860802930B1DDD
:10B1E000281DAB428CBF00230123814228BF43F0BE
:10B1F00001036BB341EA0503BEF10C0FC3F3010376
:10B2000094BF00200120002B18BF002000B32C1F8A
:10B21000084600239346013354F8042F9E4240F819
:10B22000042BF8D8D6455A4607EB0A0303D03CF85E
:10B23000133021F80830019B01320E984F44194415
:10B24000029B1D44531E9842C9DC05B0BDE8F08F37
:10B2500003988B1E01EB000B284630F8024B23F8B5
:10B26000024F5B45F9D1E6E72DE9F04FDFF8A48105
:10B2700083B08246D8F80C70C146D8F83830013F08
:10B280005E681F441D6835B133449F4206D993E878
:10B290006000002DF8D199198F4203D8012003B026
:10B2A000BDE8F08F9D594C6855B1D8F8342012F89C
:10B2B000350002EBC502012805D026460B46E2E721
:10B2C00026460B46E7E7D9F8B800D9F82CB0B042CB
:10B2D00073D9D9F8B000B04275D9D9F8A800B042F6
:10B2E00074D9D9F8A000B0426AD9D9F89800B04210
:10B2F00078D9D9F8900086426ED2D8F88800864274
:10B300006DD2D9F88000864263D2D9F8780086429F
:10B3100074D2D9F87000864273D2D9F86800864298
:10B3200066D2D9F86000864265D2D9F858008642C4
:10B330005BD2D9F85000864269D2D9F848008642DB
:10B340001FD2D9F8400086425ED25360184622468A
:10B35000F4F787FF5D4503460BD01C443046214679
:10B36000FCF720FABAF1000F01D0504507D223466E
:10B370008BE7D8F83420921BC8F83420EDE7002082
:10B380008DE701200190D8F80000D3F808E0801B79
:10B39000D3F80CC0C8F80000BEF1000F01D0CEF801
:10B3A00004C0BCF1000F02D0CCF800E0CDE701985A
:10B3B00008EBC000C0F844E0C7E70F200190E2E7C7
:10B3C0000C200190DFE70E200190DCE70D200190BA
:10B3D000D9E708200190D6E70A200190D3E7092099
:10B3E0000190D0E70B200190CDE703200190CAE740
:10B3F00005200190C7E704200190C4E707200190D1
:10B40000C1E706200190BEE700200190BBE70220C3
:10B410000190B8E7D4C2012070B5002382B08468DF
:10B4200005460E4601934CB102AA0A21E662A869BC
:10B4300042F8046D04F00EFA02B070BD5020F5F72A
:10B440009DFF2146A8605022F8F76EFCAC68002CE6
:10B45000EAD102B070BD00BF00B583B0806902AA16
:10B4600042F8041D0B2104F0F5F903B05DF804FB6C
:10B4700038B50B4C2268516B81420DD0557C09497F
:10B48000506351F825301B691B68984723681A7C64
:10B49000520702D49B6B186038BDDB6B186038BD57
:10B4A0004C000020A4C3012000B583B08069009146
:10B4B0000D2101926A4604F0CDF903B05DF804FB5A
:10B4C00000B583B0806902AA42F8041D0C2104F083
:10B4D000C1F903B05DF804FB38B50B4C2268116B61
:10B4E00081420DD0557C0949106351F825301B6904
:10B4F0001B68984723681A7C520702D4DB6B1860DC
:10B5000038BD9B6B186038BD4C000020A4C30120DF
:10B51000F8B585680C46174625B3E31E222B14D8D0
:10B52000DFE803F01613131313131313131313137A
:10B5300013131313131313131313181313131313D6
:10B54000131A1C131E121400EF64F8BD2F64F8BD0B
:10B55000AF64F8BD6F63F8BDEF63F8BDAF63F8BDCE
:10B560006F64F8BD06465020F5F708FF2946B06025
:10B570005022F8F7D9FBB568002DCED1F8BD00BF39
:10B580000A4B1B681A7C82EA000149070AD5D96B6D
:10B5900070B49C6B0E68256826600D6018741046A8
:10B5A00070BC704718741046704700BF4C000020F4
:10B5B0002DE9F043002383B0044680690F4690468E
:10B5C00001930093A668F8F75FFF0546A069F8F7B6
:10B5D0006BFF8146A069F8F7D7FF800040EA490079
:10B5E0002843072810D8DFE800F0171A222A363A35
:10B5F0004204F2697069B3693169121A591AC8EBC9
:10B600000202CF1B8DE884006A460321A06904F082
:10B6100021F903B0BDE8F0838DE88001F4E7B36958
:10B620003169CDF80480591ACF1B0097ECE7F36914
:10B63000726900979A1AC8EB02020192E4E7B169B5
:10B640003069F3697269091A9A1ACF1BC8EB0202B2
:10B6500000970192D8E7CDF800800197D4E7F3690D
:10B66000726901979A1AC8EB02020092CCE7B3699B
:10B670003169CDF80080591ACF1B0197C4E700BF8C
:10B68000006810B1C3681B6A1847704710B484681B
:10B69000206A246800FB021224F812305DF8044B83
:10B6A000704700BF2DE9F0431B4C994683B00F460D
:10B6B0002368904602AE186EF5F788FF2368009065
:10B6C000186EF5F783FFB0F90620C1680546C2EB96
:10B6D0000802B0F9044046F8040D304601FB02F2BE
:10B6E0003C1B183202EB4404F5F784FF009B25F85D
:10B6F0000490586950B1F5F769FF0190836842469C
:10B7000039461B6898473046F5F774FF6846F5F7E9
:10B7100071FF03B0BDE8F0834C0000202DE9F04F2D
:10B72000002389B0846805460F46164603930293AA
:10B730000493059306930793002C46D0A36C33B172
:10B7400032463946A869984709B0BDE8F08F67626C
:10B75000A662F8F73FFF8146F8F772FFEB68824672
:10B76000082128469B6AD4F810B0D4F81480984772
:10B77000C21D48BF00F10E02002F4FEAE2020692FE
:10B780004BDB07EB0B03029799452CDBCDF810B090
:10B79000002E4CDB06EB080303969A4539DB414645
:10B7A000CDF81480049B002B21DD00291FDD029BB6
:10B7B00099451CDDB2451ADD236B002B44D002AA4B
:10B7C000A869082104F046F8BEE75020F5F7D6FD39
:10B7D0002146A8605022F8F7A7FAAC68002CADD13A
:10B7E00009B0BDE8F08FC7EB09070497D0E7236BDA
:10B7F000012BA9D10023AC680193002C31D0002388
:10B8000008AAA8690921236342F81C3D04F022F824
:10B810009AE7C6EB0A010591C4E7079B07EB0B010A
:10B8200002FB17370023049107970293B0E702FB4E
:10B8300006F2079B06EB080100200BFB1233059173
:10B84000064607930390ADE7AC680193B4B10123BA
:10B8500008AAA8690921236342F81C3D03F0FAFFF6
:10B86000ADE75020F5F78AFD2146A8605022F8F791
:10B870005BFAAC68002C3FF467AFC0E75020F5F7E7
:10B880007DFD2146A8605022F8F74EFAAC68002CE6
:10B8900095D0DCE7F0B5002383B0846805460F46F9
:10B8A000164601930093ACB1236A53B16A4607214F
:10B8B00027616661A8690097019603F0CBFF03B08A
:10B8C000F0BDA869F8F760FE00280CBF3846304686
:10B8D0002062EBE75020F5F751FD2146A860502289
:10B8E000F8F722FAAC68002CDED103B0F0BD00BF3F
:10B8F00070B5002382B0846806460D46019354B1AA
:10B9000002AA022125606560B06942F8045D03F077
:10B91000A1FF02B070BD5020F5F730FD2146B060A8
:10B920005022F8F701FAB468002CE9D102B070BDDA
:10B9300070B584680D461CB12B68A560236070BD8E
:10B9400006465020F5F71AFD2146B0605022F8F760
:10B95000EBF9B468002CEFD170BD00BFF8B5846876
:10B9600005460E4617464CB1A869F8F70DFEA661CC
:10B97000E76108B92662F8BD2762F8BD5020F5F7E7
:10B98000FDFC2146A8605022F8F7CEF9AC68002CE7
:10B99000EAD1F8BD70B5002382B0846805460E4632
:10B9A00001934CB102AA09212663A86942F8046DEB
:10B9B00003F050FF02B070BD5020F5F7DFFC2146C8
:10B9C000A8605022F8F7B0F9AC68002CEAD102B0B8
:10B9D00070BD00BF70B5002382B0856804460E4676
:10B9E000019345B102AA0E21A06942F8046D03F04B
:10B9F00031FF02B070BD5020F5F7C0FC2946A060B1
:10BA00005022F8F791F9A368002BEBD102B070BD7A
:10BA1000F8B5144682680F460646136A0069116835
:10BA200003FB0473826831F813509047B368684091
:10BA3000196A1B6801FB047423F81400F8BD00BFE9
:10BA40002DE9F0431E4C83B081460F462368904693
:10BA500002AE186EF5F7BAFD23680090186EF5F780
:10BA6000B5FDB0F90630C2680546C3EB0803B0F96E
:10BA7000044046F8040D304602FB03F33C1B183328
:10BA800003EB4404F5F7B6FDD9F810309B689847EE
:10BA90002B5B009A434050692B5350B1F5F796FD4C
:10BAA00001908368424639461B6898473046F5F74F
:10BAB000A1FD6846F5F79EFD03B0BDE8F08300BF29
:10BAC0004C00002003680E2B34D00F2B10B5044619
:10BAD00016D1264A436811688B4245D0526893427A
:10BAE00014BF4FF0FF33012321496FF0704251F82A
:10BAF000230090421BD0F7F797FAF5F73DFE236835
:10BB00000E3B60681A2B12D8DFE803F019111111EF
:10BB100011110E11111E111111111111111111110B
:10BB20002011111111112400E168FAF779FF0023A7
:10BB3000E36010BDC3685A68012A12D070472146DD
:10BB4000BDE81040FAF738BCE06010BD6FF07043FC
:10BB5000E36010BD0028ECD00021BDE81040FAF7EA
:10BB60004DB81868F7F7AEBA0023BDE72CC801201E
:10BB7000ECC70120FAF7ACB82DE9F0413E4E84B095
:10BB80003E4F31684B7C083157F82300C3681B6B6C
:10BB90009847F8F759FE044600285CD10546284628
:10BBA0000135F5F73DFF0C2103460DEB0100039332
:10BBB00043B1DB685B6A9847034600285AD0039874
:10BBC00098470443022DEAD1002C44D1F8F75CFEDB
:10BBD0002B4A6FF0704312689A4238D00124294DE5
:10BBE0002046F5F71DFF03462046013C039363B34F
:10BBF000F7F700FA2B6804209B689847306843F6F3
:10BC0000FF7CB0F90C30B0F90810634521EAE1710E
:10BC1000A8BF63468B420ADBB0F90EE0B0F90A20F8
:10BC2000E64522EAE272A8BFE646964517DA2B6897
:10BC300000209B689847039B0E2103A8DB685B6A82
:10BC40009847034608B103989847631CC8D1002061
:10BC500004B0BDE8F081204604B0BDE8F081407C2E
:10BC600057F82000D0F80CC0CDF800E0DCF81080C8
:10BC7000C047DCE70120EFE74C000020A4C301200F
:10BC8000480000205000002010B501246103034843
:10BC900000F0DEFF00B10024204610BD0008024085
:10BCA00010B504462146024802F01EFE10BD0000F9
:10BCB000E005002010B5044802F029FE042801D058
:10BCC000012010BD0020FCE7E005002010B5002495
:10BCD00000F014F8012801D0022010BD064802F03F
:10BCE0002AFE044634B94FF40061034802F0B0FC68
:10BCF00000B101242046F0E7E005002008B501204E
:10BD00000090FFF7C1FF08B9002000909DF80000E7
:10BD100008BD00002DE9F84304460D4616461F46AF
:10BD20004FF0000833462A4621460548009702F0A6
:10BD3000BFFE08B14FF001084046BDE8F88300009F
:10BD4000E00500202DE9F84304460D4616461F463F
:10BD50004FF0000833462A4621460548009702F076
:10BD6000CCFF08B14FF001084046BDE8F883000061
:10BD7000E005002000BFFEE77CB5F9F70FFE0546A1
:10BD8000002000902B46044A022101900348F5F759
:10BD90002BFD044620467CBDBB1E01082C42010839
:10BDA0002DE9F05F07460C4615461E46DDE90B9A65
:10BDB000DDF8288005F074FF01201049087038462E
:10BDC00000F00AFA83464FF400700D4908600846F7
:10BDD000C460C563C0F81090C0F840A0C0F81CB0A3
:10BDE000404666F31F4048640846006840F0010082
:10BDF000086005F055FFBDE8F09F0000140000202A
:10BE000000B002402DE9F05F81460D4614461E4603
:10BE1000DDE90AAB0C9F05F043FF012012490870D1
:10BE2000484600F0D9F98046104811490860084694
:10BE3000C560C4634461C0F810B007648761002026
:10BE4000C8610846C0F82480C0F83480504666F3C4
:10BE50001F4048640846006840F00100086005F093
:10BE60001FFFBDE8F09F0000140000200002020048
:10BE700000B002402DE9F04704460D4616461F4625
:10BE8000DDE9099ADDF8208005F00AFF01200E495E
:10BE900008704FF481300D4908600846C460C563DE
:10BEA000066107640520C8610846C0F834804AEA84
:10BEB000094048640846006840F00100086005F049
:10BEC000EFFEBDE8F08700001400002000B0024043
:10BED0002DE9F04707460C4615461E46DDE9088960
:10BEE00005F0DEFE012010490870384600F074F9B4
:10BEF00082460E480E4908600846C0F83890C46370
:10BF0000C0F84080C0F834A0304665F31F40486454
:10BF10000846006840F2012108430549086005F021
:10BF2000BFFEBDE8F08700001400002000020300FF
:10BF300000B0024010B5024800F000FB10BD000048
:10BF4000CCBF012010B5084808490861084600F038
:10BF5000A8FB08B100F00DF80121044800F088FAB0
:10BF600008B100F006F810BDCD150108CCBF0120C6
:10BF70007047704730B504460D46002229462046DA
:10BF800000F002F830BD0000F0B5034601250024A2
:10BF90001148407A01281CDA00200F4E767A0E4FA5
:10BFA000B8553846467A001D40F82630001F467ABC
:10BFB000083082553E46707A461C7E72044604F173
:10BFC000300008703A2048702F2088700020C87018
:10BFD00000252846F0BD0000F0C0012030B5024623
:10BFE000002300240868012816D013686FF30E039D
:10BFF000D1E901052843CD6828430D6928434D69DF
:10C0000028438D692843CD6928430D6A28434D6A2A
:10C0100028430343136019E0136823F4F843D1E97C
:10C02000070528434D6A2843034354686FF30E0401
:10C03000D1E901052843CD6828430D6928434D699E
:10C0400028438D692843044313605460002030BDA9
:10C050000246506940EA410050610020704718B51F
:10C06000034600200090D1E9000420438C68641E40
:10C0700040EA4410CC6840EA4420009000981861DF
:10C08000002018BD70B50346154600220024012D7E
:10C090001FD09A6802F070420868401E4E68761EF3
:10C0A00040EA06168868401E46EA0026C868401E18
:10C0B00046EA0036088A401E46EA0046888A401E44
:10C0C00046EA0056087E401E46EA006002439A6037
:10C0D00022E09A6811480240C868401E0603888A18
:10C0E000401E46EA00500243DC6804F070440868D1
:10C0F000401E4E68761E40EA06168868401E46EAD4
:10C100000026088A401E46EA0046087E401E46EA8F
:10C11000006004439A60DC60002070BDFF0F0FFFD9
:10C1200010B503F0AFFD04F079F904F003F903F062
:10C130007BFDFFF707FF10BD10B5F6F789F810BDBE
:10C1400070B5FFF719FEF5F717FB4FF0FF30F6F764
:10C150006DFF0A48F6F76CFFF8F75CFAA0F11404DB
:10C16000F8F722FAA0F1960504EBD470421005EB23
:10C17000D570411002A0F5F7FFFC70BDE048010842
:10C1800048656C6C6F20776F726C64210000000052
:10C1900010B54FF4DC310248F5F7A8F810BD0000E7
:10C1A00024070020704700000146C1EBC100094A86
:10C1B00002EB8000C068C1EBC102064B03EB8202B8
:10C1C00012695043C1EBC10203EB82025269504332
:10C1D0007047000050C00120014609B1002070479F
:10C1E0004B4850F821004B4A904201D1012000E019
:10C1F0000020474A52F82120474B9A4201D10122A0
:10C2000000E000221043424A52F82120434B9A4258
:10C2100001D1012200E00022104308B10020DEE736
:10C220003B4850F821003E4A904201D1012000E0F5
:10C230000020374A52F821203A4B9A4201D101227C
:10C2400000E00022104308B10120C8E7304850F850
:10C250002100354A904201D1012000E000202C4A03
:10C2600052F82120314B9A4201D1012200E00022F4
:10C27000104308B10220B2E7254850F821002C4AAB
:10C28000904201D10320AAE7214850F82100294A11
:10C29000904201D10420A2E71D4850F82100264A0F
:10C2A000904201D1012000E00020194A52F82120DB
:10C2B000224B9A4201D1012200E000221043144A8D
:10C2C00052F821201E4B9A4201D1012200E00022A7
:10C2D00010430F4A52F821201A4B9A4201D10122F1
:10C2E00000E00022104308B1052078E7084850F824
:10C2F0002100154A904201D1062070E7044850F809
:10C300002100124A904201D1072068E700BFFEE7F2
:10C3100018000020A847010838480108F047010824
:10C3200020480108D8470108C0470108084801080B
:10C33000784701089047010800470108184701089D
:10C340003047010848470108E846010860470108EE
:10C3500070B503460C4600201F2100BF0D1EA1F141
:10C36000010106D001F01F060125B5402540002D32
:10C37000F4D08AB1082A0BD0102A05D0182A0CD183
:10C38000072900D301200AE0082900D3012006E094
:10C39000102900D3012002E001E0012000BF00BF0E
:10C3A00040B91D686C611D68AD6825F0180515431E
:10C3B0001E68B56070BD000010B504460CB90120C0
:10C3C00010BD607F20B900202077204600F036F8AD
:10C3D00002206077207948B91748216848612068B1
:10C3E000806820F018002168886007E02046D4E9C2
:10C3F0000212FFF7ADFF08B10120E1E7607920B933
:10C400004FF0FF302168086102E02168206908616F
:10C410002068806820F060006169084321688860B6
:10C420002068806820F08000A16908432168886046
:10C43000012060770020C3E7B71DC10408B5094A91
:10C44000016891420DD100BF0749096841F480514C
:10C45000054A11601146096801F48051009100BF3E
:10C4600000BF08BD00300240303802407047000075
:10C4700070B502460C465068B0F5403F02D0506897
:10C4800000B100BF00BF92F83800012801D102209E
:10C4900070BD012082F8380000BF022082F8390008
:10C4A00002F1180000EB04110E89486840EA0643C7
:10C4B000214D48680A2802D04868092804D1C86874
:10C4C00000F07F40034302E0087B43EA0063A4B925
:10C4D0001068406AA84318431668706208681668B6
:10C4E000B06148680A2802D04868092819D1C8688C
:10C4F00020F07F401668B06213E01068C069A8435E
:10C5000018431668F06108681668306148680A28A0
:10C5100002D04868092804D1C86820F07F40166816
:10C520003062012082F8390000BF002082F8380014
:10C5300000BF00BFACE700000F0003FF70B504466A
:10C54000206845682068066805F00100E0B106F43F
:10C550008070C8B12068006820F48070216808608D
:10C56000E06B40F00100E063012021688860042056
:10C5700084F8390000BF002084F8380000BF6069EB
:10C5800010B120466169884705F02000E0B106F44B
:10C590000050C8B12068006820F40050216808608D
:10C5A000202021688860E06B40F00200E0630420F6
:10C5B00084F8390000BF002084F8380000BF6069AB
:10C5C00010B120466169884705F00800E0B106F423
:10C5D0000060C8B12068006820F40060216808602D
:10C5E000082021688860E06B40F00400E0630420CC
:10C5F00084F8390000BF002084F8380000BF60696B
:10C6000010B120466169884705F0040070B106F456
:10C61000806058B12068006820F48060216808605C
:10C62000042021688860204600F06BF805F00200C5
:10C63000D0B106F40070B8B12068006820F4007032
:10C6400021680860022021688860E06BE0630120B7
:10C6500084F8390000BF002084F8380000BF20694A
:10C6600010B120462169884705F01000C0B106F4DA
:10C670008050A8B12068006820F4805021680860CC
:10C68000102021688860E06BE063012084F83900A5
:10C6900000BF002084F8380000BF2046FFF7E6FE08
:10C6A00070BD10B504460CB9012010BD94F83900D6
:10C6B00028B9002084F83800204600F037F802201E
:10C6C00084F839002068006820F44030616808432D
:10C6D000216808602068406B20F00700A1680843CB
:10C6E000216848632068006C6FF30D00E16808431F
:10C6F000216808640020E063012084F839000020EC
:10C70000D3E7704710B5044606492068884208D12F
:10C710000548006820F40000034908605A2000F032
:10C7200043FF10BD00B002403038024038B5044627
:10C730000D492068884215D100BF0C48006840F4BC
:10C7400000000A4908600846006800F400000090F4
:10C7500000BF00BF002211465A2000F057FF5A20A8
:10C7600000F044FF38BD000000B002403038024005
:10C7700070B5044600F07AFA06462546681C10B1EA
:10C7800004480078054400BF00F070FA801BA842FE
:10C79000FAD370BD240000200348006840F4806094
:10C7A00001490860704700000038014000B587B0BB
:10C7B000142102A8F3F77DFD3748006808B107B0DF
:10C7C00000BD01203449086000BF3448006840F0D3
:10C7D0000100324908600846006800F0010001903D
:10C7E00000BF00BF4FF6837002900220039000202C
:10C7F0000490032005900C20069002A9284800F020
:10C800001BF948F23310029002200390002004909C
:10C81000032005900C20069002A9224800F00CF994
:10C820004CF2037002900220039000200490032039
:10C8300005900C20069002A91B4800F0FDF84FF669
:10C840003F000290022003900020049003200590F6
:10C850000C20069002A9154800F0EEF8282002905E
:10C860000220039000200490032005900C200690E5
:10C8700002A90F4800F0E0F808200290022003907F
:10C8800000200490032005900C20069002A909487E
:10C8900000F0D2F800BF92E70C00002038380240C8
:10C8A0000010024000180240000C02400014024038
:10C8B000001C024000080240F0B50C460025002292
:10C8C000002300219CE0012606FA01F504EA050296
:10C8D000AA427CD14C4E8F0856F827308E07370F6E
:10C8E0000F26BE403340494EB04201D100262DE014
:10C8F000474EB04201D1012628E0464EB04201D158
:10C90000022623E0444EB04201D103261EE0434EEE
:10C91000B04201D1042619E0414EB04201D10526B2
:10C9200014E0404EB04201D106260FE03E4EB04228
:10C9300001D107260AE03D4EB04201D1082605E0AC
:10C940003B4EB04201D1092600E00A268F073F0F77
:10C95000BE409E4222D18E07370F0F2606FA07F3FC
:10C96000294E8F0856F827609E43274F4FEA910CB7
:10C9700047F82C602F4E366896432E4F3E603E1D82
:10C98000366896433F1D3E603E1D366896433F1D08
:10C990003E603E1D366896433F1D3E6006684FEA86
:10C9A000410C032707FA0CF7BE430660CF0800F1DD
:10C9B000200656F827604F074FEAD76C0F2707FA73
:10C9C0000CF7BE434FEAD10C00F1200700E016E05F
:10C9D00047F82C6086684FEA410C032707FA0CF7EA
:10C9E000BE438660466801278F40BE434660C668E6
:10C9F0004FEA410C032707FA0CF7BE43C660491CF7
:10CA00001029FFF460AFF0BD08380140000002407B
:10CA10000004024000080240000C024000100240E6
:10CA20000014024000180240001C02400020024096
:10CA300000240240003C0140F8B502460B460021AC
:10CA400000250024002000BFE4E0012606FA01F5DD
:10CA50001E6806EA0504AC4271D15E68022E02D05F
:10CA60005E68122E13D1CF0802F1200656F8270077
:10CA70004E07F70E0F26BE40B0434F07FF0E1E694C
:10CA8000BE403043CF0802F1200646F82700106868
:10CA90004F000326BE40B0431E7906F003064F0048
:10CAA000BE40304310605E68012E08D05E68022EE2
:10CAB00005D05E68112E02D05E68122E13D19068E8
:10CAC0004F000326BE40B0434F00DE68BE403043F7
:10CAD0009060506801268E40B0431E79C6F3001660
:10CAE0008E4030435060D0684F000326BE40B043B4
:10CAF0004F009E68BE403043D0605E6806F08056AE
:10CB0000B6F1805FA8D100BF444E366846F4804637
:10CB1000424F3E603E46366806F48046009600BFAF
:10CB200000BF3F4E8F0856F827008E07370F0F269D
:10CB3000BE40B0433B4EB24202D100262EE068E038
:10CB4000394EB24201D1012628E0384EB24201D11D
:10CB5000022623E0364EB24201D103261EE0354EB6
:10CB6000B24201D1042619E0334EB24201D105266A
:10CB700014E0324EB24201D106260FE0304EB242EE
:10CB800001D107260AE02F4EB24201D1082605E066
:10CB90002D4EB24201D1092600E00A268F073F0F31
:10CBA000BE4030431E4E8F0846F82700274E30689F
:10CBB000A0435E6806F48036B6F5803F00D120437E
:10CBC000224E3060361D3068A0435E6806F40036A1
:10CBD000B6F5003F00D120431C4E361D3060361D97
:10CBE0003068A0435E6806F48016B6F5801F00D159
:10CBF0002043164E08363060361D3068A0435E680C
:10CC000006F40016B6F5001F00D120430F4E0C3677
:10CC10003060491C1029FFF418AFF8BD44380240B9
:10CC200008380140000002400004024000080240B1
:10CC3000000C0240001002400014024000180240A4
:10CC4000001C02400020024000240240003C014041
:10CC5000024613690B400BB1012000E00020704731
:10CC60000AB1816101E00B048361704701480068EB
:10CC7000704700001C000020034800680349097841
:10CC800008440149086070471C000020240000206F
:10CC900010B5032000F0F8FC002000F005F800F0CB
:10CCA00063FC002010BD000070B588B0044600256C
:10CCB000002600222146362000F0A8FC362000F095
:10CCC00095FC00BF1648006840F010001449086049
:10CCD0000846006800F01000019000BF00BF02A9E4
:10CCE00003A801F065F901F08BF945000D48B5FB8B
:10CCF000F0F0461E0C480D49086040F2E7310B4841
:10CD0000C160466000210161816002F0FAF820B93B
:10CD1000064802F011F908B070BD0120FBE70000E1
:10CD20004038024040420F0000100040E40600205E
:10CD3000F0B504460D461646294600BF94F8A000FB
:10CD4000012801D10220F0BD012084F8A00000BF1D
:10CD5000022084F8A100002236E003EB830000EB00
:10CD6000C30C04F1380000EB8C000069062813D1D5
:10CD700008784FF0100C0CFB022C40EA0C60B1F864
:10CD800000C00CF47F4C40EA0C00D1F800C00CF459
:10CD90007F0C40EA0C070EE0087840EA0260B1F828
:10CDA00000C00CF47F4C40EA0C00D1F800C00CF439
:10CDB0007F0C40EA0C07091D206884304FF0800C7E
:10CDC0000CFB03000764521CB242C6D3012084F856
:10CDD000A10000BF002084F8A00000BF00BFB2E7A0
:10CDE00030B5034600BF93F8A000012801D102200E
:10CDF00030BD012083F8A00000BF022083F8A1000D
:10CE000018688430802404FB0200C06800F07F446E
:10CE100018688430802505FB0200C46018688430DF
:10CE2000802404FB0200C16001201C68606283F85A
:10CE3000A10000BF002083F8A00000BF00BFD7E71B
:10CE400070B504460E46154600BF94F8A0000128B0
:10CE500001D1022070BD012084F8A00000BF022093
:10CE600084F8A10005EB850101EBC50204F138014E
:10CE700001EB820034223146F3F7F3F92A463146BA
:10CE8000204602F0AFFD01202168486284F8A1002D
:10CE900000BF002084F8A00000BF00BFDAE710B593
:10CEA0000446204600F0B0F90020C4F8A40084F83D
:10CEB000A10000BF84F8A00000BF10BD10B502465D
:10CEC00000BF92F8A000012801D1022010BD01206E
:10CED00082F8A00000BF022082F8A1001068843010
:10CEE000CB01C05820F0020310688430CC010351FC
:10CEF00001201368586282F8A10000BF002082F868
:10CF0000A00000BF00BFE1E710B5024600BF92F8E5
:10CF1000A000012801D1022010BD012082F8A0004C
:10CF200000BF022082F8A10010688430CB01C058F5
:10CF300040F0020310688430CC01035101201368D3
:10CF4000586282F8A10000BF002082F8A00000BF54
:10CF500000BFE1E7704770B504462068856B206824
:10CF6000466B05F00400E0B106F00400C8B120688B
:10CF7000406B20F004002168486304202168C863E6
:10CF8000D4F8A40040F00100C4F8A400042084F800
:10CF9000A10000BF002084F8A00000BF2046FFF7DA
:10CFA000D9FF05F00200E0B106F00200C8B1206828
:10CFB000406B20F002002168486302202168C863AA
:10CFC000D4F8A40040F00200C4F8A400042084F8BF
:10CFD000A10000BF002084F8A00000BF2046FFF79A
:10CFE000B9FF05F00100A8B106F0010090B120687A
:10CFF000406B20F001002168486301202168C8636C
:10D0000084F8A10000BF002084F8A00000BF2046E3
:10D0100000F0A8F805F00800B0B106F0080098B1DB
:10D020002068406B20F008002168486308202168D0
:10D03000C863012084F8A10000BF002084F8A0008C
:10D0400000BF204600F0FCF970BD000070B504463A
:10D050000CB9012070BD94F8A10028B9002084F813
:10D06000A000204600F006F9022084F8A100206804
:10D07000806920F0704021688861D4E9010108438B
:10D08000E1680843216908432168896908432168E8
:10D090008861206880683249084021688860A08AD9
:10D0A000050420688068A1692943084321688860D5
:10D0B0002068C0682A4908402168C860A08B050420
:10D0C0002068C068216A294308432168C860206835
:10D0D00000692349084021680861A08C0504206884
:10D0E0000069A16A294308432168086120684069F2
:10D0F0001B49084021684861A08D050420684069EB
:10D10000216B294308432168486194F835000502E2
:10D1100094F8360006042068C06A00F07F40216859
:10D12000C86246EA050094F8341008432168C96AC9
:10D1300008432168C8622068406B40F006002168FF
:10D1400048632068806940F0010021688861002000
:10D15000C4F8A400012084F8A10000207AE70000B0
:10D1600000F800F070B50546002443E0C4EBC400AD
:10D17000244901EB8000406800283ADBC4EBC4007E
:10D1800001EB8000C068C4EBC4011E4A02EB8101C0
:10D1900009694843C4EBC40102EB81014968484373
:10D1A000C4EBC40102EB81014969C4EBC402154B15
:10D1B00053F8222000FB012628688430802101FBDF
:10D1C000040086622868406A40F0010029684862CD
:10D1D000C4EBC4001A4602EB800041682046F5F714
:10D1E00077FE4FF0FF30C4EBC401064A02EB810129
:10D1F0004860641C002CB9D00021284600F0F6F8E5
:10D2000070BD000050C0012010B5044612492068CE
:10D2100088421FD11148006820F080600F490860E3
:10D2200010210F48FFF748FB4EF6FF710D48FFF73E
:10D2300043FBF7210C48FFF73FFB4FF480510B48AD
:10D24000FFF73AFB4FF446410948FFF735FB5820FA
:10D2500000F0AAF910BD0000006801404438024007
:10D260000010024000240240002802400018024042
:10D270000020024010B586B00446142101A8F3F73F
:10D2800018F85349206888427ED100BF5148006891
:10D2900040F080604F4908600846006800F08060F8
:10D2A000009000BF00BF00BF4A481438006840F03B
:10D2B00010004849143908600846006800F0100062
:10D2C000009000BF00BF00BF0846006840F4007037
:10D2D00008600846006800F40070009000BF00BFBE
:10D2E00000BF0846006840F4806008600846006897
:10D2F00000F48060009000BF00BF00BF08460068D7
:10D3000040F0400008600846006800F040000090CF
:10D3100000BF00BF00BF0846006840F4807008608E
:10D320000846006800F48070009000BF00BF102025
:10D330000190022002900020039004900E2005909E
:10D3400001A92548FFF778FB4EF6FF7001900220F7
:10D3500002900020039004900E20059001A91F4820
:10D36000FFF76AFBF7200190022002900020039053
:10D3700004900E20059001A91948FFF75DFB4FF4BA
:10D3800080500190022000E01FE0029000200390F6
:10D3900004900920059001A91248FFF74DFB4FF4B6
:10D3A00046400190022002900020039004900E203D
:10D3B000059001A90C48FFF73FFB002211465820B9
:10D3C00000F024F9582000F011F906B010BD00005B
:10D3D000006801404438024000100240002402402E
:10D3E000002802400018024000200240024600BF10
:10D3F00092F8A000012801D102207047012082F894
:10D40000A00000BF022082F8A1001068406B20F04D
:10D41000010013685863094801601068406B40F0D0
:10D42000010013685863012082F8A10000BF0020AA
:10D4300082F8A00000BF00BFDFE7000040680140A5
:10D4400070472DE9F04104460E46174600BF94F898
:10D45000A000012802D10220BDE8F081012084F85B
:10D46000A00000BF022084F8A10007EB870000EBBA
:10D47000C70104F1380000EB81056E623A46294687
:10D48000204602F0AFFA01202168486284F8A1002A
:10D4900000BF002084F8A00000BF00BFDCE72DE93A
:10D4A000F04104460E46174600BF94F8A00001283C
:10D4B00002D10220BDE8F081012084F8A00000BF65
:10D4C000022084F8A10007EB870000EBC70104F1FC
:10D4D000380000EB81056E613A462946204602F08D
:10D4E00081FA01202168486284F8A10000BF002071
:10D4F00084F8A00000BF00BFDCE72DE9F04104463E
:10D500000E461746984600BF94F8A000012802D1A5
:10D510000220BDE8F081012084F8A00000BF0220B5
:10D5200084F8A10008EB880000EBC80104F1380082
:10D5300000EB81052E60A86A30446860AF60E86A3D
:10D540003844E86042462946204602F04BFA012062
:10D550002168486284F8A10000BF002084F8A00080
:10D5600000BF00BFD5E7000008B500BF0D48006848
:10D5700040F080500B4908600846006800F0805079
:10D58000009000BF00BF00BF081D006840F480404D
:10D59000091D08600846006800F48040009000BF44
:10D5A00000BF08BD4038024010B5014608460028BB
:10D5B00017DB00F01F0301229A400B4B440943F88C
:10D5C000242000BF00BF00BFBFF34F8F00BF00BFCC
:10D5D00000BF00BF00BF00BFBFF36F8F00BF00BF21
:10D5E00000BF00BF10BD000080E100E0014608461A
:10D5F000002809DB00F01F0301229A4043099B0029
:10D6000003F1E023C3F8002100BF70472DE9F05F6C
:10D6100080460D461646002704F024FC074639468E
:10D620002A46334601F00700C0F1070ABAF1040F99
:10D6300002D94FF0040A01E0C0F1070AD14600F117
:10D64000040ABAF1070F02D24FF0000A01E0A0F17C
:10D65000030AD4464FF0010A0AFA09FAAAF1010AAC
:10D660000AEA020A0AFA0CFA4FF0010B0BFA0CFB59
:10D67000ABF1010B0BEA030B4AEA0B0421464046CF
:10D6800004F0F8FBBDE8F09F00BF00F00702064B76
:10D6900019684FF6FF031940044B0B4343EA02217C
:10D6A000014B196000BF70470CED00E00000FA0567
:10D6B00038B5002400BF2048006840F080501E4963
:10D6C00008600846006800F08050009000BF00BF6E
:10D6D0001A48006840F4803018490860FFF7C6FA1D
:10D6E000044607E0FFF7C2FA001BB0F57A7F01D9C4
:10D6F000032038BD1148406800F48030B0F5803F09
:10D70000F0D10E48006840F400300C490860FFF783
:10D71000ADFA044607E0FFF7A9FA001BB0F57A7FDF
:10D7200001D90320E5E70548406800F40030B0F572
:10D73000003FF0D10020DCE740380240007000409C
:10D740002DE9F8430446002600250027A846A946EF
:10D75000207800F0010088B100BFFE48006820F486
:10D760000000FC49086008460068616B0843F949FD
:10D77000086000BF606B08B94FF00108206800F432
:10D780000020B0F5002F13D1F2488430006820F457
:10D790004010E16B0843EF4984310860E06BB0F55D
:10D7A000801F01D14FF00108E06B08B94FF001096B
:10D7B000206800F48010B0F5801F13D1E548843054
:10D7C000006820F44000216C0843E249843108607D
:10D7D000206CB0F5800F01D14FF00108206C08B922
:10D7E0004FF00109206800F08070B0F1807F01D116
:10D7F0004FF00108207800F02000202870D100BFF1
:10D80000D4483830006840F08050D2493831086040
:10D810000846006800F08050009000BF00BFCE486E
:10D82000006840F48070CC490860FFF71FFA064694
:10D8300007E0FFF71BFA801B642802D90320BDE82C
:10D84000F883C548006800F480700028F1D0C14812
:10D850006830006800F4407585B3208E00F4407095
:10D86000A8422BD0BB486830006820F44075B94806
:10D870006830006840F48030B64968310860084676
:10D88000006820F48030086008460560006800F0F9
:10D89000010098B1FFF7EAF9064608E0FFF7E6F95C
:10D8A000801B41F28831884201D90320C7E7A9488B
:10D8B00068300068C0F340000028EFD000BF208E21
:10D8C00000F44070B0F5407F0BD1A248006820F40E
:10D8D000F810A24A216B114008439E49086006E0F7
:10D8E00010E09C48006820F4F8109A4908609948B4
:10D8F00068300068218EC1F30B01084395496831F7
:10D90000086000BF207800F01000102810D100BF80
:10D9100090488430006820F080708E49843108601F
:10D9200008460068A16B08438A498431086000BF3B
:10D93000208800F48040B0F5804F09D185488830B8
:10D94000006820F44030616E0843824988310860E5
:10D95000208800F40040B0F5004F09D17D488830A0
:10D96000006820F44020A16E08437A49883108609D
:10D97000206800F48030B0F5803F09D175488830C8
:10D98000006820F44010E16E084372498831086055
:10D99000206800F40030B0F5003F09D16D488830B0
:10D9A000006820F44000216F08436A49883108600C
:10D9B000207800F04000402809D16648883000688F
:10D9C00020F00300616C08436249883108602078C8
:10D9D00000F08000802809D15E488830006820F07F
:10D9E0000C00A16C08435B4988310860208800F472
:10D9F0008070B0F5807F09D156488830006820F0EB
:10DA00003000E16C0843534988310860208800F4F5
:10DA10000070B0F5007F09D14E488830006820F0D2
:10DA2000C000216D08434B4988310860208800F40C
:10DA30008060B0F5806F09D146488830006820F4D6
:10DA40004070616D0843434988310860208800F4C4
:10DA50000060B0F5006F09D13E488830006820F4BE
:10DA60004060A16D08433B4988310860208800F47C
:10DA70008050B0F5805F09D136488830006820F4C6
:10DA80004050E16D0843334988310860208800F434
:10DA90000050B0F5005F09D12E488830006820F4AE
:10DAA0004040216E08432B4988310860206800F40B
:10DAB0008000B0F5800F09D126488830006820F03A
:10DAC0008060A16F0843234988310860206800F412
:10DAD0000010B0F5001F0FD11E488830006820F0FC
:10DAE0000060E16F08431B4988310860E06FB0F1C6
:10DAF000006F01D14FF00109207800F008000828DC
:10DB000001D14FF00109206800F48020B0F5802F8A
:10DB100009D110488830006820F04070616F0843D8
:10DB20000C4988310860206800F40000B0F5000F4F
:10DB30000AD108488830006820F08050D4F880105E
:10DB40000843044988310860B8F1010F0BD0206800
:10DB500006E000000838024000700040FFFCFF0FA4
:10DB6000B0F1007F7DD1AD48006820F08060AB4906
:10DB70000860FFF77BF8064606E0FFF777F8801BA2
:10DB8000642801D903205AE6A4480068C0F3C060A5
:10DB90000028F2D1207800F00100B8B1606BA8B97C
:10DBA0009E4884300068C0F301459C48843000687A
:10DBB000C0F303676068800140EA054040EA0761FE
:10DBC000207A41EA0070954984310860206800F4A9
:10DBD0000020B0F5002F03D1E06BB0F5801F09D015
:10DBE000206800F48010B0F5801F24D1206CB0F5BF
:10DBF000800F20D1894884300068C0F301458748F0
:10DC000084300068C0F302776068800140EA054113
:10DC1000207B41EA006040EA077080498431086057
:10DC20007E488C30006820F01F00616A491E08435E
:10DC30007A498C310860206800F08070B0F1807FF4
:10DC400017D1764884300068C0F303657348843088
:10DC50000068C0F3027760688101208A41EA0040D1
:10DC600000E031E040EA056040EA07706B4984312A
:10DC70000860206800F00070B0F1007F0DD160688E
:10DC80008101208A41EA0041207B41EA0061207A3B
:10DC900041EA00706149843108606048006840F0E2
:10DCA00080605E490860FEF7E1FF064606E0FEF789
:10DCB000DDFF801B642801D90320C0E557480068B8
:10DCC000C0F3C0600028F2D0B9F1010F7ED15348F3
:10DCD000006820F0805051490860FEF7C7FF0646F3
:10DCE00006E0FEF7C3FF801B642801D90320A6E5E8
:10DCF0004A480068C0F340700028F2D1206800F460
:10DD00000020B0F5002F01D1E06B38B1206800F49D
:10DD10008010B0F5801F22D1206C00BB3F488830B6
:10DD20000068C0F301453D4888300068C0F30277C1
:10DD30006069800140EA0541207E41EA006040EAD6
:10DD40000770364988310860081D006820F4F851D2
:10DD5000A06A401E41EA002030498C3108602068EA
:10DD600000F40010B0F5001F19D1E06FB0F1006FA2
:10DD700015D12A4888300068C0F3036527488830E9
:10DD80000068C0F3027760698101208C41EA00409D
:10DD900040EA056040EA0770204988310860207831
:10DDA00000F00800082820D11C4888300068C0F323
:10DDB00003651A4888300068C0F301476069800134
:10DDC00040EA074040EA0561207F00E024E041EAA4
:10DDD0000070124988310860081D006820F4403046
:10DDE000E16A08430D498C3108600C48006840F036
:10DDF00080500A490860FEF739FF064606E0FEF744
:10DE000035FF801B642801D9032018E5034800680A
:10DE1000C0F340700028F2D0002010E50038024026
:10DE200070B504460D4600260CB9012070BD5C4853
:10DE3000006800F00F00A8420ED25948006820F098
:10DE40000F002843564908600846006800F00F009C
:10DE5000A84201D00120E9E7207800F00200022862
:10DE60001DD1207800F00400042805D14D48006839
:10DE700040F4E0504B490860207800F00800082882
:10DE800005D14848006840F460404649086045486C
:10DE9000006820F0F000A16808434249086020783B
:10DEA00000F0010090B36068012807D13D480838B0
:10DEB0000068C0F34040A0B90120B7E760680228BD
:10DEC00007D1384808380068C0F3406048B90120DD
:10DED000ACE7344808380068C0F3400008B90120B6
:10DEE000A4E73048006820F00300616808432D492A
:10DEF0000860FEF7BBFE064609E0FEF7B7FE801B92
:10DF000041F28831884202D903208FE707E0254893
:10DF1000006800F00C006168B0EB810FEDD1204883
:10DF2000006800F00F00A8420ED91D48006820F0DC
:10DF30000F0028431A4908600846006800F00F00E7
:10DF4000A84201D0012071E7207800F004000428E5
:10DF500007D11448006820F4E050E16808431149F3
:10DF60000860207800F00800082808D10D480068F3
:10DF700020F46040216940EAC1000A49086000F0CD
:10DF80005FF808490968C1F30311074A515CC840AA
:10DF9000064908600020FEF787FE002046E70000E3
:10DFA000003C02400838024064420108280000207A
:10DFB0000F2202600D4A126802F0030242600B4A0F
:10DFC000126802F0F0028260084A126802F4E0521D
:10DFD000C260064A126802F46042D2080261044A32
:10DFE000126802F00F020A60704700000838024011
:10DFF000003C0240014800687047000028000020F3
:10E0000000B5FFF7F7FF04490968C1F38221034A0D
:10E01000515CC84000BD000008380240744201084D
:10E0200000B5FFF7E7FF04490968C1F34231034A2D
:10E03000515CC84000BD000008380240744201082D
:10E040002DE9F047002400250026A1462548006858
:10E0500000F00C0020B1042805D008283AD105E0D2
:10E06000DFF8849039E0DFF8849036E01D48001F27
:10E07000006800F03F041B48001F006800F48000A7
:10E0800078B11A481749091F0968C1F38811A0FB24
:10E0900001700146224600233846F2F7B1F80546E2
:10E0A0000EE011480F49091F0968C1F38811A0FB50
:10E0B00001700146224600233846F2F7A1F80546D2
:10E0C0000848001F0068C0F30140401C4600B5FB33
:10E0D000F6F902E0DFF8109000BF00BF4846BDE847
:10E0E000F0870000083802400024F40040787D01E9
:10E0F000F8B5044600260CB90120F8BD207800F0E0
:10E100000100002871D0F848006800F00C000428D5
:10E110000DD0F548006800F00C00082813D1F24833
:10E12000001F006800F48000B0F5800F0BD1EE48AE
:10E1300008380068C0F34040002869D060680028B3
:10E1400066D10120D9E700BF6068B0F5803F08D1F3
:10E15000E5480838006840F48030E3490839086031
:10E160002EE0606868B9E0480838006820F4803024
:10E17000DD49083908600846006820F480200860FE
:10E180001EE06068B0F5A02F0DD1D74808380068B0
:10E1900040F48020D449083908600846006840F4FB
:10E1A000803008600CE0D0480838006820F48030E7
:10E1B000CD49083908600846006820F480200860CE
:10E1C00000BF606890B1FEF751FD054606E0FEF71E
:10E1D0004DFD401B642801D903208EE7C248083852
:10E1E0000068C0F340400028F1D011E0FEF73EFD8A
:10E1F000054606E0FEF73AFD401B642801D90320DE
:10E200007BE7B94808380068C0F340400028F1D1E6
:10E21000207800F00200022869D1B348006800F0BD
:10E220000C0058B1B048006800F00C0008281CD160
:10E23000AD48001F006800F48000B0B9AA48083853
:10E240000068C0F3400020B1E068012801D001203F
:10E2500053E7A5480838006820F0F800216940EA33
:10E26000C100A1490839086041E0E06828B39E4830
:10E270000838006840F001009B4908390860FEF743
:10E28000F5FC054606E0FEF7F1FC401B022801D92B
:10E29000032032E7944808380068C0F340000028A3
:10E2A000F1D091480838006820F0F800216940EA70
:10E2B000C1008D490839086019E08B4808380068AA
:10E2C00020F00100884908390860FEF7CFFC0546B8
:10E2D00006E0FEF7CBFC401B022801D903200CE727
:10E2E000814808380068C0F340000028F1D1207848
:10E2F00000F00800082836D16069D0B17A486C3047
:10E30000006840F0010078496C310860FEF7AEFC0F
:10E31000054606E0FEF7AAFC401B022801D90320AF
:10E32000EBE671486C300068C0F340000028F1D083
:10E3300019E06D486C30006820F001006A496C31CA
:10E340000860FEF793FC054606E0FEF78FFC401BD5
:10E35000022801D90320D0E663486C300068C0F37E
:10E3600040000028F1D1207800F00400042874D186
:10E370005D483830006800F0805080B900BF5A48CE
:10E380003830006840F080505749383108600846FE
:10E39000006800F08050009000BF00BF0126534885
:10E3A000006800F48070B0B95048006840F4807094
:10E3B0004E490860FEF75AFC054606E0FEF756FC9B
:10E3C000401B642801D9032097E64848006800F400
:10E3D00080700028F2D000BFA068012808D1424810
:10E3E0006830006840F001003F49683108602DE066
:10E3F000A06868B93C486830006820F001003A49DC
:10E40000683108600846006820F0040008601DE0DC
:10E41000A06805280DD134486830006840F0040039
:10E420003149683108600846006840F00100086022
:10E430000CE02D486830006820F001002A4968315E
:10E4400008600846006820F00400086000BFA0686B
:10E45000A8B1FEF70BFC054609E02EE0FEF706FC2E
:10E46000401B41F28831884201D9032045E61E480D
:10E4700068300068C0F340000028EFD013E0FEF7DA
:10E48000F5FB054608E0FEF7F1FB401B41F2883141
:10E49000884201D9032030E6134868300068C0F391
:10E4A00040000028EFD1012E07D10F483830006816
:10E4B00020F080500C4938310860A069E8B30A4860
:10E4C000006800F00C00082866D0A06902284BD133
:10E4D00005480838006820F0807003490839086052
:10E4E000FEF7C4FB05460AE0083802400070004011
:10E4F000FEF7BCFB401B022801D90320FDE528489C
:10E500000068C0F340600028F2D1E06940F000509C
:10E51000216A0843616A40EA81110122A06AC2EBC4
:10E52000500041EA00412C20005D41EA00601C4996
:10E53000091D0860081F006800E02FE040F08070AF
:10E54000091F0860FEF792FB054606E0FEF78EFB0A
:10E55000401B022801D90320CFE511480068C0F311
:10E5600040600028F2D019E00D48006820F080706B
:10E570000B490860FEF77AFB054606E0FEF776FBDE
:10E58000401B022801D90320B7E505480068C0F305
:10E5900040600028F2D101E00120AEE50020ACE5AA
:10E5A0000038024070B504460D460CB9012070BD1C
:10E5B00094F82C0028B9002084F82D00204600F0A3
:10E5C00011F8022084F82C00211D2068FDF706FDBB
:10E5D0002946D4E90002FDF755FD012084F82C00FE
:10E5E0000020E4E710B50446FEF7E0F810BD70B572
:10E5F00004460D4694F82C00022800D170BD02207C
:10E6000084F82C0029462068FDF722FD012084F8BB
:10E610002C000020F2E770B504460D46164694F82B
:10E620002C00022800D170BD022084F82C00324654
:10E6300029462068FDF713FD2868022803D105202C
:10E6400084F82C0002E0012084F82C000020EAE786
:10E6500070B58AB004460D460026032084F83400C5
:10E66000606C032820D0B5F5805F04D1A06B40F02A
:10E670008050A0631CE0B5F5006F07D1204602F082
:10E68000CEFD0646A06B3043A06311E03DB92046A5
:10E6900002F090FD0646A06B3043A06308E0A06B3B
:10E6A00040F00060A06303E0A06B40F08050A063E6
:10E6B000A06B40B140F2FF5021688863012084F8CC
:10E6C00034000AB070BD60680490A0680590E068EE
:10E6D0000690079560690890A069099007A807C887
:10E6E0008DE80700206804A90EC902F06DFB012027
:10E6F00084F834000020E4E730B503460022586E69
:10E70000020E90090870C2F38300487002F0030003
:10E710008870586EC0F30742CA70B3F86400C0F343
:10E7200007220A7193F864204A71986E020E4FF620
:10E73000FF7000EA0210C880986EC0F30742C888D4
:10E7400040EA1210C88002F00F0008726820C05A18
:10E75000C0F30722D0094872C2F380108872C2F356
:10E760004010C872C2F30010087300204873586C40
:10E7700000283ED19007000D08616820C25C08693E
:10E7800040EA82000861D86E020E086940EA9210E1
:10E790000861C2F3C200087502F007004875D86E20
:10E7A000C0F3074250098875C2F38200C87590070C
:10E7B000400F08766C20C05AC0F30722087E40EA5A
:10E7C000D21008760869401C58650C7E586DA41C50
:10E7D0000125A540684358650C7A0120A040986542
:10E7E000D3E91504640A6043D8654FF400741C66CD
:10E7F00030E0586C012821D16820C25C9006800A64
:10E800000861D86E020E086940EA02200861D86EDD
:10E81000C0F307420869104308616C20C05AC0F376
:10E8200007220869441C4FF48060A4FB000458656B
:10E83000D8654FF400749C651C660BE040F2FF50F5
:10E840001C68A063986B40F080509863012083F8A7
:10E85000340030BDC2F3801001F8190F9006400E4D
:10E8600048706C20C25C487840EAD210487002F0D0
:10E870007F008870186F020ED009C870C2F3411073
:10E880000871C2F3820048719007000F8871186FF9
:10E89000C0F30742887940EA92108871C2F34010B1
:10E8A000C8710020087202F0010048727020C05A3E
:10E8B000C0F30722D0098872C2F38010C872C2F375
:10E8C00040100873C2F300104873C2F381008873CC
:10E8D00002F00300C8737020C25C50080874012065
:10E8E000487419390020B4E70246506C0860906CF7
:10E8F0004860D06C8860106DC860506D0861906D84
:10E900004861D06D8861106EC86100207047F8B50D
:10E91000044604260025002000906946204602F0A7
:10E9200030FC054615B1A06B2843A0630098C0F3E6
:10E9300043263046F8BD10B504460CB9012010BD81
:10E9400094F8340020B900202077204600F052F8D7
:10E95000032084F83400204600F008F80020A0636B
:10E960002063012084F834000020E8E730B589B046
:10E97000044600250020039004900590069007901F
:10E980007620089006A807C88DE80700206803A92C
:10E990000EC902F019FA2068406820F480702168DE
:10E9A0004860206802F02AFA2068406840F48070CD
:10E9B000216848600220FDF7DBFE204602F06AFB7A
:10E9C000054645B1012084F83400A06B2843A063BC
:10E9D000012009B030BD204602F0DEFA05463DB107
:10E9E000012084F83400A06B2843A0630120F0E7E5
:10E9F0000020EEE710B586B00446142101A8F1F717
:10EA000058FC27492068884247D100BF2548006844
:10EA100040F40060234908600846006800F4006084
:10EA2000009000BF00BF00BF1E481438006840F0CF
:10EA300004001C49143908600846006800F004000E
:10EA4000009000BF00BF00BF0846006840F008000B
:10EA500008600846006800F00800009000BF00BF92
:10EA60004FF4F85001900220029000200390032000
:10EA700004900C20059001A90B48FDF7DDFF042050
:10EA800001900220029000200390032004900C20AB
:10EA9000059001A90548FDF7CFFF06B010BD0000A5
:10EAA000002C01404438024000080240000C0240A3
:10EAB0002DE9F04F87B004468A4690461E46DDF8A1
:10EAC00040900025FEF7D2F80090AB465746BAF1C9
:10EAD000000F07D1A06B40F00060A063012007B0D9
:10EAE000BDE8F08F94F8340001287DD10020A063A8
:10EAF00008EB0601E06D814205D9A06B40F0007083
:10EB0000A0630120EBE7032084F834000020216893
:10EB1000C862606C012801D04FEA48284FF40071A8
:10EB2000206801F0B3FD054655B140F2FF50216861
:10EB30008863A06B2843A063012084F83400CEE7EB
:10EB40004FF0FF300190700202909020039002205D
:10EB50000490002005900120069001A9206801F092
:10EB60003DFF012E07D9022020634146206801F0B5
:10EB7000F9FD054606E0012020634146206801F0CA
:10EB80000EFE054655B140F2FF5021688863A06B28
:10EB90002843A063012084F83400A0E72AE020681D
:10EBA000406B00F4004068B14FF0000B06E02068B5
:10EBB00002F029F947F82B000BF1010BBBF1080F0C
:10EBC000F5D32037B9F1000F05D0FEF74FF80099C3
:10EBD000401A48450ED340F2FF5021688863A06B6D
:10EBE00040F00040A06300E081E0012084F83400A0
:10EBF000032074E72068406B00F495700028CED0A5
:10EC00002068406B00F48070A0B1012E12D9606CB6
:10EC100003280FD0206801F089FE054655B140F267
:10EC2000FF5021688863A06B2843A063012084F80B
:10EC3000340054E72068406B00F0080058B140F2FF
:10EC4000FF5021688863A06B40F00800A06301209A
:10EC500084F8340043E72068406B00F0020058B1AC
:10EC600040F2FF5021688863A06B40F00200A0636F
:10EC7000012084F8340032E72068406B00F0200067
:10EC800058B140F2FF5021688863A06B40F020002B
:10EC9000A063012084F8340021E719E0206802F025
:10ECA000B2F838603F1DB9F1000F05D0FDF7DEFF67
:10ECB0000099401A48450BD340F2FF502168886301
:10ECC000A06B40F00040A063012084F8340006E708
:10ECD0002068406B00F400100028DFD140F2FF50A4
:10ECE00021688863012084F834000020F7E6A06BD7
:10ECF00040F00050A0630120F1E62DE9F04F87B00D
:10ED00000446884617461E46DDF840B00025FDF74C
:10ED1000ADFF0090A946C246B8F1000F07D1A06B25
:10ED200040F00060A063012007B0BDE8F08F94F8C8
:10ED3000340001287DD10020A063B919E06D814223
:10ED400005D9A06B40F00070A0630120ECE7032020
:10ED500084F8340000202168C862606C012800D06B
:10ED60007F024FF40071206801F090FC054655B118
:10ED700040F2FF5021688863A06B2843A063012004
:10ED800084F83400D0E7012E07D9202020633946CB
:10ED9000206801F0E9FD054606E0102020633946B1
:10EDA000206801F0FEFD054655B140F2FF50216894
:10EDB0008863A06B2843A063012084F83400B3E784
:10EDC0004FF0FF30019070020290902003900020DD
:10EDD000049005900120069001A9206801F0FEFD35
:10EDE0002AE02068406B00F4804070B14FF00009C9
:10EDF00006E00AEB8901206802F01DF809F101091B
:10EE0000B9F1080FF5D30AF1200ABBF1000F05D0C4
:10EE1000FDF72CFF0099401A58450DD340F2FF50E2
:10EE200021688863A06B2843A063012084F8340024
:10EE300000E05DE0032077E72068406B00F48D7010
:10EE40000028CED02068406B00F48070A0B1012E65
:10EE500012D9606C03280FD0206801F067FD0546C9
:10EE600055B140F2FF5021688863A06B2843A0632E
:10EE7000012084F8340057E72068406B00F0080058
:10EE800058B140F2FF5021688863A06B40F0080041
:10EE9000A063012084F8340046E72068406B00F04E
:10EEA000020058B140F2FF5021688863A06B40F027
:10EEB0000200A063012084F8340035E72068406B2D
:10EEC00000F0100058B140F2FF5021688863A06B39
:10EED00040F01000A063012084F8340024E740F2E1
:10EEE000FF5021688863012084F8340000201BE76C
:10EEF000A06B40F00050A063012015E770477047F9
:10EF0000704710B504460CB9012010BD94F83D00BF
:10EF100028B9002084F83C00204600F00CF80220BC
:10EF200084F83D00211D206802F0E4FA012084F8F5
:10EF30003D000020E9E7704701460868C06840F0DE
:10EF400001000B68D86008688068084B00EA03027B
:10EF5000062A08D0B2F5803F05D00868006840F066
:10EF600001000B68186000207047000007000100D6
:10EF7000704710B5044620680069C0F34000D8B15E
:10EF80002068C068C0F34000B0B16FF00200216893
:10EF90000861012020772068806900F0030018B123
:10EFA0002046FFF7E5FF05E0204600F0BEF82046CA
:10EFB00000F0BCF80020207720680069C0F38000D2
:10EFC000D8B12068C068C0F38000B0B16FF0040011
:10EFD00021680861022020772068806900F4407071
:10EFE00018B12046FFF7C4FF05E0204600F09DF869
:10EFF000204600F09BF80020207720680069C0F3CD
:10F00000C000D8B12068C068C0F3C000B0B16FF0D4
:10F01000080021680861042020772068C06900F09A
:10F02000030018B12046FFF7A3FF05E0204600F0DB
:10F030007CF8204600F07AF80020207720680069EC
:10F04000C0F30010D8B12068C068C0F30010B0B1A0
:10F050006FF0100021680861082020772068C069DF
:10F0600000F4407018B12046FFF782FF05E020460B
:10F0700000F05BF8204600F059F800202077206867
:10F08000006900F0010058B12068C06800F001007C
:10F0900030B16FF0010021680861204600F048F8A7
:10F0A00020680069C0F3C01058B12068C068C0F380
:10F0B000C01030B16FF08000216808612046FFF772
:10F0C0001EFF20680069C0F3002058B12068C068A6
:10F0D000C0F3C01030B16FF4807021680861204621
:10F0E000FFF70CFF20680069C0F3801058B120685A
:10F0F000C068C0F3801030B16FF040002168086133
:10F10000204600F021F820680069C0F3401058B193
:10F110002068C068C0F3401030B16FF02000216853
:10F1200008612046FFF7ECFE10BD704770470000F5
:10F1300010B5044603492068884201D1FDF79CFDC3
:10F1400010BD000000100040704710B504460CB917
:10F15000012010BDA06900B100E000BF606F28B9B8
:10F16000002084F87000204600F02AF82420606710
:10F170002068006820F0010021680860204602F045
:10F18000CBFA012800D1E4E7606A10B1204602F012
:10F1900023FA2068406820F4904021684860206885
:10F1A000806820F02A00216888602068006840F0AC
:10F1B000010021680860204602F08AFAC9E70000D1
:10F1C00010B586B00446142101A8F1F772F826495B
:10F1D0002068884245D100BF2448006840F01000F4
:10F1E000224908600846006800F01000009000BF47
:10F1F00000BF00BF1D481438006840F002001B49E2
:10F20000143908600846006800F00200009000BF52
:10F2100000BF00BF0846006840F0010008600846D3
:10F22000006800F00100009000BF00BF8020019046
:10F23000022002900020039004900720059001A96D
:10F240000B48FDF7F9FB4FF400700190022002908B
:10F250000020039004900720059001A90548FDF7C0
:10F26000EBFB06B010BD0000001001404438024026
:10F2700000040240000002402DE9F84F04460E460B
:10F2800017469946606F20285CD106B117B9012056
:10F29000BDE8F88F00BF94F87000012801D102206A
:10F2A000F6E7012084F8700000BF0020E06721200D
:10F2B0006067FDF7DBFC8246A4F85070A4F852703A
:10F2C000A068B0F5805F04D1206910B90025B04670
:10F2D00002E035464FF000081DE053460022802131
:10F2E0002046CDF8009002F0E9FB08B10320CFE7FB
:10F2F00045B9B8F80000C0F308002168886208F139
:10F30000020803E02878216888626D1CB4F8520076
:10F31000401EA4F85200B4F852000028DDD1534634
:10F32000002240212046CDF8009002F0C7FB08B132
:10F330000320ADE72020606700BF002084F8700044
:10F3400000BFA5E70220A3E700BFFEE72DE9FE43CB
:10F3500004460E4615462046FCF726FF0746C4EB3A
:10F36000C400144951F8200007FB0608C4EBC40090
:10F3700051F8200007FB05090021C4EBC4000D4B28
:10F3800003EB80000069CDE90001C4EBC4000291E9
:10F39000194601EB80004A464146C3682046FCF707
:10F3A000FFFCC4EBC400034901EB80008560BDE8AD
:10F3B000FE83000050C001202DE9F04F85B00446C7
:10F3C0000D4616461F46DDE90F8BDDF838A02046B6
:10F3D000FCF7EAFE8146C4EBC400264951F8200040
:10F3E000C4EBC401234A02EB8101496809FB010017
:10F3F000C4EBC40102EB8101C96806FB0151C4EBF7
:10F40000C4021C4B03EB8202526901FB0200049010
:10F41000C4EBC400194651F82000C4EBC4011A46DD
:10F4200002EB8101496809FB0100C4EBC40102EB56
:10F430008101C9680AFB0171C4EBC40203EB8202BB
:10F44000526901FB020003900021C4EBC4001A467C
:10F4500002EB8000C068A0EB08004346CDE900B095
:10F4600002912046DDE90321FCF79AFC05B0BDE8D6
:10F47000F08F000050C001202DE9F04F87B0044606
:10F480000E4617469846DDE911A9109D2046FCF767
:10F490008BFE8346C4EBC4001B4951F82000C4EB2B
:10F4A000C401194A02EB810189680BFB0100C4EB1E
:10F4B000C40102EB8101C96807FB0161C4EBC4020E
:10F4C000114B03EB8202526901FB02000690484691
:10F4D00009EBD071C5EB61010591C4EBC40019467D
:10F4E00001EB8000C068401B0490DDE904012B465D
:10F4F000CDE900A1029041462046069AFCF750FC57
:10F5000007B0BDE8F08F000050C001202DE9F04F9A
:10F5100087B004460F4690469946DDE911A6109D36
:10F520002046FCF741FE8346C4EBC4001B4951F85A
:10F530002000C4EBC401194A02EB810189680BFB6E
:10F540000100C4EBC40102EB8101C96808FB017131
:10F55000C4EBC402114B03EB8202526901FB0200AF
:10F5600006903046F11706EB9171C5EBA1010591AC
:10F57000C4EBC400194601EB8000C068401B049036
:10F58000DDE904012B46CDE900A102904946204661
:10F59000069AFCF737FC07B0BDE8F08F50C0012099
:10F5A0002DE9F04F87B004460E4617469846DDE930
:10F5B000119A109D2046FCF7F7FD8346C4EBC4006A
:10F5C0001A4951F82000C4EBC401184A02EB81012A
:10F5D00089680BFB0100C4EBC40102EB8101C9681F
:10F5E00007FB0161C4EBC402104B03EB82025269BA
:10F5F00001FB02000690AAEB05000590C4EBC400D5
:10F60000194601EB8000C068401B04902046FCF7BF
:10F61000E3FD039003988DE821024046DDE90432C2
:10F620000699FCF727FC07B0BDE8F08F50C0012019
:10F630002DE9FE4F04460D4616461F46DDF8309074
:10F64000F2F798FD012810D1002219212046F5F784
:10F65000C9F94B463A4631462846F4F7C5FE204ADA
:10F6600019212046F5F7BEF937E0781B00F10108B3
:10F67000A9EB0600401C02902046FCF795FD82464F
:10F68000C4EBC400174951F82000C4EBC401154A6B
:10F6900002EB810189680AFB0100C4EBC40102EBA3
:10F6A0008101C96806FB0151C4EBC4020D4B03EB99
:10F6B0008202526901FB020BC4EBC4011A4602EB41
:10F6C00081010D98C968A1EB0801CDE900104246FF
:10F6D00059462046029BFCF7FBFBBDE8FE8F00006D
:10F6E00031F6000850C0012010B500231A464349E6
:10F6F0004348F2F7D9F80020F4F746FF70B14FF411
:10F70000F0724FF488710020F5F7ACF94FF4F07205
:10F710004FF488710020F5F7D7F90DE04FF48872A7
:10F720004FF4F0710020F5F79DF94FF488724FF413
:10F73000F0710020F5F7C8F94FF0404031490860FA
:10F74000002440E0304850F82400C4EBC4012D4AA6
:10F7500002EB810188614FF0FF30C4EBC40102EB82
:10F76000810148602046F4F76FFEC010C4EBC4016D
:10F77000244A02EB81014861244A21212046F5F701
:10F7800031F9234A23212046F5F72CF9214A192182
:10F790002046F5F727F9204A25212046F5F722F9DA
:10F7A0001E4A24212046F5F71DF91D4A282120462E
:10F7B000F5F718F9C4EBC400124A52F8201020469D
:10F7C000F5F76AF9641C002CBCD016491648F1F70D
:10F7D0009FFB16491648F1F7A7FB16491648F1F7A3
:10F7E0009DFB16491648F1F7A7FB16491648F1F795
:10F7F000A1FB16491648F3F725FC10BDC0470108C8
:10F80000AC48010850C00120180000204DF300084A
:10F81000B9F3000831F60008A1F5000879F40008F2
:10F820000DF50008DD1C0108291B0108151D010844
:10F83000611B0108F91C0108451B01084D1D010849
:10F84000991B0108311D01087D1B0108691D010874
:10F85000051E01082DE9FC4704460E4615464FF0EB
:10F860000009F01E0C286ED2DFE800F006282F38C1
:10F870006E664187A98D9920C4EBC401534A02EBFF
:10F8800081016868C9684843C4EBC40102EB810187
:10F890004969C4EBC4024D4B53F8222000FB0127F9
:10F8A000224639464A48FDF7CCFD8BE0C4EBC40143
:10F8B000464A02EB81012868486083E02346012222
:10F8C00029464348FDF734FA7CE0414800688069E6
:10F8D00040F001003E490968886173E03C480068D7
:10F8E000806920F001003A49096888616AE0286867
:10F8F00001280CD1364800688430E101405840F0BE
:10F900000101334800688430E20181500BE0304847
:10F9100000688430E101405820F001012C48006863
:10F920008430E20181502A480068406A40F00100BA
:10F9300027490968486245E023462548D5E9001271
:10F94000FDF7DBFD3EE03AE06A4601A92046F2F70A
:10F9500029FCC4EBC4011D4A02EB81012868C86080
:10F96000C4EBC40102EB81016868086123461848B2
:10F97000DDE90021FDF7C1FD24E022461448296895
:10F98000FDF78DFD1EE0286820B121461048FDF7E7
:10F99000BBFA03E021460E48FDF790FA12E0286812
:10F9A000C0F30740298801F47F410843297840EAE1
:10F9B0000148224641460648FDF712FA02E04FF0A0
:10F9C000FF3900BF00BF4846BDE8FC8750C001209A
:10F9D00024BF012010B50248FDF7BDFA10BD00009C
:10F9E00024BF0120F0B58E880768FF68C7F30B4776
:10F9F0003E44330406688436802707FB0266766837
:10FA000006F47047066884364FF0800C0CFB0266E3
:10FA100077600E680768FF68C7F30B473E44761CA3
:10FA20001E43076884370CFB02777E608E89076867
:10FA3000FF68C7F30A073E4433040668843680270C
:10FA400007FB0266B66806F47047066884360CFB4E
:10FA50000266B7608E680768FF68C7F30A073E440E
:10FA6000761C46EA0307066884360CFB0266B7601C
:10FA700006688436802707FB0266366926F007078A
:10FA8000066884360CFB026637610F6906688436A7
:10FA90000CFB026637613126765C33023226765CD7
:10FAA00034040E7E350606688436802707FB02661E
:10FAB000B6690027066884360CFB0266B76191F8C8
:10FAC00030601E43264346EA0507066884360CFB71
:10FAD0000266B76106688436802707FB026676698E
:10FAE00026F0FF07066884360CFB026677614F69D3
:10FAF000066884360CFB02667761066884368027C8
:10FB000007FB0266F66940F20777BE430768843751
:10FB10000CFB0277FE61D1E907763743066884362D
:10FB20000CFB0266F76106688436802707FB0266D5
:10FB3000B66A0027066884360CFB0266B7624F6A15
:10FB4000066884360CFB0266B7620E690EB90423A0
:10FB500013E00E69012E01D103230EE00E69042E7D
:10FB600008D00E69022E05D00E69032E02D00E6950
:10FB7000072E01D1022300E0012306688436802786
:10FB800007FB0266F66A06F0E027066884364FF047
:10FB9000800C0CFB0266F762D1E90076F61B5E432F
:10FBA000F61C0F8D5F4346EA0747066884360CFB58
:10FBB0000266F76206688436802707FB0266366BAA
:10FBC000F70AFF02066884360CFB02663763CF6AC9
:10FBD000066884360CFB0266376306688436D701F4
:10FBE000F65946F00107066884364FEAC21C46F80B
:10FBF0000C70F0BD10B50A480A4908600020087171
:10FC00000021084841714161816101200549086274
:10FC10000846FCF7D1FB08B1FCF7ABF910BD0000BA
:10FC200000300240BC05002010B50D480D490860A9
:10FC30000020486000210B488160C1608162C16280
:10FC400001634163FCF72DFD08B1FCF792F9012136
:10FC50000448FCF70DFC08B1FCF78BF910BD00005F
:10FC600000B00240CCBF012010B503490348FCF7A7
:10FC700081F90349087010BD0600002018420108F0
:10FC80000500002000B587B01C216846F0F711FB85
:10FC90001748184908600020486000211548816015
:10FCA0000421C16010210161402141614FF4C07104
:10FCB00081610021C1614FF400610162490041622C
:10FCC0000021816202200090072001900420029010
:10FCD00007200390032004900220059006906946B7
:10FCE0000448FEF75FFC08B1FCF743F907B000BD1C
:10FCF000400100A00CC0012000B587B0142102A86B
:10FD0000F0F7D7FA00BFFE48006840F01000FC4949
:10FD100008600846006800F01000019000BF00BFB6
:10FD200000BF0846006840F04000086008460068D0
:10FD300000F04000019000BF00BF00BF084600680F
:10FD400040F0020008600846006800F002000190E0
:10FD500000BF00BF00BF0846006840F00800086010
:10FD60000846006800F00800019000BF00BF00BF17
:10FD70000846006840F0040008600846006800F08B
:10FD80000400019000BF00BF00BF0846006840F0BB
:10FD9000010008600846006800F00100019000BF03
:10FDA00000BF00BF0846006840F4007008600846C5
:10FDB000006800F40070019000BF00BF00BF08465B
:10FDC000006840F4807008600846006800F48070A5
:10FDD000019000BF00BF00BF0846006840F480608B
:10FDE00008600846006800F48060019000BF00BF12
:10FDF00000BF0846006840F0200008600846006820
:10FE000000F02000019000BF00BF00BF084600685E
:10FE100040F0800008600846006800F08000019013
:10FE200000BF00BF01222021B648FCF719FF0022C5
:10FE30000C21B548FCF714FF01220821B348FCF758
:10FE40000FFF01221103B048FCF70AFF00224FF414
:10FE50000051AF48FCF704FF0022C821AD48FCF771
:10FE6000FFFE0820029000200390049002A9AA48F7
:10FE7000FCF7E2FD04200290022003900020049091
:10FE8000032005900920069002A9A348FCF7D4FDA1
:10FE90004FF4D040029002200390002004900320F1
:10FEA00005900B20069002A99A48FCF7C5FD4FF477
:10FEB00040700290122003900120049000200590D1
:10FEC0000420069002A99548FCF7B6FD43F62340AE
:10FED00002900220039000200490032005900A2045
:10FEE000069002A98D48FCF7A7FD10200290022081
:10FEF00003900020049005900220069002A98748F4
:10FF0000FCF79AFD802002900220039000200490CC
:10FF100005900820069002A97A48FCF78DFD4FF461
:10FF200000400290022003900020049005900120E0
:10FF3000069002A97A48FCF77FFD6020029002201B
:10FF400003900020049005900D20069002A97248AD
:10FF5000FCF772FD402002900220039000200490E4
:10FF6000032005900A20069002A96C48FCF764FD66
:10FF70004FF48050029000200390049002A9694839
:10FF8000FCF75AFD4020029067480390002004903F
:10FF900002A95C48FCF750FD4FF4E05002900220AB
:10FFA000039000200490032005900A20069002A9E7
:10FFB0005B48FCF741FDF0200290022003900020F6
:10FFC000049005900A20069002A94F48FCF734FDE2
:10FFD0004FF480600290022003900020049005906E
:10FFE0000A20069002A94B48FCF726FD202002902B
:10FFF0000120039000200490059002A94148FCF7DD
:020000040801F1
:100000001BFD082002900220039000200490059020
:100010000D20069002A93B48FCF70EFD41F20C00B2
:1000200002900120039000200490059002A9364818
:10003000FCF702FD4FF40050029000200390049062
:1000400002A93A48FCF7F8FC08200290012003902E
:1000500000200490059002A92C48FCF7EDFC4FF419
:1000600000700290022003900020049005900D2063
:10007000069002A92748FCF7DFFC10200290002020
:100080000390049002A91F48FCF7D6FC48F2040034
:10009000029000200390049002A91D48FCF7CCFCBC
:1000A0000220029003900020049005900520069005
:1000B00002A91548FCF7C0FC4FF400500290012043
:1000C000039000200490059002A91148FCF7B4FCAD
:1000D0004FF4BC4002900220039000200490059051
:1000E0000D20069002A90A48FCF7A6FC0120029008
:1000F000022003900020049005900220069017E053
:1001000030380240000C024000200240002802402B
:10011000001C02400018024000100240000402408F
:1001200000000240002402400000121000080240BB
:1001300002A97748FCF780FC4FF4807002900220FF
:1001400003900020049005900120069002A97148B8
:10015000FCF772FC4FF4005002906F4803900020AF
:10016000049002A96A48FCF767FCC02002900220B4
:10017000039000200490032005900820069002A917
:100180006648FCF759FC10200290022003900020E2
:100190000490032005900A20069002A96048FCF70D
:1001A0004BFCC82002900120039000200490059091
:1001B00002A95C48FCF740FC4FF4F8600290032071
:1001C00003900020049002A95748FCF735FC052055
:1001D00002900220039000200490032005900A2042
:1001E000069002A94D48FCF727FC3220029002201D
:1001F000039000200490032005900B20069002A994
:100200004648FCF719FC04200290022003900020CD
:100210000490032005900920069002A94348FCF7AA
:100220000BFC4FF4605002900220039000200490D9
:10023000032005900920069002A93D48FCF7FCFB2D
:100240000420029000200390049002A93548FCF796
:10025000F3FB8620029002200390002004900320EC
:1002600005900B20069002A92A48FCF7E5FB012027
:100270000290032003900020049002A92548FCF777
:10028000DBFB502002900220039000200490059098
:100290000D20069002A91F48FCF7CEFB4FF4C0705A
:1002A0000290122003900120049003200590042066
:1002B000069002A91A48FCF7BFFB282002900220F2
:1002C000039000200490032005900A20069002A9C4
:1002D0001048FCF7B1FB4020029002200390002060
:1002E000049005900920069002A90D48FCF7A4FB94
:1002F0004FF44040029002200390002004900590AB
:100300000520069002A90948FCF796FB07B000BD3E
:1003100000200240000002400000121000080240CD
:10032000001C024000180240001402400004024079
:10033000000C024000B58DB02D48FCF7B0FD2D48F3
:100340002B49086000204860002129488160C16075
:10035000016128214161092181613521C1610B21A0
:10036000016240F21521416240F21B11816240F2AC
:100370003521C16240F21D110163002180F8341063
:1003800080F8351080F83610FCF760FE08B1FBF7F6
:10039000F0FD002000904FF4F070019000200290DA
:1003A0004FF48870039002200490FF2005900020F5
:1003B00006904FF4C06007900720089080070990CE
:1003C0004FF4F0700A904FF488700B9000208DF875
:1003D000300000218DF831108DF83210002269466E
:1003E0000348FCF72DFD08B1FBF7C3FD0DB000BDC0
:1003F00024BF01200068014006480749086000202A
:100400004860002104488160C160016141618161EF
:1004100070470000002C0140E005002008B50020D6
:100420000090012021490860102048600120886068
:100430000020C8604FF6FF721D48FEF7ECF801205F
:10044000FCF796F902201949086010204860012045
:1004500088600020C8604FF6FF721548FEF7DBF891
:10046000032012490860102048600820886000209E
:10047000C8604FF6FF720E48FEF7CDF84FF40C70CF
:10048000009004200949086010204860012088601D
:100490000098C8604FF6FF720548FEF7BCF840F2BE
:1004A00073610348FEF7A3F808BD000040C00120B7
:1004B0000CC0012010B50D480D4908604FF4E13023
:1004C000486000210A488160C16001610C214161DE
:1004D00000218161C161016200200549486208462E
:1004E000FEF733FE08B1FBF744FD10BD00100140DC
:1004F0006406002000BFFEE77047704710B5002378
:10050000234C236000BF00BF00BFBFF34F8F00BF6D
:1005100000BF00BF231F1868C0F34E3100BFC0F3F7
:10052000C90200BF43F6E07303EA41134FF04044B1
:1005300004EA82742343174C236000BF00BF131EDC
:10054000A2F10102EED10B1EA1F10101E7D100BF22
:1005500000BF00BFBFF34F8F00BF00BF00BF0C4BF9
:10056000703B1B6843F48033094C703C236000BF30
:1005700000BF00BFBFF34F8F00BF00BF00BF00BF71
:1005800000BF00BFBFF36F8F00BF00BF00BF10BD33
:1005900084ED00E060EF00E000BF00BF00BFBFF3EC
:1005A0004F8F00BF00BF00BF00BF00BF00BFBFF341
:1005B0006F8F00BF00BF00BF00201449086000BF5C
:1005C00000BF00BFBFF34F8F00BF00BF00BF00BF21
:1005D00000BF00BFBFF36F8F00BF00BF00BF0C485C
:1005E000006840F400300A49086000BF00BF00BF47
:1005F000BFF34F8F00BF00BF00BF00BF00BF00BFF1
:10060000BFF36F8F00BF00BF00BF704750EF00E027
:1006100014ED00E070B586B005460C460026019446
:100620003720029040200390002004904FF4806017
:10063000059001A9284600F0EAFB41F288323721F3
:10064000284600F001FA0646304606B070BD0000AC
:1006500070B586B005460C4600260B482043019035
:100660002920029040200390002004904FF48060E5
:10067000059001A9284600F0CAFB284600F0E4FADC
:100680000646304606B070BD0000108070B586B0DA
:1006900005460C460026019410200290402003904D
:1006A000002004904FF48060059001A9284600F0D6
:1006B000AEFB41F288321021284600F0C5F906460B
:1006C000304606B070BD70B586B005460C460026B3
:1006D00001940620029040200390002004904FF4E3
:1006E0008060059001A9284600F091FB41F2883214
:1006F0000621284600F0A8F90646304606B070BD2F
:1007000030B585B00446002500200090019002908D
:1007100003904FF4806004906946204600F077FB18
:10072000204600F071F90546284605B030BD30B5C9
:1007300085B0044600254FF4D57000900820019044
:1007400040200290002003904FF48060049069469E
:10075000204600F05CFB204600F0F6FA05462846ED
:1007600005B030BD70B586B005460C460026019434
:100770001220029040200390002004904FF48060EB
:10078000059001A9284600F042FB41F2883212216F
:10079000284600F059F90646304606B070BD70B5DF
:1007A00086B005460C460026019411200290402098
:1007B0000390002004904FF48060059001A9284622
:1007C00000F025FB41F288321121284600F03CF967
:1007D0000646304606B070BDF0B585B006461446F4
:1007E0001D46002700940720019040200290002021
:1007F00003904FF4806004906946304600F007FB98
:1008000041F288320721304600F01EF9074638468B
:1008100005B0F0BD30B585B004460025002000903D
:1008200002200190C0200290002003904FF48060CD
:1008300004906946204600F0EAFA204600F0D6F916
:100840000546284605B030BD70B586B005460C4655
:100850000026019409200290C020039000200490FB
:100860004FF48060059001A9284600F0D0FA284690
:1008700000F0BCF90646304606B070BD30B585B014
:100880000446002500200090332001904020029073
:10089000002003904FF4806004906946204600F0E9
:1008A000B6FA41F288323321204600F0CDF80546F1
:1008B000284605B030BD70B586B005460C4600260A
:1008C00001940D20029040200390002004904FF4EA
:1008D0008060059001A9284600F099FA41F288321B
:1008E0000D21284600F0B0F80646304606B070BD2F
:1008F00070B586B005460C46002600200190032006
:10090000029040200390002004904FF480600590F6
:1009100001A9284600F07BFA22460321284600F070
:10092000BBF90646304606B070BD000030B585B054
:1009300004460025002000900C20019040200290E9
:10094000002003904FF4806004906946204600F038
:100950005EFA044A0C21204600F076F80546284647
:1009600005B030BD00E1F50570B586B005460C4612
:10097000002601941920029040200390002004904A
:100980004FF48060059001A9284600F040FA41F23A
:1009900088321921284600F057F80646304606B03E
:1009A00070BD70B586B005460C460026019418202F
:1009B000029040200390002004904FF48060059046
:1009C00001A9284600F023FA41F28832182128466E
:1009D00000F03AF80646304606B070BD10B5024643
:1009E00000230868506248689062D1E902042043FD
:1009F0000C6920434C6920430343D06A20F0F70080
:100A00001843D062002010BD01460E480068C0089F
:100A10004FF47A73B0FBF3F041F2883300FB03F23A
:100A200000BF101EA2F1010202D14FF0004070473A
:100A3000486B00F080000028F3D040F2FF5088633C
:100A40000020F4E7280000202DE9F04105460E467D
:100A5000174664480068C0084FF47A71B0FBF1F0A3
:100A600000FB07F800BFB8F10000A8F1010803D1AE
:100A70004FF00040BDE8F081686B00F045000028B1
:100A8000F1D0686B00F0040010B10420A863F1E716
:100A9000686B00F0010010B10120A863EAE7284666
:100AA00000F07EF9B04201D00120E3E740F2FF50B0
:100AB000A8630021284600F07CF904464A482040FB
:100AC00008B90020D6E704F00040B0F1004F02D191
:100AD0004FF00070CEE704F08040B0F1804F01D1BC
:100AE0004020C7E704F00050B0F1005F01D1802042
:100AF000C0E704F08050B0F1805F02D14FF4807005
:100B0000B8E704F00060B0F1006F02D14FF400705C
:100B1000B0E704F08060B0F1806F02D14FF48060E4
:100B2000A8E704F08070B0F1807F02D14FF400603C
:100B3000A0E704F40000B0F5000F02D14FF480509C
:100B400098E704F48000B0F5800F02D14FF4005014
:100B500090E704F40010B0F5001F02D14FF480407C
:100B600088E704F48010B0F5801F02D14FF40040F4
:100B700080E704F48020B0F5802F02D14FF40030DC
:100B800078E704F40030B0F5003F02D14FF4802044
:100B900070E704F48030B0F5803F02D14FF40020BC
:100BA00068E704F40040B0F5004F02D14FF4801024
:100BB00060E704F48040B0F5804F02D14FF400109C
:100BC00058E704F40050B0F5005F02D14FF4800004
:100BD00050E704F00800082801D100054AE74FF467
:100BE000803047E72800002008E0FFFD0146154857
:100BF0000068C0084FF47A73B0FBF3F041F2883319
:100C000000FB03F200BF101EA2F1010202D14FF05F
:100C100000407047486B00F045000028F3D0486B57
:100C200000F0040010B104208863F2E7486B00F084
:100C3000010010B101208863EBE740F2FF508863A8
:100C40000020E6E728000020014612480068C0089E
:100C50004FF47A73B0FBF3F041F2883300FB03F2F8
:100C600000BF101EA2F1010202D14FF000407047F8
:100C7000486B00F045000028F3D0486B00F00400FA
:100C800010B104208863F2E740F2FF50886300202F
:100C9000EDE70000280000202DE9F04104460E4653
:100CA000174628480068C0084FF47A71B0FBF1F08D
:100CB00041F2883100FB01F800BFB8F10000A8F153
:100CC000010803D14FF00040BDE8F081606B00F0F7
:100CD00045000028F1D0606B00F0040010B1042042
:100CE000A063F1E7606B00F0010010B10120A06388
:100CF000EAE7204600F054F8B04201D00120E3E7D3
:100D000040F2FF50A0630021204600F052F8054653
:100D100005F4604018B9280C38800020D4E705F4A9
:100D20008040B0F5804F02D14FF40050CCE705F47D
:100D30000040B0F5004F02D14FF48050C4E74FF4AB
:100D40008030C1E728000020014614480068C00830
:100D50004FF47A73B0FBF3F041F2883300FB03F2F7
:100D600000BF101EA2F1010202D14FF000407047F7
:100D7000486B00F045000028F3D0486B00F00400F9
:100D800018B1402088630420F1E7486B00F0400070
:100D900008B1402088630020E9E700002800002017
:100DA00001460869C0B270470146086800F00300B8
:100DB000704708B502460020009002F11400084474
:100DC00000900098006808BD0FB410B504460021DB
:100DD000DDE903021043059A1043069A1043079A6F
:100DE0001043089A10430143606847F6FF6290433E
:100DF00008436060002010BC5DF814FB014603202E
:100E00000860002070470146D1F88000704710B597
:100E10000246002308689060D1E901042043CC68B1
:100E200020430C6920430343D0686FF30B00184341
:100E3000D060002010BD02460868C2F88000002083
:100E40007047000010B50446012007490870FAF702
:100E500031FF28B90448007820F0010002490870E9
:100E60000148007810BD0000040000202DE9F04189
:100E700088B004460E460025FBF7F8FE80460027A2
:100E800000200090019008212068FFF7FFFB054635
:100E90001DB1284608B0BDE8F0815022125B110454
:100EA0002068FFF7B7FB05460DB12846F2E74FF083
:100EB000FF3002900820039030200490022005901B
:100EC000002006900120079002A92068FFF786FD08
:100ED0002068FFF7D3FC05460DB12846DAE713E09A
:100EE0002068406B00F4001028B12068FFF78BFFEA
:100EF0004DF827007F1CFBF7B9FEA0EB0800401C53
:100F000010B94FF00040C5E72068406B40F22A411D
:100F100008400028E4D02068406B00F0080018B1B9
:100F2000082021688863B5E72068406B00F0020064
:100F300018B1022021688863ACE72068406B00F09C
:100F4000200018B1202021688863A3E740F2FF50F9
:100F50002168886300980006009901F47F4140EA07
:100F60000120009901F47F0140EA1120009940EA34
:100F70001160706001980006019901F47F4140EA18
:100F80000120019901F47F0140EA1120019940EA12
:100F90001160306000207DE730B58FB00446002539
:100FA000012003902068FFF7FFFE18B94FF0806022
:100FB0000FB030BD606C03281BD02068FFF72AFCFF
:100FC00005460DB12846F3E700212068FFF7F1FE42
:100FD000606704212068FFF7ECFEA0670821206805
:100FE000FFF7E7FEE0670C212068FFF7E2FE8021B3
:100FF0000851606C032807D003A92068FFF778FC2C
:1010000005460DB12846D3E7606C032820D0BDF813
:101010000C1021655022125B11042068FFF714FCAC
:1010200005460DB12846C3E700212068FFF7C1FE41
:10103000606604212068FFF7BCFEA06608212068D6
:10104000FFF7B7FEE0660C212068FFF7B2FE2067CD
:1010500004212068FFF7ADFE010DE16404A92046DC
:10106000FDF74AFB5020005B01040A46002320687C
:10107000FFF7B2FB05460DB1284699E7D4E9041203
:10108000A069CDE90012029094E80F00FFF79CFEE2
:1010900000208DE7F8B504460020009000260027C8
:1010A00000252068FFF72CFB05460DB12846F8BD4A
:1010B0002068FFF73CFB05466DB30021A16425E0E5
:1010C0000098411C00914FF6FF71884202D14FF009
:1010D0008070ECE700212068FFF79CFA054615B107
:1010E0004FF08050E3E700212068FFF7B1FA054692
:1010F00015B14FF08050DAE700212068FFF759FE64
:101100000646012080EAD67080F00107002FD7D074
:101110000020606433E00121A16424E00098411CB8
:1011200000914FF6FF71884202D14FF08070BEE708
:1011300000212068FFF76EFA05460DB12846B6E794
:101140004FF080412068FFF783FA05460DB128462D
:10115000ADE700212068FFF72CFE0646012080EA5B
:10116000D67080F00107002FD8D006F08040B0F193
:10117000804F02D10120606401E000206064002003
:1011800095E770B504460D46002615B94FF000608E
:1011900070BD5022125B11042068FFF78CFB0646DD
:1011A0000EB13046F4E700212068FFF702FE286008
:1011B0000020EDE77CB5044600200090019000255A
:1011C00000212068FFF7F5FD00F00070B0F1007F0E
:1011D00002D14FF400607CBD69462046FFF746FE11
:1011E00005460DB12846F6E7019800F4803098B125
:1011F0005022125B11042068FFF70CFA05460DB16E
:101200002846E8E700212068FFF75DFA05460DB1A2
:101210002846E0E70020DEE74FF08060DBE77CB5A2
:101220000446002000900190002500212068FFF76F
:10123000C0FD00F00070B0F1007F02D14FF40060FB
:101240007CBD69462046FFF711FE05460DB12846D4
:10125000F6E7019800F4802098B15022125B110447
:101260002068FFF7D7F905460DB12846E8E70221C7
:101270002068FFF728FA05460DB12846E0E7002070
:10128000DEE74FF08060DBE710B504460120064939
:101290000870FAF71BFD20B92046FFF7D3FD02497D
:1012A00008700148007810BD04000020F0B589B036
:1012B00007460D46144601261648007800F0010046
:1012C00010B1032009B0F0BD35B1012D06D0022DBB
:1012D0000BD0032D18D10FE0002617E001A8FAF774
:1012E000DFFC07982060002610E001A8FAF7D8FC80
:1012F00008982080002609E001A8FAF7D1FC089898
:10130000400A2060002601E0042600BF00BF3046EE
:10131000D8E70000040000202DE9F04180460C468B
:1013200015461E460127BB1E324629462046FAF7BF
:10133000F1FC28B900BFFAF7BDFC0028FBD100275B
:101340003846BDE8F08110B504462046FFF77AFD27
:1013500010BD2DE9F04180460C4615461E4601277A
:10136000BB1E324629462046FAF7ECFC28B900BFDE
:10137000FAF7A0FC0028FBD100273846BDE8F08131
:101380007047000000B5B3B0302127A8EEF791FFF9
:10139000142122A8EEF78DFF842101A8EEF789FF22
:1013A00000BF3448006840F0805032490860084669
:1013B000006800F08050009000BF00BF00BF2E48C2
:1013C000006840F440402C4908600846006800F47A
:1013D0004040009000BF00BF0120279000042890EB
:1013E00002202D90410527A8C161192101624FF407
:1013F000D8714162022181620921C162FCF778FE45
:1014000008B1FAF7B6FDFCF753F908B1FAF7B1FDE8
:101410000F20229002202390002024904FF4A0500F
:1014200025904FF480502690072122A8FCF7F8FC65
:1014300008B1FAF79EFD114801904FF4C070069074
:1014400005210891022107910321099101200B90A8
:1014500040040C90002012904FF00060209000207B
:10146000219001A8FCF76CF908B1FAF782FD33B0BE
:1014700000BD000040380240007000404800A0005D
:101480001448006840F4700012490860124800686F
:1014900040F001001049086000200F490831086041
:1014A0000D4800680D4908400B4908600C48091DAB
:1014B0000860081F006820F48020091F08600020D1
:1014C00005490C3108604FF000600249803908601E
:1014D0007047000088ED00E000380240FFFFF6FE94
:1014E0001030002410B50248FDF743FD10BD000088
:1014F000E406002010B50268294B98420ED0B0F1E6
:10150000804F0BD0274B984208D0274B984205D0EC
:10151000264B984202D0264B984203D122F070020B
:101520004B681A431E4B984220D0B0F1804F1DD01B
:101530001C4B98421AD01C4B984217D01B4B984218
:1015400014D01B4B984211D01A4B98420ED01A4B14
:1015500098420BD0194B984208D0194B984205D0AD
:10156000184B984202D0184B984203D122F4407293
:10157000CB681A4322F080034C6943EA04020260FC
:101580008B68C3620B688362054B984202D0084B9C
:10159000984201D10B6903630123436110BD000030
:1015A000000001400004004000080040000C004022
:1015B0000004014000400140004401400048014057
:1015C00000180040001C0040002000400021014A9B
:1015D000117070471400002090F8241001F00101F0
:1015E00039B10168496821F40031826A1143026807
:1015F000516090F8241001F00201022907D101681E
:10160000496821F48031C26A11430268516090F840
:10161000241001F00401042907D10168496821F46C
:101620008021026B11430268516090F8241001F090
:101630000801082907D10168496821F40041426B7B
:1016400011430268516090F8241001F01001102934
:1016500007D10168896821F48051826B11430268C7
:10166000916090F8241001F02001202907D1016831
:10167000896821F40051C26B11430268916090F8AF
:10168000241001F04001402913D10168496821F478
:101690008011026C114302685160016CB1F5801F2A
:1016A00007D10168496821F4C001426C1143026806
:1016B000516090F8241001F08001802907D1016861
:1016C000496821F40021826C11430268516070471F
:1016D00038B504460020E067FBF7C8FA05462068E5
:1016E000006800F0080008280CD16FF07E402B46FF
:1016F00000224FF400110090204600F0DFF908B1FD
:10170000032038BD20206067A06700BF002084F858
:10171000700000BF00BFF4E72DE9F0470446002643
:10172000B1462169A068084361690843E16940EA5C
:10173000010720680068D5490840384321680860DF
:101740002068406820F44050E16808432168486000
:10175000A769206A07432068806820F43060384316
:101760002168886000BFCA492068884216D1C948EC
:10177000006800F0030030B1012808D0022804D02E
:10178000032808D105E0012507E0022505E004252E
:1017900003E0082501E0102500BFC9E0BE4920682C
:1017A000884216D1BB48006800F00C0030B1042814
:1017B00008D0082804D00C2808D105E0002507E04F
:1017C000022505E0042503E0082501E0102500BFFF
:1017D000AEE0B2492068884216D1AE48006800F0F9
:1017E000300030B1102808D0202804D0302808D18B
:1017F00005E0002507E0022505E0042503E00825B3
:1018000001E0102500BF93E0A5492068884216D169
:10181000A048006800F0C00030B1402808D08028FF
:1018200004D0C02808D105E0002507E0022505E026
:10183000042503E0082501E0102500BF78E0994960
:101840002068884219D19348006800F4407048B17C
:10185000B0F5807F0AD0B0F5007F05D0B0F5407FAD
:1018600008D105E0002507E0022505E0042503E096
:10187000082501E0102500BF5AE08B492068884206
:1018800019D18448006800F4406048B1B0F5806F19
:101890000AD0B0F5006F05D0B0F5406F08D105E073
:1018A000012507E0022505E0042503E0082501E005
:1018B000102500BF3CE07D492068884219D1754859
:1018C000006800F4405048B1B0F5805F0AD0B0F530
:1018D000005F05D0B0F5405F08D105E0002507E0C6
:1018E000022505E0042503E0082501E0102500BFDE
:1018F0001EE06F492068884219D16648006800F4EC
:10190000404048B1B0F5804F0AD0B0F5004F05D047
:10191000B0F5404F08D105E0002507E0022505E0BD
:10192000042503E0082501E0102500BF00E0102594
:1019300000BFE069B0F5004F57D1042D28D005DC79
:101940004DB1012D11D0022D36D118E0082D29D02E
:10195000102D31D131E0FCF753FB4000616800EB02
:101960005100B0FBF1F086B22AE0FCF759FB4000D1
:10197000616800EB5100B0FBF1F086B220E04D4908
:10198000606801EB50006168B0FBF1F086B217E0CF
:10199000FCF756FB4000616800EB5100B0FBF1F032
:1019A00086B20DE04FF48031606801EB5000616851
:1019B000B0FBF1F086B203E000BF4FF0010900BFB9
:1019C00000BF102E0ED3B6F5803F0BD24FF6F0704D
:1019D00006EA0008C6F3420048EA00082068C0F89A
:1019E0000C804DE04FF001094AE0042D26D005DCC3
:1019F0004DB1012D10D0022D33D116E0082D26D087
:101A0000102D2ED12EE0FCF7FBFA616800EB51009F
:101A1000B0FBF1F086B228E0FCF702FB616800EB56
:101A20005100B0FBF1F086B21FE02349606801EB82
:101A300050006168B0FBF1F086B216E0FCF700FBE5
:101A4000616800EB5100B0FBF1F086B20DE04FF49D
:101A50000041606801EB50006168B0FBF1F086B2B4
:101A600003E000BF4FF0010900BF00BF102E05D3F7
:101A7000B6F5803F02D22068C66001E04FF0010950
:101A80000020206660664846BDE8F087F369FFEFF6
:101A900000100140903802400044004000480040DF
:101AA000004C00400050004000140140007800400D
:101AB000007C00400048E8010024F4002DE9F041DA
:101AC00004460D4617469846069E1FE0701CE8B176
:101AD000FBF7CCF8A0EB0800B04200D8B6B92068FC
:101AE000006820F4D070216808602068806820F0C9
:101AF00001002168886020206067A06700BF002087
:101B000084F8700000BF0320BDE8F0812068C06940
:101B10002840A84201D1012000E00020B842D5D0E1
:101B20000020F1E700BFFEE7F8B504460D46164673
:101B30001F4603203B46324629460090204600F0CF
:101B400039F8F8BDF8B504460D4616461F46042080
:101B50003B46324629460090204600F02BF8F8BD5F
:101B6000F8B504460D4616461F4602203B4632464F
:101B700029460090204600F01DF8F8BDF8B504464F
:101B80000D4616461F4600203B4632462946009029
:101B9000204600F00FF8F8BDF8B504460D4616468D
:101BA0001F4600203B46324629460090204600F062
:101BB00001F8F8BD2DE9F84305460E46144698464F
:101BC000089F3B46002231462846009400F002F868
:101BD000BDE8F8832DE9F04104460D4616461F4640
:101BE000DDF8188000F05CF801200F4908704FF410
:101BF00081300E4908600846C460C5630020086152
